{
  "_format": "hh-sol-artifact-1",
  "contractName": "DAO",
  "sourceName": "contracts/Dao.sol",
  "abi": [
    {
      "inputs": [
        {
          "internalType": "address",
          "name": "_tokenAddress",
          "type": "address"
        }
      ],
      "stateMutability": "nonpayable",
      "type": "constructor"
    },
    {
      "anonymous": false,
      "inputs": [
        {
          "indexed": true,
          "internalType": "address",
          "name": "previousOwner",
          "type": "address"
        },
        {
          "indexed": true,
          "internalType": "address",
          "name": "newOwner",
          "type": "address"
        }
      ],
      "name": "OwnershipTransferred",
      "type": "event"
    },
    {
      "anonymous": false,
      "inputs": [
        {
          "indexed": false,
          "internalType": "uint256",
          "name": "id",
          "type": "uint256"
        },
        {
          "indexed": false,
          "internalType": "string",
          "name": "title",
          "type": "string"
        }
      ],
      "name": "ProposalCreated",
      "type": "event"
    },
    {
      "anonymous": false,
      "inputs": [
        {
          "indexed": false,
          "internalType": "uint256",
          "name": "proposalId",
          "type": "uint256"
        },
        {
          "indexed": false,
          "internalType": "address",
          "name": "voter",
          "type": "address"
        },
        {
          "indexed": false,
          "internalType": "bool",
          "name": "support",
          "type": "bool"
        },
        {
          "indexed": false,
          "internalType": "bool",
          "name": "abstain",
          "type": "bool"
        }
      ],
      "name": "Voted",
      "type": "event"
    },
    {
      "inputs": [],
      "name": "PROPOSAL_DURATION",
      "outputs": [
        {
          "internalType": "uint256",
          "name": "",
          "type": "uint256"
        }
      ],
      "stateMutability": "view",
      "type": "function"
    },
    {
      "inputs": [
        {
          "internalType": "uint256",
          "name": "",
          "type": "uint256"
        }
      ],
      "name": "allProposals",
      "outputs": [
        {
          "internalType": "uint256",
          "name": "id",
          "type": "uint256"
        },
        {
          "internalType": "string",
          "name": "title",
          "type": "string"
        },
        {
          "internalType": "string",
          "name": "description",
          "type": "string"
        },
        {
          "internalType": "uint256",
          "name": "forVotes",
          "type": "uint256"
        },
        {
          "internalType": "uint256",
          "name": "againstVotes",
          "type": "uint256"
        },
        {
          "internalType": "uint256",
          "name": "abstainVotes",
          "type": "uint256"
        },
        {
          "internalType": "bool",
          "name": "executed",
          "type": "bool"
        },
        {
          "internalType": "bool",
          "name": "passed",
          "type": "bool"
        },
        {
          "internalType": "address",
          "name": "proposer",
          "type": "address"
        },
        {
          "internalType": "address",
          "name": "recipient",
          "type": "address"
        },
        {
          "internalType": "uint256",
          "name": "amount",
          "type": "uint256"
        }
      ],
      "stateMutability": "view",
      "type": "function"
    },
    {
      "inputs": [],
      "name": "closeVoting",
      "outputs": [],
      "stateMutability": "nonpayable",
      "type": "function"
    },
    {
      "inputs": [
        {
          "internalType": "string",
          "name": "_title",
          "type": "string"
        },
        {
          "internalType": "string",
          "name": "_description",
          "type": "string"
        },
        {
          "internalType": "address",
          "name": "_recipient",
          "type": "address"
        },
        {
          "internalType": "uint256",
          "name": "_amount",
          "type": "uint256"
        }
      ],
      "name": "createProposal",
      "outputs": [],
      "stateMutability": "nonpayable",
      "type": "function"
    },
    {
      "inputs": [
        {
          "internalType": "uint256[]",
          "name": "_proposalIds",
          "type": "uint256[]"
        }
      ],
      "name": "executeMultipleProposals",
      "outputs": [],
      "stateMutability": "nonpayable",
      "type": "function"
    },
    {
      "inputs": [
        {
          "internalType": "uint256",
          "name": "_proposalId",
          "type": "uint256"
        }
      ],
      "name": "executeProposal",
      "outputs": [],
      "stateMutability": "nonpayable",
      "type": "function"
    },
    {
      "inputs": [],
      "name": "executive",
      "outputs": [
        {
          "internalType": "bool",
          "name": "",
          "type": "bool"
        }
      ],
      "stateMutability": "view",
      "type": "function"
    },
    {
      "inputs": [
        {
          "internalType": "uint256",
          "name": "_proposalId",
          "type": "uint256"
        }
      ],
      "name": "getProposal",
      "outputs": [
        {
          "components": [
            {
              "internalType": "uint256",
              "name": "id",
              "type": "uint256"
            },
            {
              "internalType": "string",
              "name": "title",
              "type": "string"
            },
            {
              "internalType": "string",
              "name": "description",
              "type": "string"
            },
            {
              "internalType": "uint256",
              "name": "forVotes",
              "type": "uint256"
            },
            {
              "internalType": "uint256",
              "name": "againstVotes",
              "type": "uint256"
            },
            {
              "internalType": "uint256",
              "name": "abstainVotes",
              "type": "uint256"
            },
            {
              "internalType": "bool",
              "name": "executed",
              "type": "bool"
            },
            {
              "internalType": "bool",
              "name": "passed",
              "type": "bool"
            },
            {
              "internalType": "address",
              "name": "proposer",
              "type": "address"
            },
            {
              "internalType": "address",
              "name": "recipient",
              "type": "address"
            },
            {
              "internalType": "uint256",
              "name": "amount",
              "type": "uint256"
            }
          ],
          "internalType": "struct Proposal.ProposalDetails",
          "name": "",
          "type": "tuple"
        }
      ],
      "stateMutability": "view",
      "type": "function"
    },
    {
      "inputs": [],
      "name": "governanceToken",
      "outputs": [
        {
          "internalType": "contract GovernanceToken",
          "name": "",
          "type": "address"
        }
      ],
      "stateMutability": "view",
      "type": "function"
    },
    {
      "inputs": [],
      "name": "owner",
      "outputs": [
        {
          "internalType": "address",
          "name": "",
          "type": "address"
        }
      ],
      "stateMutability": "view",
      "type": "function"
    },
    {
      "inputs": [],
      "name": "recoverUnexecutedProposals",
      "outputs": [],
      "stateMutability": "nonpayable",
      "type": "function"
    },
    {
      "inputs": [],
      "name": "renounceOwnership",
      "outputs": [],
      "stateMutability": "nonpayable",
      "type": "function"
    },
    {
      "inputs": [],
      "name": "token",
      "outputs": [
        {
          "internalType": "contract IToken",
          "name": "",
          "type": "address"
        }
      ],
      "stateMutability": "view",
      "type": "function"
    },
    {
      "inputs": [
        {
          "internalType": "address",
          "name": "newOwner",
          "type": "address"
        }
      ],
      "name": "transferOwnership",
      "outputs": [],
      "stateMutability": "nonpayable",
      "type": "function"
    },
    {
      "inputs": [
        {
          "internalType": "uint256",
          "name": "_proposalId",
          "type": "uint256"
        },
        {
          "internalType": "bool",
          "name": "_support",
          "type": "bool"
        },
        {
          "internalType": "bool",
          "name": "_abstain",
          "type": "bool"
        }
      ],
      "name": "vote",
      "outputs": [],
      "stateMutability": "nonpayable",
      "type": "function"
    },
    {
      "inputs": [
        {
          "internalType": "uint256",
          "name": "",
          "type": "uint256"
        },
        {
          "internalType": "address",
          "name": "",
          "type": "address"
        }
      ],
      "name": "voters",
      "outputs": [
        {
          "internalType": "bool",
          "name": "",
          "type": "bool"
        }
      ],
      "stateMutability": "view",
      "type": "function"
    }
  ],
  "bytecode": "0x60806040523480156200001157600080fd5b5060405162001b8138038062001b818339810160408190526200003491620000ed565b600280546001600160a01b0319166001600160a01b038316179055620000616200005b3390565b6200009b565b6003805460ff60a01b1916600160a01b179055600480546001600160a01b039092166001600160a01b03199092169190911790556200011f565b600380546001600160a01b038381166001600160a01b0319831681179093556040519116919082907f8be0079c531659141344cd1fd0a4f28419497f9722a3daafe3b4186f6b6457e090600090a35050565b6000602082840312156200010057600080fd5b81516001600160a01b03811681146200011857600080fd5b9392505050565b611a52806200012f6000396000f3fe608060405234801561001057600080fd5b50600436106101005760003560e01c80639e31906311610097578063df133bca11610066578063df133bca14610236578063f2fde38b14610249578063f96dae0a1461025c578063fc0c546a1461026f57600080fd5b80639e319063146101cd578063c631b292146101fb578063c7f758a814610203578063d95f48961461022357600080fd5b80637cdc2eb7116100d35780637cdc2eb7146101535780637f097010146101665780638da5cb5b1461017e578063938351b8146101a357600080fd5b80630d61b5191461010557806340fa6d2d1461011a5780636e6f45e014610143578063715018a61461014b575b600080fd5b610118610113366004611538565b610282565b005b60035461012e90600160a01b900460ff1681565b60405190151581526020015b60405180910390f35b6101186104bb565b610118610596565b6101186101613660046115b6565b6105aa565b61017062093a8081565b60405190815260200161013a565b6003546001600160a01b03165b6040516001600160a01b03909116815260200161013a565b6101b66101b1366004611538565b610952565b60405161013a9b9a9998979695949392919061168c565b61012e6101db36600461170a565b600160209081526000928352604080842090915290825290205460ff1681565b610118610ae0565b610216610211366004611538565b610bf8565b60405161013a9190611736565b61011861023136600461180f565b610e86565b610118610244366004611894565b610f26565b6101186102573660046118d0565b61137d565b60045461018b906001600160a01b031681565b60025461018b906001600160a01b031681565b6000808281548110610296576102966118f2565b90600052602060002090600902019050600360149054906101000a900460ff166103015760405162461bcd60e51b81526020600482015260176024820152762630903b37ba30bd34b7b7329032939031b434bab9b09760491b60448201526064015b60405180910390fd5b600681015460ff16156103505760405162461bcd60e51b8152602060048201526017602482015276283937b837b9ba309033b4b0939032b9b2b3bab4ba309760491b60448201526064016102f8565b600081600501548260040154836003015461036b919061191e565b610375919061191e565b9050600081116103c75760405162461bcd60e51b815260206004820152601760248201527f4e657373756e20766f746f207265676973747261746f2e00000000000000000060448201526064016102f8565b600081836003015460646103db9190611936565b6103e59190611955565b90506032811061049a5760068301805461ff00191661010017905560078301546001600160a01b031615801590610420575060008360080154115b156104955760048054600785015460088601546040516340c10f1960e01b81526001600160a01b0392831694810194909452602484015216906340c10f1990604401600060405180830381600087803b15801561047c57600080fd5b505af1158015610490573d6000803e3d6000fd5b505050505b6104a8565b60068301805461ff00191690555b5050600601805460ff1916600117905550565b60005b60005481101561059357600081815481106104db576104db6118f2565b600091825260209091206006600990920201015460ff16158015610502575062093a804210155b156105815760016000828154811061051c5761051c6118f2565b906000526020600020906009020160060160006101000a81548160ff0219169083151502179055506000808281548110610558576105586118f2565b906000526020600020906009020160060160016101000a81548160ff0219169083151502179055505b8061058b81611977565b9150506104be565b50565b61059e6113f3565b6105a8600061144d565b565b826106055760405162461bcd60e51b815260206004820152602560248201527f4c61206465736372697a696f6e65206e6f6e2070756f272065737365726520766044820152643ab7ba309760d91b60648201526084016102f8565b6002546040516370a0823160e01b81523360048201526000916001600160a01b0316906370a082319060240160206040518083038186803b15801561064957600080fd5b505afa15801561065d573d6000803e3d6000fd5b505050506040513d601f19601f820116820180604052508101906106819190611992565b116106dd5760405162461bcd60e51b815260206004820152602660248201527f536f6c6f2069206d656d62726920706f73736f6e6f206372656172652070726f6044820152653837b9ba329760d11b60648201526084016102f8565b6001600160a01b0382161561074c576000811161074c5760405162461bcd60e51b815260206004820152602760248201527f4c27696d706f72746f206465766520657373657265206d616767696f7265206460448201526634903d32b9379760c91b60648201526084016102f8565b600080805490509050600060405180610160016040528083815260200189898080601f016020809104026020016040519081016040528093929190818152602001838380828437600092019190915250505090825250604080516020601f8a01819004810282018101909252888152918101919089908990819084018382808284376000920182905250938552505050602080830182905260408301829052606083018290526080830182905260a083018290523360c08401526001600160a01b03881660e0840152610100909201869052835460018181018655948252908290208351600990920201908155828201518051939491936108559392850192919091019061149f565b506040820151805161087191600284019160209091019061149f565b50606082015160038201556080820151600482015560a0820151600582015560c082015160068201805460e08501516101008087015161ffff1990931694151561ff001916949094179015159093029290921762010000600160b01b031916620100006001600160a01b03938416021790556101208301516007830180546001600160a01b03191691909216179055610140909101516008909101556040517f9c770c289ab5bf7e57cb1d23c8ceae993aea46eb64847072fd3d78ca60d3e432906109419083908a908a906119ab565b60405180910390a150505050505050565b6000818154811061096257600080fd5b60009182526020909120600990910201805460018201805491935090610987906119e1565b80601f01602080910402602001604051908101604052809291908181526020018280546109b3906119e1565b8015610a005780601f106109d557610100808354040283529160200191610a00565b820191906000526020600020905b8154815290600101906020018083116109e357829003601f168201915b505050505090806002018054610a15906119e1565b80601f0160208091040260200160405190810160405280929190818152602001828054610a41906119e1565b8015610a8e5780601f10610a6357610100808354040283529160200191610a8e565b820191906000526020600020905b815481529060010190602001808311610a7157829003601f168201915b505050506003830154600484015460058501546006860154600787015460089097015495969395929450909260ff808316936101008404909116926201000090046001600160a01b039081169216908b565b610ae86113f3565b600354600160a01b900460ff16610b415760405162461bcd60e51b815260206004820152601c60248201527f4c6120766f74617a696f6e652065272067696127206368697573612e0000000060448201526064016102f8565b60005b600054811015610be85760008181548110610b6157610b616118f2565b600091825260209091206006600990920201015460ff16610bd65760405162461bcd60e51b815260206004820152602960248201527f5475747465206c652070726f706f737465206465766f6e6f206573736572652060448201526832b9b2b3bab4ba329760b91b60648201526084016102f8565b80610be081611977565b915050610b44565b506003805460ff60a01b19169055565b610c6b60405180610160016040528060008152602001606081526020016060815260200160008152602001600081526020016000815260200160001515815260200160001515815260200160006001600160a01b0316815260200160006001600160a01b03168152602001600081525090565b6000548210610cbc5760405162461bcd60e51b815260206004820152601760248201527f50726f706f737461206e6f6e206573697374656e74652e00000000000000000060448201526064016102f8565b60008281548110610ccf57610ccf6118f2565b90600052602060002090600902016040518061016001604052908160008201548152602001600182018054610d03906119e1565b80601f0160208091040260200160405190810160405280929190818152602001828054610d2f906119e1565b8015610d7c5780601f10610d5157610100808354040283529160200191610d7c565b820191906000526020600020905b815481529060010190602001808311610d5f57829003601f168201915b50505050508152602001600282018054610d95906119e1565b80601f0160208091040260200160405190810160405280929190818152602001828054610dc1906119e1565b8015610e0e5780601f10610de357610100808354040283529160200191610e0e565b820191906000526020600020905b815481529060010190602001808311610df157829003601f168201915b5050509183525050600382015460208201526004820154604082015260058201546060820152600682015460ff80821615156080840152610100808304909116151560a0840152620100009091046001600160a01b0390811660c084015260078401541660e083015260089092015491015292915050565b600a811115610ee35760405162461bcd60e51b8152602060048201526024808201527f4d617373696d6f2031302070726f706f73746520706572207472616e73617a6960448201526337b7329760e11b60648201526084016102f8565b60005b81811015610f2157610f0f838383818110610f0357610f036118f2565b90506020020135610282565b80610f1981611977565b915050610ee6565b505050565b600480546040516370a0823160e01b815233928101929092526000916001600160a01b03909116906370a082319060240160206040518083038186803b158015610f6f57600080fd5b505afa158015610f83573d6000803e3d6000fd5b505050506040513d601f19601f82011682018060405250810190610fa79190611992565b116110005760405162461bcd60e51b8152602060048201526024808201527f4465766920706f737365646572652064656920746f6b656e2070657220766f7460448201526330b9329760e11b60648201526084016102f8565b600354600160a01b900460ff166110535760405162461bcd60e51b81526020600482015260176024820152762630903b37ba30bd34b7b7329032939031b434bab9b09760491b60448201526064016102f8565b6000808481548110611067576110676118f2565b60009182526020909120600990910201600681015490915060ff16156110c95760405162461bcd60e51b8152602060048201526017602482015276283937b837b9ba309033b4b0939032b9b2b3bab4ba309760491b60448201526064016102f8565b600084815260016020908152604080832033845290915290205460ff161561113f5760405162461bcd60e51b815260206004820152602360248201527f486169206769612720766f7461746f207375207175657374612070726f706f736044820152623a309760e91b60648201526084016102f8565b81156111df57600480546040516370a0823160e01b815233928101929092526001600160a01b0316906370a082319060240160206040518083038186803b15801561118957600080fd5b505afa15801561119d573d6000803e3d6000fd5b505050506040513d601f19601f820116820180604052508101906111c19190611992565b8160050160008282546111d4919061191e565b909155506113099050565b821561127457600480546040516370a0823160e01b815233928101929092526001600160a01b0316906370a082319060240160206040518083038186803b15801561122957600080fd5b505afa15801561123d573d6000803e3d6000fd5b505050506040513d601f19601f820116820180604052508101906112619190611992565b8160030160008282546111d4919061191e565b600480546040516370a0823160e01b815233928101929092526001600160a01b0316906370a082319060240160206040518083038186803b1580156112b857600080fd5b505afa1580156112cc573d6000803e3d6000fd5b505050506040513d601f19601f820116820180604052508101906112f09190611992565b816004016000828254611303919061191e565b90915550505b60008481526001602081815260408084203380865290835293819020805460ff1916909317909255815187815290810192909252841515828201528315156060830152517ffcd5a26135e0384542a415b85093cd1104ae7cdb3beb54c2a52e849120726b8c9181900360800190a150505050565b6113856113f3565b6001600160a01b0381166113ea5760405162461bcd60e51b815260206004820152602660248201527f4f776e61626c653a206e6577206f776e657220697320746865207a65726f206160448201526564647265737360d01b60648201526084016102f8565b6105938161144d565b6003546001600160a01b031633146105a85760405162461bcd60e51b815260206004820181905260248201527f4f776e61626c653a2063616c6c6572206973206e6f7420746865206f776e657260448201526064016102f8565b600380546001600160a01b038381166001600160a01b0319831681179093556040519116919082907f8be0079c531659141344cd1fd0a4f28419497f9722a3daafe3b4186f6b6457e090600090a35050565b8280546114ab906119e1565b90600052602060002090601f0160209004810192826114cd5760008555611513565b82601f106114e657805160ff1916838001178555611513565b82800160010185558215611513579182015b828111156115135782518255916020019190600101906114f8565b5061151f929150611523565b5090565b5b8082111561151f5760008155600101611524565b60006020828403121561154a57600080fd5b5035919050565b60008083601f84011261156357600080fd5b50813567ffffffffffffffff81111561157b57600080fd5b60208301915083602082850101111561159357600080fd5b9250929050565b80356001600160a01b03811681146115b157600080fd5b919050565b600080600080600080608087890312156115cf57600080fd5b863567ffffffffffffffff808211156115e757600080fd5b6115f38a838b01611551565b9098509650602089013591508082111561160c57600080fd5b5061161989828a01611551565b909550935061162c90506040880161159a565b9150606087013590509295509295509295565b6000815180845260005b8181101561166557602081850181015186830182015201611649565b81811115611677576000602083870101525b50601f01601f19169290920160200192915050565b60006101608d83528060208401526116a68184018e61163f565b905082810360408401526116ba818d61163f565b606084019b909b525050608081019790975260a087019590955292151560c086015290151560e08501526001600160a01b0390811661010085015216610120830152610140909101529392505050565b6000806040838503121561171d57600080fd5b8235915061172d6020840161159a565b90509250929050565b60208152815160208201526000602083015161016080604085015261175f61018085018361163f565b91506040850151601f1985840301606086015261177c838261163f565b92505060608501516080850152608085015160a085015260a085015160c085015260c08501516117b060e086018215159052565b5060e08501516101006117c68187018315159052565b86015190506101206117e2868201836001600160a01b03169052565b86015190506101406117fe868201836001600160a01b03169052565b959095015193019290925250919050565b6000806020838503121561182257600080fd5b823567ffffffffffffffff8082111561183a57600080fd5b818501915085601f83011261184e57600080fd5b81358181111561185d57600080fd5b8660208260051b850101111561187257600080fd5b60209290920196919550909350505050565b803580151581146115b157600080fd5b6000806000606084860312156118a957600080fd5b833592506118b960208501611884565b91506118c760408501611884565b90509250925092565b6000602082840312156118e257600080fd5b6118eb8261159a565b9392505050565b634e487b7160e01b600052603260045260246000fd5b634e487b7160e01b600052601160045260246000fd5b6000821982111561193157611931611908565b500190565b600081600019048311821515161561195057611950611908565b500290565b60008261197257634e487b7160e01b600052601260045260246000fd5b500490565b600060001982141561198b5761198b611908565b5060010190565b6000602082840312156119a457600080fd5b5051919050565b83815260406020820152816040820152818360608301376000818301606090810191909152601f909201601f1916010192915050565b600181811c908216806119f557607f821691505b60208210811415611a1657634e487b7160e01b600052602260045260246000fd5b5091905056fea2646970667358221220af69d961f93a0aafa7c07683e9fb5a44fcc9f48e34496030b9c48f358be8828764736f6c63430008090033",
  "linkReferences": {},
  "deployedLinkReferences": {}
}