{
  "_format": "hh-sol-artifact-1",
  "contractName": "DnAContentMarketplace",
  "sourceName": "contracts/DnAContentMarketplace.sol",
  "abi": [
    {
      "inputs": [
        {
          "internalType": "address",
          "name": "_nftContract",
          "type": "address"
        }
      ],
      "stateMutability": "nonpayable",
      "type": "constructor"
    },
    {
      "anonymous": false,
      "inputs": [
        {
          "indexed": true,
          "internalType": "uint256",
          "name": "tokenId",
          "type": "uint256"
        },
        {
          "indexed": true,
          "internalType": "address",
          "name": "winner",
          "type": "address"
        },
        {
          "indexed": false,
          "internalType": "uint256",
          "name": "winningBid",
          "type": "uint256"
        },
        {
          "indexed": false,
          "internalType": "uint256",
          "name": "timestamp",
          "type": "uint256"
        }
      ],
      "name": "AuctionEnded",
      "type": "event"
    },
    {
      "anonymous": false,
      "inputs": [
        {
          "indexed": true,
          "internalType": "uint256",
          "name": "tokenId",
          "type": "uint256"
        },
        {
          "indexed": true,
          "internalType": "address",
          "name": "seller",
          "type": "address"
        },
        {
          "indexed": false,
          "internalType": "uint256",
          "name": "minPrice",
          "type": "uint256"
        },
        {
          "indexed": false,
          "internalType": "uint256",
          "name": "startTime",
          "type": "uint256"
        },
        {
          "indexed": false,
          "internalType": "uint256",
          "name": "endTime",
          "type": "uint256"
        }
      ],
      "name": "AuctionStarted",
      "type": "event"
    },
    {
      "anonymous": false,
      "inputs": [
        {
          "indexed": true,
          "internalType": "uint256",
          "name": "tokenId",
          "type": "uint256"
        },
        {
          "indexed": true,
          "internalType": "address",
          "name": "recipient",
          "type": "address"
        },
        {
          "indexed": false,
          "internalType": "uint256",
          "name": "timestamp",
          "type": "uint256"
        }
      ],
      "name": "NFTClaimed",
      "type": "event"
    },
    {
      "anonymous": false,
      "inputs": [
        {
          "indexed": true,
          "internalType": "uint256",
          "name": "tokenId",
          "type": "uint256"
        },
        {
          "indexed": true,
          "internalType": "address",
          "name": "seller",
          "type": "address"
        },
        {
          "indexed": false,
          "internalType": "uint256",
          "name": "price",
          "type": "uint256"
        },
        {
          "indexed": false,
          "internalType": "uint256",
          "name": "timestamp",
          "type": "uint256"
        }
      ],
      "name": "NFTListedForSale",
      "type": "event"
    },
    {
      "anonymous": false,
      "inputs": [
        {
          "indexed": true,
          "internalType": "uint256",
          "name": "tokenId",
          "type": "uint256"
        },
        {
          "indexed": true,
          "internalType": "address",
          "name": "seller",
          "type": "address"
        },
        {
          "indexed": true,
          "internalType": "address",
          "name": "buyer",
          "type": "address"
        },
        {
          "indexed": false,
          "internalType": "uint256",
          "name": "price",
          "type": "uint256"
        },
        {
          "indexed": false,
          "internalType": "uint256",
          "name": "protocolFee",
          "type": "uint256"
        },
        {
          "indexed": false,
          "internalType": "uint256",
          "name": "timestamp",
          "type": "uint256"
        }
      ],
      "name": "NFTPurchased",
      "type": "event"
    },
    {
      "anonymous": false,
      "inputs": [
        {
          "indexed": true,
          "internalType": "uint256",
          "name": "tokenId",
          "type": "uint256"
        },
        {
          "indexed": true,
          "internalType": "address",
          "name": "seller",
          "type": "address"
        },
        {
          "indexed": false,
          "internalType": "uint256",
          "name": "timestamp",
          "type": "uint256"
        }
      ],
      "name": "NFTSaleRemoved",
      "type": "event"
    },
    {
      "anonymous": false,
      "inputs": [
        {
          "indexed": true,
          "internalType": "uint256",
          "name": "tokenId",
          "type": "uint256"
        },
        {
          "indexed": true,
          "internalType": "address",
          "name": "bidder",
          "type": "address"
        },
        {
          "indexed": false,
          "internalType": "uint256",
          "name": "amount",
          "type": "uint256"
        },
        {
          "indexed": false,
          "internalType": "uint256",
          "name": "timestamp",
          "type": "uint256"
        }
      ],
      "name": "NewBid",
      "type": "event"
    },
    {
      "anonymous": false,
      "inputs": [
        {
          "indexed": true,
          "internalType": "address",
          "name": "oldReceiver",
          "type": "address"
        },
        {
          "indexed": true,
          "internalType": "address",
          "name": "newReceiver",
          "type": "address"
        },
        {
          "indexed": false,
          "internalType": "uint256",
          "name": "timestamp",
          "type": "uint256"
        }
      ],
      "name": "ProtocolFeeReceiverUpdated",
      "type": "event"
    },
    {
      "anonymous": false,
      "inputs": [
        {
          "indexed": false,
          "internalType": "uint256",
          "name": "oldFeeBps",
          "type": "uint256"
        },
        {
          "indexed": false,
          "internalType": "uint256",
          "name": "newFeeBps",
          "type": "uint256"
        },
        {
          "indexed": false,
          "internalType": "uint256",
          "name": "timestamp",
          "type": "uint256"
        }
      ],
      "name": "ProtocolFeeUpdated",
      "type": "event"
    },
    {
      "anonymous": false,
      "inputs": [
        {
          "indexed": true,
          "internalType": "address",
          "name": "to",
          "type": "address"
        },
        {
          "indexed": false,
          "internalType": "uint256",
          "name": "amount",
          "type": "uint256"
        },
        {
          "indexed": false,
          "internalType": "uint256",
          "name": "timestamp",
          "type": "uint256"
        }
      ],
      "name": "ProtocolFeesWithdrawn",
      "type": "event"
    },
    {
      "anonymous": false,
      "inputs": [
        {
          "indexed": true,
          "internalType": "uint256",
          "name": "tokenId",
          "type": "uint256"
        },
        {
          "indexed": true,
          "internalType": "address",
          "name": "bidder",
          "type": "address"
        },
        {
          "indexed": false,
          "internalType": "uint256",
          "name": "amount",
          "type": "uint256"
        },
        {
          "indexed": false,
          "internalType": "uint256",
          "name": "timestamp",
          "type": "uint256"
        }
      ],
      "name": "RefundProcessed",
      "type": "event"
    },
    {
      "anonymous": false,
      "inputs": [
        {
          "indexed": true,
          "internalType": "bytes32",
          "name": "role",
          "type": "bytes32"
        },
        {
          "indexed": true,
          "internalType": "bytes32",
          "name": "previousAdminRole",
          "type": "bytes32"
        },
        {
          "indexed": true,
          "internalType": "bytes32",
          "name": "newAdminRole",
          "type": "bytes32"
        }
      ],
      "name": "RoleAdminChanged",
      "type": "event"
    },
    {
      "anonymous": false,
      "inputs": [
        {
          "indexed": true,
          "internalType": "bytes32",
          "name": "role",
          "type": "bytes32"
        },
        {
          "indexed": true,
          "internalType": "address",
          "name": "account",
          "type": "address"
        },
        {
          "indexed": true,
          "internalType": "address",
          "name": "sender",
          "type": "address"
        }
      ],
      "name": "RoleGranted",
      "type": "event"
    },
    {
      "anonymous": false,
      "inputs": [
        {
          "indexed": true,
          "internalType": "bytes32",
          "name": "role",
          "type": "bytes32"
        },
        {
          "indexed": true,
          "internalType": "address",
          "name": "account",
          "type": "address"
        },
        {
          "indexed": true,
          "internalType": "address",
          "name": "sender",
          "type": "address"
        }
      ],
      "name": "RoleRevoked",
      "type": "event"
    },
    {
      "inputs": [],
      "name": "ADMIN_ROLE",
      "outputs": [
        {
          "internalType": "bytes32",
          "name": "",
          "type": "bytes32"
        }
      ],
      "stateMutability": "view",
      "type": "function"
    },
    {
      "inputs": [],
      "name": "DEFAULT_ADMIN_ROLE",
      "outputs": [
        {
          "internalType": "bytes32",
          "name": "",
          "type": "bytes32"
        }
      ],
      "stateMutability": "view",
      "type": "function"
    },
    {
      "inputs": [],
      "name": "accumulatedFees",
      "outputs": [
        {
          "internalType": "uint256",
          "name": "",
          "type": "uint256"
        }
      ],
      "stateMutability": "view",
      "type": "function"
    },
    {
      "inputs": [
        {
          "internalType": "address",
          "name": "account",
          "type": "address"
        }
      ],
      "name": "addAdmin",
      "outputs": [],
      "stateMutability": "nonpayable",
      "type": "function"
    },
    {
      "inputs": [
        {
          "internalType": "uint256",
          "name": "",
          "type": "uint256"
        },
        {
          "internalType": "uint256",
          "name": "",
          "type": "uint256"
        }
      ],
      "name": "auctionBidders",
      "outputs": [
        {
          "internalType": "address",
          "name": "",
          "type": "address"
        }
      ],
      "stateMutability": "view",
      "type": "function"
    },
    {
      "inputs": [
        {
          "internalType": "uint256",
          "name": "",
          "type": "uint256"
        }
      ],
      "name": "auctions",
      "outputs": [
        {
          "internalType": "address",
          "name": "seller",
          "type": "address"
        },
        {
          "internalType": "uint256",
          "name": "tokenId",
          "type": "uint256"
        },
        {
          "internalType": "uint256",
          "name": "minPrice",
          "type": "uint256"
        },
        {
          "internalType": "uint256",
          "name": "highestBid",
          "type": "uint256"
        },
        {
          "internalType": "address",
          "name": "highestBidder",
          "type": "address"
        },
        {
          "internalType": "uint256",
          "name": "startTime",
          "type": "uint256"
        },
        {
          "internalType": "uint256",
          "name": "endTime",
          "type": "uint256"
        },
        {
          "internalType": "bool",
          "name": "isActive",
          "type": "bool"
        },
        {
          "internalType": "bool",
          "name": "claimed",
          "type": "bool"
        }
      ],
      "stateMutability": "view",
      "type": "function"
    },
    {
      "inputs": [
        {
          "internalType": "uint256",
          "name": "",
          "type": "uint256"
        },
        {
          "internalType": "address",
          "name": "",
          "type": "address"
        }
      ],
      "name": "bidderInfo",
      "outputs": [
        {
          "internalType": "uint256",
          "name": "amount",
          "type": "uint256"
        },
        {
          "internalType": "bool",
          "name": "refunded",
          "type": "bool"
        }
      ],
      "stateMutability": "view",
      "type": "function"
    },
    {
      "inputs": [
        {
          "internalType": "uint256",
          "name": "price",
          "type": "uint256"
        }
      ],
      "name": "calculateProtocolFee",
      "outputs": [
        {
          "internalType": "uint256",
          "name": "",
          "type": "uint256"
        }
      ],
      "stateMutability": "view",
      "type": "function"
    },
    {
      "inputs": [
        {
          "internalType": "uint256",
          "name": "tokenId",
          "type": "uint256"
        }
      ],
      "name": "claimAuction",
      "outputs": [],
      "stateMutability": "nonpayable",
      "type": "function"
    },
    {
      "inputs": [
        {
          "internalType": "uint256",
          "name": "tokenId",
          "type": "uint256"
        }
      ],
      "name": "claimRefund",
      "outputs": [],
      "stateMutability": "nonpayable",
      "type": "function"
    },
    {
      "inputs": [
        {
          "internalType": "uint256",
          "name": "tokenId",
          "type": "uint256"
        }
      ],
      "name": "emergencyRecoverNFT",
      "outputs": [],
      "stateMutability": "nonpayable",
      "type": "function"
    },
    {
      "inputs": [],
      "name": "emergencyWithdraw",
      "outputs": [],
      "stateMutability": "nonpayable",
      "type": "function"
    },
    {
      "inputs": [
        {
          "internalType": "uint256",
          "name": "tokenId",
          "type": "uint256"
        }
      ],
      "name": "endAuction",
      "outputs": [],
      "stateMutability": "nonpayable",
      "type": "function"
    },
    {
      "inputs": [
        {
          "internalType": "uint256",
          "name": "",
          "type": "uint256"
        }
      ],
      "name": "fixedPriceListings",
      "outputs": [
        {
          "internalType": "address",
          "name": "seller",
          "type": "address"
        },
        {
          "internalType": "uint256",
          "name": "tokenId",
          "type": "uint256"
        },
        {
          "internalType": "uint256",
          "name": "price",
          "type": "uint256"
        },
        {
          "internalType": "bool",
          "name": "isActive",
          "type": "bool"
        },
        {
          "internalType": "uint256",
          "name": "listedAt",
          "type": "uint256"
        }
      ],
      "stateMutability": "view",
      "type": "function"
    },
    {
      "inputs": [
        {
          "internalType": "uint256",
          "name": "tokenId",
          "type": "uint256"
        }
      ],
      "name": "getAuction",
      "outputs": [
        {
          "components": [
            {
              "internalType": "address",
              "name": "seller",
              "type": "address"
            },
            {
              "internalType": "uint256",
              "name": "tokenId",
              "type": "uint256"
            },
            {
              "internalType": "uint256",
              "name": "minPrice",
              "type": "uint256"
            },
            {
              "internalType": "uint256",
              "name": "highestBid",
              "type": "uint256"
            },
            {
              "internalType": "address",
              "name": "highestBidder",
              "type": "address"
            },
            {
              "internalType": "uint256",
              "name": "startTime",
              "type": "uint256"
            },
            {
              "internalType": "uint256",
              "name": "endTime",
              "type": "uint256"
            },
            {
              "internalType": "bool",
              "name": "isActive",
              "type": "bool"
            },
            {
              "internalType": "bool",
              "name": "claimed",
              "type": "bool"
            }
          ],
          "internalType": "struct DnAContentMarketplace.Auction",
          "name": "",
          "type": "tuple"
        }
      ],
      "stateMutability": "view",
      "type": "function"
    },
    {
      "inputs": [
        {
          "internalType": "uint256",
          "name": "tokenId",
          "type": "uint256"
        }
      ],
      "name": "getAuctionBidders",
      "outputs": [
        {
          "internalType": "address[]",
          "name": "",
          "type": "address[]"
        }
      ],
      "stateMutability": "view",
      "type": "function"
    },
    {
      "inputs": [
        {
          "internalType": "uint256",
          "name": "tokenId",
          "type": "uint256"
        },
        {
          "internalType": "address",
          "name": "bidder",
          "type": "address"
        }
      ],
      "name": "getBidderInfo",
      "outputs": [
        {
          "components": [
            {
              "internalType": "uint256",
              "name": "amount",
              "type": "uint256"
            },
            {
              "internalType": "bool",
              "name": "refunded",
              "type": "bool"
            }
          ],
          "internalType": "struct DnAContentMarketplace.BidderInfo",
          "name": "",
          "type": "tuple"
        }
      ],
      "stateMutability": "view",
      "type": "function"
    },
    {
      "inputs": [
        {
          "internalType": "uint256",
          "name": "tokenId",
          "type": "uint256"
        }
      ],
      "name": "getFixedPriceListing",
      "outputs": [
        {
          "components": [
            {
              "internalType": "address",
              "name": "seller",
              "type": "address"
            },
            {
              "internalType": "uint256",
              "name": "tokenId",
              "type": "uint256"
            },
            {
              "internalType": "uint256",
              "name": "price",
              "type": "uint256"
            },
            {
              "internalType": "bool",
              "name": "isActive",
              "type": "bool"
            },
            {
              "internalType": "uint256",
              "name": "listedAt",
              "type": "uint256"
            }
          ],
          "internalType": "struct DnAContentMarketplace.FixedPriceListing",
          "name": "",
          "type": "tuple"
        }
      ],
      "stateMutability": "view",
      "type": "function"
    },
    {
      "inputs": [
        {
          "internalType": "bytes32",
          "name": "role",
          "type": "bytes32"
        }
      ],
      "name": "getRoleAdmin",
      "outputs": [
        {
          "internalType": "bytes32",
          "name": "",
          "type": "bytes32"
        }
      ],
      "stateMutability": "view",
      "type": "function"
    },
    {
      "inputs": [
        {
          "internalType": "bytes32",
          "name": "role",
          "type": "bytes32"
        },
        {
          "internalType": "address",
          "name": "account",
          "type": "address"
        }
      ],
      "name": "grantRole",
      "outputs": [],
      "stateMutability": "nonpayable",
      "type": "function"
    },
    {
      "inputs": [
        {
          "internalType": "bytes32",
          "name": "role",
          "type": "bytes32"
        },
        {
          "internalType": "address",
          "name": "account",
          "type": "address"
        }
      ],
      "name": "hasRole",
      "outputs": [
        {
          "internalType": "bool",
          "name": "",
          "type": "bool"
        }
      ],
      "stateMutability": "view",
      "type": "function"
    },
    {
      "inputs": [
        {
          "internalType": "uint256",
          "name": "",
          "type": "uint256"
        }
      ],
      "name": "isTokenInAuction",
      "outputs": [
        {
          "internalType": "bool",
          "name": "",
          "type": "bool"
        }
      ],
      "stateMutability": "view",
      "type": "function"
    },
    {
      "inputs": [
        {
          "internalType": "uint256",
          "name": "tokenId",
          "type": "uint256"
        }
      ],
      "name": "isTokenListed",
      "outputs": [
        {
          "internalType": "bool",
          "name": "",
          "type": "bool"
        }
      ],
      "stateMutability": "view",
      "type": "function"
    },
    {
      "inputs": [
        {
          "internalType": "uint256",
          "name": "",
          "type": "uint256"
        }
      ],
      "name": "isTokenListedForSale",
      "outputs": [
        {
          "internalType": "bool",
          "name": "",
          "type": "bool"
        }
      ],
      "stateMutability": "view",
      "type": "function"
    },
    {
      "inputs": [
        {
          "internalType": "uint256",
          "name": "tokenId",
          "type": "uint256"
        },
        {
          "internalType": "uint256",
          "name": "price",
          "type": "uint256"
        }
      ],
      "name": "listNFTForSale",
      "outputs": [],
      "stateMutability": "nonpayable",
      "type": "function"
    },
    {
      "inputs": [],
      "name": "nftContract",
      "outputs": [
        {
          "internalType": "contract IERC721",
          "name": "",
          "type": "address"
        }
      ],
      "stateMutability": "view",
      "type": "function"
    },
    {
      "inputs": [
        {
          "internalType": "address",
          "name": "",
          "type": "address"
        },
        {
          "internalType": "address",
          "name": "",
          "type": "address"
        },
        {
          "internalType": "uint256",
          "name": "",
          "type": "uint256"
        },
        {
          "internalType": "bytes",
          "name": "",
          "type": "bytes"
        }
      ],
      "name": "onERC721Received",
      "outputs": [
        {
          "internalType": "bytes4",
          "name": "",
          "type": "bytes4"
        }
      ],
      "stateMutability": "pure",
      "type": "function"
    },
    {
      "inputs": [
        {
          "internalType": "uint256",
          "name": "tokenId",
          "type": "uint256"
        }
      ],
      "name": "placeBid",
      "outputs": [],
      "stateMutability": "payable",
      "type": "function"
    },
    {
      "inputs": [],
      "name": "protocolFeeBps",
      "outputs": [
        {
          "internalType": "uint256",
          "name": "",
          "type": "uint256"
        }
      ],
      "stateMutability": "view",
      "type": "function"
    },
    {
      "inputs": [],
      "name": "protocolFeeReceiver",
      "outputs": [
        {
          "internalType": "address",
          "name": "",
          "type": "address"
        }
      ],
      "stateMutability": "view",
      "type": "function"
    },
    {
      "inputs": [
        {
          "internalType": "uint256",
          "name": "tokenId",
          "type": "uint256"
        }
      ],
      "name": "purchaseNFT",
      "outputs": [],
      "stateMutability": "payable",
      "type": "function"
    },
    {
      "inputs": [
        {
          "internalType": "address",
          "name": "account",
          "type": "address"
        }
      ],
      "name": "removeAdmin",
      "outputs": [],
      "stateMutability": "nonpayable",
      "type": "function"
    },
    {
      "inputs": [
        {
          "internalType": "uint256",
          "name": "tokenId",
          "type": "uint256"
        }
      ],
      "name": "removeNFTFromSale",
      "outputs": [],
      "stateMutability": "nonpayable",
      "type": "function"
    },
    {
      "inputs": [
        {
          "internalType": "bytes32",
          "name": "role",
          "type": "bytes32"
        },
        {
          "internalType": "address",
          "name": "account",
          "type": "address"
        }
      ],
      "name": "renounceRole",
      "outputs": [],
      "stateMutability": "nonpayable",
      "type": "function"
    },
    {
      "inputs": [
        {
          "internalType": "bytes32",
          "name": "role",
          "type": "bytes32"
        },
        {
          "internalType": "address",
          "name": "account",
          "type": "address"
        }
      ],
      "name": "revokeRole",
      "outputs": [],
      "stateMutability": "nonpayable",
      "type": "function"
    },
    {
      "inputs": [
        {
          "internalType": "uint256",
          "name": "newFeeBps",
          "type": "uint256"
        }
      ],
      "name": "setProtocolFee",
      "outputs": [],
      "stateMutability": "nonpayable",
      "type": "function"
    },
    {
      "inputs": [
        {
          "internalType": "address",
          "name": "newReceiver",
          "type": "address"
        }
      ],
      "name": "setProtocolFeeReceiver",
      "outputs": [],
      "stateMutability": "nonpayable",
      "type": "function"
    },
    {
      "inputs": [
        {
          "internalType": "uint256",
          "name": "tokenId",
          "type": "uint256"
        },
        {
          "internalType": "uint256",
          "name": "minPrice",
          "type": "uint256"
        },
        {
          "internalType": "uint256",
          "name": "duration",
          "type": "uint256"
        }
      ],
      "name": "startAuction",
      "outputs": [],
      "stateMutability": "nonpayable",
      "type": "function"
    },
    {
      "inputs": [
        {
          "internalType": "bytes4",
          "name": "interfaceId",
          "type": "bytes4"
        }
      ],
      "name": "supportsInterface",
      "outputs": [
        {
          "internalType": "bool",
          "name": "",
          "type": "bool"
        }
      ],
      "stateMutability": "view",
      "type": "function"
    },
    {
      "inputs": [],
      "name": "withdrawProtocolFees",
      "outputs": [],
      "stateMutability": "nonpayable",
      "type": "function"
    }
  ],
  "bytecode": "0x60a060405260fa6002553480156200001657600080fd5b50604051620036bc380380620036bc8339810160408190526200003991620001e4565b600180556001600160a01b038116620000985760405162461bcd60e51b815260206004820152601c60248201527f496e76616c6964204e465420636f6e7472616374206164647265737300000000604482015260640160405180910390fd5b6001600160a01b038116608052600380546001600160a01b03191633908117909155620000d6906000805160206200369c83398151915290620000f8565b620000f16000805160206200369c8339815191528062000199565b5062000216565b6000828152602081815260408083206001600160a01b038516845290915290205460ff1662000195576000828152602081815260408083206001600160a01b03851684529091529020805460ff19166001179055620001543390565b6001600160a01b0316816001600160a01b0316837f2f8788117e7eff1d82e926ec794901d17c78024a50270940304540a733656f0d60405160405180910390a45b5050565b600082815260208190526040808220600101805490849055905190918391839186917fbd79b86ffe0ab8e8776151514217cd7cacd52c909f66475c3af44e129f0b00ff9190a4505050565b600060208284031215620001f757600080fd5b81516001600160a01b03811681146200020f57600080fd5b9392505050565b60805161342b620002716000396000818161093501528181610bb5015281816115da015281816118790152818161208201528181612175015281816123530152818161280f01528181612b810152612c14015261342b6000f3fe60806040526004361061023b5760003560e01c80637c17855d1161012e5780639fbacd75116100ab578063d547741f1161006f578063d547741f14610903578063d56d229d14610923578063db2e21bc14610957578063df2764691461096c578063fab9c9181461099957600080fd5b80639fbacd751461085e578063a02e51071461088e578063a217fddf146108ae578063b2733b39146108c3578063b9a2de3a146108e357600080fd5b806391e078bb116100f257806391e078bb146107cb5780639979ef45146107eb5780639aafc6c9146107fe5780639b83cddc1461081e5780639c7c270c1461083e57600080fd5b80637c17855d1461066f5780638795cccb1461069f578063883a84ad146106b4578063899a289a1461074357806391d14854146107ab57600080fd5b806336568abe116101bc5780635b7baf64116101805780635b7baf64146105c057806370480275146105e057806375b238fc14610600578063787dce3d1461062257806378bd79351461064257600080fd5b806336568abe1461047b57806339a51be51461049b57806346877b1a146104bb578063571a26a0146104db578063587f5ed7146105aa57600080fd5b8063199f3edf11610203578063199f3edf146103275780631cb78fb3146103b0578063248a9ca3146104075780632f2ff15d1461044557806335659fb81461046557600080fd5b806301ffc9a7146102405780630f715f1d14610275578063150b7a02146102ad578063150bde03146102f25780631785f53c14610307575b600080fd5b34801561024c57600080fd5b5061026061025b366004612f2b565b6109b9565b60405190151581526020015b60405180910390f35b34801561028157600080fd5b50610295610290366004612f55565b6109f0565b6040516001600160a01b03909116815260200161026c565b3480156102b957600080fd5b506102d96102c8366004612f8c565b630a85bd0160e11b95945050505050565b6040516001600160e01b0319909116815260200161026c565b61030561030036600461302b565b610a28565b005b34801561031357600080fd5b50610305610322366004613044565b610dd9565b34801561033357600080fd5b50610393610342366004613061565b60408051808201825260008082526020918201819052938452600881528184206001600160a01b03939093168452918252918290208251808401909352805483526001015460ff1615159082015290565b60408051825181526020928301511515928101929092520161026c565b3480156103bc57600080fd5b506103f26103cb366004613061565b60086020908152600092835260408084209091529082529020805460019091015460ff1682565b6040805192835290151560208301520161026c565b34801561041357600080fd5b5061043761042236600461302b565b60009081526020819052604090206001015490565b60405190815260200161026c565b34801561045157600080fd5b50610305610460366004613061565b610e0d565b34801561047157600080fd5b5061043760025481565b34801561048757600080fd5b50610305610496366004613061565b610e37565b3480156104a757600080fd5b50600354610295906001600160a01b031681565b3480156104c757600080fd5b506103056104d6366004613044565b610eb1565b3480156104e757600080fd5b506105536104f636600461302b565b6006602081905260009182526040909120805460018201546002830154600384015460048501546005860154968601546007909601546001600160a01b039586169794969395929492909116929060ff8082169161010090041689565b604080516001600160a01b039a8b1681526020810199909952880196909652606087019490945295909116608085015260a084015260c083019390935291151560e08201529015156101008201526101200161026c565b3480156105b657600080fd5b50610437600a5481565b3480156105cc57600080fd5b506103056105db36600461302b565b610f83565b3480156105ec57600080fd5b506103056105fb366004613044565b6111be565b34801561060c57600080fd5b506104376000805160206133d683398151915281565b34801561062e57600080fd5b5061030561063d36600461302b565b6111ee565b34801561064e57600080fd5b5061066261065d36600461302b565b61129c565b60405161026c9190613091565b34801561067b57600080fd5b5061026061068a36600461302b565b60076020526000908152604090205460ff1681565b3480156106ab57600080fd5b5061030561138f565b3480156106c057600080fd5b5061070f6106cf36600461302b565b6004602081905260009182526040909120805460018201546002830154600384015493909401546001600160a01b03909216939092909160ff9091169085565b604080516001600160a01b03909616865260208601949094529284019190915215156060830152608082015260a00161026c565b34801561074f57600080fd5b5061076361075e36600461302b565b6114f8565b60405161026c919081516001600160a01b0316815260208083015190820152604080830151908201526060808301511515908201526080918201519181019190915260a00190565b3480156107b757600080fd5b506102606107c6366004613061565b61158f565b3480156107d757600080fd5b506103056107e636600461310b565b6115b8565b6103056107f936600461302b565b611ac9565b34801561080a57600080fd5b5061030561081936600461302b565b611e04565b34801561082a57600080fd5b5061026061083936600461302b565b611f70565b34801561084a57600080fd5b5061043761085936600461302b565b611f9e565b34801561086a57600080fd5b5061026061087936600461302b565b60056020526000908152604090205460ff1681565b34801561089a57600080fd5b506103056108a936600461302b565b611fbb565b3480156108ba57600080fd5b50610437600081565b3480156108cf57600080fd5b506103056108de366004612f55565b612153565b3480156108ef57600080fd5b506103056108fe36600461302b565b6124fb565b34801561090f57600080fd5b5061030561091e366004613061565b61257b565b34801561092f57600080fd5b506102957f000000000000000000000000000000000000000000000000000000000000000081565b34801561096357600080fd5b506103056125a0565b34801561097857600080fd5b5061098c61098736600461302b565b6126b5565b60405161026c9190613137565b3480156109a557600080fd5b506103056109b436600461302b565b612721565b60006001600160e01b03198216637965db0b60e01b14806109ea57506301ffc9a760e01b6001600160e01b03198316145b92915050565b60096020528160005260406000208181548110610a0c57600080fd5b6000918252602090912001546001600160a01b03169150829050565b610a30612884565b6000818152600460205260409020600381015460ff16610a935760405162461bcd60e51b8152602060048201526019602482015278546f6b656e206e6f74206c697374656420666f722073616c6560381b60448201526064015b60405180910390fd5b8060020154341015610ade5760405162461bcd60e51b8152602060048201526014602482015273125b9cdd59999a58da595b9d081c185e5b595b9d60621b6044820152606401610a8a565b80546001600160a01b03163303610b375760405162461bcd60e51b815260206004820152601760248201527f43616e6e6f742062757920796f7572206f776e204e46540000000000000000006044820152606401610a8a565b805460028083015490546001600160a01b039092169160009061271090610b5e908461319a565b610b6891906131b1565b90506000610b7682846131d3565b60038601805460ff1990811690915560008881526005602052604090819020805490921690915551632142170760e11b81529091506001600160a01b037f000000000000000000000000000000000000000000000000000000000000000016906342842e0e90610bee90309033908b906004016131e6565b600060405180830381600087803b158015610c0857600080fd5b505af1158015610c1c573d6000803e3d6000fd5b5050505081600a6000828254610c32919061320a565b90915550506040516000906001600160a01b0386169083908381818185875af1925050503d8060008114610c82576040519150601f19603f3d011682016040523d82523d6000602084013e610c87565b606091505b5050905080610ccf5760405162461bcd60e51b81526020600482015260146024820152732330b4b632b2103a37903830bc9039b2b63632b960611b6044820152606401610a8a565b83341115610d7857600033610ce486346131d3565b604051600081818185875af1925050503d8060008114610d20576040519150601f19603f3d011682016040523d82523d6000602084013e610d25565b606091505b5050905080610d765760405162461bcd60e51b815260206004820152601f60248201527f4661696c656420746f20726566756e6420657863657373207061796d656e74006044820152606401610a8a565b505b60408051858152602081018590524281830152905133916001600160a01b038816918a917f3d0e34fc598408a370422f500dd8d2e803900b70edbfd7f9dd07b2cb35e7c8c7919081900360600190a4505050505050610dd660018055565b50565b6000805160206133d6833981519152610df1816128dd565b610e096000805160206133d68339815191528361257b565b5050565b600082815260208190526040902060010154610e28816128dd565b610e3283836128e7565b505050565b6001600160a01b0381163314610ea75760405162461bcd60e51b815260206004820152602f60248201527f416363657373436f6e74726f6c3a2063616e206f6e6c792072656e6f756e636560448201526e103937b632b9903337b91039b2b63360891b6064820152608401610a8a565b610e09828261296b565b6000805160206133d6833981519152610ec9816128dd565b6001600160a01b038216610f1f5760405162461bcd60e51b815260206004820152601860248201527f496e76616c6964207265636569766572206164647265737300000000000000006044820152606401610a8a565b600380546001600160a01b038481166001600160a01b0319831681179093556040519116919082907fd50f6337203167ba1e2ef808f8433a7630572ef622a612f76025877031df84a890610f769042815260200190565b60405180910390a3505050565b610f8b612884565b6000818152600660208190526040909120908101544211610fbe5760405162461bcd60e51b8152600401610a8a9061321d565b60048101546001600160a01b0316330361101a5760405162461bcd60e51b815260206004820152601a60248201527f57696e6e65722063616e6e6f7420636c61696d20726566756e640000000000006044820152606401610a8a565b6000828152600860209081526040808320338452909152902080546110815760405162461bcd60e51b815260206004820152601d60248201527f4e6f2062696420666f756e6420666f72207468697320616464726573730000006044820152606401610a8a565b600181015460ff16156110c95760405162461bcd60e51b815260206004820152601060248201526f105b1c9958591e481c99599d5b99195960821b6044820152606401610a8a565b805460008083556001808401805460ff19169091179055604051339083908381818185875af1925050503d806000811461111f576040519150601f19603f3d011682016040523d82523d6000602084013e611124565b606091505b50509050806111755760405162461bcd60e51b815260206004820152601860248201527f4661696c656420746f2070726f6365737320726566756e6400000000000000006044820152606401610a8a565b60408051838152426020820152339187917fd0db0e7eda41bb1bea0e3cefcb1e61a85c4224eb3946df6220ba4a29f7d5462a910160405180910390a350505050610dd660018055565b6000805160206133d68339815191526111d6816128dd565b610e096000805160206133d683398151915283610e0d565b6000805160206133d6833981519152611206816128dd565b6103e88211156112505760405162461bcd60e51b81526020600482015260156024820152744665652063616e6e6f74206578636565642031302560581b6044820152606401610a8a565b60028054908390556040805182815260208101859052428183015290517f958d79f7eb050033dd12dc5d5cdb0ca36e424a7bf3c53c15488c657e82a570b29181900360600190a1505050565b61130160405180610120016040528060006001600160a01b0316815260200160008152602001600081526020016000815260200160006001600160a01b0316815260200160008152602001600081526020016000151581526020016000151581525090565b5060009081526006602081815260409283902083516101208101855281546001600160a01b0390811682526001830154938201939093526002820154948101949094526003810154606085015260048101549091166080840152600581015460a08401529081015460c08301526007015460ff808216151560e0840152610100918290041615159082015290565b6000805160206133d68339815191526113a7816128dd565b6113af612884565b6000600a54116113f75760405162461bcd60e51b81526020600482015260136024820152724e6f206665657320746f20776974686472617760681b6044820152606401610a8a565b600a80546000918290556003546040519192916001600160a01b039091169083908381818185875af1925050503d8060008114611450576040519150601f19603f3d011682016040523d82523d6000602084013e611455565b606091505b50509050806114a65760405162461bcd60e51b815260206004820152601760248201527f4661696c656420746f20776974686472617720666565730000000000000000006044820152606401610a8a565b600354604080518481524260208201526001600160a01b03909216917ff299f1f754362fc7673effe66e73ca8d292dd87fc9fef1f28f7b97b2edc4c75b910160405180910390a25050610dd660018055565b6115356040518060a0016040528060006001600160a01b031681526020016000815260200160008152602001600015158152602001600081525090565b50600090815260046020818152604092839020835160a08101855281546001600160a01b03168152600182015492810192909252600281015493820193909352600383015460ff1615156060820152910154608082015290565b6000918252602082815260408084206001600160a01b0393909316845291905290205460ff1690565b6040516331a9108f60e11b815260048101849052839033906001600160a01b037f00000000000000000000000000000000000000000000000000000000000000001690636352211e90602401602060405180830381865afa158015611621573d6000803e3d6000fd5b505050506040513d601f19601f82011682018060405250810190611645919061324b565b6001600160a01b03161461168d5760405162461bcd60e51b815260206004820152600f60248201526e2737ba103a37b5b2b71037bbb732b960891b6044820152606401610a8a565b600084815260056020526040902054849060ff16156116ee5760405162461bcd60e51b815260206004820152601d60248201527f546f6b656e20616c7265616479206c697374656420666f722073616c650000006044820152606401610a8a565b60008181526007602052604090205460ff16156117485760405162461bcd60e51b81526020600482015260186024820152772a37b5b2b71030b63932b0b23c9034b71030bab1ba34b7b760411b6044820152606401610a8a565b83600081116117995760405162461bcd60e51b815260206004820152601f60248201527f5072696365206d7573742062652067726561746572207468616e207a65726f006044820152606401610a8a565b6117a1612884565b6103848410156118015760405162461bcd60e51b815260206004820152602560248201527f41756374696f6e206d757374206c617374206174206c65617374203135206d696044820152646e7574657360d81b6064820152608401610a8a565b62278d008411156118625760405162461bcd60e51b815260206004820152602560248201527f41756374696f6e2063616e6e6f74206c617374206d6f7265207468616e203330604482015264206461797360d81b6064820152608401610a8a565b604051632142170760e11b81526001600160a01b037f000000000000000000000000000000000000000000000000000000000000000016906342842e0e906118b290339030908b906004016131e6565b600060405180830381600087803b1580156118cc57600080fd5b505af11580156118e0573d6000803e3d6000fd5b50429250600091506118f49050868361320a565b9050604051806101200160405280336001600160a01b031681526020018981526020018881526020016000815260200160006001600160a01b0316815260200183815260200182815260200160011515815260200160001515815250600660008a815260200190815260200160002060008201518160000160006101000a8154816001600160a01b0302191690836001600160a01b0316021790555060208201518160010155604082015181600201556060820151816003015560808201518160040160006101000a8154816001600160a01b0302191690836001600160a01b0316021790555060a0820151816005015560c0820151816006015560e08201518160070160006101000a81548160ff0219169083151502179055506101008201518160070160016101000a81548160ff0219169083151502179055509050506001600760008a815260200190815260200160002060006101000a81548160ff021916908315150217905550336001600160a01b0316887f891c95c01123dab4c2e9f5730be4341f0389880525f5d7c2a645a77555c27ff7898585604051611aae939291909283526020830191909152604082015260600190565b60405180910390a35050611ac160018055565b505050505050565b600081815260066020526040902060070154819060ff16611afc5760405162461bcd60e51b8152600401610a8a90613268565b600082815260066020819052604090912001548290421115611b565760405162461bcd60e51b8152602060048201526013602482015272105d58dd1a5bdb881a185cc8195e1c1a5c9959606a1b6044820152606401610a8a565b611b5e612884565b600083815260066020526040902080546001600160a01b03163303611bc55760405162461bcd60e51b815260206004820181905260248201527f53656c6c65722063616e6e6f7420626964206f6e206f776e2061756374696f6e6044820152606401610a8a565b8060020154341015611c195760405162461bcd60e51b815260206004820152601760248201527f4269642062656c6f77206d696e696d756d2070726963650000000000000000006044820152606401610a8a565b600381015415611c8a5780600301543411611c8a5760405162461bcd60e51b815260206004820152602b60248201527f426964206d75737420626520686967686572207468616e2063757272656e742060448201526a1a1a59da195cdd08189a5960aa1b6064820152608401610a8a565b60008481526008602090815260408083203384529091529020805415611d5857805460405160009133918381818185875af1925050503d8060008114611cec576040519150601f19603f3d011682016040523d82523d6000602084013e611cf1565b606091505b5050905080611d425760405162461bcd60e51b815260206004820152601d60248201527f4661696c656420746f20726566756e642070726576696f7573206269640000006044820152606401610a8a565b506000815560018101805460ff19169055611d87565b60008581526009602090815260408220805460018101825590835291200180546001600160a01b031916331790555b3480825560018201805460ff1916905560038301541015611dbd573460038301556004820180546001600160a01b031916331790555b60408051348152426020820152339187917fcde18333b910a25ba5421e992ecee5c314e557346e94ab2ab424658bbb3707e6910160405180910390a35050610e3260018055565b600081815260066020526040902060070154819060ff16611e375760405162461bcd60e51b8152600401610a8a90613268565b6000828152600660208190526040909120015482904211611e6a5760405162461bcd60e51b8152600401610a8a9061321d565b611e72612884565b600083815260066020526040902060048101546001600160a01b031615611ef45760048101546001600160a01b03163314611eef5760405162461bcd60e51b815260206004820152601c60248201527f436c61696d3a204f6e6c792077696e6e65722063616e20636c61696d000000006044820152606401610a8a565b611f5d565b80546001600160a01b03163314611f5d5760405162461bcd60e51b815260206004820152602760248201527f436c61696d3a204f6e6c792073656c6c65722063616e20636c61696d206966206044820152666e6f206269647360c81b6064820152608401610a8a565b611f66846129d0565b50610e3260018055565b60008181526005602052604081205460ff16806109ea57505060009081526007602052604090205460ff1690565b600061271060025483611fb1919061319a565b6109ea91906131b1565b611fc3612884565b6000818152600460205260409020600381015460ff166120215760405162461bcd60e51b8152602060048201526019602482015278546f6b656e206e6f74206c697374656420666f722073616c6560381b6044820152606401610a8a565b80546001600160a01b0316331461206b5760405162461bcd60e51b815260206004820152600e60248201526d2737ba103a34329039b2b63632b960911b6044820152606401610a8a565b604051632142170760e11b81526001600160a01b037f000000000000000000000000000000000000000000000000000000000000000016906342842e0e906120bb903090339087906004016131e6565b600060405180830381600087803b1580156120d557600080fd5b505af11580156120e9573d6000803e3d6000fd5b5050505060038101805460ff19908116909155600083815260056020908152604091829020805490931690925551428152339184917f157ac5612deaae220ded81ec6551c25d3a36978c87cc0783a7a3355681b6c6cf910160405180910390a350610dd660018055565b6040516331a9108f60e11b815260048101839052829033906001600160a01b037f00000000000000000000000000000000000000000000000000000000000000001690636352211e90602401602060405180830381865afa1580156121bc573d6000803e3d6000fd5b505050506040513d601f19601f820116820180604052508101906121e0919061324b565b6001600160a01b0316146122285760405162461bcd60e51b815260206004820152600f60248201526e2737ba103a37b5b2b71037bbb732b960891b6044820152606401610a8a565b600083815260056020526040902054839060ff16156122895760405162461bcd60e51b815260206004820152601d60248201527f546f6b656e20616c7265616479206c697374656420666f722073616c650000006044820152606401610a8a565b60008181526007602052604090205460ff16156122e35760405162461bcd60e51b81526020600482015260186024820152772a37b5b2b71030b63932b0b23c9034b71030bab1ba34b7b760411b6044820152606401610a8a565b82600081116123345760405162461bcd60e51b815260206004820152601f60248201527f5072696365206d7573742062652067726561746572207468616e207a65726f006044820152606401610a8a565b61233c612884565b604051632142170760e11b81526001600160a01b037f000000000000000000000000000000000000000000000000000000000000000016906342842e0e9061238c90339030908a906004016131e6565b600060405180830381600087803b1580156123a657600080fd5b505af11580156123ba573d6000803e3d6000fd5b505050506040518060a00160405280336001600160a01b03168152602001868152602001858152602001600115158152602001428152506004600087815260200190815260200160002060008201518160000160006101000a8154816001600160a01b0302191690836001600160a01b03160217905550602082015181600101556040820151816002015560608201518160030160006101000a81548160ff0219169083151502179055506080820151816004015590505060016005600087815260200190815260200160002060006101000a81548160ff021916908315150217905550336001600160a01b0316857fc42bbfb9e123e473199e71aa6d23dc92b6e5f9c3df70e713ce7f551fe89089cd86426040516124e3929190918252602082015260400190565b60405180910390a36124f460018055565b5050505050565b600081815260066020526040902060070154819060ff1661252e5760405162461bcd60e51b8152600401610a8a90613268565b60008281526006602081905260409091200154829042116125615760405162461bcd60e51b8152600401610a8a9061321d565b612569612884565b612572836129d0565b610e3260018055565b600082815260208190526040902060010154612596816128dd565b610e32838361296b565b6000805160206133d68339815191526125b8816128dd565b6125c0612884565b47806126075760405162461bcd60e51b81526020600482015260166024820152754e6f2062616c616e636520746f20776974686472617760501b6044820152606401610a8a565b6003546040516000916001600160a01b03169083908381818185875af1925050503d8060008114612654576040519150601f19603f3d011682016040523d82523d6000602084013e612659565b606091505b50509050806126aa5760405162461bcd60e51b815260206004820152601b60248201527f456d657267656e6379207769746864726177616c206661696c656400000000006044820152606401610a8a565b5050610dd660018055565b60008181526009602090815260409182902080548351818402810184019094528084526060939283018282801561271557602002820191906000526020600020905b81546001600160a01b031681526001909101906020018083116126f7575b50505050509050919050565b6000805160206133d6833981519152612739816128dd565b612741612884565b60008281526005602052604090205460ff16156127a05760405162461bcd60e51b815260206004820152601860248201527f546f6b656e206973206c697374656420666f722073616c6500000000000000006044820152606401610a8a565b60008281526007602052604090205460ff16156127f55760405162461bcd60e51b81526020600482015260136024820152722a37b5b2b71034b99034b71030bab1ba34b7b760691b6044820152606401610a8a565b600354604051632142170760e11b81526001600160a01b037f00000000000000000000000000000000000000000000000000000000000000008116926342842e0e92612849923092169087906004016131e6565b600060405180830381600087803b15801561286357600080fd5b505af1158015612877573d6000803e3d6000fd5b50505050610e0960018055565b6002600154036128d65760405162461bcd60e51b815260206004820152601f60248201527f5265656e7472616e637947756172643a207265656e7472616e742063616c6c006044820152606401610a8a565b6002600155565b610dd68133612d1d565b6128f1828261158f565b610e09576000828152602081815260408083206001600160a01b03851684529091529020805460ff191660011790556129273390565b6001600160a01b0316816001600160a01b0316837f2f8788117e7eff1d82e926ec794901d17c78024a50270940304540a733656f0d60405160405180910390a45050565b612975828261158f565b15610e09576000828152602081815260408083206001600160a01b0385168085529252808320805460ff1916905551339285917ff6391f5c32d9c69d2a47ea670b442974b53935d1edc7fd64eb21e047a839171b9190a45050565b60008181526006602052604090206007810154610100900460ff1615612a385760405162461bcd60e51b815260206004820152601760248201527f41756374696f6e20616c726561647920636c61696d65640000000000000000006044820152606401610a8a565b6007808201805461ffff1916610100179055600083815260209190915260408120805460ff19169055600482015481906001600160a01b031615612bfb57600383015460048401546002546001600160a01b039091169060009061271090612aa0908561319a565b612aaa91906131b1565b90506000612ab882856131d3565b905081600a6000828254612acc919061320a565b909155505086546040516000916001600160a01b03169083908381818185875af1925050503d8060008114612b1d576040519150601f19603f3d011682016040523d82523d6000602084013e612b22565b606091505b5050905080612b6a5760405162461bcd60e51b81526020600482015260146024820152732330b4b632b2103a37903830bc9039b2b63632b960611b6044820152606401610a8a565b604051632142170760e11b81526001600160a01b037f000000000000000000000000000000000000000000000000000000000000000016906342842e0e90612bba90309088908e906004016131e6565b600060405180830381600087803b158015612bd457600080fd5b505af1158015612be8573d6000803e3d6000fd5b50959850959650612c8e95505050505050565b8254604051632142170760e11b81526001600160a01b037f00000000000000000000000000000000000000000000000000000000000000008116926342842e0e92612c4e923092169089906004016131e6565b600060405180830381600087803b158015612c6857600080fd5b505af1158015612c7c573d6000803e3d6000fd5b505084546001600160a01b0316935050505b604080518281524260208201526001600160a01b0384169186917fe9ba83469fc8ee4260dd274fd43b5a54f2df813ad21c4637d53084d1f3866b37910160405180910390a3816001600160a01b0316847f92ffae31901780890e35bdc724fedb7601577492b5d4e3df85f785de59d737ab42604051612d0f91815260200190565b60405180910390a350505050565b612d27828261158f565b610e0957612d3481612d76565b612d3f836020612d88565b604051602001612d509291906132ea565b60408051601f198184030181529082905262461bcd60e51b8252610a8a9160040161335f565b60606109ea6001600160a01b03831660145b60606000612d9783600261319a565b612da290600261320a565b67ffffffffffffffff811115612dba57612dba613392565b6040519080825280601f01601f191660200182016040528015612de4576020820181803683370190505b509050600360fc1b81600081518110612dff57612dff6133a8565b60200101906001600160f81b031916908160001a905350600f60fb1b81600181518110612e2e57612e2e6133a8565b60200101906001600160f81b031916908160001a9053506000612e5284600261319a565b612e5d90600161320a565b90505b6001811115612ed5576f181899199a1a9b1b9c1cb0b131b232b360811b85600f1660108110612e9157612e916133a8565b1a60f81b828281518110612ea757612ea76133a8565b60200101906001600160f81b031916908160001a90535060049490941c93612ece816133be565b9050612e60565b508315612f245760405162461bcd60e51b815260206004820181905260248201527f537472696e67733a20686578206c656e67746820696e73756666696369656e746044820152606401610a8a565b9392505050565b600060208284031215612f3d57600080fd5b81356001600160e01b031981168114612f2457600080fd5b60008060408385031215612f6857600080fd5b50508035926020909101359150565b6001600160a01b0381168114610dd657600080fd5b600080600080600060808688031215612fa457600080fd5b8535612faf81612f77565b94506020860135612fbf81612f77565b935060408601359250606086013567ffffffffffffffff80821115612fe357600080fd5b818801915088601f830112612ff757600080fd5b81358181111561300657600080fd5b89602082850101111561301857600080fd5b9699959850939650602001949392505050565b60006020828403121561303d57600080fd5b5035919050565b60006020828403121561305657600080fd5b8135612f2481612f77565b6000806040838503121561307457600080fd5b82359150602083013561308681612f77565b809150509250929050565b60006101208201905060018060a01b038084511683526020840151602084015260408401516040840152606084015160608401528060808501511660808401525060a083015160a083015260c083015160c083015260e08301516130f960e084018215159052565b50610100928301511515919092015290565b60008060006060848603121561312057600080fd5b505081359360208301359350604090920135919050565b6020808252825182820181905260009190848201906040850190845b818110156131785783516001600160a01b031683529284019291840191600101613153565b50909695505050505050565b634e487b7160e01b600052601160045260246000fd5b80820281158282048414176109ea576109ea613184565b6000826131ce57634e487b7160e01b600052601260045260246000fd5b500490565b818103818111156109ea576109ea613184565b6001600160a01b039384168152919092166020820152604081019190915260600190565b808201808211156109ea576109ea613184565b60208082526014908201527341756374696f6e207374696c6c2061637469766560601b604082015260600190565b60006020828403121561325d57600080fd5b8151612f2481612f77565b602080825260409082018190527f41756374696f6e20646f6573206e6f74206578697374206f72206e6f74206163908201527f746976652028616c72656164792066696e616c697a65642f636c61696d656429606082015260800190565b60005b838110156132e15781810151838201526020016132c9565b50506000910152565b7f416363657373436f6e74726f6c3a206163636f756e74200000000000000000008152600083516133228160178501602088016132c6565b7001034b99036b4b9b9b4b733903937b6329607d1b60179184019182015283516133538160288401602088016132c6565b01602801949350505050565b602081526000825180602084015261337e8160408501602087016132c6565b601f01601f19169190910160400192915050565b634e487b7160e01b600052604160045260246000fd5b634e487b7160e01b600052603260045260246000fd5b6000816133cd576133cd613184565b50600019019056fea49807205ce4d355092ef5a8a18f56e8913cf4a201fbe287825b095693c21775a2646970667358221220dd7515b205fe40ef4b7626838897ca4a877a9a9478a867d9482a47aec64c662064736f6c63430008140033a49807205ce4d355092ef5a8a18f56e8913cf4a201fbe287825b095693c21775",
  "linkReferences": {},
  "deployedLinkReferences": {}
}