{
  "_format": "hh-sol-artifact-1",
  "contractName": "DnAContentMarketplace",
  "sourceName": "contracts/DnAContentMarketplace.sol",
  "abi": [
    {
      "inputs": [
        {
          "internalType": "address",
          "name": "_nftContract",
          "type": "address"
        }
      ],
      "stateMutability": "nonpayable",
      "type": "constructor"
    },
    {
      "anonymous": false,
      "inputs": [
        {
          "indexed": true,
          "internalType": "uint256",
          "name": "tokenId",
          "type": "uint256"
        },
        {
          "indexed": true,
          "internalType": "address",
          "name": "winner",
          "type": "address"
        },
        {
          "indexed": false,
          "internalType": "uint256",
          "name": "winningBid",
          "type": "uint256"
        },
        {
          "indexed": false,
          "internalType": "uint256",
          "name": "timestamp",
          "type": "uint256"
        }
      ],
      "name": "AuctionEnded",
      "type": "event"
    },
    {
      "anonymous": false,
      "inputs": [
        {
          "indexed": true,
          "internalType": "uint256",
          "name": "tokenId",
          "type": "uint256"
        },
        {
          "indexed": true,
          "internalType": "address",
          "name": "seller",
          "type": "address"
        },
        {
          "indexed": false,
          "internalType": "uint256",
          "name": "minPrice",
          "type": "uint256"
        },
        {
          "indexed": false,
          "internalType": "uint256",
          "name": "startTime",
          "type": "uint256"
        },
        {
          "indexed": false,
          "internalType": "uint256",
          "name": "endTime",
          "type": "uint256"
        }
      ],
      "name": "AuctionStarted",
      "type": "event"
    },
    {
      "anonymous": false,
      "inputs": [
        {
          "indexed": true,
          "internalType": "uint256",
          "name": "tokenId",
          "type": "uint256"
        },
        {
          "indexed": true,
          "internalType": "address",
          "name": "winner",
          "type": "address"
        },
        {
          "indexed": false,
          "internalType": "uint256",
          "name": "timestamp",
          "type": "uint256"
        }
      ],
      "name": "NFTClaimed",
      "type": "event"
    },
    {
      "anonymous": false,
      "inputs": [
        {
          "indexed": true,
          "internalType": "uint256",
          "name": "tokenId",
          "type": "uint256"
        },
        {
          "indexed": true,
          "internalType": "address",
          "name": "seller",
          "type": "address"
        },
        {
          "indexed": false,
          "internalType": "uint256",
          "name": "price",
          "type": "uint256"
        },
        {
          "indexed": false,
          "internalType": "uint256",
          "name": "timestamp",
          "type": "uint256"
        }
      ],
      "name": "NFTListedForSale",
      "type": "event"
    },
    {
      "anonymous": false,
      "inputs": [
        {
          "indexed": true,
          "internalType": "uint256",
          "name": "tokenId",
          "type": "uint256"
        },
        {
          "indexed": true,
          "internalType": "address",
          "name": "seller",
          "type": "address"
        },
        {
          "indexed": true,
          "internalType": "address",
          "name": "buyer",
          "type": "address"
        },
        {
          "indexed": false,
          "internalType": "uint256",
          "name": "price",
          "type": "uint256"
        },
        {
          "indexed": false,
          "internalType": "uint256",
          "name": "protocolFee",
          "type": "uint256"
        },
        {
          "indexed": false,
          "internalType": "uint256",
          "name": "timestamp",
          "type": "uint256"
        }
      ],
      "name": "NFTPurchased",
      "type": "event"
    },
    {
      "anonymous": false,
      "inputs": [
        {
          "indexed": true,
          "internalType": "uint256",
          "name": "tokenId",
          "type": "uint256"
        },
        {
          "indexed": true,
          "internalType": "address",
          "name": "seller",
          "type": "address"
        },
        {
          "indexed": false,
          "internalType": "uint256",
          "name": "timestamp",
          "type": "uint256"
        }
      ],
      "name": "NFTSaleRemoved",
      "type": "event"
    },
    {
      "anonymous": false,
      "inputs": [
        {
          "indexed": true,
          "internalType": "uint256",
          "name": "tokenId",
          "type": "uint256"
        },
        {
          "indexed": true,
          "internalType": "address",
          "name": "bidder",
          "type": "address"
        },
        {
          "indexed": false,
          "internalType": "uint256",
          "name": "amount",
          "type": "uint256"
        },
        {
          "indexed": false,
          "internalType": "uint256",
          "name": "timestamp",
          "type": "uint256"
        }
      ],
      "name": "NewBid",
      "type": "event"
    },
    {
      "anonymous": false,
      "inputs": [
        {
          "indexed": true,
          "internalType": "address",
          "name": "previousOwner",
          "type": "address"
        },
        {
          "indexed": true,
          "internalType": "address",
          "name": "newOwner",
          "type": "address"
        }
      ],
      "name": "OwnershipTransferred",
      "type": "event"
    },
    {
      "anonymous": false,
      "inputs": [
        {
          "indexed": true,
          "internalType": "address",
          "name": "oldReceiver",
          "type": "address"
        },
        {
          "indexed": true,
          "internalType": "address",
          "name": "newReceiver",
          "type": "address"
        },
        {
          "indexed": false,
          "internalType": "uint256",
          "name": "timestamp",
          "type": "uint256"
        }
      ],
      "name": "ProtocolFeeReceiverUpdated",
      "type": "event"
    },
    {
      "anonymous": false,
      "inputs": [
        {
          "indexed": false,
          "internalType": "uint256",
          "name": "oldFeeBps",
          "type": "uint256"
        },
        {
          "indexed": false,
          "internalType": "uint256",
          "name": "newFeeBps",
          "type": "uint256"
        },
        {
          "indexed": false,
          "internalType": "uint256",
          "name": "timestamp",
          "type": "uint256"
        }
      ],
      "name": "ProtocolFeeUpdated",
      "type": "event"
    },
    {
      "anonymous": false,
      "inputs": [
        {
          "indexed": true,
          "internalType": "address",
          "name": "to",
          "type": "address"
        },
        {
          "indexed": false,
          "internalType": "uint256",
          "name": "amount",
          "type": "uint256"
        },
        {
          "indexed": false,
          "internalType": "uint256",
          "name": "timestamp",
          "type": "uint256"
        }
      ],
      "name": "ProtocolFeesWithdrawn",
      "type": "event"
    },
    {
      "anonymous": false,
      "inputs": [
        {
          "indexed": true,
          "internalType": "uint256",
          "name": "tokenId",
          "type": "uint256"
        },
        {
          "indexed": true,
          "internalType": "address",
          "name": "bidder",
          "type": "address"
        },
        {
          "indexed": false,
          "internalType": "uint256",
          "name": "amount",
          "type": "uint256"
        },
        {
          "indexed": false,
          "internalType": "uint256",
          "name": "timestamp",
          "type": "uint256"
        }
      ],
      "name": "RefundProcessed",
      "type": "event"
    },
    {
      "inputs": [],
      "name": "accumulatedFees",
      "outputs": [
        {
          "internalType": "uint256",
          "name": "",
          "type": "uint256"
        }
      ],
      "stateMutability": "view",
      "type": "function"
    },
    {
      "inputs": [
        {
          "internalType": "uint256",
          "name": "",
          "type": "uint256"
        },
        {
          "internalType": "uint256",
          "name": "",
          "type": "uint256"
        }
      ],
      "name": "auctionBidders",
      "outputs": [
        {
          "internalType": "address",
          "name": "",
          "type": "address"
        }
      ],
      "stateMutability": "view",
      "type": "function"
    },
    {
      "inputs": [
        {
          "internalType": "uint256",
          "name": "",
          "type": "uint256"
        }
      ],
      "name": "auctions",
      "outputs": [
        {
          "internalType": "address",
          "name": "seller",
          "type": "address"
        },
        {
          "internalType": "uint256",
          "name": "tokenId",
          "type": "uint256"
        },
        {
          "internalType": "uint256",
          "name": "minPrice",
          "type": "uint256"
        },
        {
          "internalType": "uint256",
          "name": "highestBid",
          "type": "uint256"
        },
        {
          "internalType": "address",
          "name": "highestBidder",
          "type": "address"
        },
        {
          "internalType": "uint256",
          "name": "startTime",
          "type": "uint256"
        },
        {
          "internalType": "uint256",
          "name": "endTime",
          "type": "uint256"
        },
        {
          "internalType": "bool",
          "name": "isActive",
          "type": "bool"
        },
        {
          "internalType": "bool",
          "name": "claimed",
          "type": "bool"
        }
      ],
      "stateMutability": "view",
      "type": "function"
    },
    {
      "inputs": [
        {
          "internalType": "uint256",
          "name": "",
          "type": "uint256"
        },
        {
          "internalType": "address",
          "name": "",
          "type": "address"
        }
      ],
      "name": "bidderInfo",
      "outputs": [
        {
          "internalType": "uint256",
          "name": "amount",
          "type": "uint256"
        },
        {
          "internalType": "bool",
          "name": "refunded",
          "type": "bool"
        }
      ],
      "stateMutability": "view",
      "type": "function"
    },
    {
      "inputs": [
        {
          "internalType": "uint256",
          "name": "price",
          "type": "uint256"
        }
      ],
      "name": "calculateProtocolFee",
      "outputs": [
        {
          "internalType": "uint256",
          "name": "",
          "type": "uint256"
        }
      ],
      "stateMutability": "view",
      "type": "function"
    },
    {
      "inputs": [
        {
          "internalType": "uint256",
          "name": "tokenId",
          "type": "uint256"
        }
      ],
      "name": "claimRefund",
      "outputs": [],
      "stateMutability": "nonpayable",
      "type": "function"
    },
    {
      "inputs": [
        {
          "internalType": "uint256",
          "name": "tokenId",
          "type": "uint256"
        }
      ],
      "name": "emergencyRecoverNFT",
      "outputs": [],
      "stateMutability": "nonpayable",
      "type": "function"
    },
    {
      "inputs": [],
      "name": "emergencyWithdraw",
      "outputs": [],
      "stateMutability": "nonpayable",
      "type": "function"
    },
    {
      "inputs": [
        {
          "internalType": "uint256",
          "name": "tokenId",
          "type": "uint256"
        }
      ],
      "name": "endAuction",
      "outputs": [],
      "stateMutability": "nonpayable",
      "type": "function"
    },
    {
      "inputs": [
        {
          "internalType": "uint256",
          "name": "",
          "type": "uint256"
        }
      ],
      "name": "fixedPriceListings",
      "outputs": [
        {
          "internalType": "address",
          "name": "seller",
          "type": "address"
        },
        {
          "internalType": "uint256",
          "name": "tokenId",
          "type": "uint256"
        },
        {
          "internalType": "uint256",
          "name": "price",
          "type": "uint256"
        },
        {
          "internalType": "bool",
          "name": "isActive",
          "type": "bool"
        },
        {
          "internalType": "uint256",
          "name": "listedAt",
          "type": "uint256"
        }
      ],
      "stateMutability": "view",
      "type": "function"
    },
    {
      "inputs": [
        {
          "internalType": "uint256",
          "name": "tokenId",
          "type": "uint256"
        }
      ],
      "name": "getAuction",
      "outputs": [
        {
          "components": [
            {
              "internalType": "address",
              "name": "seller",
              "type": "address"
            },
            {
              "internalType": "uint256",
              "name": "tokenId",
              "type": "uint256"
            },
            {
              "internalType": "uint256",
              "name": "minPrice",
              "type": "uint256"
            },
            {
              "internalType": "uint256",
              "name": "highestBid",
              "type": "uint256"
            },
            {
              "internalType": "address",
              "name": "highestBidder",
              "type": "address"
            },
            {
              "internalType": "uint256",
              "name": "startTime",
              "type": "uint256"
            },
            {
              "internalType": "uint256",
              "name": "endTime",
              "type": "uint256"
            },
            {
              "internalType": "bool",
              "name": "isActive",
              "type": "bool"
            },
            {
              "internalType": "bool",
              "name": "claimed",
              "type": "bool"
            }
          ],
          "internalType": "struct DnAContentMarketplace.Auction",
          "name": "",
          "type": "tuple"
        }
      ],
      "stateMutability": "view",
      "type": "function"
    },
    {
      "inputs": [
        {
          "internalType": "uint256",
          "name": "tokenId",
          "type": "uint256"
        }
      ],
      "name": "getAuctionBidders",
      "outputs": [
        {
          "internalType": "address[]",
          "name": "",
          "type": "address[]"
        }
      ],
      "stateMutability": "view",
      "type": "function"
    },
    {
      "inputs": [
        {
          "internalType": "uint256",
          "name": "tokenId",
          "type": "uint256"
        },
        {
          "internalType": "address",
          "name": "bidder",
          "type": "address"
        }
      ],
      "name": "getBidderInfo",
      "outputs": [
        {
          "components": [
            {
              "internalType": "uint256",
              "name": "amount",
              "type": "uint256"
            },
            {
              "internalType": "bool",
              "name": "refunded",
              "type": "bool"
            }
          ],
          "internalType": "struct DnAContentMarketplace.BidderInfo",
          "name": "",
          "type": "tuple"
        }
      ],
      "stateMutability": "view",
      "type": "function"
    },
    {
      "inputs": [
        {
          "internalType": "uint256",
          "name": "tokenId",
          "type": "uint256"
        }
      ],
      "name": "getFixedPriceListing",
      "outputs": [
        {
          "components": [
            {
              "internalType": "address",
              "name": "seller",
              "type": "address"
            },
            {
              "internalType": "uint256",
              "name": "tokenId",
              "type": "uint256"
            },
            {
              "internalType": "uint256",
              "name": "price",
              "type": "uint256"
            },
            {
              "internalType": "bool",
              "name": "isActive",
              "type": "bool"
            },
            {
              "internalType": "uint256",
              "name": "listedAt",
              "type": "uint256"
            }
          ],
          "internalType": "struct DnAContentMarketplace.FixedPriceListing",
          "name": "",
          "type": "tuple"
        }
      ],
      "stateMutability": "view",
      "type": "function"
    },
    {
      "inputs": [
        {
          "internalType": "uint256",
          "name": "",
          "type": "uint256"
        }
      ],
      "name": "isTokenInAuction",
      "outputs": [
        {
          "internalType": "bool",
          "name": "",
          "type": "bool"
        }
      ],
      "stateMutability": "view",
      "type": "function"
    },
    {
      "inputs": [
        {
          "internalType": "uint256",
          "name": "tokenId",
          "type": "uint256"
        }
      ],
      "name": "isTokenListed",
      "outputs": [
        {
          "internalType": "bool",
          "name": "",
          "type": "bool"
        }
      ],
      "stateMutability": "view",
      "type": "function"
    },
    {
      "inputs": [
        {
          "internalType": "uint256",
          "name": "",
          "type": "uint256"
        }
      ],
      "name": "isTokenListedForSale",
      "outputs": [
        {
          "internalType": "bool",
          "name": "",
          "type": "bool"
        }
      ],
      "stateMutability": "view",
      "type": "function"
    },
    {
      "inputs": [
        {
          "internalType": "uint256",
          "name": "tokenId",
          "type": "uint256"
        },
        {
          "internalType": "uint256",
          "name": "price",
          "type": "uint256"
        }
      ],
      "name": "listNFTForSale",
      "outputs": [],
      "stateMutability": "nonpayable",
      "type": "function"
    },
    {
      "inputs": [],
      "name": "nftContract",
      "outputs": [
        {
          "internalType": "contract IERC721",
          "name": "",
          "type": "address"
        }
      ],
      "stateMutability": "view",
      "type": "function"
    },
    {
      "inputs": [
        {
          "internalType": "address",
          "name": "",
          "type": "address"
        },
        {
          "internalType": "address",
          "name": "",
          "type": "address"
        },
        {
          "internalType": "uint256",
          "name": "",
          "type": "uint256"
        },
        {
          "internalType": "bytes",
          "name": "",
          "type": "bytes"
        }
      ],
      "name": "onERC721Received",
      "outputs": [
        {
          "internalType": "bytes4",
          "name": "",
          "type": "bytes4"
        }
      ],
      "stateMutability": "pure",
      "type": "function"
    },
    {
      "inputs": [],
      "name": "owner",
      "outputs": [
        {
          "internalType": "address",
          "name": "",
          "type": "address"
        }
      ],
      "stateMutability": "view",
      "type": "function"
    },
    {
      "inputs": [
        {
          "internalType": "uint256",
          "name": "tokenId",
          "type": "uint256"
        }
      ],
      "name": "placeBid",
      "outputs": [],
      "stateMutability": "payable",
      "type": "function"
    },
    {
      "inputs": [],
      "name": "protocolFeeBps",
      "outputs": [
        {
          "internalType": "uint256",
          "name": "",
          "type": "uint256"
        }
      ],
      "stateMutability": "view",
      "type": "function"
    },
    {
      "inputs": [],
      "name": "protocolFeeReceiver",
      "outputs": [
        {
          "internalType": "address",
          "name": "",
          "type": "address"
        }
      ],
      "stateMutability": "view",
      "type": "function"
    },
    {
      "inputs": [
        {
          "internalType": "uint256",
          "name": "tokenId",
          "type": "uint256"
        }
      ],
      "name": "purchaseNFT",
      "outputs": [],
      "stateMutability": "payable",
      "type": "function"
    },
    {
      "inputs": [
        {
          "internalType": "uint256",
          "name": "tokenId",
          "type": "uint256"
        }
      ],
      "name": "removeNFTFromSale",
      "outputs": [],
      "stateMutability": "nonpayable",
      "type": "function"
    },
    {
      "inputs": [],
      "name": "renounceOwnership",
      "outputs": [],
      "stateMutability": "nonpayable",
      "type": "function"
    },
    {
      "inputs": [
        {
          "internalType": "uint256",
          "name": "newFeeBps",
          "type": "uint256"
        }
      ],
      "name": "setProtocolFee",
      "outputs": [],
      "stateMutability": "nonpayable",
      "type": "function"
    },
    {
      "inputs": [
        {
          "internalType": "address",
          "name": "newReceiver",
          "type": "address"
        }
      ],
      "name": "setProtocolFeeReceiver",
      "outputs": [],
      "stateMutability": "nonpayable",
      "type": "function"
    },
    {
      "inputs": [
        {
          "internalType": "uint256",
          "name": "tokenId",
          "type": "uint256"
        },
        {
          "internalType": "uint256",
          "name": "minPrice",
          "type": "uint256"
        },
        {
          "internalType": "uint256",
          "name": "duration",
          "type": "uint256"
        }
      ],
      "name": "startAuction",
      "outputs": [],
      "stateMutability": "nonpayable",
      "type": "function"
    },
    {
      "inputs": [
        {
          "internalType": "address",
          "name": "newOwner",
          "type": "address"
        }
      ],
      "name": "transferOwnership",
      "outputs": [],
      "stateMutability": "nonpayable",
      "type": "function"
    },
    {
      "inputs": [],
      "name": "withdrawProtocolFees",
      "outputs": [],
      "stateMutability": "nonpayable",
      "type": "function"
    }
  ],
  "bytecode": "0x60a060405260fa6002553480156200001657600080fd5b5060405162002e0338038062002e03833981016040819052620000399162000117565b6200004433620000c7565b600180556001600160a01b038116620000a35760405162461bcd60e51b815260206004820152601c60248201527f496e76616c6964204e465420636f6e7472616374206164647265737300000000604482015260640160405180910390fd5b6001600160a01b0316608052600380546001600160a01b0319163317905562000149565b600080546001600160a01b038381166001600160a01b0319831681178455604051919092169283917f8be0079c531659141344cd1fd0a4f28419497f9722a3daafe3b4186f6b6457e09190a35050565b6000602082840312156200012a57600080fd5b81516001600160a01b03811681146200014257600080fd5b9392505050565b608051612c5f620001a46000396000818161075d015281816109c60152818161134a015281816115e501528181611be801528181611cdb01528181611eb901528181612288015281816123e5015261275c0152612c5f6000f3fe6080604052600436106101e35760003560e01c8063883a84ad11610102578063a02e510711610095578063db2e21bc11610064578063db2e21bc1461077f578063df27646914610794578063f2fde38b146107c1578063fab9c918146107e157600080fd5b8063a02e5107146106eb578063b2733b391461070b578063b9a2de3a1461072b578063d56d229d1461074b57600080fd5b80639979ef45116100d15780639979ef45146106685780639b83cddc1461067b5780639c7c270c1461069b5780639fbacd75146106bb57600080fd5b8063883a84ad14610533578063899a289a146105c25780638da5cb5b1461062a57806391e078bb1461064857600080fd5b8063571a26a01161017a578063787dce3d11610149578063787dce3d1461049157806378bd7935146104b15780637c17855d146104de5780638795cccb1461051e57600080fd5b8063571a26a014610377578063587f5ed7146104465780635b7baf641461045c578063715018a61461047c57600080fd5b80631cb78fb3116101b65780631cb78fb3146102bc57806335659fb81461031357806339a51be51461033757806346877b1a1461035757600080fd5b80630f715f1d146101e8578063150b7a0214610225578063150bde031461026a578063199f3edf1461027f575b600080fd5b3480156101f457600080fd5b506102086102033660046128f9565b610801565b6040516001600160a01b0390911681526020015b60405180910390f35b34801561023157600080fd5b50610251610240366004612930565b630a85bd0160e11b95945050505050565b6040516001600160e01b0319909116815260200161021c565b61027d6102783660046129cf565b610839565b005b34801561028b57600080fd5b5061029f61029a3660046129e8565b610bea565b60408051825181526020928301511515928101929092520161021c565b3480156102c857600080fd5b506102fe6102d73660046129e8565b60086020908152600092835260408084209091529082529020805460019091015460ff1682565b6040805192835290151560208301520161021c565b34801561031f57600080fd5b5061032960025481565b60405190815260200161021c565b34801561034357600080fd5b50600354610208906001600160a01b031681565b34801561036357600080fd5b5061027d610372366004612a18565b610c3b565b34801561038357600080fd5b506103ef6103923660046129cf565b6006602081905260009182526040909120805460018201546002830154600384015460048501546005860154968601546007909601546001600160a01b039586169794969395929492909116929060ff8082169161010090041689565b604080516001600160a01b039a8b1681526020810199909952880196909652606087019490945295909116608085015260a084015260c083019390935291151560e08201529015156101008201526101200161021c565b34801561045257600080fd5b50610329600a5481565b34801561046857600080fd5b5061027d6104773660046129cf565b610cfc565b34801561048857600080fd5b5061027d610f94565b34801561049d57600080fd5b5061027d6104ac3660046129cf565b610fa8565b3480156104bd57600080fd5b506104d16104cc3660046129cf565b611045565b60405161021c9190612a3c565b3480156104ea57600080fd5b5061050e6104f93660046129cf565b60076020526000908152604090205460ff1681565b604051901515815260200161021c565b34801561052a57600080fd5b5061027d611138565b34801561053f57600080fd5b5061058e61054e3660046129cf565b6004602081905260009182526040909120805460018201546002830154600384015493909401546001600160a01b03909216939092909160ff9091169085565b604080516001600160a01b03909616865260208601949094529284019190915215156060830152608082015260a00161021c565b3480156105ce57600080fd5b506105e26105dd3660046129cf565b611291565b60405161021c919081516001600160a01b0316815260208083015190820152604080830151908201526060808301511515908201526080918201519181019190915260a00190565b34801561063657600080fd5b506000546001600160a01b0316610208565b34801561065457600080fd5b5061027d610663366004612ab6565b611328565b61027d6106763660046129cf565b611835565b34801561068757600080fd5b5061050e6106963660046129cf565b611ad6565b3480156106a757600080fd5b506103296106b63660046129cf565b611b04565b3480156106c757600080fd5b5061050e6106d63660046129cf565b60056020526000908152604090205460ff1681565b3480156106f757600080fd5b5061027d6107063660046129cf565b611b21565b34801561071757600080fd5b5061027d6107263660046128f9565b611cb9565b34801561073757600080fd5b5061027d6107463660046129cf565b612061565b34801561075757600080fd5b506102087f000000000000000000000000000000000000000000000000000000000000000081565b34801561078b57600080fd5b5061027d6124af565b3480156107a057600080fd5b506107b46107af3660046129cf565b6125b4565b60405161021c9190612ae2565b3480156107cd57600080fd5b5061027d6107dc366004612a18565b612620565b3480156107ed57600080fd5b5061027d6107fc3660046129cf565b612696565b6009602052816000526040600020818154811061081d57600080fd5b6000918252602090912001546001600160a01b03169150829050565b6108416127f6565b6000818152600460205260409020600381015460ff166108a45760405162461bcd60e51b8152602060048201526019602482015278546f6b656e206e6f74206c697374656420666f722073616c6560381b60448201526064015b60405180910390fd5b80600201543410156108ef5760405162461bcd60e51b8152602060048201526014602482015273125b9cdd59999a58da595b9d081c185e5b595b9d60621b604482015260640161089b565b80546001600160a01b031633036109485760405162461bcd60e51b815260206004820152601760248201527f43616e6e6f742062757920796f7572206f776e204e4654000000000000000000604482015260640161089b565b805460028083015490546001600160a01b03909216916000906127109061096f9084612b45565b6109799190612b5c565b905060006109878284612b7e565b60038601805460ff1990811690915560008881526005602052604090819020805490921690915551632142170760e11b81529091506001600160a01b037f000000000000000000000000000000000000000000000000000000000000000016906342842e0e906109ff90309033908b90600401612b91565b600060405180830381600087803b158015610a1957600080fd5b505af1158015610a2d573d6000803e3d6000fd5b5050505081600a6000828254610a439190612bb5565b90915550506040516000906001600160a01b0386169083908381818185875af1925050503d8060008114610a93576040519150601f19603f3d011682016040523d82523d6000602084013e610a98565b606091505b5050905080610ae05760405162461bcd60e51b81526020600482015260146024820152732330b4b632b2103a37903830bc9039b2b63632b960611b604482015260640161089b565b83341115610b8957600033610af58634612b7e565b604051600081818185875af1925050503d8060008114610b31576040519150601f19603f3d011682016040523d82523d6000602084013e610b36565b606091505b5050905080610b875760405162461bcd60e51b815260206004820152601f60248201527f4661696c656420746f20726566756e6420657863657373207061796d656e7400604482015260640161089b565b505b60408051858152602081018590524281830152905133916001600160a01b038816918a917f3d0e34fc598408a370422f500dd8d2e803900b70edbfd7f9dd07b2cb35e7c8c7919081900360600190a4505050505050610be760018055565b50565b60408051808201825260008082526020918201819052848152600882528281206001600160a01b038516825282528290208251808401909352805483526001015460ff161515908201525b92915050565b610c4361284f565b6001600160a01b038116610c995760405162461bcd60e51b815260206004820152601860248201527f496e76616c696420726563656976657220616464726573730000000000000000604482015260640161089b565b600380546001600160a01b038381166001600160a01b0319831681179093556040519116919082907fd50f6337203167ba1e2ef808f8433a7630572ef622a612f76025877031df84a890610cf09042815260200190565b60405180910390a35050565b610d046127f6565b6000818152600660208190526040909120908101544211610d5e5760405162461bcd60e51b815260206004820152601460248201527341756374696f6e207374696c6c2061637469766560601b604482015260640161089b565b600781015460ff1615610da75760405162461bcd60e51b8152602060048201526011602482015270105d58dd1a5bdb881b9bdd08195b991959607a1b604482015260640161089b565b600082815260086020908152604080832033845290915290208054610dfd5760405162461bcd60e51b815260206004820152600c60248201526b139bc8189a5908199bdd5b9960a21b604482015260640161089b565b600181015460ff1615610e455760405162461bcd60e51b815260206004820152601060248201526f105b1c9958591e481c99599d5b99195960821b604482015260640161089b565b60048201546001600160a01b03163303610ea15760405162461bcd60e51b815260206004820152601a60248201527f57696e6e65722063616e6e6f7420636c61696d20726566756e64000000000000604482015260640161089b565b80546001808301805460ff19169091179055604051600090339083908381818185875af1925050503d8060008114610ef5576040519150601f19603f3d011682016040523d82523d6000602084013e610efa565b606091505b5050905080610f4b5760405162461bcd60e51b815260206004820152601860248201527f4661696c656420746f2070726f6365737320726566756e640000000000000000604482015260640161089b565b60408051838152426020820152339187917fd0db0e7eda41bb1bea0e3cefcb1e61a85c4224eb3946df6220ba4a29f7d5462a910160405180910390a350505050610be760018055565b610f9c61284f565b610fa660006128a9565b565b610fb061284f565b6103e8811115610ffa5760405162461bcd60e51b81526020600482015260156024820152744665652063616e6e6f74206578636565642031302560581b604482015260640161089b565b60028054908290556040805182815260208101849052428183015290517f958d79f7eb050033dd12dc5d5cdb0ca36e424a7bf3c53c15488c657e82a570b29181900360600190a15050565b6110aa60405180610120016040528060006001600160a01b0316815260200160008152602001600081526020016000815260200160006001600160a01b0316815260200160008152602001600081526020016000151581526020016000151581525090565b5060009081526006602081815260409283902083516101208101855281546001600160a01b0390811682526001830154938201939093526002820154948101949094526003810154606085015260048101549091166080840152600581015460a08401529081015460c08301526007015460ff808216151560e0840152610100918290041615159082015290565b61114061284f565b6111486127f6565b6000600a54116111905760405162461bcd60e51b81526020600482015260136024820152724e6f206665657320746f20776974686472617760681b604482015260640161089b565b600a80546000918290556003546040519192916001600160a01b039091169083908381818185875af1925050503d80600081146111e9576040519150601f19603f3d011682016040523d82523d6000602084013e6111ee565b606091505b505090508061123f5760405162461bcd60e51b815260206004820152601760248201527f4661696c656420746f2077697468647261772066656573000000000000000000604482015260640161089b565b600354604080518481524260208201526001600160a01b03909216917ff299f1f754362fc7673effe66e73ca8d292dd87fc9fef1f28f7b97b2edc4c75b910160405180910390a25050610fa660018055565b6112ce6040518060a0016040528060006001600160a01b031681526020016000815260200160008152602001600015158152602001600081525090565b50600090815260046020818152604092839020835160a08101855281546001600160a01b03168152600182015492810192909252600281015493820193909352600383015460ff1615156060820152910154608082015290565b6040516331a9108f60e11b815260048101849052839033906001600160a01b037f00000000000000000000000000000000000000000000000000000000000000001690636352211e90602401602060405180830381865afa158015611391573d6000803e3d6000fd5b505050506040513d601f19601f820116820180604052508101906113b59190612bc8565b6001600160a01b0316146113fd5760405162461bcd60e51b815260206004820152600f60248201526e2737ba103a37b5b2b71037bbb732b960891b604482015260640161089b565b600084815260056020526040902054849060ff161561145e5760405162461bcd60e51b815260206004820152601d60248201527f546f6b656e20616c7265616479206c697374656420666f722073616c65000000604482015260640161089b565b60008181526007602052604090205460ff16156114b85760405162461bcd60e51b81526020600482015260186024820152772a37b5b2b71030b63932b0b23c9034b71030bab1ba34b7b760411b604482015260640161089b565b83600081116115095760405162461bcd60e51b815260206004820152601f60248201527f5072696365206d7573742062652067726561746572207468616e207a65726f00604482015260640161089b565b6115116127f6565b610e1084101561156d5760405162461bcd60e51b815260206004820152602160248201527f41756374696f6e206d757374206c617374206174206c65617374203120686f756044820152603960f91b606482015260840161089b565b62278d008411156115ce5760405162461bcd60e51b815260206004820152602560248201527f41756374696f6e2063616e6e6f74206c617374206d6f7265207468616e203330604482015264206461797360d81b606482015260840161089b565b604051632142170760e11b81526001600160a01b037f000000000000000000000000000000000000000000000000000000000000000016906342842e0e9061161e90339030908b90600401612b91565b600060405180830381600087803b15801561163857600080fd5b505af115801561164c573d6000803e3d6000fd5b504292506000915061166090508683612bb5565b9050604051806101200160405280336001600160a01b031681526020018981526020018881526020016000815260200160006001600160a01b0316815260200183815260200182815260200160011515815260200160001515815250600660008a815260200190815260200160002060008201518160000160006101000a8154816001600160a01b0302191690836001600160a01b0316021790555060208201518160010155604082015181600201556060820151816003015560808201518160040160006101000a8154816001600160a01b0302191690836001600160a01b0316021790555060a0820151816005015560c0820151816006015560e08201518160070160006101000a81548160ff0219169083151502179055506101008201518160070160016101000a81548160ff0219169083151502179055509050506001600760008a815260200190815260200160002060006101000a81548160ff021916908315150217905550336001600160a01b0316887f891c95c01123dab4c2e9f5730be4341f0389880525f5d7c2a645a77555c27ff789858560405161181a939291909283526020830191909152604082015260600190565b60405180910390a3505061182d60018055565b505050505050565b600081815260066020526040902060070154819060ff166118685760405162461bcd60e51b815260040161089b90612be5565b6000828152600660208190526040909120015482904211156118c25760405162461bcd60e51b8152602060048201526013602482015272105d58dd1a5bdb881a185cc8195e1c1a5c9959606a1b604482015260640161089b565b6118ca6127f6565b600083815260066020526040902080546001600160a01b031633036119315760405162461bcd60e51b815260206004820181905260248201527f53656c6c65722063616e6e6f7420626964206f6e206f776e2061756374696f6e604482015260640161089b565b80600201543410156119855760405162461bcd60e51b815260206004820152601760248201527f4269642062656c6f77206d696e696d756d207072696365000000000000000000604482015260640161089b565b6003810154156119f657806003015434116119f65760405162461bcd60e51b815260206004820152602b60248201527f426964206d75737420626520686967686572207468616e2063757272656e742060448201526a1a1a59da195cdd08189a5960aa1b606482015260840161089b565b600084815260086020908152604080832033845290915281208054909103611a475760008581526009602090815260408220805460018101825590835291200180546001600160a01b031916331790555b34816000016000828254611a5b9190612bb5565b909155505060018101805460ff19169055805460038301556004820180546001600160a01b0319163390811790915581546040805191825242602083015287917fcde18333b910a25ba5421e992ecee5c314e557346e94ab2ab424658bbb3707e6910160405180910390a35050611ad160018055565b505050565b60008181526005602052604081205460ff1680610c3557505060009081526007602052604090205460ff1690565b600061271060025483611b179190612b45565b610c359190612b5c565b611b296127f6565b6000818152600460205260409020600381015460ff16611b875760405162461bcd60e51b8152602060048201526019602482015278546f6b656e206e6f74206c697374656420666f722073616c6560381b604482015260640161089b565b80546001600160a01b03163314611bd15760405162461bcd60e51b815260206004820152600e60248201526d2737ba103a34329039b2b63632b960911b604482015260640161089b565b604051632142170760e11b81526001600160a01b037f000000000000000000000000000000000000000000000000000000000000000016906342842e0e90611c2190309033908790600401612b91565b600060405180830381600087803b158015611c3b57600080fd5b505af1158015611c4f573d6000803e3d6000fd5b5050505060038101805460ff19908116909155600083815260056020908152604091829020805490931690925551428152339184917f157ac5612deaae220ded81ec6551c25d3a36978c87cc0783a7a3355681b6c6cf910160405180910390a350610be760018055565b6040516331a9108f60e11b815260048101839052829033906001600160a01b037f00000000000000000000000000000000000000000000000000000000000000001690636352211e90602401602060405180830381865afa158015611d22573d6000803e3d6000fd5b505050506040513d601f19601f82011682018060405250810190611d469190612bc8565b6001600160a01b031614611d8e5760405162461bcd60e51b815260206004820152600f60248201526e2737ba103a37b5b2b71037bbb732b960891b604482015260640161089b565b600083815260056020526040902054839060ff1615611def5760405162461bcd60e51b815260206004820152601d60248201527f546f6b656e20616c7265616479206c697374656420666f722073616c65000000604482015260640161089b565b60008181526007602052604090205460ff1615611e495760405162461bcd60e51b81526020600482015260186024820152772a37b5b2b71030b63932b0b23c9034b71030bab1ba34b7b760411b604482015260640161089b565b8260008111611e9a5760405162461bcd60e51b815260206004820152601f60248201527f5072696365206d7573742062652067726561746572207468616e207a65726f00604482015260640161089b565b611ea26127f6565b604051632142170760e11b81526001600160a01b037f000000000000000000000000000000000000000000000000000000000000000016906342842e0e90611ef290339030908a90600401612b91565b600060405180830381600087803b158015611f0c57600080fd5b505af1158015611f20573d6000803e3d6000fd5b505050506040518060a00160405280336001600160a01b03168152602001868152602001858152602001600115158152602001428152506004600087815260200190815260200160002060008201518160000160006101000a8154816001600160a01b0302191690836001600160a01b03160217905550602082015181600101556040820151816002015560608201518160030160006101000a81548160ff0219169083151502179055506080820151816004015590505060016005600087815260200190815260200160002060006101000a81548160ff021916908315150217905550336001600160a01b0316857fc42bbfb9e123e473199e71aa6d23dc92b6e5f9c3df70e713ce7f551fe89089cd8642604051612049929190918252602082015260400190565b60405180910390a361205a60018055565b5050505050565b600081815260066020526040902060070154819060ff166120945760405162461bcd60e51b815260040161089b90612be5565b60008281526006602081905260409091200154829042116120ee5760405162461bcd60e51b815260206004820152601460248201527341756374696f6e207374696c6c2061637469766560601b604482015260640161089b565b6120f66127f6565b60008381526006602052604090206007810154610100900460ff161561215e5760405162461bcd60e51b815260206004820152601760248201527f41756374696f6e20616c726561647920636c61696d6564000000000000000000604482015260640161089b565b60078101805460ff1916905560048101546001600160a01b0316156123cc57600381015460048201546002546001600160a01b0390911690600090612710906121a79085612b45565b6121b19190612b5c565b905060006121bf8285612b7e565b905081600a60008282546121d39190612bb5565b909155505084546040516000916001600160a01b03169083908381818185875af1925050503d8060008114612224576040519150601f19603f3d011682016040523d82523d6000602084013e612229565b606091505b50509050806122715760405162461bcd60e51b81526020600482015260146024820152732330b4b632b2103a37903830bc9039b2b63632b960611b604482015260640161089b565b604051632142170760e11b81526001600160a01b037f000000000000000000000000000000000000000000000000000000000000000016906342842e0e906122c190309088908e90600401612b91565b600060405180830381600087803b1580156122db57600080fd5b505af11580156122ef573d6000803e3d6000fd5b50505060008a81526008602090815260408083206001600160a01b0389168085529252918290206001908101805460ff1916909117905560078901805461ff00191661010017905590519091508a907fe9ba83469fc8ee4260dd274fd43b5a54f2df813ad21c4637d53084d1f3866b37906123769089904290918252602082015260400190565b60405180910390a3836001600160a01b0316897f92ffae31901780890e35bdc724fedb7601577492b5d4e3df85f785de59d737ab426040516123ba91815260200190565b60405180910390a3505050505061248f565b8054604051632142170760e11b81526001600160a01b037f00000000000000000000000000000000000000000000000000000000000000008116926342842e0e9261241f92309216908990600401612b91565b600060405180830381600087803b15801561243957600080fd5b505af115801561244d573d6000803e3d6000fd5b505060408051600080825242602083015293508792507fe9ba83469fc8ee4260dd274fd43b5a54f2df813ad21c4637d53084d1f3866b37910160405180910390a35b506000838152600760205260409020805460ff19169055611ad160018055565b6124b761284f565b6124bf6127f6565b47806125065760405162461bcd60e51b81526020600482015260166024820152754e6f2062616c616e636520746f20776974686472617760501b604482015260640161089b565b600080546040516001600160a01b039091169083908381818185875af1925050503d8060008114612553576040519150601f19603f3d011682016040523d82523d6000602084013e612558565b606091505b50509050806125a95760405162461bcd60e51b815260206004820152601b60248201527f456d657267656e6379207769746864726177616c206661696c65640000000000604482015260640161089b565b5050610fa660018055565b60008181526009602090815260409182902080548351818402810184019094528084526060939283018282801561261457602002820191906000526020600020905b81546001600160a01b031681526001909101906020018083116125f6575b50505050509050919050565b61262861284f565b6001600160a01b03811661268d5760405162461bcd60e51b815260206004820152602660248201527f4f776e61626c653a206e6577206f776e657220697320746865207a65726f206160448201526564647265737360d01b606482015260840161089b565b610be7816128a9565b61269e61284f565b6126a66127f6565b60008181526005602052604090205460ff16156127055760405162461bcd60e51b815260206004820152601860248201527f546f6b656e206973206c697374656420666f722073616c650000000000000000604482015260640161089b565b60008181526007602052604090205460ff161561275a5760405162461bcd60e51b81526020600482015260136024820152722a37b5b2b71034b99034b71030bab1ba34b7b760691b604482015260640161089b565b7f00000000000000000000000000000000000000000000000000000000000000006001600160a01b03166342842e0e3061279c6000546001600160a01b031690565b846040518463ffffffff1660e01b81526004016127bb93929190612b91565b600060405180830381600087803b1580156127d557600080fd5b505af11580156127e9573d6000803e3d6000fd5b50505050610be760018055565b6002600154036128485760405162461bcd60e51b815260206004820152601f60248201527f5265656e7472616e637947756172643a207265656e7472616e742063616c6c00604482015260640161089b565b6002600155565b6000546001600160a01b03163314610fa65760405162461bcd60e51b815260206004820181905260248201527f4f776e61626c653a2063616c6c6572206973206e6f7420746865206f776e6572604482015260640161089b565b600080546001600160a01b038381166001600160a01b0319831681178455604051919092169283917f8be0079c531659141344cd1fd0a4f28419497f9722a3daafe3b4186f6b6457e09190a35050565b6000806040838503121561290c57600080fd5b50508035926020909101359150565b6001600160a01b0381168114610be757600080fd5b60008060008060006080868803121561294857600080fd5b85356129538161291b565b945060208601356129638161291b565b935060408601359250606086013567ffffffffffffffff8082111561298757600080fd5b818801915088601f83011261299b57600080fd5b8135818111156129aa57600080fd5b8960208285010111156129bc57600080fd5b9699959850939650602001949392505050565b6000602082840312156129e157600080fd5b5035919050565b600080604083850312156129fb57600080fd5b823591506020830135612a0d8161291b565b809150509250929050565b600060208284031215612a2a57600080fd5b8135612a358161291b565b9392505050565b60006101208201905060018060a01b038084511683526020840151602084015260408401516040840152606084015160608401528060808501511660808401525060a083015160a083015260c083015160c083015260e0830151612aa460e084018215159052565b50610100928301511515919092015290565b600080600060608486031215612acb57600080fd5b505081359360208301359350604090920135919050565b6020808252825182820181905260009190848201906040850190845b81811015612b235783516001600160a01b031683529284019291840191600101612afe565b50909695505050505050565b634e487b7160e01b600052601160045260246000fd5b8082028115828204841417610c3557610c35612b2f565b600082612b7957634e487b7160e01b600052601260045260246000fd5b500490565b81810381811115610c3557610c35612b2f565b6001600160a01b039384168152919092166020820152604081019190915260600190565b80820180821115610c3557610c35612b2f565b600060208284031215612bda57600080fd5b8151612a358161291b565b60208082526024908201527f41756374696f6e20646f6573206e6f74206578697374206f72206e6f742061636040820152637469766560e01b60608201526080019056fea2646970667358221220f3b493894d224ef53cf7852faf7693fe894742626c740fd92b7a7a18f449124164736f6c63430008140033",
  "linkReferences": {},
  "deployedLinkReferences": {}
}