{
  "_format": "hh-sol-artifact-1",
  "contractName": "DnAContentMarketplace",
  "sourceName": "contracts/DnAContentMarketplace.sol",
  "abi": [
    {
      "inputs": [
        {
          "internalType": "address",
          "name": "_nftContract",
          "type": "address"
        }
      ],
      "stateMutability": "nonpayable",
      "type": "constructor"
    },
    {
      "anonymous": false,
      "inputs": [
        {
          "indexed": true,
          "internalType": "uint256",
          "name": "tokenId",
          "type": "uint256"
        },
        {
          "indexed": true,
          "internalType": "address",
          "name": "winner",
          "type": "address"
        },
        {
          "indexed": false,
          "internalType": "uint256",
          "name": "winningBid",
          "type": "uint256"
        },
        {
          "indexed": false,
          "internalType": "uint256",
          "name": "timestamp",
          "type": "uint256"
        }
      ],
      "name": "AuctionEnded",
      "type": "event"
    },
    {
      "anonymous": false,
      "inputs": [
        {
          "indexed": true,
          "internalType": "uint256",
          "name": "tokenId",
          "type": "uint256"
        },
        {
          "indexed": true,
          "internalType": "address",
          "name": "seller",
          "type": "address"
        },
        {
          "indexed": false,
          "internalType": "uint256",
          "name": "minPrice",
          "type": "uint256"
        },
        {
          "indexed": false,
          "internalType": "uint256",
          "name": "startTime",
          "type": "uint256"
        },
        {
          "indexed": false,
          "internalType": "uint256",
          "name": "endTime",
          "type": "uint256"
        }
      ],
      "name": "AuctionStarted",
      "type": "event"
    },
    {
      "anonymous": false,
      "inputs": [
        {
          "indexed": true,
          "internalType": "uint256",
          "name": "tokenId",
          "type": "uint256"
        },
        {
          "indexed": true,
          "internalType": "address",
          "name": "recipient",
          "type": "address"
        },
        {
          "indexed": false,
          "internalType": "uint256",
          "name": "timestamp",
          "type": "uint256"
        }
      ],
      "name": "NFTClaimed",
      "type": "event"
    },
    {
      "anonymous": false,
      "inputs": [
        {
          "indexed": true,
          "internalType": "uint256",
          "name": "tokenId",
          "type": "uint256"
        },
        {
          "indexed": true,
          "internalType": "address",
          "name": "seller",
          "type": "address"
        },
        {
          "indexed": false,
          "internalType": "uint256",
          "name": "price",
          "type": "uint256"
        },
        {
          "indexed": false,
          "internalType": "uint256",
          "name": "timestamp",
          "type": "uint256"
        }
      ],
      "name": "NFTListedForSale",
      "type": "event"
    },
    {
      "anonymous": false,
      "inputs": [
        {
          "indexed": true,
          "internalType": "uint256",
          "name": "tokenId",
          "type": "uint256"
        },
        {
          "indexed": true,
          "internalType": "address",
          "name": "seller",
          "type": "address"
        },
        {
          "indexed": true,
          "internalType": "address",
          "name": "buyer",
          "type": "address"
        },
        {
          "indexed": false,
          "internalType": "uint256",
          "name": "price",
          "type": "uint256"
        },
        {
          "indexed": false,
          "internalType": "uint256",
          "name": "protocolFee",
          "type": "uint256"
        },
        {
          "indexed": false,
          "internalType": "uint256",
          "name": "timestamp",
          "type": "uint256"
        }
      ],
      "name": "NFTPurchased",
      "type": "event"
    },
    {
      "anonymous": false,
      "inputs": [
        {
          "indexed": true,
          "internalType": "uint256",
          "name": "tokenId",
          "type": "uint256"
        },
        {
          "indexed": true,
          "internalType": "address",
          "name": "seller",
          "type": "address"
        },
        {
          "indexed": false,
          "internalType": "uint256",
          "name": "timestamp",
          "type": "uint256"
        }
      ],
      "name": "NFTSaleRemoved",
      "type": "event"
    },
    {
      "anonymous": false,
      "inputs": [
        {
          "indexed": true,
          "internalType": "uint256",
          "name": "tokenId",
          "type": "uint256"
        },
        {
          "indexed": true,
          "internalType": "address",
          "name": "bidder",
          "type": "address"
        },
        {
          "indexed": false,
          "internalType": "uint256",
          "name": "amount",
          "type": "uint256"
        },
        {
          "indexed": false,
          "internalType": "uint256",
          "name": "timestamp",
          "type": "uint256"
        }
      ],
      "name": "NewBid",
      "type": "event"
    },
    {
      "anonymous": false,
      "inputs": [
        {
          "indexed": true,
          "internalType": "address",
          "name": "previousOwner",
          "type": "address"
        },
        {
          "indexed": true,
          "internalType": "address",
          "name": "newOwner",
          "type": "address"
        }
      ],
      "name": "OwnershipTransferred",
      "type": "event"
    },
    {
      "anonymous": false,
      "inputs": [
        {
          "indexed": true,
          "internalType": "address",
          "name": "oldReceiver",
          "type": "address"
        },
        {
          "indexed": true,
          "internalType": "address",
          "name": "newReceiver",
          "type": "address"
        },
        {
          "indexed": false,
          "internalType": "uint256",
          "name": "timestamp",
          "type": "uint256"
        }
      ],
      "name": "ProtocolFeeReceiverUpdated",
      "type": "event"
    },
    {
      "anonymous": false,
      "inputs": [
        {
          "indexed": false,
          "internalType": "uint256",
          "name": "oldFeeBps",
          "type": "uint256"
        },
        {
          "indexed": false,
          "internalType": "uint256",
          "name": "newFeeBps",
          "type": "uint256"
        },
        {
          "indexed": false,
          "internalType": "uint256",
          "name": "timestamp",
          "type": "uint256"
        }
      ],
      "name": "ProtocolFeeUpdated",
      "type": "event"
    },
    {
      "anonymous": false,
      "inputs": [
        {
          "indexed": true,
          "internalType": "address",
          "name": "to",
          "type": "address"
        },
        {
          "indexed": false,
          "internalType": "uint256",
          "name": "amount",
          "type": "uint256"
        },
        {
          "indexed": false,
          "internalType": "uint256",
          "name": "timestamp",
          "type": "uint256"
        }
      ],
      "name": "ProtocolFeesWithdrawn",
      "type": "event"
    },
    {
      "anonymous": false,
      "inputs": [
        {
          "indexed": true,
          "internalType": "uint256",
          "name": "tokenId",
          "type": "uint256"
        },
        {
          "indexed": true,
          "internalType": "address",
          "name": "bidder",
          "type": "address"
        },
        {
          "indexed": false,
          "internalType": "uint256",
          "name": "amount",
          "type": "uint256"
        },
        {
          "indexed": false,
          "internalType": "uint256",
          "name": "timestamp",
          "type": "uint256"
        }
      ],
      "name": "RefundProcessed",
      "type": "event"
    },
    {
      "inputs": [],
      "name": "accumulatedFees",
      "outputs": [
        {
          "internalType": "uint256",
          "name": "",
          "type": "uint256"
        }
      ],
      "stateMutability": "view",
      "type": "function"
    },
    {
      "inputs": [
        {
          "internalType": "uint256",
          "name": "",
          "type": "uint256"
        },
        {
          "internalType": "uint256",
          "name": "",
          "type": "uint256"
        }
      ],
      "name": "auctionBidders",
      "outputs": [
        {
          "internalType": "address",
          "name": "",
          "type": "address"
        }
      ],
      "stateMutability": "view",
      "type": "function"
    },
    {
      "inputs": [
        {
          "internalType": "uint256",
          "name": "",
          "type": "uint256"
        }
      ],
      "name": "auctions",
      "outputs": [
        {
          "internalType": "address",
          "name": "seller",
          "type": "address"
        },
        {
          "internalType": "uint256",
          "name": "tokenId",
          "type": "uint256"
        },
        {
          "internalType": "uint256",
          "name": "minPrice",
          "type": "uint256"
        },
        {
          "internalType": "uint256",
          "name": "highestBid",
          "type": "uint256"
        },
        {
          "internalType": "address",
          "name": "highestBidder",
          "type": "address"
        },
        {
          "internalType": "uint256",
          "name": "startTime",
          "type": "uint256"
        },
        {
          "internalType": "uint256",
          "name": "endTime",
          "type": "uint256"
        },
        {
          "internalType": "bool",
          "name": "isActive",
          "type": "bool"
        },
        {
          "internalType": "bool",
          "name": "claimed",
          "type": "bool"
        }
      ],
      "stateMutability": "view",
      "type": "function"
    },
    {
      "inputs": [
        {
          "internalType": "uint256",
          "name": "",
          "type": "uint256"
        },
        {
          "internalType": "address",
          "name": "",
          "type": "address"
        }
      ],
      "name": "bidderInfo",
      "outputs": [
        {
          "internalType": "uint256",
          "name": "amount",
          "type": "uint256"
        },
        {
          "internalType": "bool",
          "name": "refunded",
          "type": "bool"
        }
      ],
      "stateMutability": "view",
      "type": "function"
    },
    {
      "inputs": [
        {
          "internalType": "uint256",
          "name": "price",
          "type": "uint256"
        }
      ],
      "name": "calculateProtocolFee",
      "outputs": [
        {
          "internalType": "uint256",
          "name": "",
          "type": "uint256"
        }
      ],
      "stateMutability": "view",
      "type": "function"
    },
    {
      "inputs": [
        {
          "internalType": "uint256",
          "name": "tokenId",
          "type": "uint256"
        }
      ],
      "name": "claimAuction",
      "outputs": [],
      "stateMutability": "nonpayable",
      "type": "function"
    },
    {
      "inputs": [
        {
          "internalType": "uint256",
          "name": "tokenId",
          "type": "uint256"
        }
      ],
      "name": "claimRefund",
      "outputs": [],
      "stateMutability": "nonpayable",
      "type": "function"
    },
    {
      "inputs": [
        {
          "internalType": "uint256",
          "name": "tokenId",
          "type": "uint256"
        }
      ],
      "name": "emergencyRecoverNFT",
      "outputs": [],
      "stateMutability": "nonpayable",
      "type": "function"
    },
    {
      "inputs": [],
      "name": "emergencyWithdraw",
      "outputs": [],
      "stateMutability": "nonpayable",
      "type": "function"
    },
    {
      "inputs": [
        {
          "internalType": "uint256",
          "name": "tokenId",
          "type": "uint256"
        }
      ],
      "name": "endAuction",
      "outputs": [],
      "stateMutability": "nonpayable",
      "type": "function"
    },
    {
      "inputs": [
        {
          "internalType": "uint256",
          "name": "",
          "type": "uint256"
        }
      ],
      "name": "fixedPriceListings",
      "outputs": [
        {
          "internalType": "address",
          "name": "seller",
          "type": "address"
        },
        {
          "internalType": "uint256",
          "name": "tokenId",
          "type": "uint256"
        },
        {
          "internalType": "uint256",
          "name": "price",
          "type": "uint256"
        },
        {
          "internalType": "bool",
          "name": "isActive",
          "type": "bool"
        },
        {
          "internalType": "uint256",
          "name": "listedAt",
          "type": "uint256"
        }
      ],
      "stateMutability": "view",
      "type": "function"
    },
    {
      "inputs": [
        {
          "internalType": "uint256",
          "name": "tokenId",
          "type": "uint256"
        }
      ],
      "name": "getAuction",
      "outputs": [
        {
          "components": [
            {
              "internalType": "address",
              "name": "seller",
              "type": "address"
            },
            {
              "internalType": "uint256",
              "name": "tokenId",
              "type": "uint256"
            },
            {
              "internalType": "uint256",
              "name": "minPrice",
              "type": "uint256"
            },
            {
              "internalType": "uint256",
              "name": "highestBid",
              "type": "uint256"
            },
            {
              "internalType": "address",
              "name": "highestBidder",
              "type": "address"
            },
            {
              "internalType": "uint256",
              "name": "startTime",
              "type": "uint256"
            },
            {
              "internalType": "uint256",
              "name": "endTime",
              "type": "uint256"
            },
            {
              "internalType": "bool",
              "name": "isActive",
              "type": "bool"
            },
            {
              "internalType": "bool",
              "name": "claimed",
              "type": "bool"
            }
          ],
          "internalType": "struct DnAContentMarketplace.Auction",
          "name": "",
          "type": "tuple"
        }
      ],
      "stateMutability": "view",
      "type": "function"
    },
    {
      "inputs": [
        {
          "internalType": "uint256",
          "name": "tokenId",
          "type": "uint256"
        }
      ],
      "name": "getAuctionBidders",
      "outputs": [
        {
          "internalType": "address[]",
          "name": "",
          "type": "address[]"
        }
      ],
      "stateMutability": "view",
      "type": "function"
    },
    {
      "inputs": [
        {
          "internalType": "uint256",
          "name": "tokenId",
          "type": "uint256"
        },
        {
          "internalType": "address",
          "name": "bidder",
          "type": "address"
        }
      ],
      "name": "getBidderInfo",
      "outputs": [
        {
          "components": [
            {
              "internalType": "uint256",
              "name": "amount",
              "type": "uint256"
            },
            {
              "internalType": "bool",
              "name": "refunded",
              "type": "bool"
            }
          ],
          "internalType": "struct DnAContentMarketplace.BidderInfo",
          "name": "",
          "type": "tuple"
        }
      ],
      "stateMutability": "view",
      "type": "function"
    },
    {
      "inputs": [
        {
          "internalType": "uint256",
          "name": "tokenId",
          "type": "uint256"
        }
      ],
      "name": "getFixedPriceListing",
      "outputs": [
        {
          "components": [
            {
              "internalType": "address",
              "name": "seller",
              "type": "address"
            },
            {
              "internalType": "uint256",
              "name": "tokenId",
              "type": "uint256"
            },
            {
              "internalType": "uint256",
              "name": "price",
              "type": "uint256"
            },
            {
              "internalType": "bool",
              "name": "isActive",
              "type": "bool"
            },
            {
              "internalType": "uint256",
              "name": "listedAt",
              "type": "uint256"
            }
          ],
          "internalType": "struct DnAContentMarketplace.FixedPriceListing",
          "name": "",
          "type": "tuple"
        }
      ],
      "stateMutability": "view",
      "type": "function"
    },
    {
      "inputs": [
        {
          "internalType": "uint256",
          "name": "",
          "type": "uint256"
        }
      ],
      "name": "isTokenInAuction",
      "outputs": [
        {
          "internalType": "bool",
          "name": "",
          "type": "bool"
        }
      ],
      "stateMutability": "view",
      "type": "function"
    },
    {
      "inputs": [
        {
          "internalType": "uint256",
          "name": "tokenId",
          "type": "uint256"
        }
      ],
      "name": "isTokenListed",
      "outputs": [
        {
          "internalType": "bool",
          "name": "",
          "type": "bool"
        }
      ],
      "stateMutability": "view",
      "type": "function"
    },
    {
      "inputs": [
        {
          "internalType": "uint256",
          "name": "",
          "type": "uint256"
        }
      ],
      "name": "isTokenListedForSale",
      "outputs": [
        {
          "internalType": "bool",
          "name": "",
          "type": "bool"
        }
      ],
      "stateMutability": "view",
      "type": "function"
    },
    {
      "inputs": [
        {
          "internalType": "uint256",
          "name": "tokenId",
          "type": "uint256"
        },
        {
          "internalType": "uint256",
          "name": "price",
          "type": "uint256"
        }
      ],
      "name": "listNFTForSale",
      "outputs": [],
      "stateMutability": "nonpayable",
      "type": "function"
    },
    {
      "inputs": [],
      "name": "nftContract",
      "outputs": [
        {
          "internalType": "contract IERC721",
          "name": "",
          "type": "address"
        }
      ],
      "stateMutability": "view",
      "type": "function"
    },
    {
      "inputs": [
        {
          "internalType": "address",
          "name": "",
          "type": "address"
        },
        {
          "internalType": "address",
          "name": "",
          "type": "address"
        },
        {
          "internalType": "uint256",
          "name": "",
          "type": "uint256"
        },
        {
          "internalType": "bytes",
          "name": "",
          "type": "bytes"
        }
      ],
      "name": "onERC721Received",
      "outputs": [
        {
          "internalType": "bytes4",
          "name": "",
          "type": "bytes4"
        }
      ],
      "stateMutability": "pure",
      "type": "function"
    },
    {
      "inputs": [],
      "name": "owner",
      "outputs": [
        {
          "internalType": "address",
          "name": "",
          "type": "address"
        }
      ],
      "stateMutability": "view",
      "type": "function"
    },
    {
      "inputs": [
        {
          "internalType": "uint256",
          "name": "tokenId",
          "type": "uint256"
        }
      ],
      "name": "placeBid",
      "outputs": [],
      "stateMutability": "payable",
      "type": "function"
    },
    {
      "inputs": [],
      "name": "protocolFeeBps",
      "outputs": [
        {
          "internalType": "uint256",
          "name": "",
          "type": "uint256"
        }
      ],
      "stateMutability": "view",
      "type": "function"
    },
    {
      "inputs": [],
      "name": "protocolFeeReceiver",
      "outputs": [
        {
          "internalType": "address",
          "name": "",
          "type": "address"
        }
      ],
      "stateMutability": "view",
      "type": "function"
    },
    {
      "inputs": [
        {
          "internalType": "uint256",
          "name": "tokenId",
          "type": "uint256"
        }
      ],
      "name": "purchaseNFT",
      "outputs": [],
      "stateMutability": "payable",
      "type": "function"
    },
    {
      "inputs": [
        {
          "internalType": "uint256",
          "name": "tokenId",
          "type": "uint256"
        }
      ],
      "name": "removeNFTFromSale",
      "outputs": [],
      "stateMutability": "nonpayable",
      "type": "function"
    },
    {
      "inputs": [],
      "name": "renounceOwnership",
      "outputs": [],
      "stateMutability": "nonpayable",
      "type": "function"
    },
    {
      "inputs": [
        {
          "internalType": "uint256",
          "name": "newFeeBps",
          "type": "uint256"
        }
      ],
      "name": "setProtocolFee",
      "outputs": [],
      "stateMutability": "nonpayable",
      "type": "function"
    },
    {
      "inputs": [
        {
          "internalType": "address",
          "name": "newReceiver",
          "type": "address"
        }
      ],
      "name": "setProtocolFeeReceiver",
      "outputs": [],
      "stateMutability": "nonpayable",
      "type": "function"
    },
    {
      "inputs": [
        {
          "internalType": "uint256",
          "name": "tokenId",
          "type": "uint256"
        },
        {
          "internalType": "uint256",
          "name": "minPrice",
          "type": "uint256"
        },
        {
          "internalType": "uint256",
          "name": "duration",
          "type": "uint256"
        }
      ],
      "name": "startAuction",
      "outputs": [],
      "stateMutability": "nonpayable",
      "type": "function"
    },
    {
      "inputs": [
        {
          "internalType": "address",
          "name": "newOwner",
          "type": "address"
        }
      ],
      "name": "transferOwnership",
      "outputs": [],
      "stateMutability": "nonpayable",
      "type": "function"
    },
    {
      "inputs": [],
      "name": "withdrawProtocolFees",
      "outputs": [],
      "stateMutability": "nonpayable",
      "type": "function"
    }
  ],
  "bytecode": "0x60a060405260fa6002553480156200001657600080fd5b5060405162002fa738038062002fa7833981016040819052620000399162000117565b6200004433620000c7565b600180556001600160a01b038116620000a35760405162461bcd60e51b815260206004820152601c60248201527f496e76616c6964204e465420636f6e7472616374206164647265737300000000604482015260640160405180910390fd5b6001600160a01b0316608052600380546001600160a01b0319163317905562000149565b600080546001600160a01b038381166001600160a01b0319831681178455604051919092169283917f8be0079c531659141344cd1fd0a4f28419497f9722a3daafe3b4186f6b6457e09190a35050565b6000602082840312156200012a57600080fd5b81516001600160a01b03811681146200014257600080fd5b9392505050565b608051612e03620001a460003960008181610788015281816109f101528181611318015281816115b701528181611dc501528181611eb8015281816120960152818161256b015281816128b9015261294c0152612e036000f3fe6080604052600436106101ee5760003560e01c8063883a84ad1161010d5780639fbacd75116100a0578063d56d229d1161006f578063d56d229d14610776578063db2e21bc146107aa578063df276469146107bf578063f2fde38b146107ec578063fab9c9181461080c57600080fd5b80639fbacd75146106e6578063a02e510714610716578063b2733b3914610736578063b9a2de3a1461075657600080fd5b80639979ef45116100dc5780639979ef45146106735780639aafc6c9146106865780639b83cddc146106a65780639c7c270c146106c657600080fd5b8063883a84ad1461053e578063899a289a146105cd5780638da5cb5b1461063557806391e078bb1461065357600080fd5b8063571a26a011610185578063787dce3d11610154578063787dce3d1461049c57806378bd7935146104bc5780637c17855d146104e95780638795cccb1461052957600080fd5b8063571a26a014610382578063587f5ed7146104515780635b7baf6414610467578063715018a61461048757600080fd5b80631cb78fb3116101c15780631cb78fb3146102c757806335659fb81461031e57806339a51be51461034257806346877b1a1461036257600080fd5b80630f715f1d146101f3578063150b7a0214610230578063150bde0314610275578063199f3edf1461028a575b600080fd5b3480156101ff57600080fd5b5061021361020e366004612a55565b61082c565b6040516001600160a01b0390911681526020015b60405180910390f35b34801561023c57600080fd5b5061025c61024b366004612a8c565b630a85bd0160e11b95945050505050565b6040516001600160e01b03199091168152602001610227565b610288610283366004612b2b565b610864565b005b34801561029657600080fd5b506102aa6102a5366004612b44565b610c15565b604080518251815260209283015115159281019290925201610227565b3480156102d357600080fd5b506103096102e2366004612b44565b60086020908152600092835260408084209091529082529020805460019091015460ff1682565b60408051928352901515602083015201610227565b34801561032a57600080fd5b5061033460025481565b604051908152602001610227565b34801561034e57600080fd5b50600354610213906001600160a01b031681565b34801561036e57600080fd5b5061028861037d366004612b74565b610c66565b34801561038e57600080fd5b506103fa61039d366004612b2b565b6006602081905260009182526040909120805460018201546002830154600384015460048501546005860154968601546007909601546001600160a01b039586169794969395929492909116929060ff8082169161010090041689565b604080516001600160a01b039a8b1681526020810199909952880196909652606087019490945295909116608085015260a084015260c083019390935291151560e082015290151561010082015261012001610227565b34801561045d57600080fd5b50610334600a5481565b34801561047357600080fd5b50610288610482366004612b2b565b610d27565b34801561049357600080fd5b50610288610f62565b3480156104a857600080fd5b506102886104b7366004612b2b565b610f76565b3480156104c857600080fd5b506104dc6104d7366004612b2b565b611013565b6040516102279190612b98565b3480156104f557600080fd5b50610519610504366004612b2b565b60076020526000908152604090205460ff1681565b6040519015158152602001610227565b34801561053557600080fd5b50610288611106565b34801561054a57600080fd5b50610599610559366004612b2b565b6004602081905260009182526040909120805460018201546002830154600384015493909401546001600160a01b03909216939092909160ff9091169085565b604080516001600160a01b03909616865260208601949094529284019190915215156060830152608082015260a001610227565b3480156105d957600080fd5b506105ed6105e8366004612b2b565b61125f565b604051610227919081516001600160a01b0316815260208083015190820152604080830151908201526060808301511515908201526080918201519181019190915260a00190565b34801561064157600080fd5b506000546001600160a01b0316610213565b34801561065f57600080fd5b5061028861066e366004612c12565b6112f6565b610288610681366004612b2b565b611807565b34801561069257600080fd5b506102886106a1366004612b2b565b611b47565b3480156106b257600080fd5b506105196106c1366004612b2b565b611cb3565b3480156106d257600080fd5b506103346106e1366004612b2b565b611ce1565b3480156106f257600080fd5b50610519610701366004612b2b565b60056020526000908152604090205460ff1681565b34801561072257600080fd5b50610288610731366004612b2b565b611cfe565b34801561074257600080fd5b50610288610751366004612a55565b611e96565b34801561076257600080fd5b50610288610771366004612b2b565b61223e565b34801561078257600080fd5b506102137f000000000000000000000000000000000000000000000000000000000000000081565b3480156107b657600080fd5b506102886122be565b3480156107cb57600080fd5b506107df6107da366004612b2b565b6123c3565b6040516102279190612c3e565b3480156107f857600080fd5b50610288610807366004612b74565b61242f565b34801561081857600080fd5b50610288610827366004612b2b565b6124a5565b6009602052816000526040600020818154811061084857600080fd5b6000918252602090912001546001600160a01b03169150829050565b61086c612605565b6000818152600460205260409020600381015460ff166108cf5760405162461bcd60e51b8152602060048201526019602482015278546f6b656e206e6f74206c697374656420666f722073616c6560381b60448201526064015b60405180910390fd5b806002015434101561091a5760405162461bcd60e51b8152602060048201526014602482015273125b9cdd59999a58da595b9d081c185e5b595b9d60621b60448201526064016108c6565b80546001600160a01b031633036109735760405162461bcd60e51b815260206004820152601760248201527f43616e6e6f742062757920796f7572206f776e204e465400000000000000000060448201526064016108c6565b805460028083015490546001600160a01b03909216916000906127109061099a9084612ca1565b6109a49190612cb8565b905060006109b28284612cda565b60038601805460ff1990811690915560008881526005602052604090819020805490921690915551632142170760e11b81529091506001600160a01b037f000000000000000000000000000000000000000000000000000000000000000016906342842e0e90610a2a90309033908b90600401612ced565b600060405180830381600087803b158015610a4457600080fd5b505af1158015610a58573d6000803e3d6000fd5b5050505081600a6000828254610a6e9190612d11565b90915550506040516000906001600160a01b0386169083908381818185875af1925050503d8060008114610abe576040519150601f19603f3d011682016040523d82523d6000602084013e610ac3565b606091505b5050905080610b0b5760405162461bcd60e51b81526020600482015260146024820152732330b4b632b2103a37903830bc9039b2b63632b960611b60448201526064016108c6565b83341115610bb457600033610b208634612cda565b604051600081818185875af1925050503d8060008114610b5c576040519150601f19603f3d011682016040523d82523d6000602084013e610b61565b606091505b5050905080610bb25760405162461bcd60e51b815260206004820152601f60248201527f4661696c656420746f20726566756e6420657863657373207061796d656e740060448201526064016108c6565b505b60408051858152602081018590524281830152905133916001600160a01b038816918a917f3d0e34fc598408a370422f500dd8d2e803900b70edbfd7f9dd07b2cb35e7c8c7919081900360600190a4505050505050610c1260018055565b50565b60408051808201825260008082526020918201819052848152600882528281206001600160a01b038516825282528290208251808401909352805483526001015460ff161515908201525b92915050565b610c6e61265e565b6001600160a01b038116610cc45760405162461bcd60e51b815260206004820152601860248201527f496e76616c69642072656365697665722061646472657373000000000000000060448201526064016108c6565b600380546001600160a01b038381166001600160a01b0319831681179093556040519116919082907fd50f6337203167ba1e2ef808f8433a7630572ef622a612f76025877031df84a890610d1b9042815260200190565b60405180910390a35050565b610d2f612605565b6000818152600660208190526040909120908101544211610d625760405162461bcd60e51b81526004016108c690612d24565b60048101546001600160a01b03163303610dbe5760405162461bcd60e51b815260206004820152601a60248201527f57696e6e65722063616e6e6f7420636c61696d20726566756e6400000000000060448201526064016108c6565b600082815260086020908152604080832033845290915290208054610e255760405162461bcd60e51b815260206004820152601d60248201527f4e6f2062696420666f756e6420666f722074686973206164647265737300000060448201526064016108c6565b600181015460ff1615610e6d5760405162461bcd60e51b815260206004820152601060248201526f105b1c9958591e481c99599d5b99195960821b60448201526064016108c6565b805460008083556001808401805460ff19169091179055604051339083908381818185875af1925050503d8060008114610ec3576040519150601f19603f3d011682016040523d82523d6000602084013e610ec8565b606091505b5050905080610f195760405162461bcd60e51b815260206004820152601860248201527f4661696c656420746f2070726f6365737320726566756e64000000000000000060448201526064016108c6565b60408051838152426020820152339187917fd0db0e7eda41bb1bea0e3cefcb1e61a85c4224eb3946df6220ba4a29f7d5462a910160405180910390a350505050610c1260018055565b610f6a61265e565b610f7460006126b8565b565b610f7e61265e565b6103e8811115610fc85760405162461bcd60e51b81526020600482015260156024820152744665652063616e6e6f74206578636565642031302560581b60448201526064016108c6565b60028054908290556040805182815260208101849052428183015290517f958d79f7eb050033dd12dc5d5cdb0ca36e424a7bf3c53c15488c657e82a570b29181900360600190a15050565b61107860405180610120016040528060006001600160a01b0316815260200160008152602001600081526020016000815260200160006001600160a01b0316815260200160008152602001600081526020016000151581526020016000151581525090565b5060009081526006602081815260409283902083516101208101855281546001600160a01b0390811682526001830154938201939093526002820154948101949094526003810154606085015260048101549091166080840152600581015460a08401529081015460c08301526007015460ff808216151560e0840152610100918290041615159082015290565b61110e61265e565b611116612605565b6000600a541161115e5760405162461bcd60e51b81526020600482015260136024820152724e6f206665657320746f20776974686472617760681b60448201526064016108c6565b600a80546000918290556003546040519192916001600160a01b039091169083908381818185875af1925050503d80600081146111b7576040519150601f19603f3d011682016040523d82523d6000602084013e6111bc565b606091505b505090508061120d5760405162461bcd60e51b815260206004820152601760248201527f4661696c656420746f207769746864726177206665657300000000000000000060448201526064016108c6565b600354604080518481524260208201526001600160a01b03909216917ff299f1f754362fc7673effe66e73ca8d292dd87fc9fef1f28f7b97b2edc4c75b910160405180910390a25050610f7460018055565b61129c6040518060a0016040528060006001600160a01b031681526020016000815260200160008152602001600015158152602001600081525090565b50600090815260046020818152604092839020835160a08101855281546001600160a01b03168152600182015492810192909252600281015493820193909352600383015460ff1615156060820152910154608082015290565b6040516331a9108f60e11b815260048101849052839033906001600160a01b037f00000000000000000000000000000000000000000000000000000000000000001690636352211e90602401602060405180830381865afa15801561135f573d6000803e3d6000fd5b505050506040513d601f19601f820116820180604052508101906113839190612d52565b6001600160a01b0316146113cb5760405162461bcd60e51b815260206004820152600f60248201526e2737ba103a37b5b2b71037bbb732b960891b60448201526064016108c6565b600084815260056020526040902054849060ff161561142c5760405162461bcd60e51b815260206004820152601d60248201527f546f6b656e20616c7265616479206c697374656420666f722073616c6500000060448201526064016108c6565b60008181526007602052604090205460ff16156114865760405162461bcd60e51b81526020600482015260186024820152772a37b5b2b71030b63932b0b23c9034b71030bab1ba34b7b760411b60448201526064016108c6565b83600081116114d75760405162461bcd60e51b815260206004820152601f60248201527f5072696365206d7573742062652067726561746572207468616e207a65726f0060448201526064016108c6565b6114df612605565b61038484101561153f5760405162461bcd60e51b815260206004820152602560248201527f41756374696f6e206d757374206c617374206174206c65617374203135206d696044820152646e7574657360d81b60648201526084016108c6565b62278d008411156115a05760405162461bcd60e51b815260206004820152602560248201527f41756374696f6e2063616e6e6f74206c617374206d6f7265207468616e203330604482015264206461797360d81b60648201526084016108c6565b604051632142170760e11b81526001600160a01b037f000000000000000000000000000000000000000000000000000000000000000016906342842e0e906115f090339030908b90600401612ced565b600060405180830381600087803b15801561160a57600080fd5b505af115801561161e573d6000803e3d6000fd5b504292506000915061163290508683612d11565b9050604051806101200160405280336001600160a01b031681526020018981526020018881526020016000815260200160006001600160a01b0316815260200183815260200182815260200160011515815260200160001515815250600660008a815260200190815260200160002060008201518160000160006101000a8154816001600160a01b0302191690836001600160a01b0316021790555060208201518160010155604082015181600201556060820151816003015560808201518160040160006101000a8154816001600160a01b0302191690836001600160a01b0316021790555060a0820151816005015560c0820151816006015560e08201518160070160006101000a81548160ff0219169083151502179055506101008201518160070160016101000a81548160ff0219169083151502179055509050506001600760008a815260200190815260200160002060006101000a81548160ff021916908315150217905550336001600160a01b0316887f891c95c01123dab4c2e9f5730be4341f0389880525f5d7c2a645a77555c27ff78985856040516117ec939291909283526020830191909152604082015260600190565b60405180910390a350506117ff60018055565b505050505050565b600081815260066020526040902060070154819060ff1661183a5760405162461bcd60e51b81526004016108c690612d6f565b6000828152600660208190526040909120015482904211156118945760405162461bcd60e51b8152602060048201526013602482015272105d58dd1a5bdb881a185cc8195e1c1a5c9959606a1b60448201526064016108c6565b61189c612605565b600083815260066020526040902080546001600160a01b031633036119035760405162461bcd60e51b815260206004820181905260248201527f53656c6c65722063616e6e6f7420626964206f6e206f776e2061756374696f6e60448201526064016108c6565b80600201543410156119575760405162461bcd60e51b815260206004820152601760248201527f4269642062656c6f77206d696e696d756d20707269636500000000000000000060448201526064016108c6565b6003810154156119c857806003015434116119c85760405162461bcd60e51b815260206004820152602b60248201527f426964206d75737420626520686967686572207468616e2063757272656e742060448201526a1a1a59da195cdd08189a5960aa1b60648201526084016108c6565b60008481526008602090815260408083203384529091529020805415611a9657805460405160009133918381818185875af1925050503d8060008114611a2a576040519150601f19603f3d011682016040523d82523d6000602084013e611a2f565b606091505b5050905080611a805760405162461bcd60e51b815260206004820152601d60248201527f4661696c656420746f20726566756e642070726576696f75732062696400000060448201526064016108c6565b506000815560018101805460ff19169055611ac5565b60008581526009602090815260408220805460018101825590835291200180546001600160a01b031916331790555b3480825560018201805460ff1916905560038301541015611afb573460038301556004820180546001600160a01b031916331790555b60408051348152426020820152339187917fcde18333b910a25ba5421e992ecee5c314e557346e94ab2ab424658bbb3707e6910160405180910390a35050611b4260018055565b505050565b600081815260066020526040902060070154819060ff16611b7a5760405162461bcd60e51b81526004016108c690612d6f565b6000828152600660208190526040909120015482904211611bad5760405162461bcd60e51b81526004016108c690612d24565b611bb5612605565b600083815260066020526040902060048101546001600160a01b031615611c375760048101546001600160a01b03163314611c325760405162461bcd60e51b815260206004820152601c60248201527f436c61696d3a204f6e6c792077696e6e65722063616e20636c61696d0000000060448201526064016108c6565b611ca0565b80546001600160a01b03163314611ca05760405162461bcd60e51b815260206004820152602760248201527f436c61696d3a204f6e6c792073656c6c65722063616e20636c61696d206966206044820152666e6f206269647360c81b60648201526084016108c6565b611ca984612708565b50611b4260018055565b60008181526005602052604081205460ff1680610c6057505060009081526007602052604090205460ff1690565b600061271060025483611cf49190612ca1565b610c609190612cb8565b611d06612605565b6000818152600460205260409020600381015460ff16611d645760405162461bcd60e51b8152602060048201526019602482015278546f6b656e206e6f74206c697374656420666f722073616c6560381b60448201526064016108c6565b80546001600160a01b03163314611dae5760405162461bcd60e51b815260206004820152600e60248201526d2737ba103a34329039b2b63632b960911b60448201526064016108c6565b604051632142170760e11b81526001600160a01b037f000000000000000000000000000000000000000000000000000000000000000016906342842e0e90611dfe90309033908790600401612ced565b600060405180830381600087803b158015611e1857600080fd5b505af1158015611e2c573d6000803e3d6000fd5b5050505060038101805460ff19908116909155600083815260056020908152604091829020805490931690925551428152339184917f157ac5612deaae220ded81ec6551c25d3a36978c87cc0783a7a3355681b6c6cf910160405180910390a350610c1260018055565b6040516331a9108f60e11b815260048101839052829033906001600160a01b037f00000000000000000000000000000000000000000000000000000000000000001690636352211e90602401602060405180830381865afa158015611eff573d6000803e3d6000fd5b505050506040513d601f19601f82011682018060405250810190611f239190612d52565b6001600160a01b031614611f6b5760405162461bcd60e51b815260206004820152600f60248201526e2737ba103a37b5b2b71037bbb732b960891b60448201526064016108c6565b600083815260056020526040902054839060ff1615611fcc5760405162461bcd60e51b815260206004820152601d60248201527f546f6b656e20616c7265616479206c697374656420666f722073616c6500000060448201526064016108c6565b60008181526007602052604090205460ff16156120265760405162461bcd60e51b81526020600482015260186024820152772a37b5b2b71030b63932b0b23c9034b71030bab1ba34b7b760411b60448201526064016108c6565b82600081116120775760405162461bcd60e51b815260206004820152601f60248201527f5072696365206d7573742062652067726561746572207468616e207a65726f0060448201526064016108c6565b61207f612605565b604051632142170760e11b81526001600160a01b037f000000000000000000000000000000000000000000000000000000000000000016906342842e0e906120cf90339030908a90600401612ced565b600060405180830381600087803b1580156120e957600080fd5b505af11580156120fd573d6000803e3d6000fd5b505050506040518060a00160405280336001600160a01b03168152602001868152602001858152602001600115158152602001428152506004600087815260200190815260200160002060008201518160000160006101000a8154816001600160a01b0302191690836001600160a01b03160217905550602082015181600101556040820151816002015560608201518160030160006101000a81548160ff0219169083151502179055506080820151816004015590505060016005600087815260200190815260200160002060006101000a81548160ff021916908315150217905550336001600160a01b0316857fc42bbfb9e123e473199e71aa6d23dc92b6e5f9c3df70e713ce7f551fe89089cd8642604051612226929190918252602082015260400190565b60405180910390a361223760018055565b5050505050565b600081815260066020526040902060070154819060ff166122715760405162461bcd60e51b81526004016108c690612d6f565b60008281526006602081905260409091200154829042116122a45760405162461bcd60e51b81526004016108c690612d24565b6122ac612605565b6122b583612708565b611b4260018055565b6122c661265e565b6122ce612605565b47806123155760405162461bcd60e51b81526020600482015260166024820152754e6f2062616c616e636520746f20776974686472617760501b60448201526064016108c6565b600080546040516001600160a01b039091169083908381818185875af1925050503d8060008114612362576040519150601f19603f3d011682016040523d82523d6000602084013e612367565b606091505b50509050806123b85760405162461bcd60e51b815260206004820152601b60248201527f456d657267656e6379207769746864726177616c206661696c6564000000000060448201526064016108c6565b5050610f7460018055565b60008181526009602090815260409182902080548351818402810184019094528084526060939283018282801561242357602002820191906000526020600020905b81546001600160a01b03168152600190910190602001808311612405575b50505050509050919050565b61243761265e565b6001600160a01b03811661249c5760405162461bcd60e51b815260206004820152602660248201527f4f776e61626c653a206e6577206f776e657220697320746865207a65726f206160448201526564647265737360d01b60648201526084016108c6565b610c12816126b8565b6124ad61265e565b6124b5612605565b60008181526005602052604090205460ff16156125145760405162461bcd60e51b815260206004820152601860248201527f546f6b656e206973206c697374656420666f722073616c65000000000000000060448201526064016108c6565b60008181526007602052604090205460ff16156125695760405162461bcd60e51b81526020600482015260136024820152722a37b5b2b71034b99034b71030bab1ba34b7b760691b60448201526064016108c6565b7f00000000000000000000000000000000000000000000000000000000000000006001600160a01b03166342842e0e306125ab6000546001600160a01b031690565b846040518463ffffffff1660e01b81526004016125ca93929190612ced565b600060405180830381600087803b1580156125e457600080fd5b505af11580156125f8573d6000803e3d6000fd5b50505050610c1260018055565b6002600154036126575760405162461bcd60e51b815260206004820152601f60248201527f5265656e7472616e637947756172643a207265656e7472616e742063616c6c0060448201526064016108c6565b6002600155565b6000546001600160a01b03163314610f745760405162461bcd60e51b815260206004820181905260248201527f4f776e61626c653a2063616c6c6572206973206e6f7420746865206f776e657260448201526064016108c6565b600080546001600160a01b038381166001600160a01b0319831681178455604051919092169283917f8be0079c531659141344cd1fd0a4f28419497f9722a3daafe3b4186f6b6457e09190a35050565b60008181526006602052604090206007810154610100900460ff16156127705760405162461bcd60e51b815260206004820152601760248201527f41756374696f6e20616c726561647920636c61696d656400000000000000000060448201526064016108c6565b6007808201805461ffff1916610100179055600083815260209190915260408120805460ff19169055600482015481906001600160a01b03161561293357600383015460048401546002546001600160a01b0390911690600090612710906127d89085612ca1565b6127e29190612cb8565b905060006127f08285612cda565b905081600a60008282546128049190612d11565b909155505086546040516000916001600160a01b03169083908381818185875af1925050503d8060008114612855576040519150601f19603f3d011682016040523d82523d6000602084013e61285a565b606091505b50509050806128a25760405162461bcd60e51b81526020600482015260146024820152732330b4b632b2103a37903830bc9039b2b63632b960611b60448201526064016108c6565b604051632142170760e11b81526001600160a01b037f000000000000000000000000000000000000000000000000000000000000000016906342842e0e906128f290309088908e90600401612ced565b600060405180830381600087803b15801561290c57600080fd5b505af1158015612920573d6000803e3d6000fd5b509598509596506129c695505050505050565b8254604051632142170760e11b81526001600160a01b037f00000000000000000000000000000000000000000000000000000000000000008116926342842e0e9261298692309216908990600401612ced565b600060405180830381600087803b1580156129a057600080fd5b505af11580156129b4573d6000803e3d6000fd5b505084546001600160a01b0316935050505b604080518281524260208201526001600160a01b0384169186917fe9ba83469fc8ee4260dd274fd43b5a54f2df813ad21c4637d53084d1f3866b37910160405180910390a3816001600160a01b0316847f92ffae31901780890e35bdc724fedb7601577492b5d4e3df85f785de59d737ab42604051612a4791815260200190565b60405180910390a350505050565b60008060408385031215612a6857600080fd5b50508035926020909101359150565b6001600160a01b0381168114610c1257600080fd5b600080600080600060808688031215612aa457600080fd5b8535612aaf81612a77565b94506020860135612abf81612a77565b935060408601359250606086013567ffffffffffffffff80821115612ae357600080fd5b818801915088601f830112612af757600080fd5b813581811115612b0657600080fd5b896020828501011115612b1857600080fd5b9699959850939650602001949392505050565b600060208284031215612b3d57600080fd5b5035919050565b60008060408385031215612b5757600080fd5b823591506020830135612b6981612a77565b809150509250929050565b600060208284031215612b8657600080fd5b8135612b9181612a77565b9392505050565b60006101208201905060018060a01b038084511683526020840151602084015260408401516040840152606084015160608401528060808501511660808401525060a083015160a083015260c083015160c083015260e0830151612c0060e084018215159052565b50610100928301511515919092015290565b600080600060608486031215612c2757600080fd5b505081359360208301359350604090920135919050565b6020808252825182820181905260009190848201906040850190845b81811015612c7f5783516001600160a01b031683529284019291840191600101612c5a565b50909695505050505050565b634e487b7160e01b600052601160045260246000fd5b8082028115828204841417610c6057610c60612c8b565b600082612cd557634e487b7160e01b600052601260045260246000fd5b500490565b81810381811115610c6057610c60612c8b565b6001600160a01b039384168152919092166020820152604081019190915260600190565b80820180821115610c6057610c60612c8b565b60208082526014908201527341756374696f6e207374696c6c2061637469766560601b604082015260600190565b600060208284031215612d6457600080fd5b8151612b9181612a77565b602080825260409082018190527f41756374696f6e20646f6573206e6f74206578697374206f72206e6f74206163908201527f746976652028616c72656164792066696e616c697a65642f636c61696d65642960608201526080019056fea26469706673582212208e37c0c719820c86efb19b975a1f23fbe065e1fb52f521db82ae65680aabeb6564736f6c63430008140033",
  "linkReferences": {},
  "deployedLinkReferences": {}
}