{
  "_format": "hh-sol-artifact-1",
  "contractName": "GovernanceToken",
  "sourceName": "contracts/GovernanceToken.sol",
  "abi": [
    {
      "inputs": [],
      "stateMutability": "nonpayable",
      "type": "constructor"
    },
    {
      "anonymous": false,
      "inputs": [
        {
          "indexed": true,
          "internalType": "address",
          "name": "owner",
          "type": "address"
        },
        {
          "indexed": true,
          "internalType": "address",
          "name": "spender",
          "type": "address"
        },
        {
          "indexed": false,
          "internalType": "uint256",
          "name": "value",
          "type": "uint256"
        }
      ],
      "name": "Approval",
      "type": "event"
    },
    {
      "anonymous": false,
      "inputs": [
        {
          "indexed": true,
          "internalType": "address",
          "name": "previousOwner",
          "type": "address"
        },
        {
          "indexed": true,
          "internalType": "address",
          "name": "newOwner",
          "type": "address"
        }
      ],
      "name": "OwnershipTransferred",
      "type": "event"
    },
    {
      "anonymous": false,
      "inputs": [
        {
          "indexed": true,
          "internalType": "address",
          "name": "from",
          "type": "address"
        },
        {
          "indexed": true,
          "internalType": "address",
          "name": "to",
          "type": "address"
        },
        {
          "indexed": false,
          "internalType": "uint256",
          "name": "value",
          "type": "uint256"
        }
      ],
      "name": "Transfer",
      "type": "event"
    },
    {
      "inputs": [],
      "name": "TOKEN_PRICE",
      "outputs": [
        {
          "internalType": "uint256",
          "name": "",
          "type": "uint256"
        }
      ],
      "stateMutability": "view",
      "type": "function"
    },
    {
      "inputs": [
        {
          "internalType": "address",
          "name": "owner",
          "type": "address"
        },
        {
          "internalType": "address",
          "name": "spender",
          "type": "address"
        }
      ],
      "name": "allowance",
      "outputs": [
        {
          "internalType": "uint256",
          "name": "",
          "type": "uint256"
        }
      ],
      "stateMutability": "view",
      "type": "function"
    },
    {
      "inputs": [
        {
          "internalType": "address",
          "name": "spender",
          "type": "address"
        },
        {
          "internalType": "uint256",
          "name": "amount",
          "type": "uint256"
        }
      ],
      "name": "approve",
      "outputs": [
        {
          "internalType": "bool",
          "name": "",
          "type": "bool"
        }
      ],
      "stateMutability": "nonpayable",
      "type": "function"
    },
    {
      "inputs": [
        {
          "internalType": "address",
          "name": "account",
          "type": "address"
        }
      ],
      "name": "balanceOf",
      "outputs": [
        {
          "internalType": "uint256",
          "name": "",
          "type": "uint256"
        }
      ],
      "stateMutability": "view",
      "type": "function"
    },
    {
      "inputs": [],
      "name": "buyTokens",
      "outputs": [],
      "stateMutability": "payable",
      "type": "function"
    },
    {
      "inputs": [],
      "name": "decimals",
      "outputs": [
        {
          "internalType": "uint8",
          "name": "",
          "type": "uint8"
        }
      ],
      "stateMutability": "view",
      "type": "function"
    },
    {
      "inputs": [
        {
          "internalType": "address",
          "name": "spender",
          "type": "address"
        },
        {
          "internalType": "uint256",
          "name": "subtractedValue",
          "type": "uint256"
        }
      ],
      "name": "decreaseAllowance",
      "outputs": [
        {
          "internalType": "bool",
          "name": "",
          "type": "bool"
        }
      ],
      "stateMutability": "nonpayable",
      "type": "function"
    },
    {
      "inputs": [
        {
          "internalType": "address",
          "name": "spender",
          "type": "address"
        },
        {
          "internalType": "uint256",
          "name": "addedValue",
          "type": "uint256"
        }
      ],
      "name": "increaseAllowance",
      "outputs": [
        {
          "internalType": "bool",
          "name": "",
          "type": "bool"
        }
      ],
      "stateMutability": "nonpayable",
      "type": "function"
    },
    {
      "inputs": [
        {
          "internalType": "address",
          "name": "to",
          "type": "address"
        },
        {
          "internalType": "uint256",
          "name": "amount",
          "type": "uint256"
        }
      ],
      "name": "mint",
      "outputs": [],
      "stateMutability": "nonpayable",
      "type": "function"
    },
    {
      "inputs": [],
      "name": "name",
      "outputs": [
        {
          "internalType": "string",
          "name": "",
          "type": "string"
        }
      ],
      "stateMutability": "view",
      "type": "function"
    },
    {
      "inputs": [],
      "name": "owner",
      "outputs": [
        {
          "internalType": "address",
          "name": "",
          "type": "address"
        }
      ],
      "stateMutability": "view",
      "type": "function"
    },
    {
      "inputs": [],
      "name": "renounceOwnership",
      "outputs": [],
      "stateMutability": "nonpayable",
      "type": "function"
    },
    {
      "inputs": [],
      "name": "symbol",
      "outputs": [
        {
          "internalType": "string",
          "name": "",
          "type": "string"
        }
      ],
      "stateMutability": "view",
      "type": "function"
    },
    {
      "inputs": [],
      "name": "totalSupply",
      "outputs": [
        {
          "internalType": "uint256",
          "name": "",
          "type": "uint256"
        }
      ],
      "stateMutability": "view",
      "type": "function"
    },
    {
      "inputs": [
        {
          "internalType": "address",
          "name": "to",
          "type": "address"
        },
        {
          "internalType": "uint256",
          "name": "amount",
          "type": "uint256"
        }
      ],
      "name": "transfer",
      "outputs": [
        {
          "internalType": "bool",
          "name": "",
          "type": "bool"
        }
      ],
      "stateMutability": "nonpayable",
      "type": "function"
    },
    {
      "inputs": [
        {
          "internalType": "address",
          "name": "from",
          "type": "address"
        },
        {
          "internalType": "address",
          "name": "to",
          "type": "address"
        },
        {
          "internalType": "uint256",
          "name": "amount",
          "type": "uint256"
        }
      ],
      "name": "transferFrom",
      "outputs": [
        {
          "internalType": "bool",
          "name": "",
          "type": "bool"
        }
      ],
      "stateMutability": "nonpayable",
      "type": "function"
    },
    {
      "inputs": [
        {
          "internalType": "address",
          "name": "newOwner",
          "type": "address"
        }
      ],
      "name": "transferOwnership",
      "outputs": [],
      "stateMutability": "nonpayable",
      "type": "function"
    },
    {
      "inputs": [],
      "name": "withdraw",
      "outputs": [],
      "stateMutability": "nonpayable",
      "type": "function"
    }
  ],
  "bytecode": "0x60806040523480156200001157600080fd5b50604080518082018252600f81526e23b7bb32b93730b731b2aa37b5b2b760891b60208083019182528351808501909452600284526111d560f21b9084015281519192916200006391600391620000f7565b50805162000079906004906020840190620000f7565b5050506200009662000090620000a160201b60201c565b620000a5565b6001600655620001da565b3390565b600580546001600160a01b038381166001600160a01b0319831681179093556040519116919082907f8be0079c531659141344cd1fd0a4f28419497f9722a3daafe3b4186f6b6457e090600090a35050565b82805462000105906200019d565b90600052602060002090601f01602090048101928262000129576000855562000174565b82601f106200014457805160ff191683800117855562000174565b8280016001018555821562000174579182015b828111156200017457825182559160200191906001019062000157565b506200018292915062000186565b5090565b5b8082111562000182576000815560010162000187565b600181811c90821680620001b257607f821691505b60208210811415620001d457634e487b7160e01b600052602260045260246000fd5b50919050565b610ef780620001ea6000396000f3fe6080604052600436106101095760003560e01c8063715018a611610095578063a9059cbb11610064578063a9059cbb146102c3578063d0febe4c146102e3578063d2d8cb67146102eb578063dd62ed3e14610306578063f2fde38b1461032657600080fd5b8063715018a6146102515780638da5cb5b1461026657806395d89b411461028e578063a457c2d7146102a357600080fd5b8063313ce567116100dc578063313ce567146101a857806339509351146101c45780633ccfd60b146101e457806340c10f19146101fb57806370a082311461021b57600080fd5b806306fdde031461010e578063095ea7b31461013957806318160ddd1461016957806323b872dd14610188575b600080fd5b34801561011a57600080fd5b50610123610346565b6040516101309190610bf8565b60405180910390f35b34801561014557600080fd5b50610159610154366004610c69565b6103d8565b6040519015158152602001610130565b34801561017557600080fd5b506002545b604051908152602001610130565b34801561019457600080fd5b506101596101a3366004610c93565b6103f2565b3480156101b457600080fd5b5060405160128152602001610130565b3480156101d057600080fd5b506101596101df366004610c69565b610416565b3480156101f057600080fd5b506101f9610438565b005b34801561020757600080fd5b506101f9610216366004610c69565b6104e3565b34801561022757600080fd5b5061017a610236366004610ccf565b6001600160a01b031660009081526020819052604090205490565b34801561025d57600080fd5b506101f96104f9565b34801561027257600080fd5b506005546040516001600160a01b039091168152602001610130565b34801561029a57600080fd5b5061012361050b565b3480156102af57600080fd5b506101596102be366004610c69565b61051a565b3480156102cf57600080fd5b506101596102de366004610c69565b610595565b6101f96105a3565b3480156102f757600080fd5b5061017a662386f26fc1000081565b34801561031257600080fd5b5061017a610321366004610cf1565b61064d565b34801561033257600080fd5b506101f9610341366004610ccf565b610678565b60606003805461035590610d24565b80601f016020809104026020016040519081016040528092919081815260200182805461038190610d24565b80156103ce5780601f106103a3576101008083540402835291602001916103ce565b820191906000526020600020905b8154815290600101906020018083116103b157829003601f168201915b5050505050905090565b6000336103e68185856106f1565b60019150505b92915050565b600033610400858285610815565b61040b85858561088f565b506001949350505050565b6000336103e6818585610429838361064d565b6104339190610d75565b6106f1565b610440610a33565b610448610a8d565b478061049b5760405162461bcd60e51b815260206004820152601a60248201527f4e657373756e204574686572206461207072656c65766172652e00000000000060448201526064015b60405180910390fd5b6005546040516001600160a01b039091169082156108fc029083906000818181858888f193505050501580156104d5573d6000803e3d6000fd5b50506104e16001600655565b565b6104eb610a33565b6104f58282610ae7565b5050565b610501610a33565b6104e16000610ba6565b60606004805461035590610d24565b60003381610528828661064d565b9050838110156105885760405162461bcd60e51b815260206004820152602560248201527f45524332303a2064656372656173656420616c6c6f77616e63652062656c6f77604482015264207a65726f60d81b6064820152608401610492565b61040b82868684036106f1565b6000336103e681858561088f565b6105ab610a8d565b6000341161060c5760405162461bcd60e51b815260206004820152602860248201527f4465766920696e7669617265204574686572207065722061637175697374617260448201526732903a37b5b2b71760c11b6064820152608401610492565b6000662386f26fc100006106226012600a610e71565b61062c9034610e80565b6106369190610e9f565b90506106423382610ae7565b506104e16001600655565b6001600160a01b03918216600090815260016020908152604080832093909416825291909152205490565b610680610a33565b6001600160a01b0381166106e55760405162461bcd60e51b815260206004820152602660248201527f4f776e61626c653a206e6577206f776e657220697320746865207a65726f206160448201526564647265737360d01b6064820152608401610492565b6106ee81610ba6565b50565b6001600160a01b0383166107535760405162461bcd60e51b8152602060048201526024808201527f45524332303a20617070726f76652066726f6d20746865207a65726f206164646044820152637265737360e01b6064820152608401610492565b6001600160a01b0382166107b45760405162461bcd60e51b815260206004820152602260248201527f45524332303a20617070726f766520746f20746865207a65726f206164647265604482015261737360f01b6064820152608401610492565b6001600160a01b0383811660008181526001602090815260408083209487168084529482529182902085905590518481527f8c5be1e5ebec7d5bd14f71427d1e84f3dd0314c0f7b2291e5b200ac8c7c3b925910160405180910390a3505050565b6000610821848461064d565b90506000198114610889578181101561087c5760405162461bcd60e51b815260206004820152601d60248201527f45524332303a20696e73756666696369656e7420616c6c6f77616e63650000006044820152606401610492565b61088984848484036106f1565b50505050565b6001600160a01b0383166108f35760405162461bcd60e51b815260206004820152602560248201527f45524332303a207472616e736665722066726f6d20746865207a65726f206164604482015264647265737360d81b6064820152608401610492565b6001600160a01b0382166109555760405162461bcd60e51b815260206004820152602360248201527f45524332303a207472616e7366657220746f20746865207a65726f206164647260448201526265737360e81b6064820152608401610492565b6001600160a01b038316600090815260208190526040902054818110156109cd5760405162461bcd60e51b815260206004820152602660248201527f45524332303a207472616e7366657220616d6f756e7420657863656564732062604482015265616c616e636560d01b6064820152608401610492565b6001600160a01b03848116600081815260208181526040808320878703905593871680835291849020805487019055925185815290927fddf252ad1be2c89b69c2b068fc378daa952ba7f163c4a11628f55a4df523b3ef910160405180910390a3610889565b6005546001600160a01b031633146104e15760405162461bcd60e51b815260206004820181905260248201527f4f776e61626c653a2063616c6c6572206973206e6f7420746865206f776e65726044820152606401610492565b60026006541415610ae05760405162461bcd60e51b815260206004820152601f60248201527f5265656e7472616e637947756172643a207265656e7472616e742063616c6c006044820152606401610492565b6002600655565b6001600160a01b038216610b3d5760405162461bcd60e51b815260206004820152601f60248201527f45524332303a206d696e7420746f20746865207a65726f2061646472657373006044820152606401610492565b8060026000828254610b4f9190610d75565b90915550506001600160a01b038216600081815260208181526040808320805486019055518481527fddf252ad1be2c89b69c2b068fc378daa952ba7f163c4a11628f55a4df523b3ef910160405180910390a35050565b600580546001600160a01b038381166001600160a01b0319831681179093556040519116919082907f8be0079c531659141344cd1fd0a4f28419497f9722a3daafe3b4186f6b6457e090600090a35050565b600060208083528351808285015260005b81811015610c2557858101830151858201604001528201610c09565b81811115610c37576000604083870101525b50601f01601f1916929092016040019392505050565b80356001600160a01b0381168114610c6457600080fd5b919050565b60008060408385031215610c7c57600080fd5b610c8583610c4d565b946020939093013593505050565b600080600060608486031215610ca857600080fd5b610cb184610c4d565b9250610cbf60208501610c4d565b9150604084013590509250925092565b600060208284031215610ce157600080fd5b610cea82610c4d565b9392505050565b60008060408385031215610d0457600080fd5b610d0d83610c4d565b9150610d1b60208401610c4d565b90509250929050565b600181811c90821680610d3857607f821691505b60208210811415610d5957634e487b7160e01b600052602260045260246000fd5b50919050565b634e487b7160e01b600052601160045260246000fd5b60008219821115610d8857610d88610d5f565b500190565b600181815b80851115610dc8578160001904821115610dae57610dae610d5f565b80851615610dbb57918102915b93841c9390800290610d92565b509250929050565b600082610ddf575060016103ec565b81610dec575060006103ec565b8160018114610e025760028114610e0c57610e28565b60019150506103ec565b60ff841115610e1d57610e1d610d5f565b50506001821b6103ec565b5060208310610133831016604e8410600b8410161715610e4b575081810a6103ec565b610e558383610d8d565b8060001904821115610e6957610e69610d5f565b029392505050565b6000610cea60ff841683610dd0565b6000816000190483118215151615610e9a57610e9a610d5f565b500290565b600082610ebc57634e487b7160e01b600052601260045260246000fd5b50049056fea2646970667358221220d67382e00fb57619836e43cfbfd1d7f53f44752db4d6dd436c782fa5279ab8ed64736f6c63430008090033",
  "linkReferences": {},
  "deployedLinkReferences": {}
}