{
  "_format": "hh-sol-artifact-1",
  "contractName": "MockVRFCoordinatorV2Plus",
  "sourceName": "contracts/MockVRFCoordinatorV2.sol",
  "abi": [
    {
      "inputs": [
        {
          "internalType": "uint96",
          "name": "_baseFee",
          "type": "uint96"
        },
        {
          "internalType": "uint96",
          "name": "_gasPriceLink",
          "type": "uint96"
        }
      ],
      "stateMutability": "nonpayable",
      "type": "constructor"
    },
    {
      "anonymous": false,
      "inputs": [
        {
          "indexed": true,
          "internalType": "uint64",
          "name": "subId",
          "type": "uint64"
        },
        {
          "indexed": false,
          "internalType": "address",
          "name": "consumer",
          "type": "address"
        }
      ],
      "name": "ConsumerAdded",
      "type": "event"
    },
    {
      "anonymous": false,
      "inputs": [
        {
          "indexed": true,
          "internalType": "uint256",
          "name": "requestId",
          "type": "uint256"
        },
        {
          "indexed": true,
          "internalType": "uint256",
          "name": "subId",
          "type": "uint256"
        },
        {
          "indexed": false,
          "internalType": "uint256[]",
          "name": "randomWords",
          "type": "uint256[]"
        },
        {
          "indexed": false,
          "internalType": "uint96",
          "name": "payment",
          "type": "uint96"
        }
      ],
      "name": "RandomWordsFulfilled",
      "type": "event"
    },
    {
      "anonymous": false,
      "inputs": [
        {
          "indexed": true,
          "internalType": "bytes32",
          "name": "keyHash",
          "type": "bytes32"
        },
        {
          "indexed": false,
          "internalType": "uint256",
          "name": "requestId",
          "type": "uint256"
        },
        {
          "indexed": false,
          "internalType": "uint256",
          "name": "preSeed",
          "type": "uint256"
        },
        {
          "indexed": true,
          "internalType": "uint64",
          "name": "subId",
          "type": "uint64"
        },
        {
          "indexed": false,
          "internalType": "uint16",
          "name": "minimumRequestConfirmations",
          "type": "uint16"
        },
        {
          "indexed": false,
          "internalType": "uint32",
          "name": "callbackGasLimit",
          "type": "uint32"
        },
        {
          "indexed": false,
          "internalType": "uint32",
          "name": "numWords",
          "type": "uint32"
        },
        {
          "indexed": true,
          "internalType": "address",
          "name": "sender",
          "type": "address"
        }
      ],
      "name": "RandomWordsRequested",
      "type": "event"
    },
    {
      "anonymous": false,
      "inputs": [
        {
          "indexed": true,
          "internalType": "uint64",
          "name": "subId",
          "type": "uint64"
        },
        {
          "indexed": false,
          "internalType": "address",
          "name": "owner",
          "type": "address"
        }
      ],
      "name": "SubscriptionCreated",
      "type": "event"
    },
    {
      "anonymous": false,
      "inputs": [
        {
          "indexed": true,
          "internalType": "uint64",
          "name": "subId",
          "type": "uint64"
        },
        {
          "indexed": false,
          "internalType": "uint256",
          "name": "oldBalance",
          "type": "uint256"
        },
        {
          "indexed": false,
          "internalType": "uint256",
          "name": "newBalance",
          "type": "uint256"
        }
      ],
      "name": "SubscriptionFunded",
      "type": "event"
    },
    {
      "inputs": [],
      "name": "BASE_FEE",
      "outputs": [
        {
          "internalType": "uint96",
          "name": "",
          "type": "uint96"
        }
      ],
      "stateMutability": "view",
      "type": "function"
    },
    {
      "inputs": [],
      "name": "GAS_PRICE_LINK",
      "outputs": [
        {
          "internalType": "uint96",
          "name": "",
          "type": "uint96"
        }
      ],
      "stateMutability": "view",
      "type": "function"
    },
    {
      "inputs": [
        {
          "internalType": "uint64",
          "name": "subId",
          "type": "uint64"
        },
        {
          "internalType": "address",
          "name": "consumer",
          "type": "address"
        }
      ],
      "name": "addConsumer",
      "outputs": [],
      "stateMutability": "nonpayable",
      "type": "function"
    },
    {
      "inputs": [],
      "name": "createSubscription",
      "outputs": [
        {
          "internalType": "uint64",
          "name": "subId",
          "type": "uint64"
        }
      ],
      "stateMutability": "nonpayable",
      "type": "function"
    },
    {
      "inputs": [
        {
          "internalType": "uint256",
          "name": "requestId",
          "type": "uint256"
        }
      ],
      "name": "fulfillRandomWords",
      "outputs": [],
      "stateMutability": "nonpayable",
      "type": "function"
    },
    {
      "inputs": [
        {
          "internalType": "uint64",
          "name": "subId",
          "type": "uint64"
        }
      ],
      "name": "fundSubscription",
      "outputs": [],
      "stateMutability": "payable",
      "type": "function"
    },
    {
      "inputs": [
        {
          "internalType": "uint64",
          "name": "subId",
          "type": "uint64"
        }
      ],
      "name": "getSubscription",
      "outputs": [
        {
          "internalType": "address",
          "name": "owner",
          "type": "address"
        },
        {
          "internalType": "uint96",
          "name": "balance",
          "type": "uint96"
        },
        {
          "internalType": "bool",
          "name": "active",
          "type": "bool"
        }
      ],
      "stateMutability": "view",
      "type": "function"
    },
    {
      "inputs": [
        {
          "internalType": "uint64",
          "name": "subId",
          "type": "uint64"
        },
        {
          "internalType": "address",
          "name": "consumer",
          "type": "address"
        }
      ],
      "name": "isConsumer",
      "outputs": [
        {
          "internalType": "bool",
          "name": "",
          "type": "bool"
        }
      ],
      "stateMutability": "view",
      "type": "function"
    },
    {
      "inputs": [
        {
          "components": [
            {
              "internalType": "bytes32",
              "name": "keyHash",
              "type": "bytes32"
            },
            {
              "internalType": "uint256",
              "name": "subId",
              "type": "uint256"
            },
            {
              "internalType": "uint16",
              "name": "requestConfirmations",
              "type": "uint16"
            },
            {
              "internalType": "uint32",
              "name": "callbackGasLimit",
              "type": "uint32"
            },
            {
              "internalType": "uint32",
              "name": "numWords",
              "type": "uint32"
            },
            {
              "internalType": "bytes",
              "name": "extraArgs",
              "type": "bytes"
            }
          ],
          "internalType": "struct VRFV2PlusClient.RandomWordsRequest",
          "name": "req",
          "type": "tuple"
        }
      ],
      "name": "requestRandomWords",
      "outputs": [
        {
          "internalType": "uint256",
          "name": "",
          "type": "uint256"
        }
      ],
      "stateMutability": "nonpayable",
      "type": "function"
    }
  ],
  "bytecode": "0x60c060405234801561001057600080fd5b50604051610e54380380610e5483398101604081905261002f91610062565b6001600160601b039182166080521660a052610095565b80516001600160601b038116811461005d57600080fd5b919050565b6000806040838503121561007557600080fd5b61007e83610046565b915061008c60208401610046565b90509250929050565b60805160a051610d9a6100ba60003960006101cd015260006101040152610d9a6000f3fe6080604052600436106100865760003560e01c8063a21a23e411610059578063a21a23e41461018e578063a410347f146101bb578063a47c7696146101ef578063d6100d1c1461027d578063dfaba7941461029d57600080fd5b8063342e3a301461008b5780633d18651e146100f25780637341c10c1461013e5780639b1c385e14610160575b600080fd5b34801561009757600080fd5b506100dd6100a6366004610b36565b6001600160401b0382166000908152602081815260408083206001600160a01b038516845260020190915290205460ff1692915050565b60405190151581526020015b60405180910390f35b3480156100fe57600080fd5b506101267f000000000000000000000000000000000000000000000000000000000000000081565b6040516001600160601b0390911681526020016100e9565b34801561014a57600080fd5b5061015e610159366004610b36565b6102b0565b005b34801561016c57600080fd5b5061018061017b366004610b79565b610401565b6040519081526020016100e9565b34801561019a57600080fd5b506101a3610729565b6040516001600160401b0390911681526020016100e9565b3480156101c757600080fd5b506101267f000000000000000000000000000000000000000000000000000000000000000081565b3480156101fb57600080fd5b5061024e61020a366004610bba565b6001600160401b0316600090815260208190526040902080546001909101546001600160a01b03821692600160a01b9092046001600160601b03169160ff90911690565b604080516001600160a01b0390941684526001600160601b0390921660208401521515908201526060016100e9565b34801561028957600080fd5b5061015e610298366004610bd5565b6107b4565b61015e6102ab366004610bba565b610a00565b6001600160401b0382166000908152602081905260409020546001600160a01b0316331461031e5760405162461bcd60e51b81526020600482015260166024820152752737ba1039bab139b1b934b83a34b7b71037bbb732b960511b60448201526064015b60405180910390fd5b6001600160401b0382166000908152602081815260408083206001600160a01b038516845260020190915290205460ff16156103915760405162461bcd60e51b815260206004820152601260248201527120b63932b0b23c90309031b7b739bab6b2b960711b6044820152606401610315565b6001600160401b0382166000818152602081815260408083206001600160a01b0386168085526002909101835292819020805460ff19166001179055519182527f752ead9f4536ec1319ee3a5a604e1d65eded22e0924251552ba14ae4faa1bbc391015b60405180910390a25050565b602080820135600090815290819052604081206001015460ff166104615760405162461bcd60e51b8152602060048201526017602482015276537562736372697074696f6e206e6f742061637469766560481b6044820152606401610315565b60208083013560009081528082526040808220338352600201909252205460ff166104ce5760405162461bcd60e51b815260206004820152601760248201527f4e6f74207265676973746572656420636f6e73756d65720000000000000000006044820152606401610315565b60006104e060a0840160808501610bee565b63ffffffff16116105335760405162461bcd60e51b815260206004820152601c60248201527f4d7573742072657175657374206174206c65617374203120776f7264000000006044820152606401610315565b620186a06105476080840160608501610bee565b63ffffffff16101561058f5760405162461bcd60e51b8152602060048201526011602482015270476173206c696d697420746f6f206c6f7760781b6044820152606401610315565b6002805460009184359190836105a483610c2a565b9091555060408051602081019390935282015260600160408051601f19818403018152828252805160209182012060a080850190935233845293508201906105f190860160808701610bee565b63ffffffff90811682528535602080840182905287810135604080860182905260006060968701819052888152600180855282822089518154968b0151909816600160a01b026001600160c01b03199096166001600160a01b039098169790971794909417865587820151938601939093558686015160028601556080909601516003909401805494151560ff199095169490941790935533946001600160401b039093169391927f63373d1c4696214b898952999c9aaec57dac1ee2723cec59bea6888f489a9772928792916106cc918b01908b01610c43565b6106dc60808b0160608c01610bee565b6106ec60a08c0160808d01610bee565b60408051958652602086019490945261ffff929092168484015263ffffffff9081166060850152166080830152519081900360a00190a492915050565b600060026000815461073a90610c2a565b91829055506001600160401b0381166000818152602081815260409182902080546001600160a01b0319163390811782556001918201805460ff1916909217909155915191825292935090917f464722b4166576d3dcbba877b999bc35cf911f4eaf434b7eba68fa113951d0bf910160405180910390a290565b6000818152600160205260409020600381015460ff16156108175760405162461bcd60e51b815260206004820152601960248201527f5265717565737420616c72656164792066756c66696c6c6564000000000000006044820152606401610315565b80546001600160a01b03166108625760405162461bcd60e51b815260206004820152601160248201527014995c5d595cdd081b9bdd08199bdd5b99607a1b6044820152606401610315565b60038101805460ff19166001179055805460009063ffffffff600160a01b909104166001600160401b0381111561089b5761089b610c67565b6040519080825280602002602001820160405280156108c4578160200160208202803683370190505b50905060005b825463ffffffff600160a01b9091048116908216101561095457604080516020810186905263ffffffff8316918101919091524260608201526080016040516020818303038152906040528051906020012060001c828263ffffffff168151811061093757610937610c7d565b60209081029190910101528061094c81610c93565b9150506108ca565b508160020154837f078af7707a29bce45262430be7258c1788c74df94d9abc281c463b59761b59fd83600060405161098d929190610cf1565b60405180910390a38154604051631fe543e360e01b81526001600160a01b03909116908190631fe543e3906109c89087908690600401610d1c565b600060405180830381600087803b1580156109e257600080fd5b505af11580156109f6573d6000803e3d6000fd5b5050505050505050565b6001600160401b03811660009081526020819052604090206001015460ff16610a655760405162461bcd60e51b8152602060048201526017602482015276537562736372697074696f6e206e6f742061637469766560481b6044820152606401610315565b6001600160401b03811660009081526020819052604090208054600160a01b90046001600160601b03169034906014610a9e8385610d3d565b82546101009290920a6001600160601b038181021990931691831602179091556001600160401b038416600081815260208181526040918290205482518786168152600160a01b909104909416908401529092507fd39ec07f4e209f627a4c427971473820dc129761ba28de8906bd56f57101d4f891016103f5565b80356001600160401b0381168114610b3157600080fd5b919050565b60008060408385031215610b4957600080fd5b610b5283610b1a565b915060208301356001600160a01b0381168114610b6e57600080fd5b809150509250929050565b600060208284031215610b8b57600080fd5b81356001600160401b03811115610ba157600080fd5b820160c08185031215610bb357600080fd5b9392505050565b600060208284031215610bcc57600080fd5b610bb382610b1a565b600060208284031215610be757600080fd5b5035919050565b600060208284031215610c0057600080fd5b813563ffffffff81168114610bb357600080fd5b634e487b7160e01b600052601160045260246000fd5b600060018201610c3c57610c3c610c14565b5060010190565b600060208284031215610c5557600080fd5b813561ffff81168114610bb357600080fd5b634e487b7160e01b600052604160045260246000fd5b634e487b7160e01b600052603260045260246000fd5b600063ffffffff808316818103610cac57610cac610c14565b6001019392505050565b600081518084526020808501945080840160005b83811015610ce657815187529582019590820190600101610cca565b509495945050505050565b604081526000610d046040830185610cb6565b90506001600160601b03831660208301529392505050565b828152604060208201526000610d356040830184610cb6565b949350505050565b6001600160601b03818116838216019080821115610d5d57610d5d610c14565b509291505056fea26469706673582212204aad9ab67dc5b684ed5c3affba5045c76def353916d1c8d14d5a1c7e10d710b064736f6c63430008140033",
  "linkReferences": {},
  "deployedLinkReferences": {}
}