{
  "_format": "hh-sol-artifact-1",
  "contractName": "Proposal",
  "sourceName": "contracts/Proposal.sol",
  "abi": [
    {
      "inputs": [
        {
          "internalType": "address",
          "name": "_tokenAddress",
          "type": "address"
        }
      ],
      "stateMutability": "nonpayable",
      "type": "constructor"
    },
    {
      "anonymous": false,
      "inputs": [
        {
          "indexed": false,
          "internalType": "uint256",
          "name": "id",
          "type": "uint256"
        },
        {
          "indexed": false,
          "internalType": "string",
          "name": "title",
          "type": "string"
        }
      ],
      "name": "ProposalCreated",
      "type": "event"
    },
    {
      "inputs": [
        {
          "internalType": "uint256",
          "name": "",
          "type": "uint256"
        }
      ],
      "name": "allProposals",
      "outputs": [
        {
          "internalType": "uint256",
          "name": "id",
          "type": "uint256"
        },
        {
          "internalType": "string",
          "name": "title",
          "type": "string"
        },
        {
          "internalType": "string",
          "name": "description",
          "type": "string"
        },
        {
          "internalType": "uint256",
          "name": "forVotes",
          "type": "uint256"
        },
        {
          "internalType": "uint256",
          "name": "againstVotes",
          "type": "uint256"
        },
        {
          "internalType": "uint256",
          "name": "abstainVotes",
          "type": "uint256"
        },
        {
          "internalType": "bool",
          "name": "executed",
          "type": "bool"
        },
        {
          "internalType": "bool",
          "name": "passed",
          "type": "bool"
        },
        {
          "internalType": "address",
          "name": "proposer",
          "type": "address"
        },
        {
          "internalType": "address",
          "name": "recipient",
          "type": "address"
        },
        {
          "internalType": "uint256",
          "name": "amount",
          "type": "uint256"
        }
      ],
      "stateMutability": "view",
      "type": "function"
    },
    {
      "inputs": [
        {
          "internalType": "string",
          "name": "_title",
          "type": "string"
        },
        {
          "internalType": "string",
          "name": "_description",
          "type": "string"
        },
        {
          "internalType": "address",
          "name": "_recipient",
          "type": "address"
        },
        {
          "internalType": "uint256",
          "name": "_amount",
          "type": "uint256"
        }
      ],
      "name": "createProposal",
      "outputs": [],
      "stateMutability": "nonpayable",
      "type": "function"
    },
    {
      "inputs": [
        {
          "internalType": "uint256",
          "name": "_proposalId",
          "type": "uint256"
        }
      ],
      "name": "getProposal",
      "outputs": [
        {
          "components": [
            {
              "internalType": "uint256",
              "name": "id",
              "type": "uint256"
            },
            {
              "internalType": "string",
              "name": "title",
              "type": "string"
            },
            {
              "internalType": "string",
              "name": "description",
              "type": "string"
            },
            {
              "internalType": "uint256",
              "name": "forVotes",
              "type": "uint256"
            },
            {
              "internalType": "uint256",
              "name": "againstVotes",
              "type": "uint256"
            },
            {
              "internalType": "uint256",
              "name": "abstainVotes",
              "type": "uint256"
            },
            {
              "internalType": "bool",
              "name": "executed",
              "type": "bool"
            },
            {
              "internalType": "bool",
              "name": "passed",
              "type": "bool"
            },
            {
              "internalType": "address",
              "name": "proposer",
              "type": "address"
            },
            {
              "internalType": "address",
              "name": "recipient",
              "type": "address"
            },
            {
              "internalType": "uint256",
              "name": "amount",
              "type": "uint256"
            }
          ],
          "internalType": "struct Proposal.ProposalDetails",
          "name": "",
          "type": "tuple"
        }
      ],
      "stateMutability": "view",
      "type": "function"
    },
    {
      "inputs": [],
      "name": "token",
      "outputs": [
        {
          "internalType": "contract IToken",
          "name": "",
          "type": "address"
        }
      ],
      "stateMutability": "view",
      "type": "function"
    },
    {
      "inputs": [
        {
          "internalType": "uint256",
          "name": "",
          "type": "uint256"
        },
        {
          "internalType": "address",
          "name": "",
          "type": "address"
        }
      ],
      "name": "voters",
      "outputs": [
        {
          "internalType": "bool",
          "name": "",
          "type": "bool"
        }
      ],
      "stateMutability": "view",
      "type": "function"
    }
  ],
  "bytecode": "0x608060405234801561001057600080fd5b50604051610dcf380380610dcf83398101604081905261002f91610054565b600280546001600160a01b0319166001600160a01b0392909216919091179055610084565b60006020828403121561006657600080fd5b81516001600160a01b038116811461007d57600080fd5b9392505050565b610d3c806100936000396000f3fe608060405234801561001057600080fd5b50600436106100575760003560e01c80637cdc2eb71461005c578063938351b8146100715780639e319063146100a4578063c7f758a8146100e2578063fc0c546a14610102575b600080fd5b61006f61006a3660046109f4565b61012d565b005b61008461007f366004610a7d565b6104da565b60405161009b9b9a99989796959493929190610ae3565b60405180910390f35b6100d26100b2366004610b61565b600160209081526000928352604080842090915290825290205460ff1681565b604051901515815260200161009b565b6100f56100f0366004610a7d565b610668565b60405161009b9190610b8d565b600254610115906001600160a01b031681565b6040516001600160a01b03909116815260200161009b565b8261018d5760405162461bcd60e51b815260206004820152602560248201527f4c61206465736372697a696f6e65206e6f6e2070756f272065737365726520766044820152643ab7ba309760d91b60648201526084015b60405180910390fd5b6002546040516370a0823160e01b81523360048201526000916001600160a01b0316906370a082319060240160206040518083038186803b1580156101d157600080fd5b505afa1580156101e5573d6000803e3d6000fd5b505050506040513d601f19601f820116820180604052508101906102099190610c66565b116102655760405162461bcd60e51b815260206004820152602660248201527f536f6c6f2069206d656d62726920706f73736f6e6f206372656172652070726f6044820152653837b9ba329760d11b6064820152608401610184565b6001600160a01b038216156102d457600081116102d45760405162461bcd60e51b815260206004820152602760248201527f4c27696d706f72746f206465766520657373657265206d616767696f7265206460448201526634903d32b9379760c91b6064820152608401610184565b600080805490509050600060405180610160016040528083815260200189898080601f016020809104026020016040519081016040528093929190818152602001838380828437600092019190915250505090825250604080516020601f8a01819004810282018101909252888152918101919089908990819084018382808284376000920182905250938552505050602080830182905260408301829052606083018290526080830182905260a083018290523360c08401526001600160a01b03881660e0840152610100909201869052835460018181018655948252908290208351600990920201908155828201518051939491936103dd939285019291909101906108f6565b50604082015180516103f99160028401916020909101906108f6565b50606082015160038201556080820151600482015560a0820151600582015560c082015160068201805460e08501516101008087015161ffff1990931694151561ff001916949094179015159093029290921762010000600160b01b031916620100006001600160a01b03938416021790556101208301516007830180546001600160a01b03191691909216179055610140909101516008909101556040517f9c770c289ab5bf7e57cb1d23c8ceae993aea46eb64847072fd3d78ca60d3e432906104c99083908a908a90610c7f565b60405180910390a150505050505050565b600081815481106104ea57600080fd5b6000918252602090912060099091020180546001820180549193509061050f90610cb5565b80601f016020809104026020016040519081016040528092919081815260200182805461053b90610cb5565b80156105885780601f1061055d57610100808354040283529160200191610588565b820191906000526020600020905b81548152906001019060200180831161056b57829003601f168201915b50505050509080600201805461059d90610cb5565b80601f01602080910402602001604051908101604052809291908181526020018280546105c990610cb5565b80156106165780601f106105eb57610100808354040283529160200191610616565b820191906000526020600020905b8154815290600101906020018083116105f957829003601f168201915b505050506003830154600484015460058501546006860154600787015460089097015495969395929450909260ff808316936101008404909116926201000090046001600160a01b039081169216908b565b6106db60405180610160016040528060008152602001606081526020016060815260200160008152602001600081526020016000815260200160001515815260200160001515815260200160006001600160a01b0316815260200160006001600160a01b03168152602001600081525090565b600054821061072c5760405162461bcd60e51b815260206004820152601760248201527f50726f706f737461206e6f6e206573697374656e74652e0000000000000000006044820152606401610184565b6000828154811061073f5761073f610cf0565b9060005260206000209060090201604051806101600160405290816000820154815260200160018201805461077390610cb5565b80601f016020809104026020016040519081016040528092919081815260200182805461079f90610cb5565b80156107ec5780601f106107c1576101008083540402835291602001916107ec565b820191906000526020600020905b8154815290600101906020018083116107cf57829003601f168201915b5050505050815260200160028201805461080590610cb5565b80601f016020809104026020016040519081016040528092919081815260200182805461083190610cb5565b801561087e5780601f106108535761010080835404028352916020019161087e565b820191906000526020600020905b81548152906001019060200180831161086157829003601f168201915b5050509183525050600382015460208201526004820154604082015260058201546060820152600682015460ff80821615156080840152610100808304909116151560a0840152620100009091046001600160a01b0390811660c084015260078401541660e083015260089092015491015292915050565b82805461090290610cb5565b90600052602060002090601f016020900481019282610924576000855561096a565b82601f1061093d57805160ff191683800117855561096a565b8280016001018555821561096a579182015b8281111561096a57825182559160200191906001019061094f565b5061097692915061097a565b5090565b5b80821115610976576000815560010161097b565b60008083601f8401126109a157600080fd5b50813567ffffffffffffffff8111156109b957600080fd5b6020830191508360208285010111156109d157600080fd5b9250929050565b80356001600160a01b03811681146109ef57600080fd5b919050565b60008060008060008060808789031215610a0d57600080fd5b863567ffffffffffffffff80821115610a2557600080fd5b610a318a838b0161098f565b90985096506020890135915080821115610a4a57600080fd5b50610a5789828a0161098f565b9095509350610a6a9050604088016109d8565b9150606087013590509295509295509295565b600060208284031215610a8f57600080fd5b5035919050565b6000815180845260005b81811015610abc57602081850181015186830182015201610aa0565b81811115610ace576000602083870101525b50601f01601f19169290920160200192915050565b60006101608d8352806020840152610afd8184018e610a96565b90508281036040840152610b11818d610a96565b606084019b909b525050608081019790975260a087019590955292151560c086015290151560e08501526001600160a01b0390811661010085015216610120830152610140909101529392505050565b60008060408385031215610b7457600080fd5b82359150610b84602084016109d8565b90509250929050565b602081528151602082015260006020830151610160806040850152610bb6610180850183610a96565b91506040850151601f19858403016060860152610bd38382610a96565b92505060608501516080850152608085015160a085015260a085015160c085015260c0850151610c0760e086018215159052565b5060e0850151610100610c1d8187018315159052565b8601519050610120610c39868201836001600160a01b03169052565b8601519050610140610c55868201836001600160a01b03169052565b959095015193019290925250919050565b600060208284031215610c7857600080fd5b5051919050565b83815260406020820152816040820152818360608301376000818301606090810191909152601f909201601f1916010192915050565b600181811c90821680610cc957607f821691505b60208210811415610cea57634e487b7160e01b600052602260045260246000fd5b50919050565b634e487b7160e01b600052603260045260246000fdfea2646970667358221220cd333cdb3ae05c46517bb2aca724c0d81223829d411464700ec600bcfac4e07a64736f6c63430008090033",
  "linkReferences": {},
  "deployedLinkReferences": {}
}