{
  "_format": "hh-sol-artifact-1",
  "contractName": "ScientificContentNFT",
  "sourceName": "contracts/ScientificContentNFT.sol",
  "abi": [
    {
      "inputs": [
        {
          "internalType": "address",
          "name": "_contentRegistry",
          "type": "address"
        },
        {
          "internalType": "address",
          "name": "_vrfCoordinator",
          "type": "address"
        },
        {
          "internalType": "bytes32",
          "name": "_keyHash",
          "type": "bytes32"
        },
        {
          "internalType": "uint256",
          "name": "_subscriptionId",
          "type": "uint256"
        }
      ],
      "stateMutability": "nonpayable",
      "type": "constructor"
    },
    {
      "inputs": [
        {
          "internalType": "address",
          "name": "have",
          "type": "address"
        },
        {
          "internalType": "address",
          "name": "want",
          "type": "address"
        }
      ],
      "name": "OnlyCoordinatorCanFulfill",
      "type": "error"
    },
    {
      "inputs": [
        {
          "internalType": "address",
          "name": "have",
          "type": "address"
        },
        {
          "internalType": "address",
          "name": "owner",
          "type": "address"
        },
        {
          "internalType": "address",
          "name": "coordinator",
          "type": "address"
        }
      ],
      "name": "OnlyOwnerOrCoordinator",
      "type": "error"
    },
    {
      "inputs": [],
      "name": "ZeroAddress",
      "type": "error"
    },
    {
      "anonymous": false,
      "inputs": [
        {
          "indexed": true,
          "internalType": "address",
          "name": "owner",
          "type": "address"
        },
        {
          "indexed": true,
          "internalType": "address",
          "name": "approved",
          "type": "address"
        },
        {
          "indexed": true,
          "internalType": "uint256",
          "name": "tokenId",
          "type": "uint256"
        }
      ],
      "name": "Approval",
      "type": "event"
    },
    {
      "anonymous": false,
      "inputs": [
        {
          "indexed": true,
          "internalType": "address",
          "name": "owner",
          "type": "address"
        },
        {
          "indexed": true,
          "internalType": "address",
          "name": "operator",
          "type": "address"
        },
        {
          "indexed": false,
          "internalType": "bool",
          "name": "approved",
          "type": "bool"
        }
      ],
      "name": "ApprovalForAll",
      "type": "event"
    },
    {
      "anonymous": false,
      "inputs": [
        {
          "indexed": false,
          "internalType": "address",
          "name": "vrfCoordinator",
          "type": "address"
        }
      ],
      "name": "CoordinatorSet",
      "type": "event"
    },
    {
      "anonymous": false,
      "inputs": [
        {
          "indexed": false,
          "internalType": "string",
          "name": "message",
          "type": "string"
        },
        {
          "indexed": false,
          "internalType": "uint256",
          "name": "id",
          "type": "uint256"
        },
        {
          "indexed": false,
          "internalType": "string",
          "name": "data",
          "type": "string"
        }
      ],
      "name": "DebugLog",
      "type": "event"
    },
    {
      "anonymous": false,
      "inputs": [
        {
          "indexed": true,
          "internalType": "uint256",
          "name": "contentId",
          "type": "uint256"
        },
        {
          "indexed": true,
          "internalType": "address",
          "name": "minter",
          "type": "address"
        }
      ],
      "name": "MintStarted",
      "type": "event"
    },
    {
      "anonymous": false,
      "inputs": [
        {
          "indexed": true,
          "internalType": "address",
          "name": "minter",
          "type": "address"
        },
        {
          "indexed": true,
          "internalType": "uint256",
          "name": "contentId",
          "type": "uint256"
        }
      ],
      "name": "MintingFailed",
      "type": "event"
    },
    {
      "anonymous": false,
      "inputs": [
        {
          "indexed": true,
          "internalType": "uint256",
          "name": "tokenId",
          "type": "uint256"
        },
        {
          "indexed": true,
          "internalType": "uint256",
          "name": "contentId",
          "type": "uint256"
        },
        {
          "indexed": true,
          "internalType": "address",
          "name": "owner",
          "type": "address"
        },
        {
          "indexed": false,
          "internalType": "bool",
          "name": "isSpecial",
          "type": "bool"
        },
        {
          "indexed": false,
          "internalType": "uint256",
          "name": "copyNumber",
          "type": "uint256"
        }
      ],
      "name": "NFTMinted",
      "type": "event"
    },
    {
      "anonymous": false,
      "inputs": [
        {
          "indexed": true,
          "internalType": "address",
          "name": "from",
          "type": "address"
        },
        {
          "indexed": true,
          "internalType": "address",
          "name": "to",
          "type": "address"
        }
      ],
      "name": "OwnershipTransferRequested",
      "type": "event"
    },
    {
      "anonymous": false,
      "inputs": [
        {
          "indexed": true,
          "internalType": "address",
          "name": "from",
          "type": "address"
        },
        {
          "indexed": true,
          "internalType": "address",
          "name": "to",
          "type": "address"
        }
      ],
      "name": "OwnershipTransferred",
      "type": "event"
    },
    {
      "anonymous": false,
      "inputs": [
        {
          "indexed": true,
          "internalType": "uint256",
          "name": "requestId",
          "type": "uint256"
        },
        {
          "indexed": false,
          "internalType": "uint256",
          "name": "randomWord",
          "type": "uint256"
        }
      ],
      "name": "RandomnessReceived",
      "type": "event"
    },
    {
      "anonymous": false,
      "inputs": [
        {
          "indexed": true,
          "internalType": "uint256",
          "name": "requestId",
          "type": "uint256"
        },
        {
          "indexed": true,
          "internalType": "uint256",
          "name": "contentId",
          "type": "uint256"
        }
      ],
      "name": "RandomnessRequested",
      "type": "event"
    },
    {
      "anonymous": false,
      "inputs": [
        {
          "indexed": true,
          "internalType": "address",
          "name": "from",
          "type": "address"
        },
        {
          "indexed": true,
          "internalType": "address",
          "name": "to",
          "type": "address"
        },
        {
          "indexed": true,
          "internalType": "uint256",
          "name": "tokenId",
          "type": "uint256"
        }
      ],
      "name": "Transfer",
      "type": "event"
    },
    {
      "inputs": [],
      "name": "MINT_PRICE",
      "outputs": [
        {
          "internalType": "uint256",
          "name": "",
          "type": "uint256"
        }
      ],
      "stateMutability": "view",
      "type": "function"
    },
    {
      "inputs": [
        {
          "internalType": "address",
          "name": "minter",
          "type": "address"
        },
        {
          "internalType": "uint256",
          "name": "contentId",
          "type": "uint256"
        },
        {
          "internalType": "uint256",
          "name": "randomWord",
          "type": "uint256"
        }
      ],
      "name": "_processMint",
      "outputs": [],
      "stateMutability": "nonpayable",
      "type": "function"
    },
    {
      "inputs": [],
      "name": "acceptOwnership",
      "outputs": [],
      "stateMutability": "nonpayable",
      "type": "function"
    },
    {
      "inputs": [
        {
          "internalType": "address",
          "name": "to",
          "type": "address"
        },
        {
          "internalType": "uint256",
          "name": "tokenId",
          "type": "uint256"
        }
      ],
      "name": "approve",
      "outputs": [],
      "stateMutability": "nonpayable",
      "type": "function"
    },
    {
      "inputs": [
        {
          "internalType": "address",
          "name": "owner",
          "type": "address"
        }
      ],
      "name": "balanceOf",
      "outputs": [
        {
          "internalType": "uint256",
          "name": "",
          "type": "uint256"
        }
      ],
      "stateMutability": "view",
      "type": "function"
    },
    {
      "inputs": [],
      "name": "contentRegistry",
      "outputs": [
        {
          "internalType": "contract ScientificContentRegistry",
          "name": "",
          "type": "address"
        }
      ],
      "stateMutability": "view",
      "type": "function"
    },
    {
      "inputs": [
        {
          "internalType": "uint256",
          "name": "tokenId",
          "type": "uint256"
        }
      ],
      "name": "getApproved",
      "outputs": [
        {
          "internalType": "address",
          "name": "",
          "type": "address"
        }
      ],
      "stateMutability": "view",
      "type": "function"
    },
    {
      "inputs": [
        {
          "internalType": "uint256",
          "name": "tokenId",
          "type": "uint256"
        }
      ],
      "name": "getNFTMetadata",
      "outputs": [
        {
          "components": [
            {
              "internalType": "uint256",
              "name": "contentId",
              "type": "uint256"
            },
            {
              "internalType": "address",
              "name": "author",
              "type": "address"
            },
            {
              "internalType": "uint256",
              "name": "randomSeed",
              "type": "uint256"
            },
            {
              "internalType": "bool",
              "name": "hasSpecialContent",
              "type": "bool"
            },
            {
              "internalType": "uint256",
              "name": "copyNumber",
              "type": "uint256"
            }
          ],
          "internalType": "struct ScientificContentNFT.NFTMetadata",
          "name": "",
          "type": "tuple"
        }
      ],
      "stateMutability": "view",
      "type": "function"
    },
    {
      "inputs": [
        {
          "internalType": "address",
          "name": "owner",
          "type": "address"
        },
        {
          "internalType": "address",
          "name": "operator",
          "type": "address"
        }
      ],
      "name": "isApprovedForAll",
      "outputs": [
        {
          "internalType": "bool",
          "name": "",
          "type": "bool"
        }
      ],
      "stateMutability": "view",
      "type": "function"
    },
    {
      "inputs": [
        {
          "internalType": "uint256",
          "name": "contentId",
          "type": "uint256"
        }
      ],
      "name": "mintNFT",
      "outputs": [],
      "stateMutability": "payable",
      "type": "function"
    },
    {
      "inputs": [],
      "name": "name",
      "outputs": [
        {
          "internalType": "string",
          "name": "",
          "type": "string"
        }
      ],
      "stateMutability": "view",
      "type": "function"
    },
    {
      "inputs": [],
      "name": "owner",
      "outputs": [
        {
          "internalType": "address",
          "name": "",
          "type": "address"
        }
      ],
      "stateMutability": "view",
      "type": "function"
    },
    {
      "inputs": [
        {
          "internalType": "uint256",
          "name": "tokenId",
          "type": "uint256"
        }
      ],
      "name": "ownerOf",
      "outputs": [
        {
          "internalType": "address",
          "name": "",
          "type": "address"
        }
      ],
      "stateMutability": "view",
      "type": "function"
    },
    {
      "inputs": [
        {
          "internalType": "uint256",
          "name": "requestId",
          "type": "uint256"
        },
        {
          "internalType": "uint256[]",
          "name": "randomWords",
          "type": "uint256[]"
        }
      ],
      "name": "rawFulfillRandomWords",
      "outputs": [],
      "stateMutability": "nonpayable",
      "type": "function"
    },
    {
      "inputs": [],
      "name": "s_vrfCoordinator",
      "outputs": [
        {
          "internalType": "contract IVRFCoordinatorV2Plus",
          "name": "",
          "type": "address"
        }
      ],
      "stateMutability": "view",
      "type": "function"
    },
    {
      "inputs": [
        {
          "internalType": "address",
          "name": "from",
          "type": "address"
        },
        {
          "internalType": "address",
          "name": "to",
          "type": "address"
        },
        {
          "internalType": "uint256",
          "name": "tokenId",
          "type": "uint256"
        }
      ],
      "name": "safeTransferFrom",
      "outputs": [],
      "stateMutability": "nonpayable",
      "type": "function"
    },
    {
      "inputs": [
        {
          "internalType": "address",
          "name": "from",
          "type": "address"
        },
        {
          "internalType": "address",
          "name": "to",
          "type": "address"
        },
        {
          "internalType": "uint256",
          "name": "tokenId",
          "type": "uint256"
        },
        {
          "internalType": "bytes",
          "name": "data",
          "type": "bytes"
        }
      ],
      "name": "safeTransferFrom",
      "outputs": [],
      "stateMutability": "nonpayable",
      "type": "function"
    },
    {
      "inputs": [
        {
          "internalType": "address",
          "name": "operator",
          "type": "address"
        },
        {
          "internalType": "bool",
          "name": "approved",
          "type": "bool"
        }
      ],
      "name": "setApprovalForAll",
      "outputs": [],
      "stateMutability": "nonpayable",
      "type": "function"
    },
    {
      "inputs": [
        {
          "internalType": "address",
          "name": "_vrfCoordinator",
          "type": "address"
        }
      ],
      "name": "setCoordinator",
      "outputs": [],
      "stateMutability": "nonpayable",
      "type": "function"
    },
    {
      "inputs": [
        {
          "internalType": "bytes4",
          "name": "interfaceId",
          "type": "bytes4"
        }
      ],
      "name": "supportsInterface",
      "outputs": [
        {
          "internalType": "bool",
          "name": "",
          "type": "bool"
        }
      ],
      "stateMutability": "view",
      "type": "function"
    },
    {
      "inputs": [],
      "name": "symbol",
      "outputs": [
        {
          "internalType": "string",
          "name": "",
          "type": "string"
        }
      ],
      "stateMutability": "view",
      "type": "function"
    },
    {
      "inputs": [
        {
          "internalType": "uint256",
          "name": "index",
          "type": "uint256"
        }
      ],
      "name": "tokenByIndex",
      "outputs": [
        {
          "internalType": "uint256",
          "name": "",
          "type": "uint256"
        }
      ],
      "stateMutability": "view",
      "type": "function"
    },
    {
      "inputs": [
        {
          "internalType": "address",
          "name": "owner",
          "type": "address"
        },
        {
          "internalType": "uint256",
          "name": "index",
          "type": "uint256"
        }
      ],
      "name": "tokenOfOwnerByIndex",
      "outputs": [
        {
          "internalType": "uint256",
          "name": "",
          "type": "uint256"
        }
      ],
      "stateMutability": "view",
      "type": "function"
    },
    {
      "inputs": [
        {
          "internalType": "uint256",
          "name": "tokenId",
          "type": "uint256"
        }
      ],
      "name": "tokenURI",
      "outputs": [
        {
          "internalType": "string",
          "name": "",
          "type": "string"
        }
      ],
      "stateMutability": "view",
      "type": "function"
    },
    {
      "inputs": [],
      "name": "totalSupply",
      "outputs": [
        {
          "internalType": "uint256",
          "name": "",
          "type": "uint256"
        }
      ],
      "stateMutability": "view",
      "type": "function"
    },
    {
      "inputs": [
        {
          "internalType": "address",
          "name": "from",
          "type": "address"
        },
        {
          "internalType": "address",
          "name": "to",
          "type": "address"
        },
        {
          "internalType": "uint256",
          "name": "tokenId",
          "type": "uint256"
        }
      ],
      "name": "transferFrom",
      "outputs": [],
      "stateMutability": "nonpayable",
      "type": "function"
    },
    {
      "inputs": [
        {
          "internalType": "address",
          "name": "to",
          "type": "address"
        }
      ],
      "name": "transferOwnership",
      "outputs": [],
      "stateMutability": "nonpayable",
      "type": "function"
    }
  ],
  "bytecode": "0x6101006040523480156200001257600080fd5b5060405162003268380380620032688339810160408190526200003591620003b1565b82338060006040518060400160405280601681526020017f446e4120536369656e746966696320436f6e74656e740000000000000000000081525060405180604001604052806006815260200165444e4153434960d01b8152508160009081620000a091906200049e565b506001620000af82826200049e565b5050506001600160a01b0382166200010e5760405162461bcd60e51b815260206004820152601860248201527f43616e6e6f7420736574206f776e657220746f207a65726f000000000000000060448201526064015b60405180910390fd5b600a80546001600160a01b0319166001600160a01b038481169190911790915581161562000141576200014181620002e8565b5050506001600160a01b0381166200016c5760405163d92e233d60e01b815260040160405180910390fd5b600c80546001600160a01b0319166001600160a01b039283161790558416620001d85760405162461bcd60e51b815260206004820152601860248201527f496e76616c696420726567697374727920616464726573730000000000000000604482015260640162000105565b6001600160a01b038316620002305760405162461bcd60e51b815260206004820152601760248201527f496e76616c69642056524620636f6f7264696e61746f72000000000000000000604482015260640162000105565b81620002725760405162461bcd60e51b815260206004820152601060248201526f092dcecc2d8d2c840d6caf240d0c2e6d60831b604482015260640162000105565b80600003620002c45760405162461bcd60e51b815260206004820152601760248201527f496e76616c696420737562736372697074696f6e204944000000000000000000604482015260640162000105565b6001600160a01b0393841660e0529190921660805260a09190915260c0526200056a565b336001600160a01b03821603620003425760405162461bcd60e51b815260206004820152601760248201527f43616e6e6f74207472616e7366657220746f2073656c66000000000000000000604482015260640162000105565b600b80546001600160a01b0319166001600160a01b03838116918217909255600a54604051919216907fed8889f560326eb138920d842192f0eb3dd22b4f139c87a2c57538e05bae127890600090a350565b80516001600160a01b0381168114620003ac57600080fd5b919050565b60008060008060808587031215620003c857600080fd5b620003d38562000394565b9350620003e36020860162000394565b6040860151606090960151949790965092505050565b634e487b7160e01b600052604160045260246000fd5b600181811c908216806200042457607f821691505b6020821081036200044557634e487b7160e01b600052602260045260246000fd5b50919050565b601f8211156200049957600081815260208120601f850160051c81016020861015620004745750805b601f850160051c820191505b81811015620004955782815560010162000480565b5050505b505050565b81516001600160401b03811115620004ba57620004ba620003f9565b620004d281620004cb84546200040f565b846200044b565b602080601f8311600181146200050a5760008415620004f15750858301515b600019600386901b1c1916600185901b17855562000495565b600085815260208120601f198616915b828110156200053b578886015182559484019460019091019084016200051a565b50858210156200055a5787850151600019600388901b60f8161c191681555b5050505050600190811b01905550565b60805160a05160c05160e051612ca8620005c0600039600081816102c301528181610d2c015281816111a1015281816112ea01526116b501526000610ea501526000610e8201526000610f1e0152612ca86000f3fe60806040526004361061019c5760003560e01c806370a08231116100ec578063a22cb4651161008a578063c002d23d11610064578063c002d23d146104e8578063c87b56dd14610503578063e985e9c514610523578063f2fde38b1461056c57600080fd5b8063a22cb46514610488578063b88d4fde146104a8578063bb6f9da5146104c857600080fd5b80638ea98117116100c65780638ea9811714610420578063926427441461044057806395d89b41146104535780639eccacf61461046857600080fd5b806370a08231146103cd57806379ba5097146103ed5780638da5cb5b1461040257600080fd5b806323b872dd1161015957806342842e0e1161013357806342842e0e146103055780634f6ccce7146103255780636352211e146103455780636be9a6f11461036557600080fd5b806323b872dd1461029157806327a4f2bb146102b15780632f745c59146102e557600080fd5b806301ffc9a7146101a157806306fdde03146101d6578063081812fc146101f8578063095ea7b31461023057806318160ddd146102525780631fe543e314610271575b600080fd5b3480156101ad57600080fd5b506101c16101bc3660046123c3565b61058c565b60405190151581526020015b60405180910390f35b3480156101e257600080fd5b506101eb6105b7565b6040516101cd9190612430565b34801561020457600080fd5b50610218610213366004612443565b610649565b6040516001600160a01b0390911681526020016101cd565b34801561023c57600080fd5b5061025061024b366004612471565b610670565b005b34801561025e57600080fd5b506008545b6040519081526020016101cd565b34801561027d57600080fd5b5061025061028c36600461249d565b61078a565b34801561029d57600080fd5b506102506102ac36600461251c565b6107d5565b3480156102bd57600080fd5b506102187f000000000000000000000000000000000000000000000000000000000000000081565b3480156102f157600080fd5b50610263610300366004612471565b610806565b34801561031157600080fd5b5061025061032036600461251c565b61089c565b34801561033157600080fd5b50610263610340366004612443565b6108b7565b34801561035157600080fd5b50610218610360366004612443565b61094a565b34801561037157600080fd5b50610385610380366004612443565b6109aa565b6040516101cd9190815181526020808301516001600160a01b031690820152604080830151908201526060808301511515908201526080918201519181019190915260a00190565b3480156103d957600080fd5b506102636103e836600461255d565b610a9f565b3480156103f957600080fd5b50610250610b25565b34801561040e57600080fd5b50600a546001600160a01b0316610218565b34801561042c57600080fd5b5061025061043b36600461255d565b610bd3565b61025061044e366004612443565b610cc5565b34801561045f57600080fd5b506101eb6110cc565b34801561047457600080fd5b50600c54610218906001600160a01b031681565b34801561049457600080fd5b506102506104a3366004612588565b6110db565b3480156104b457600080fd5b506102506104c336600461265a565b6110ea565b3480156104d457600080fd5b506102506104e3366004612709565b611122565b3480156104f457600080fd5b5061026366b1a2bc2ec5000081565b34801561050f57600080fd5b506101eb61051e366004612443565b6113bb565b34801561052f57600080fd5b506101c161053e36600461273e565b6001600160a01b03918216600090815260056020908152604080832093909416825291909152205460ff1690565b34801561057857600080fd5b5061025061058736600461255d565b61142f565b60006001600160e01b0319821663780e9d6360e01b14806105b157506105b182611443565b92915050565b6060600080546105c69061276c565b80601f01602080910402602001604051908101604052809291908181526020018280546105f29061276c565b801561063f5780601f106106145761010080835404028352916020019161063f565b820191906000526020600020905b81548152906001019060200180831161062257829003601f168201915b5050505050905090565b600061065482611493565b506000908152600460205260409020546001600160a01b031690565b600061067b8261094a565b9050806001600160a01b0316836001600160a01b0316036106ed5760405162461bcd60e51b815260206004820152602160248201527f4552433732313a20617070726f76616c20746f2063757272656e74206f776e656044820152603960f91b60648201526084015b60405180910390fd5b336001600160a01b03821614806107095750610709813361053e565b61077b5760405162461bcd60e51b815260206004820152603d60248201527f4552433732313a20617070726f76652063616c6c6572206973206e6f7420746f60448201527f6b656e206f776e6572206f7220617070726f76656420666f7220616c6c00000060648201526084016106e4565b61078583836114f2565b505050565b600c546001600160a01b031633146107ca57600c5460405163073e64fd60e21b81523360048201526001600160a01b0390911660248201526044016106e4565b610785838383611560565b6107df338261179d565b6107fb5760405162461bcd60e51b81526004016106e4906127a6565b61078583838361181c565b600061081183610a9f565b82106108735760405162461bcd60e51b815260206004820152602b60248201527f455243373231456e756d657261626c653a206f776e657220696e646578206f7560448201526a74206f6620626f756e647360a81b60648201526084016106e4565b506001600160a01b03919091166000908152600660209081526040808320938352929052205490565b610785838383604051806020016040528060008152506110ea565b60006108c260085490565b82106109255760405162461bcd60e51b815260206004820152602c60248201527f455243373231456e756d657261626c653a20676c6f62616c20696e646578206f60448201526b7574206f6620626f756e647360a01b60648201526084016106e4565b60088281548110610938576109386127f3565b90600052602060002001549050919050565b6000818152600260205260408120546001600160a01b0316806105b15760405162461bcd60e51b8152602060048201526018602482015277115490cdcc8c4e881a5b9d985b1a59081d1bdad95b88125160421b60448201526064016106e4565b6109e76040518060a001604052806000815260200160006001600160a01b0316815260200160008152602001600015158152602001600081525090565b6000828152600260205260409020546001600160a01b0316610a425760405162461bcd60e51b8152602060048201526014602482015273151bdad95b88191bd95cc81b9bdd08195e1a5cdd60621b60448201526064016106e4565b506000908152600d6020908152604091829020825160a0810184528154815260018201546001600160a01b031692810192909252600281015492820192909252600382015460ff1615156060820152600490910154608082015290565b60006001600160a01b038216610b095760405162461bcd60e51b815260206004820152602960248201527f4552433732313a2061646472657373207a65726f206973206e6f7420612076616044820152683634b21037bbb732b960b91b60648201526084016106e4565b506001600160a01b031660009081526003602052604090205490565b600b546001600160a01b03163314610b785760405162461bcd60e51b815260206004820152601660248201527526bab9ba10313290383937b837b9b2b21037bbb732b960511b60448201526064016106e4565b600a80546001600160a01b031980821633908117909355600b805490911690556040516001600160a01b03909116919082907f8be0079c531659141344cd1fd0a4f28419497f9722a3daafe3b4186f6b6457e090600090a350565b600a546001600160a01b03163314801590610bf95750600c546001600160a01b03163314155b15610c4a5733610c11600a546001600160a01b031690565b600c5460405163061db9c160e01b81526001600160a01b03938416600482015291831660248301529190911660448201526064016106e4565b6001600160a01b038116610c715760405163d92e233d60e01b815260040160405180910390fd5b600c80546001600160a01b0319166001600160a01b0383169081179091556040519081527fd1a6a14209a385a964d036e404cb5cfb71f4000cdb03c9366292430787261be69060200160405180910390a150565b66b1a2bc2ec50000341015610d135760405162461bcd60e51b8152602060048201526014602482015273125b9cdd59999a58da595b9d081c185e5b595b9d60621b60448201526064016106e4565b6040516302deb55360e21b8152600481018290526000907f00000000000000000000000000000000000000000000000000000000000000006001600160a01b031690630b7ad54c90602401600060405180830381865afa158015610d7b573d6000803e3d6000fd5b505050506040513d6000823e601f3d908101601f19168201604052610da39190810190612869565b90508060800151610dee5760405162461bcd60e51b8152602060048201526015602482015274436f6e74656e74206e6f7420617661696c61626c6560581b60448201526064016106e4565b8060c001518160e0015110610e3b5760405162461bcd60e51b81526020600482015260136024820152724e6f20636f7069657320617661696c61626c6560681b60448201526064016106e4565b80516040517f099462b0f343b9a6ebddfc9ac5ec84952a627782b34f753697974b390e55020591610e6e91859190612948565b60405180910390a16040805160c0810182527f000000000000000000000000000000000000000000000000000000000000000081527f0000000000000000000000000000000000000000000000000000000000000000602080830191909152600382840152620493e0606083015260016080830152825190810190925260008083529160a0820190610eff9061198d565b9052604051634d8e1c2f60e11b81529091506000906001600160a01b037f00000000000000000000000000000000000000000000000000000000000000001690639b1c385e90610f53908590600401612985565b6020604051808303816000875af1158015610f72573d6000803e3d6000fd5b505050506040513d601f19601f82011682018060405250810190610f9691906129e2565b60408051808201825233815260208082018881526000858152600e909252929020905181546001600160a01b0319166001600160a01b03909116178155905160019091015590507f099462b0f343b9a6ebddfc9ac5ec84952a627782b34f753697974b390e55020581611008866119fe565b6040516110169291906129fb565b60405180910390a16000606461102d600334612a5e565b6110379190612a8b565b905083604001516001600160a01b03166108fc829081150290604051600060405180830381858888f19350505050158015611076573d6000803e3d6000fd5b5066b1a2bc2ec500003411156110c557336108fc61109b66b1a2bc2ec5000034612a9f565b6040518115909202916000818181858888f193505050501580156110c3573d6000803e3d6000fd5b505b5050505050565b6060600180546105c69061276c565b6110e6338383611a91565b5050565b6110f4338361179d565b6111105760405162461bcd60e51b81526004016106e4906127a6565b61111c84848484611b5f565b50505050565b3330146111665760405162461bcd60e51b8152602060048201526012602482015271496e7465726e616c2063616c6c206f6e6c7960701b60448201526064016106e4565b600061117160085490565b61117c906001612ab2565b90506111888482611b92565b6040516302deb55360e21b8152600481018490526000907f00000000000000000000000000000000000000000000000000000000000000006001600160a01b031690630b7ad54c90602401600060405180830381865afa1580156111f0573d6000803e3d6000fd5b505050506040513d6000823e601f3d908101601f191682016040526112189190810190612869565b90506000611227600a85612ac5565b60001490506040518060a0016040528086815260200183604001516001600160a01b0316815260200185815260200182151581526020018360e00151600161126f9190612ab2565b90526000848152600d602090815260409182902083518155908301516001820180546001600160a01b0319166001600160a01b03928316179055838301516002830155606084015160038301805460ff1916911515919091179055608090930151600491820155905163b4a5c7cf60e01b81529081018790527f00000000000000000000000000000000000000000000000000000000000000009091169063b4a5c7cf906024016020604051808303816000875af1158015611335573d6000803e3d6000fd5b505050506040513d601f19601f820116820180604052508101906113599190612ad9565b50856001600160a01b031685847f0b89e71d2fe2788acfa8c22e2bcfc717a8d8807abee9027426aac40000d56488848660e0015160016113999190612ab2565b60408051921515835260208301919091520160405180910390a4505050505050565b60606113c682611493565b60006113dd60408051602081019091526000815290565b905060008151116113fd5760405180602001604052806000815250611428565b80611407846119fe565b604051602001611418929190612af6565b6040516020818303038152906040525b9392505050565b611437611bac565b61144081611c01565b50565b60006001600160e01b031982166380ac58cd60e01b148061147457506001600160e01b03198216635b5e139f60e01b145b806105b157506301ffc9a760e01b6001600160e01b03198316146105b1565b6000818152600260205260409020546001600160a01b03166114405760405162461bcd60e51b8152602060048201526018602482015277115490cdcc8c4e881a5b9d985b1a59081d1bdad95b88125160421b60448201526064016106e4565b600081815260046020526040902080546001600160a01b0319166001600160a01b03841690811790915581906115278261094a565b6001600160a01b03167f8c5be1e5ebec7d5bd14f71427d1e84f3dd0314c0f7b2291e5b200ac8c7c3b92560405160405180910390a45050565b6000838152600e60209081526040808320815180830190925280546001600160a01b03168083526001909101549282018390529092309263bb6f9da5929187908790816115af576115af6127f3565b6040516001600160e01b031960e088901b1681526001600160a01b039095166004860152602485019390935250602090910201356044820152606401600060405180830381600087803b15801561160557600080fd5b505af1925050508015611616575060015b61171a57602081015181516040516001600160a01b03909116907feb7135cf2879bb75a60e7351488f1fee4b4e211ed60de7520d8fad88e29bd81990600090a380516040516001600160a01b039091169060009066b1a2bc2ec500009082818181858883f19350505050158015611691573d6000803e3d6000fd5b5060208101516040516376a6102f60e11b81526004810191909152600160248201527f00000000000000000000000000000000000000000000000000000000000000006001600160a01b03169063ed4c205e90604401600060405180830381600087803b15801561170157600080fd5b505af1158015611715573d6000803e3d6000fd5b505050505b6000848152600e6020526040812080546001600160a01b03191681556001018190557f099462b0f343b9a6ebddfc9ac5ec84952a627782b34f753697974b390e550205908590611781908690869081611775576117756127f3565b905060200201356119fe565b60405161178f929190612b25565b60405180910390a150505050565b6000806117a98361094a565b9050806001600160a01b0316846001600160a01b031614806117f057506001600160a01b0380821660009081526005602090815260408083209388168352929052205460ff165b806118145750836001600160a01b031661180984610649565b6001600160a01b0316145b949350505050565b826001600160a01b031661182f8261094a565b6001600160a01b0316146118555760405162461bcd60e51b81526004016106e490612b6b565b6001600160a01b0382166118b75760405162461bcd60e51b8152602060048201526024808201527f4552433732313a207472616e7366657220746f20746865207a65726f206164646044820152637265737360e01b60648201526084016106e4565b6118c48383836001611cab565b826001600160a01b03166118d78261094a565b6001600160a01b0316146118fd5760405162461bcd60e51b81526004016106e490612b6b565b600081815260046020908152604080832080546001600160a01b03199081169091556001600160a01b0387811680865260038552838620805460001901905590871680865283862080546001019055868652600290945282852080549092168417909155905184937fddf252ad1be2c89b69c2b068fc378daa952ba7f163c4a11628f55a4df523b3ef91a4505050565b60607f92fd13387c7fe7befbc38d303d6468778fb9731bc4583f17d92989c6fcfdeaaa826040516024016119c691511515815260200190565b60408051601f198184030181529190526020810180516001600160e01b03166001600160e01b03199093169290921790915292915050565b60606000611a0b83611cb7565b600101905060008167ffffffffffffffff811115611a2b57611a2b6125c1565b6040519080825280601f01601f191660200182016040528015611a55576020820181803683370190505b5090508181016020015b600019016f181899199a1a9b1b9c1cb0b131b232b360811b600a86061a8153600a8504945084611a5f57509392505050565b816001600160a01b0316836001600160a01b031603611af25760405162461bcd60e51b815260206004820152601960248201527f4552433732313a20617070726f766520746f2063616c6c65720000000000000060448201526064016106e4565b6001600160a01b03838116600081815260056020908152604080832094871680845294825291829020805460ff191686151590811790915591519182527f17307eab39ab6107e8899845ad3d59bd9653f200f220920489ca2b5937696c31910160405180910390a3505050565b611b6a84848461181c565b611b7684848484611d8f565b61111c5760405162461bcd60e51b81526004016106e490612bb0565b6110e6828260405180602001604052806000815250611e90565b600a546001600160a01b03163314611bff5760405162461bcd60e51b815260206004820152601660248201527527b7363c9031b0b63630b1363290313c9037bbb732b960511b60448201526064016106e4565b565b336001600160a01b03821603611c595760405162461bcd60e51b815260206004820152601760248201527f43616e6e6f74207472616e7366657220746f2073656c6600000000000000000060448201526064016106e4565b600b80546001600160a01b0319166001600160a01b03838116918217909255600a54604051919216907fed8889f560326eb138920d842192f0eb3dd22b4f139c87a2c57538e05bae127890600090a350565b61111c84848484611ec3565b60008072184f03e93ff9f4daa797ed6e38ed64bf6a1f0160401b8310611cf65772184f03e93ff9f4daa797ed6e38ed64bf6a1f0160401b830492506040015b6d04ee2d6d415b85acef81000000008310611d22576d04ee2d6d415b85acef8100000000830492506020015b662386f26fc100008310611d4057662386f26fc10000830492506010015b6305f5e1008310611d58576305f5e100830492506008015b6127108310611d6c57612710830492506004015b60648310611d7e576064830492506002015b600a83106105b15760010192915050565b60006001600160a01b0384163b15611e8557604051630a85bd0160e11b81526001600160a01b0385169063150b7a0290611dd3903390899088908890600401612c02565b6020604051808303816000875af1925050508015611e0e575060408051601f3d908101601f19168201909252611e0b91810190612c3f565b60015b611e6b573d808015611e3c576040519150601f19603f3d011682016040523d82523d6000602084013e611e41565b606091505b508051600003611e635760405162461bcd60e51b81526004016106e490612bb0565b805181602001fd5b6001600160e01b031916630a85bd0160e11b149050611814565b506001949350505050565b611e9a8383611ffc565b611ea76000848484611d8f565b6107855760405162461bcd60e51b81526004016106e490612bb0565b611ecf84848484612195565b6001811115611f3e5760405162461bcd60e51b815260206004820152603560248201527f455243373231456e756d657261626c653a20636f6e7365637574697665207472604482015274185b9cd9995c9cc81b9bdd081cdd5c1c1bdc9d1959605a1b60648201526084016106e4565b816001600160a01b038516611f9a57611f9581600880546000838152600960205260408120829055600182018355919091527ff3f7a9fe364faab93b216da50a3214154f22a0a2b415b23a84c8169e8b636ee30155565b611fbd565b836001600160a01b0316856001600160a01b031614611fbd57611fbd858261221d565b6001600160a01b038416611fd957611fd4816122ba565b6110c5565b846001600160a01b0316846001600160a01b0316146110c5576110c58482612369565b6001600160a01b0382166120525760405162461bcd60e51b815260206004820181905260248201527f4552433732313a206d696e7420746f20746865207a65726f206164647265737360448201526064016106e4565b6000818152600260205260409020546001600160a01b0316156120b75760405162461bcd60e51b815260206004820152601c60248201527f4552433732313a20746f6b656e20616c7265616479206d696e7465640000000060448201526064016106e4565b6120c5600083836001611cab565b6000818152600260205260409020546001600160a01b03161561212a5760405162461bcd60e51b815260206004820152601c60248201527f4552433732313a20746f6b656e20616c7265616479206d696e7465640000000060448201526064016106e4565b6001600160a01b038216600081815260036020908152604080832080546001019055848352600290915280822080546001600160a01b0319168417905551839291907fddf252ad1be2c89b69c2b068fc378daa952ba7f163c4a11628f55a4df523b3ef908290a45050565b600181111561111c576001600160a01b038416156121db576001600160a01b038416600090815260036020526040812080548392906121d5908490612a9f565b90915550505b6001600160a01b0383161561111c576001600160a01b03831660009081526003602052604081208054839290612212908490612ab2565b909155505050505050565b6000600161222a84610a9f565b6122349190612a9f565b600083815260076020526040902054909150808214612287576001600160a01b03841660009081526006602090815260408083208584528252808320548484528184208190558352600790915290208190555b5060009182526007602090815260408084208490556001600160a01b039094168352600681528383209183525290812055565b6008546000906122cc90600190612a9f565b600083815260096020526040812054600880549394509092849081106122f4576122f46127f3565b906000526020600020015490508060088381548110612315576123156127f3565b600091825260208083209091019290925582815260099091526040808220849055858252812055600880548061234d5761234d612c5c565b6001900381819060005260206000200160009055905550505050565b600061237483610a9f565b6001600160a01b039093166000908152600660209081526040808320868452825280832085905593825260079052919091209190915550565b6001600160e01b03198116811461144057600080fd5b6000602082840312156123d557600080fd5b8135611428816123ad565b60005b838110156123fb5781810151838201526020016123e3565b50506000910152565b6000815180845261241c8160208601602086016123e0565b601f01601f19169290920160200192915050565b6020815260006114286020830184612404565b60006020828403121561245557600080fd5b5035919050565b6001600160a01b038116811461144057600080fd5b6000806040838503121561248457600080fd5b823561248f8161245c565b946020939093013593505050565b6000806000604084860312156124b257600080fd5b83359250602084013567ffffffffffffffff808211156124d157600080fd5b818601915086601f8301126124e557600080fd5b8135818111156124f457600080fd5b8760208260051b850101111561250957600080fd5b6020830194508093505050509250925092565b60008060006060848603121561253157600080fd5b833561253c8161245c565b9250602084013561254c8161245c565b929592945050506040919091013590565b60006020828403121561256f57600080fd5b81356114288161245c565b801515811461144057600080fd5b6000806040838503121561259b57600080fd5b82356125a68161245c565b915060208301356125b68161257a565b809150509250929050565b634e487b7160e01b600052604160045260246000fd5b604051610100810167ffffffffffffffff811182821017156125fb576125fb6125c1565b60405290565b604051601f8201601f1916810167ffffffffffffffff8111828210171561262a5761262a6125c1565b604052919050565b600067ffffffffffffffff82111561264c5761264c6125c1565b50601f01601f191660200190565b6000806000806080858703121561267057600080fd5b843561267b8161245c565b9350602085013561268b8161245c565b925060408501359150606085013567ffffffffffffffff8111156126ae57600080fd5b8501601f810187136126bf57600080fd5b80356126d26126cd82612632565b612601565b8181528860208385010111156126e757600080fd5b8160208401602083013760006020838301015280935050505092959194509250565b60008060006060848603121561271e57600080fd5b83356127298161245c565b95602085013595506040909401359392505050565b6000806040838503121561275157600080fd5b823561275c8161245c565b915060208301356125b68161245c565b600181811c9082168061278057607f821691505b6020821081036127a057634e487b7160e01b600052602260045260246000fd5b50919050565b6020808252602d908201527f4552433732313a2063616c6c6572206973206e6f7420746f6b656e206f776e6560408201526c1c881bdc88185c1c1c9bdd9959609a1b606082015260800190565b634e487b7160e01b600052603260045260246000fd5b600082601f83011261281a57600080fd5b81516128286126cd82612632565b81815284602083860101111561283d57600080fd5b6118148260208301602087016123e0565b80516128598161245c565b919050565b80516128598161257a565b60006020828403121561287b57600080fd5b815167ffffffffffffffff8082111561289357600080fd5b9083019061010082860312156128a857600080fd5b6128b06125d7565b8251828111156128bf57600080fd5b6128cb87828601612809565b8252506020830151828111156128e057600080fd5b6128ec87828601612809565b6020830152506128fe6040840161284e565b6040820152606083015160608201526129196080840161285e565b608082015260a083015160a082015260c083015160c082015260e083015160e082015280935050505092915050565b60608152600d60608201526c10dbdb9d195b9d08199bdd5b99609a1b608082015282602082015260a06040820152600061181460a0830184612404565b60208152815160208201526020820151604082015261ffff60408301511660608201526000606083015163ffffffff80821660808501528060808601511660a0850152505060a083015160c08084015261181460e0840182612404565b6000602082840312156129f457600080fd5b5051919050565b60608152601760608201527f52616e646f6d206e756d62657220726571756573746564000000000000000000608082015282602082015260a06040820152600061181460a0830184612404565b634e487b7160e01b600052601160045260246000fd5b80820281158282048414176105b1576105b1612a48565b634e487b7160e01b600052601260045260246000fd5b600082612a9a57612a9a612a75565b500490565b818103818111156105b1576105b1612a48565b808201808211156105b1576105b1612a48565b600082612ad457612ad4612a75565b500690565b600060208284031215612aeb57600080fd5b81516114288161257a565b60008351612b088184602088016123e0565b835190830190612b1c8183602088016123e0565b01949350505050565b60608152601660608201527514985b991bdb481b9d5b58995c881c9958d95a5d995960521b608082015282602082015260a06040820152600061181460a0830184612404565b60208082526025908201527f4552433732313a207472616e736665722066726f6d20696e636f72726563742060408201526437bbb732b960d91b606082015260800190565b60208082526032908201527f4552433732313a207472616e7366657220746f206e6f6e20455243373231526560408201527131b2b4bb32b91034b6b83632b6b2b73a32b960711b606082015260800190565b6001600160a01b0385811682528416602082015260408101839052608060608201819052600090612c3590830184612404565b9695505050505050565b600060208284031215612c5157600080fd5b8151611428816123ad565b634e487b7160e01b600052603160045260246000fdfea264697066735822122026637374583bb7dcb21e04ca989d8104f69cb32744a82b997a6c598abbb4aac364736f6c63430008140033",
  "linkReferences": {},
  "deployedLinkReferences": {}
}