{
  "_format": "hh-sol-artifact-1",
  "contractName": "ScientificContentRegistry",
  "sourceName": "contracts/ScientificContentRegistry.sol",
  "abi": [
    {
      "anonymous": false,
      "inputs": [
        {
          "indexed": true,
          "internalType": "uint256",
          "name": "contentId",
          "type": "uint256"
        },
        {
          "indexed": true,
          "internalType": "address",
          "name": "author",
          "type": "address"
        },
        {
          "indexed": false,
          "internalType": "string",
          "name": "title",
          "type": "string"
        },
        {
          "indexed": false,
          "internalType": "bytes32",
          "name": "contentHash",
          "type": "bytes32"
        },
        {
          "indexed": false,
          "internalType": "uint256",
          "name": "maxCopies",
          "type": "uint256"
        },
        {
          "indexed": false,
          "internalType": "string",
          "name": "ipfsHash",
          "type": "string"
        },
        {
          "indexed": false,
          "internalType": "uint256",
          "name": "nftMintPrice",
          "type": "uint256"
        }
      ],
      "name": "ContentRegistered",
      "type": "event"
    },
    {
      "anonymous": false,
      "inputs": [
        {
          "indexed": true,
          "internalType": "uint256",
          "name": "contentId",
          "type": "uint256"
        },
        {
          "indexed": false,
          "internalType": "bool",
          "name": "isAvailable",
          "type": "bool"
        }
      ],
      "name": "ContentStatusChanged",
      "type": "event"
    },
    {
      "anonymous": false,
      "inputs": [
        {
          "indexed": true,
          "internalType": "uint256",
          "name": "contentId",
          "type": "uint256"
        },
        {
          "indexed": false,
          "internalType": "uint256",
          "name": "currentCopies",
          "type": "uint256"
        }
      ],
      "name": "CopyMinted",
      "type": "event"
    },
    {
      "anonymous": false,
      "inputs": [
        {
          "indexed": false,
          "internalType": "string",
          "name": "message",
          "type": "string"
        },
        {
          "indexed": false,
          "internalType": "uint256",
          "name": "id",
          "type": "uint256"
        },
        {
          "indexed": false,
          "internalType": "string",
          "name": "data",
          "type": "string"
        }
      ],
      "name": "DebugLog",
      "type": "event"
    },
    {
      "anonymous": false,
      "inputs": [
        {
          "indexed": true,
          "internalType": "address",
          "name": "nftContract",
          "type": "address"
        }
      ],
      "name": "NFTContractSet",
      "type": "event"
    },
    {
      "anonymous": false,
      "inputs": [
        {
          "indexed": true,
          "internalType": "address",
          "name": "previousOwner",
          "type": "address"
        },
        {
          "indexed": true,
          "internalType": "address",
          "name": "newOwner",
          "type": "address"
        }
      ],
      "name": "OwnershipTransferred",
      "type": "event"
    },
    {
      "inputs": [
        {
          "internalType": "uint256",
          "name": "contentId",
          "type": "uint256"
        }
      ],
      "name": "contentExists",
      "outputs": [
        {
          "internalType": "bool",
          "name": "",
          "type": "bool"
        }
      ],
      "stateMutability": "view",
      "type": "function"
    },
    {
      "inputs": [
        {
          "internalType": "uint256",
          "name": "contentId",
          "type": "uint256"
        }
      ],
      "name": "getAvailableCopies",
      "outputs": [
        {
          "internalType": "uint256",
          "name": "",
          "type": "uint256"
        }
      ],
      "stateMutability": "view",
      "type": "function"
    },
    {
      "inputs": [
        {
          "internalType": "uint256",
          "name": "contentId",
          "type": "uint256"
        }
      ],
      "name": "getContent",
      "outputs": [
        {
          "components": [
            {
              "internalType": "string",
              "name": "title",
              "type": "string"
            },
            {
              "internalType": "string",
              "name": "description",
              "type": "string"
            },
            {
              "internalType": "address",
              "name": "author",
              "type": "address"
            },
            {
              "internalType": "bytes32",
              "name": "contentHash",
              "type": "bytes32"
            },
            {
              "internalType": "bool",
              "name": "isAvailable",
              "type": "bool"
            },
            {
              "internalType": "uint256",
              "name": "registrationTime",
              "type": "uint256"
            },
            {
              "internalType": "uint256",
              "name": "maxCopies",
              "type": "uint256"
            },
            {
              "internalType": "uint256",
              "name": "mintedCopies",
              "type": "uint256"
            },
            {
              "internalType": "string",
              "name": "ipfsHash",
              "type": "string"
            },
            {
              "internalType": "uint256",
              "name": "nftMintPrice",
              "type": "uint256"
            }
          ],
          "internalType": "struct ScientificContentRegistry.Content",
          "name": "",
          "type": "tuple"
        }
      ],
      "stateMutability": "view",
      "type": "function"
    },
    {
      "inputs": [
        {
          "internalType": "uint256",
          "name": "contentId",
          "type": "uint256"
        }
      ],
      "name": "incrementMintedCopies",
      "outputs": [
        {
          "internalType": "bool",
          "name": "",
          "type": "bool"
        }
      ],
      "stateMutability": "nonpayable",
      "type": "function"
    },
    {
      "inputs": [],
      "name": "nftContract",
      "outputs": [
        {
          "internalType": "address",
          "name": "",
          "type": "address"
        }
      ],
      "stateMutability": "view",
      "type": "function"
    },
    {
      "inputs": [],
      "name": "owner",
      "outputs": [
        {
          "internalType": "address",
          "name": "",
          "type": "address"
        }
      ],
      "stateMutability": "view",
      "type": "function"
    },
    {
      "inputs": [
        {
          "internalType": "string",
          "name": "title",
          "type": "string"
        },
        {
          "internalType": "string",
          "name": "description",
          "type": "string"
        },
        {
          "internalType": "uint256",
          "name": "maxCopies",
          "type": "uint256"
        },
        {
          "internalType": "string",
          "name": "_ipfsHash",
          "type": "string"
        },
        {
          "internalType": "uint256",
          "name": "_nftMintPrice",
          "type": "uint256"
        }
      ],
      "name": "registerContent",
      "outputs": [
        {
          "internalType": "uint256",
          "name": "",
          "type": "uint256"
        }
      ],
      "stateMutability": "nonpayable",
      "type": "function"
    },
    {
      "inputs": [],
      "name": "renounceOwnership",
      "outputs": [],
      "stateMutability": "nonpayable",
      "type": "function"
    },
    {
      "inputs": [
        {
          "internalType": "uint256",
          "name": "contentId",
          "type": "uint256"
        },
        {
          "internalType": "bool",
          "name": "isAvailable",
          "type": "bool"
        }
      ],
      "name": "setContentAvailability",
      "outputs": [],
      "stateMutability": "nonpayable",
      "type": "function"
    },
    {
      "inputs": [
        {
          "internalType": "address",
          "name": "_nftContract",
          "type": "address"
        }
      ],
      "name": "setNFTContract",
      "outputs": [],
      "stateMutability": "nonpayable",
      "type": "function"
    },
    {
      "inputs": [
        {
          "internalType": "address",
          "name": "newOwner",
          "type": "address"
        }
      ],
      "name": "transferOwnership",
      "outputs": [],
      "stateMutability": "nonpayable",
      "type": "function"
    }
  ],
  "bytecode": "0x608060405234801561001057600080fd5b5061001a3361001f565b61006f565b600080546001600160a01b038381166001600160a01b0319831681178455604051919092169283917f8be0079c531659141344cd1fd0a4f28419497f9722a3daafe3b4186f6b6457e09190a35050565b6117308061007e6000396000f3fe608060405234801561001057600080fd5b50600436106100a95760003560e01c80638da5cb5b116100715780638da5cb5b14610138578063a7ccabdf1461015d578063b4a5c7cf14610170578063d56d229d14610183578063ed4c205e14610196578063f2fde38b146101a957600080fd5b80630b7ad54c146100ae578063148bf7e6146100d7578063150ce28b146100f8578063715018a61461010b578063724121ae14610115575b600080fd5b6100c16100bc366004611092565b6101bc565b6040516100ce91906110fb565b60405180910390f35b6100ea6100e5366004611092565b61047c565b6040519081526020016100ce565b6100ea61010636600461126c565b6106e6565b610113610ada565b005b610128610123366004611092565b610aee565b60405190151581526020016100ce565b6000546001600160a01b03165b6040516001600160a01b0390911681526020016100ce565b61011361016b366004611306565b610b07565b61012861017e366004611092565b610bfa565b600454610145906001600160a01b031681565b6101136101a436600461132f565b610dc0565b6101136101b7366004611306565b610f6f565b610220604051806101400160405280606081526020016060815260200160006001600160a01b031681526020016000801916815260200160001515815260200160008152602001600081526020016000815260200160608152602001600081525090565b61022982610aee565b61024e5760405162461bcd60e51b815260040161024590611364565b60405180910390fd5b600082815260016020526040908190208151610140810190925280548290829061027790611394565b80601f01602080910402602001604051908101604052809291908181526020018280546102a390611394565b80156102f05780601f106102c5576101008083540402835291602001916102f0565b820191906000526020600020905b8154815290600101906020018083116102d357829003601f168201915b5050505050815260200160018201805461030990611394565b80601f016020809104026020016040519081016040528092919081815260200182805461033590611394565b80156103825780601f1061035757610100808354040283529160200191610382565b820191906000526020600020905b81548152906001019060200180831161036557829003601f168201915b505050918352505060028201546001600160a01b0316602082015260038201546040820152600482015460ff161515606082015260058201546080820152600682015460a0820152600782015460c082015260088201805460e0909201916103e990611394565b80601f016020809104026020016040519081016040528092919081815260200182805461041590611394565b80156104625780601f1061043757610100808354040283529160200191610462565b820191906000526020600020905b81548152906001019060200180831161044557829003601f168201915b505050505081526020016009820154815250509050919050565b600061048782610aee565b6104a35760405162461bcd60e51b815260040161024590611364565b600082815260016020526040808220815161014081019092528054829082906104cb90611394565b80601f01602080910402602001604051908101604052809291908181526020018280546104f790611394565b80156105445780601f1061051957610100808354040283529160200191610544565b820191906000526020600020905b81548152906001019060200180831161052757829003601f168201915b5050505050815260200160018201805461055d90611394565b80601f016020809104026020016040519081016040528092919081815260200182805461058990611394565b80156105d65780601f106105ab576101008083540402835291602001916105d6565b820191906000526020600020905b8154815290600101906020018083116105b957829003601f168201915b505050918352505060028201546001600160a01b0316602082015260038201546040820152600482015460ff161515606082015260058201546080820152600682015460a0820152600782015460c082015260088201805460e09092019161063d90611394565b80601f016020809104026020016040519081016040528092919081815260200182805461066990611394565b80156106b65780601f1061068b576101008083540402835291602001916106b6565b820191906000526020600020905b81548152906001019060200180831161069957829003601f168201915b5050505050815260200160098201548152505090508060e001518160c001516106df91906113e4565b9392505050565b6000808651116107305760405162461bcd60e51b81526020600482015260156024820152745469746c652063616e6e6f7420626520656d70747960581b6044820152606401610245565b60008551116107815760405162461bcd60e51b815260206004820152601b60248201527f4465736372697074696f6e2063616e6e6f7420626520656d70747900000000006044820152606401610245565b600084116107d15760405162461bcd60e51b815260206004820152601c60248201527f4d75737420616c6c6f77206174206c65617374206f6e6520636f7079000000006044820152606401610245565b60008351116108225760405162461bcd60e51b815260206004820152601960248201527f4950465320686173682063616e6e6f7420626520656d707479000000000000006044820152606401610245565b600082116108835760405162461bcd60e51b815260206004820152602860248201527f4e4654206d696e74207072696365206d7573742062652067726561746572207460448201526768616e207a65726f60c01b6064820152608401610245565b600086863360405160200161089a939291906113f7565b60408051601f1981840301815291815281516020928301206000818152600290935291205490915060ff16156109125760405162461bcd60e51b815260206004820152601a60248201527f436f6e74656e7420616c726561647920726567697374657265640000000000006044820152606401610245565b6003805490600061092283611442565b9091555050604080516101408101825288815260208082018990523382840152606082018490526001608083018190524260a084015260c08301899052600060e084018190526101008401899052610120840188905260035481529152919091208151819061099190826114aa565b50602082015160018201906109a690826114aa565b5060408201516002820180546001600160a01b0319166001600160a01b0390921691909117905560608201516003820155608082015160048201805460ff191691151591909117905560a0820151600582015560c0820151600682015560e082015160078201556101008201516008820190610a2290826114aa565b50610120919091015160099091015560008181526002602052604090819020805460ff1916600117905560035490513391907fb3fb1534604fd9d4678cce38f4708f0b6725d2692cbfb2af0e493612a78944dc90610a89908b9086908b908b908b9061156a565b60405180910390a37f099462b0f343b9a6ebddfc9ac5ec84952a627782b34f753697974b390e55020560035488604051610ac49291906115ae565b60405180910390a1505060035495945050505050565b610ae2610fe8565b610aec6000611042565b565b60008082118015610b0157506003548211155b92915050565b610b0f610fe8565b6001600160a01b038116610b575760405162461bcd60e51b815260206004820152600f60248201526e496e76616c6964206164647265737360881b6044820152606401610245565b6004546001600160a01b031615610bb05760405162461bcd60e51b815260206004820152601860248201527f4e465420636f6e747261637420616c72656164792073657400000000000000006044820152606401610245565b600480546001600160a01b0319166001600160a01b0383169081179091556040517f5a6a54be6929433a25d1b5103e7dea8d9440b7903216e380344a320ca1cdd85f90600090a250565b6004546000906001600160a01b03163314610c575760405162461bcd60e51b815260206004820152601c60248201527f4f6e6c79204e465420636f6e74726163742063616e206d6f64696679000000006044820152606401610245565b610c6082610aee565b610c7c5760405162461bcd60e51b815260040161024590611364565b60008281526001602052604090206006810154600782015410610cd65760405162461bcd60e51b815260206004820152601260248201527113585e0818dbdc1a595cc81c995858da195960721b6044820152606401610245565b600781018054906000610ce883611442565b9190505550827f24f887ec780fb0ce30a0fc3f106ced759023555d2815be10bd7078f00b748dc18260070154604051610d2391815260200190565b60405180910390a26040517f099462b0f343b9a6ebddfc9ac5ec84952a627782b34f753697974b390e55020590610d5d90859084906115f8565b60405180910390a18060060154816007015410610db75760048101805460ff191690556040516000815283907f308f248530f3edb6a647f6ce9f3bb532da11696086edcee1a05e1e434d7a85139060200160405180910390a25b50600192915050565b6004546001600160a01b03163314610e1a5760405162461bcd60e51b815260206004820152601c60248201527f4f6e6c79204e465420636f6e74726163742063616e206d6f64696679000000006044820152606401610245565b610e2382610aee565b610e3f5760405162461bcd60e51b815260040161024590611364565b60008281526001602052604090206006810154600782015410610e995760405162461bcd60e51b815260206004820152601260248201527113585e0818dbdc1a595cc81c995858da195960721b6044820152606401610245565b60048101805460ff191683151590811790915560405190815283907f308f248530f3edb6a647f6ce9f3bb532da11696086edcee1a05e1e434d7a85139060200160405180910390a27f099462b0f343b9a6ebddfc9ac5ec84952a627782b34f753697974b390e5502058383610f31576040518060400160405280600b81526020016a556e617661696c61626c6560a81b815250610f54565b60405180604001604052806009815260200168417661696c61626c6560b81b8152505b604051610f629291906116ad565b60405180910390a1505050565b610f77610fe8565b6001600160a01b038116610fdc5760405162461bcd60e51b815260206004820152602660248201527f4f776e61626c653a206e6577206f776e657220697320746865207a65726f206160448201526564647265737360d01b6064820152608401610245565b610fe581611042565b50565b6000546001600160a01b03163314610aec5760405162461bcd60e51b815260206004820181905260248201527f4f776e61626c653a2063616c6c6572206973206e6f7420746865206f776e65726044820152606401610245565b600080546001600160a01b038381166001600160a01b0319831681178455604051919092169283917f8be0079c531659141344cd1fd0a4f28419497f9722a3daafe3b4186f6b6457e09190a35050565b6000602082840312156110a457600080fd5b5035919050565b60005b838110156110c65781810151838201526020016110ae565b50506000910152565b600081518084526110e78160208601602086016110ab565b601f01601f19169290920160200192915050565b602081526000825161014080602085015261111a6101608501836110cf565b91506020850151601f198086850301604087015261113884836110cf565b93506040870151915061115660608701836001600160a01b03169052565b606087015160808701526080870151915061117560a087018315159052565b60a087015160c087015260c087015160e087015260e087015191506101008281880152808801519250506101208187860301818801526111b585846110cf565b970151959092019490945250929392505050565b634e487b7160e01b600052604160045260246000fd5b600082601f8301126111f057600080fd5b813567ffffffffffffffff8082111561120b5761120b6111c9565b604051601f8301601f19908116603f01168101908282118183101715611233576112336111c9565b8160405283815286602085880101111561124c57600080fd5b836020870160208301376000602085830101528094505050505092915050565b600080600080600060a0868803121561128457600080fd5b853567ffffffffffffffff8082111561129c57600080fd5b6112a889838a016111df565b965060208801359150808211156112be57600080fd5b6112ca89838a016111df565b95506040880135945060608801359150808211156112e757600080fd5b506112f4888289016111df565b95989497509295608001359392505050565b60006020828403121561131857600080fd5b81356001600160a01b03811681146106df57600080fd5b6000806040838503121561134257600080fd5b823591506020830135801515811461135957600080fd5b809150509250929050565b60208082526016908201527510dbdb9d195b9d08191bd95cc81b9bdd08195e1a5cdd60521b604082015260600190565b600181811c908216806113a857607f821691505b6020821081036113c857634e487b7160e01b600052602260045260246000fd5b50919050565b634e487b7160e01b600052601160045260246000fd5b81810381811115610b0157610b016113ce565b600084516114098184602089016110ab565b84519083019061141d8183602089016110ab565b60609490941b6bffffffffffffffffffffffff19169301928352505060140192915050565b600060018201611454576114546113ce565b5060010190565b601f8211156114a557600081815260208120601f850160051c810160208610156114825750805b601f850160051c820191505b818110156114a15782815560010161148e565b5050505b505050565b815167ffffffffffffffff8111156114c4576114c46111c9565b6114d8816114d28454611394565b8461145b565b602080601f83116001811461150d57600084156114f55750858301515b600019600386901b1c1916600185901b1785556114a1565b600085815260208120601f198616915b8281101561153c5788860151825594840194600190910190840161151d565b508582101561155a5787850151600019600388901b60f8161c191681555b5050505050600190811b01905550565b60a08152600061157d60a08301886110cf565b866020840152856040840152828103606084015261159b81866110cf565b9150508260808301529695505050505050565b60608152601260608201527110dbdb9d195b9d081c9959da5cdd195c995960721b608082015282602082015260a0604082015260006115f060a08301846110cf565b949350505050565b60608152600b60608201526a10dbdc1e481b5a5b9d195960aa1b608082015260006020848184015260a060408401526000845461163481611394565b8060a087015260c060018084166000811461165657600181146116705761169e565b60ff1985168984015283151560051b89018301955061169e565b896000528660002060005b858110156116965781548b820186015290830190880161167b565b8a0184019650505b50939998505050505050505050565b60608152601c60608201527f436f6e74656e7420617661696c6162696c697479206368616e67656400000000608082015282602082015260a0604082015260006115f060a08301846110cf56fea2646970667358221220bc039e191b1376bcabd1403e50e69966129997e3b8e13f99a577b6ef9533b23964736f6c63430008140033",
  "linkReferences": {},
  "deployedLinkReferences": {}
}