{
  "_format": "hh-sol-artifact-1",
  "contractName": "ScientificContentNFT",
  "sourceName": "contracts/ScientificContentNFT.sol",
  "abi": [
    {
      "inputs": [
        {
          "internalType": "address",
          "name": "_contentRegistry",
          "type": "address"
        },
        {
          "internalType": "address",
          "name": "_vrfCoordinator",
          "type": "address"
        },
        {
          "internalType": "bytes32",
          "name": "_keyHash",
          "type": "bytes32"
        },
        {
          "internalType": "uint256",
          "name": "_subscriptionId",
          "type": "uint256"
        }
      ],
      "stateMutability": "nonpayable",
      "type": "constructor"
    },
    {
      "inputs": [
        {
          "internalType": "address",
          "name": "have",
          "type": "address"
        },
        {
          "internalType": "address",
          "name": "want",
          "type": "address"
        }
      ],
      "name": "OnlyCoordinatorCanFulfill",
      "type": "error"
    },
    {
      "inputs": [
        {
          "internalType": "address",
          "name": "have",
          "type": "address"
        },
        {
          "internalType": "address",
          "name": "owner",
          "type": "address"
        },
        {
          "internalType": "address",
          "name": "coordinator",
          "type": "address"
        }
      ],
      "name": "OnlyOwnerOrCoordinator",
      "type": "error"
    },
    {
      "inputs": [],
      "name": "ZeroAddress",
      "type": "error"
    },
    {
      "anonymous": false,
      "inputs": [
        {
          "indexed": true,
          "internalType": "address",
          "name": "owner",
          "type": "address"
        },
        {
          "indexed": true,
          "internalType": "address",
          "name": "approved",
          "type": "address"
        },
        {
          "indexed": true,
          "internalType": "uint256",
          "name": "tokenId",
          "type": "uint256"
        }
      ],
      "name": "Approval",
      "type": "event"
    },
    {
      "anonymous": false,
      "inputs": [
        {
          "indexed": true,
          "internalType": "address",
          "name": "owner",
          "type": "address"
        },
        {
          "indexed": true,
          "internalType": "address",
          "name": "operator",
          "type": "address"
        },
        {
          "indexed": false,
          "internalType": "bool",
          "name": "approved",
          "type": "bool"
        }
      ],
      "name": "ApprovalForAll",
      "type": "event"
    },
    {
      "anonymous": false,
      "inputs": [
        {
          "indexed": false,
          "internalType": "string",
          "name": "newBaseURI",
          "type": "string"
        }
      ],
      "name": "BaseURIUpdated",
      "type": "event"
    },
    {
      "anonymous": false,
      "inputs": [
        {
          "indexed": false,
          "internalType": "address",
          "name": "vrfCoordinator",
          "type": "address"
        }
      ],
      "name": "CoordinatorSet",
      "type": "event"
    },
    {
      "anonymous": false,
      "inputs": [
        {
          "indexed": true,
          "internalType": "address",
          "name": "minter",
          "type": "address"
        },
        {
          "indexed": true,
          "internalType": "uint256",
          "name": "contentId",
          "type": "uint256"
        }
      ],
      "name": "MintingFailed",
      "type": "event"
    },
    {
      "anonymous": false,
      "inputs": [
        {
          "indexed": true,
          "internalType": "uint256",
          "name": "tokenId",
          "type": "uint256"
        },
        {
          "indexed": true,
          "internalType": "uint256",
          "name": "contentId",
          "type": "uint256"
        },
        {
          "indexed": true,
          "internalType": "address",
          "name": "owner",
          "type": "address"
        },
        {
          "indexed": false,
          "internalType": "bool",
          "name": "isSpecial",
          "type": "bool"
        },
        {
          "indexed": false,
          "internalType": "uint256",
          "name": "copyNumber",
          "type": "uint256"
        },
        {
          "indexed": false,
          "internalType": "string",
          "name": "metadataURI",
          "type": "string"
        }
      ],
      "name": "NFTMinted",
      "type": "event"
    },
    {
      "anonymous": false,
      "inputs": [
        {
          "indexed": true,
          "internalType": "address",
          "name": "from",
          "type": "address"
        },
        {
          "indexed": true,
          "internalType": "address",
          "name": "to",
          "type": "address"
        }
      ],
      "name": "OwnershipTransferRequested",
      "type": "event"
    },
    {
      "anonymous": false,
      "inputs": [
        {
          "indexed": true,
          "internalType": "address",
          "name": "from",
          "type": "address"
        },
        {
          "indexed": true,
          "internalType": "address",
          "name": "to",
          "type": "address"
        }
      ],
      "name": "OwnershipTransferred",
      "type": "event"
    },
    {
      "anonymous": false,
      "inputs": [
        {
          "indexed": true,
          "internalType": "address",
          "name": "oldReceiver",
          "type": "address"
        },
        {
          "indexed": true,
          "internalType": "address",
          "name": "newReceiver",
          "type": "address"
        }
      ],
      "name": "ProtocolFeeReceiverUpdated",
      "type": "event"
    },
    {
      "anonymous": false,
      "inputs": [
        {
          "indexed": true,
          "internalType": "address",
          "name": "to",
          "type": "address"
        },
        {
          "indexed": false,
          "internalType": "uint256",
          "name": "amount",
          "type": "uint256"
        }
      ],
      "name": "ProtocolFeesWithdrawn",
      "type": "event"
    },
    {
      "anonymous": false,
      "inputs": [
        {
          "indexed": true,
          "internalType": "address",
          "name": "from",
          "type": "address"
        },
        {
          "indexed": true,
          "internalType": "address",
          "name": "to",
          "type": "address"
        },
        {
          "indexed": true,
          "internalType": "uint256",
          "name": "tokenId",
          "type": "uint256"
        }
      ],
      "name": "Transfer",
      "type": "event"
    },
    {
      "inputs": [
        {
          "internalType": "address",
          "name": "minter",
          "type": "address"
        },
        {
          "internalType": "uint256",
          "name": "contentId",
          "type": "uint256"
        },
        {
          "internalType": "uint256",
          "name": "randomWord",
          "type": "uint256"
        },
        {
          "internalType": "string",
          "name": "nftMetadataURI",
          "type": "string"
        },
        {
          "internalType": "uint256",
          "name": "",
          "type": "uint256"
        }
      ],
      "name": "_processMint",
      "outputs": [],
      "stateMutability": "nonpayable",
      "type": "function"
    },
    {
      "inputs": [],
      "name": "acceptOwnership",
      "outputs": [],
      "stateMutability": "nonpayable",
      "type": "function"
    },
    {
      "inputs": [
        {
          "internalType": "address",
          "name": "to",
          "type": "address"
        },
        {
          "internalType": "uint256",
          "name": "tokenId",
          "type": "uint256"
        }
      ],
      "name": "approve",
      "outputs": [],
      "stateMutability": "nonpayable",
      "type": "function"
    },
    {
      "inputs": [
        {
          "internalType": "address",
          "name": "owner",
          "type": "address"
        }
      ],
      "name": "balanceOf",
      "outputs": [
        {
          "internalType": "uint256",
          "name": "",
          "type": "uint256"
        }
      ],
      "stateMutability": "view",
      "type": "function"
    },
    {
      "inputs": [],
      "name": "contentRegistry",
      "outputs": [
        {
          "internalType": "contract ScientificContentRegistry",
          "name": "",
          "type": "address"
        }
      ],
      "stateMutability": "view",
      "type": "function"
    },
    {
      "inputs": [
        {
          "internalType": "uint256",
          "name": "tokenId",
          "type": "uint256"
        }
      ],
      "name": "getApproved",
      "outputs": [
        {
          "internalType": "address",
          "name": "",
          "type": "address"
        }
      ],
      "stateMutability": "view",
      "type": "function"
    },
    {
      "inputs": [],
      "name": "getContractBalance",
      "outputs": [
        {
          "internalType": "uint256",
          "name": "",
          "type": "uint256"
        }
      ],
      "stateMutability": "view",
      "type": "function"
    },
    {
      "inputs": [],
      "name": "getKeyHash",
      "outputs": [
        {
          "internalType": "bytes32",
          "name": "",
          "type": "bytes32"
        }
      ],
      "stateMutability": "view",
      "type": "function"
    },
    {
      "inputs": [
        {
          "internalType": "uint256",
          "name": "contentId",
          "type": "uint256"
        }
      ],
      "name": "getMintPrice",
      "outputs": [
        {
          "internalType": "uint256",
          "name": "",
          "type": "uint256"
        }
      ],
      "stateMutability": "view",
      "type": "function"
    },
    {
      "inputs": [
        {
          "internalType": "uint256",
          "name": "tokenId",
          "type": "uint256"
        }
      ],
      "name": "getNFTMetadata",
      "outputs": [
        {
          "components": [
            {
              "internalType": "uint256",
              "name": "contentId",
              "type": "uint256"
            },
            {
              "internalType": "address",
              "name": "author",
              "type": "address"
            },
            {
              "internalType": "uint256",
              "name": "randomSeed",
              "type": "uint256"
            },
            {
              "internalType": "bool",
              "name": "hasSpecialContent",
              "type": "bool"
            },
            {
              "internalType": "uint256",
              "name": "copyNumber",
              "type": "uint256"
            },
            {
              "internalType": "string",
              "name": "metadataURI",
              "type": "string"
            }
          ],
          "internalType": "struct ScientificContentNFT.NFTMetadata",
          "name": "",
          "type": "tuple"
        }
      ],
      "stateMutability": "view",
      "type": "function"
    },
    {
      "inputs": [],
      "name": "getSubscriptionId",
      "outputs": [
        {
          "internalType": "uint256",
          "name": "",
          "type": "uint256"
        }
      ],
      "stateMutability": "view",
      "type": "function"
    },
    {
      "inputs": [],
      "name": "getVRFConfig",
      "outputs": [
        {
          "internalType": "address",
          "name": "coordinator",
          "type": "address"
        },
        {
          "internalType": "bytes32",
          "name": "vrfKeyHash",
          "type": "bytes32"
        },
        {
          "internalType": "uint256",
          "name": "vrfSubscriptionId",
          "type": "uint256"
        }
      ],
      "stateMutability": "view",
      "type": "function"
    },
    {
      "inputs": [],
      "name": "getVRFCoordinator",
      "outputs": [
        {
          "internalType": "address",
          "name": "",
          "type": "address"
        }
      ],
      "stateMutability": "view",
      "type": "function"
    },
    {
      "inputs": [
        {
          "internalType": "address",
          "name": "owner",
          "type": "address"
        },
        {
          "internalType": "address",
          "name": "operator",
          "type": "address"
        }
      ],
      "name": "isApprovedForAll",
      "outputs": [
        {
          "internalType": "bool",
          "name": "",
          "type": "bool"
        }
      ],
      "stateMutability": "view",
      "type": "function"
    },
    {
      "inputs": [
        {
          "internalType": "uint256",
          "name": "contentId",
          "type": "uint256"
        },
        {
          "internalType": "string",
          "name": "nftMetadataURI",
          "type": "string"
        }
      ],
      "name": "mintNFT",
      "outputs": [],
      "stateMutability": "payable",
      "type": "function"
    },
    {
      "inputs": [],
      "name": "name",
      "outputs": [
        {
          "internalType": "string",
          "name": "",
          "type": "string"
        }
      ],
      "stateMutability": "view",
      "type": "function"
    },
    {
      "inputs": [],
      "name": "owner",
      "outputs": [
        {
          "internalType": "address",
          "name": "",
          "type": "address"
        }
      ],
      "stateMutability": "view",
      "type": "function"
    },
    {
      "inputs": [
        {
          "internalType": "uint256",
          "name": "tokenId",
          "type": "uint256"
        }
      ],
      "name": "ownerOf",
      "outputs": [
        {
          "internalType": "address",
          "name": "",
          "type": "address"
        }
      ],
      "stateMutability": "view",
      "type": "function"
    },
    {
      "inputs": [],
      "name": "protocolFeeReceiver",
      "outputs": [
        {
          "internalType": "address",
          "name": "",
          "type": "address"
        }
      ],
      "stateMutability": "view",
      "type": "function"
    },
    {
      "inputs": [
        {
          "internalType": "uint256",
          "name": "requestId",
          "type": "uint256"
        },
        {
          "internalType": "uint256[]",
          "name": "randomWords",
          "type": "uint256[]"
        }
      ],
      "name": "rawFulfillRandomWords",
      "outputs": [],
      "stateMutability": "nonpayable",
      "type": "function"
    },
    {
      "inputs": [],
      "name": "s_vrfCoordinator",
      "outputs": [
        {
          "internalType": "contract IVRFCoordinatorV2Plus",
          "name": "",
          "type": "address"
        }
      ],
      "stateMutability": "view",
      "type": "function"
    },
    {
      "inputs": [
        {
          "internalType": "address",
          "name": "from",
          "type": "address"
        },
        {
          "internalType": "address",
          "name": "to",
          "type": "address"
        },
        {
          "internalType": "uint256",
          "name": "tokenId",
          "type": "uint256"
        }
      ],
      "name": "safeTransferFrom",
      "outputs": [],
      "stateMutability": "nonpayable",
      "type": "function"
    },
    {
      "inputs": [
        {
          "internalType": "address",
          "name": "from",
          "type": "address"
        },
        {
          "internalType": "address",
          "name": "to",
          "type": "address"
        },
        {
          "internalType": "uint256",
          "name": "tokenId",
          "type": "uint256"
        },
        {
          "internalType": "bytes",
          "name": "data",
          "type": "bytes"
        }
      ],
      "name": "safeTransferFrom",
      "outputs": [],
      "stateMutability": "nonpayable",
      "type": "function"
    },
    {
      "inputs": [
        {
          "internalType": "address",
          "name": "operator",
          "type": "address"
        },
        {
          "internalType": "bool",
          "name": "approved",
          "type": "bool"
        }
      ],
      "name": "setApprovalForAll",
      "outputs": [],
      "stateMutability": "nonpayable",
      "type": "function"
    },
    {
      "inputs": [
        {
          "internalType": "string",
          "name": "newBaseURI",
          "type": "string"
        }
      ],
      "name": "setBaseURI",
      "outputs": [],
      "stateMutability": "nonpayable",
      "type": "function"
    },
    {
      "inputs": [
        {
          "internalType": "address",
          "name": "_vrfCoordinator",
          "type": "address"
        }
      ],
      "name": "setCoordinator",
      "outputs": [],
      "stateMutability": "nonpayable",
      "type": "function"
    },
    {
      "inputs": [
        {
          "internalType": "address",
          "name": "newReceiver",
          "type": "address"
        }
      ],
      "name": "setProtocolFeeReceiver",
      "outputs": [],
      "stateMutability": "nonpayable",
      "type": "function"
    },
    {
      "inputs": [
        {
          "internalType": "bytes4",
          "name": "interfaceId",
          "type": "bytes4"
        }
      ],
      "name": "supportsInterface",
      "outputs": [
        {
          "internalType": "bool",
          "name": "",
          "type": "bool"
        }
      ],
      "stateMutability": "view",
      "type": "function"
    },
    {
      "inputs": [],
      "name": "symbol",
      "outputs": [
        {
          "internalType": "string",
          "name": "",
          "type": "string"
        }
      ],
      "stateMutability": "view",
      "type": "function"
    },
    {
      "inputs": [
        {
          "internalType": "uint256",
          "name": "index",
          "type": "uint256"
        }
      ],
      "name": "tokenByIndex",
      "outputs": [
        {
          "internalType": "uint256",
          "name": "",
          "type": "uint256"
        }
      ],
      "stateMutability": "view",
      "type": "function"
    },
    {
      "inputs": [
        {
          "internalType": "address",
          "name": "owner",
          "type": "address"
        },
        {
          "internalType": "uint256",
          "name": "index",
          "type": "uint256"
        }
      ],
      "name": "tokenOfOwnerByIndex",
      "outputs": [
        {
          "internalType": "uint256",
          "name": "",
          "type": "uint256"
        }
      ],
      "stateMutability": "view",
      "type": "function"
    },
    {
      "inputs": [
        {
          "internalType": "uint256",
          "name": "tokenId",
          "type": "uint256"
        }
      ],
      "name": "tokenURI",
      "outputs": [
        {
          "internalType": "string",
          "name": "",
          "type": "string"
        }
      ],
      "stateMutability": "view",
      "type": "function"
    },
    {
      "inputs": [],
      "name": "totalSupply",
      "outputs": [
        {
          "internalType": "uint256",
          "name": "",
          "type": "uint256"
        }
      ],
      "stateMutability": "view",
      "type": "function"
    },
    {
      "inputs": [
        {
          "internalType": "address",
          "name": "from",
          "type": "address"
        },
        {
          "internalType": "address",
          "name": "to",
          "type": "address"
        },
        {
          "internalType": "uint256",
          "name": "tokenId",
          "type": "uint256"
        }
      ],
      "name": "transferFrom",
      "outputs": [],
      "stateMutability": "nonpayable",
      "type": "function"
    },
    {
      "inputs": [
        {
          "internalType": "address",
          "name": "to",
          "type": "address"
        }
      ],
      "name": "transferOwnership",
      "outputs": [],
      "stateMutability": "nonpayable",
      "type": "function"
    },
    {
      "inputs": [],
      "name": "withdrawProtocolFees",
      "outputs": [],
      "stateMutability": "nonpayable",
      "type": "function"
    }
  ],
  "bytecode": "0x6101006040523480156200001257600080fd5b5060405162003ed238038062003ed28339810160408190526200003591620003c3565b82338060006040518060400160405280601681526020017f446e4120536369656e746966696320436f6e74656e740000000000000000000081525060405180604001604052806006815260200165444e4153434960d01b8152508160009081620000a09190620004b0565b506001620000af8282620004b0565b5050506001600160a01b0382166200010e5760405162461bcd60e51b815260206004820152601860248201527f43616e6e6f7420736574206f776e657220746f207a65726f000000000000000060448201526064015b60405180910390fd5b600a80546001600160a01b0319166001600160a01b038481169190911790915581161562000141576200014181620002fa565b5050506001600160a01b0381166200016c5760405163d92e233d60e01b815260040160405180910390fd5b600c80546001600160a01b0319166001600160a01b039283161790558416620001d85760405162461bcd60e51b815260206004820152601860248201527f496e76616c696420726567697374727920616464726573730000000000000000604482015260640162000105565b6001600160a01b038316620002305760405162461bcd60e51b815260206004820152601760248201527f496e76616c69642056524620636f6f7264696e61746f72000000000000000000604482015260640162000105565b81620002725760405162461bcd60e51b815260206004820152601060248201526f092dcecc2d8d2c840d6caf240d0c2e6d60831b604482015260640162000105565b80600003620002c45760405162461bcd60e51b815260206004820152601760248201527f496e76616c696420737562736372697074696f6e204944000000000000000000604482015260640162000105565b600d80546001600160a01b031916331790556001600160a01b0393841660e0529190921660805260a09190915260c0526200057c565b336001600160a01b03821603620003545760405162461bcd60e51b815260206004820152601760248201527f43616e6e6f74207472616e7366657220746f2073656c66000000000000000000604482015260640162000105565b600b80546001600160a01b0319166001600160a01b03838116918217909255600a54604051919216907fed8889f560326eb138920d842192f0eb3dd22b4f139c87a2c57538e05bae127890600090a350565b80516001600160a01b0381168114620003be57600080fd5b919050565b60008060008060808587031215620003da57600080fd5b620003e585620003a6565b9350620003f560208601620003a6565b6040860151606090960151949790965092505050565b634e487b7160e01b600052604160045260246000fd5b600181811c908216806200043657607f821691505b6020821081036200045757634e487b7160e01b600052602260045260246000fd5b50919050565b601f821115620004ab57600081815260208120601f850160051c81016020861015620004865750805b601f850160051c820191505b81811015620004a75782815560010162000492565b5050505b505050565b81516001600160401b03811115620004cc57620004cc6200040b565b620004e481620004dd845462000421565b846200045d565b602080601f8311600181146200051c5760008415620005035750858301515b600019600386901b1c1916600185901b178555620004a7565b600085815260208120601f198616915b828110156200054d578886015182559484019460019091019084016200052c565b50858210156200056c5787850151600019600388901b60f8161c191681555b5050505050600190811b01905550565b60805160a05160c05160e0516138c16200061160003960008181610369015281816109fa01528181610a9d01528181610b8401528181610d95015281816113850152818161205301526120dc015260008181610600015281816106f00152610f370152600081816103ba015281816105da0152610f140152600081816105b60152818161067d0152610fb001526138c16000f3fe60806040526004361061020f5760003560e01c80636352211e116101185780639a5ea6a0116100a0578063b88d4fde1161006f578063b88d4fde146106a1578063c87b56dd146106c1578063de3d9fb7146106e1578063e985e9c514610714578063f2fde38b1461075d57600080fd5b80639a5ea6a01461059b5780639eccacf61461062e578063a22cb4651461064e578063a378f3711461066e57600080fd5b806379ba5097116100e757806379ba50971461051e5780638795cccb146105335780638da5cb5b146105485780638ea981171461056657806395d89b411461058657600080fd5b80636352211e1461049e5780636be9a6f1146104be5780636f9fb98a146104eb57806370a08231146104fe57600080fd5b806327a4f2bb1161019b57806342842e0e1161016a57806342842e0e146103fe57806346877b1a1461041e5780634f6ccce71461043e578063559e775b1461045e57806355f804b31461047e57600080fd5b806327a4f2bb146103575780632f745c591461038b578063331bf125146103ab57806339a51be5146103de57600080fd5b806315179217116101e257806315179217146102c557806318160ddd146102e55780631a0c8fa0146103045780631fe543e31461031757806323b872dd1461033757600080fd5b806301ffc9a71461021457806306fdde0314610249578063081812fc1461026b578063095ea7b3146102a3575b600080fd5b34801561022057600080fd5b5061023461022f366004612dcc565b61077d565b60405190151581526020015b60405180910390f35b34801561025557600080fd5b5061025e6107a8565b6040516102409190612e40565b34801561027757600080fd5b5061028b610286366004612e53565b61083a565b6040516001600160a01b039091168152602001610240565b3480156102af57600080fd5b506102c36102be366004612e81565b610861565b005b3480156102d157600080fd5b506102c36102e0366004612fa4565b61097b565b3480156102f157600080fd5b506008545b604051908152602001610240565b6102c361031236600461300f565b610d2b565b34801561032357600080fd5b506102c3610332366004613056565b6110e6565b34801561034357600080fd5b506102c36103523660046130d5565b611131565b34801561036357600080fd5b5061028b7f000000000000000000000000000000000000000000000000000000000000000081565b34801561039757600080fd5b506102f66103a6366004612e81565b611162565b3480156103b757600080fd5b507f00000000000000000000000000000000000000000000000000000000000000006102f6565b3480156103ea57600080fd5b50600d5461028b906001600160a01b031681565b34801561040a57600080fd5b506102c36104193660046130d5565b6111f8565b34801561042a57600080fd5b506102c3610439366004613116565b611213565b34801561044a57600080fd5b506102f6610459366004612e53565b6112cf565b34801561046a57600080fd5b506102f6610479366004612e53565b611362565b34801561048a57600080fd5b506102c3610499366004613133565b611400565b3480156104aa57600080fd5b5061028b6104b9366004612e53565b61144f565b3480156104ca57600080fd5b506104de6104d9366004612e53565b6114af565b6040516102409190613168565b3480156104f757600080fd5b50476102f6565b34801561050a57600080fd5b506102f6610519366004613116565b611647565b34801561052a57600080fd5b506102c36116cd565b34801561053f57600080fd5b506102c361177b565b34801561055457600080fd5b50600a546001600160a01b031661028b565b34801561057257600080fd5b506102c3610581366004613116565b6118b0565b34801561059257600080fd5b5061025e61199c565b3480156105a757600080fd5b50604080516001600160a01b037f00000000000000000000000000000000000000000000000000000000000000001681527f000000000000000000000000000000000000000000000000000000000000000060208201527f000000000000000000000000000000000000000000000000000000000000000091810191909152606001610240565b34801561063a57600080fd5b50600c5461028b906001600160a01b031681565b34801561065a57600080fd5b506102c36106693660046131cd565b6119ab565b34801561067a57600080fd5b507f000000000000000000000000000000000000000000000000000000000000000061028b565b3480156106ad57600080fd5b506102c36106bc366004613206565b6119ba565b3480156106cd57600080fd5b5061025e6106dc366004612e53565b6119f2565b3480156106ed57600080fd5b507f00000000000000000000000000000000000000000000000000000000000000006102f6565b34801561072057600080fd5b5061023461072f366004613286565b6001600160a01b03918216600090815260056020908152604080832093909416825291909152205460ff1690565b34801561076957600080fd5b506102c3610778366004613116565b611bd6565b60006001600160e01b0319821663780e9d6360e01b14806107a257506107a282611bea565b92915050565b6060600080546107b7906132b4565b80601f01602080910402602001604051908101604052809291908181526020018280546107e3906132b4565b80156108305780601f1061080557610100808354040283529160200191610830565b820191906000526020600020905b81548152906001019060200180831161081357829003601f168201915b5050505050905090565b600061084582611c3a565b506000908152600460205260409020546001600160a01b031690565b600061086c8261144f565b9050806001600160a01b0316836001600160a01b0316036108de5760405162461bcd60e51b815260206004820152602160248201527f4552433732313a20617070726f76616c20746f2063757272656e74206f776e656044820152603960f91b60648201526084015b60405180910390fd5b336001600160a01b03821614806108fa57506108fa813361072f565b61096c5760405162461bcd60e51b815260206004820152603d60248201527f4552433732313a20617070726f76652063616c6c6572206973206e6f7420746f60448201527f6b656e206f776e6572206f7220617070726f76656420666f7220616c6c00000060648201526084016108d5565b6109768383611c99565b505050565b3330146109bf5760405162461bcd60e51b8152602060048201526012602482015271496e7465726e616c2063616c6c206f6e6c7960701b60448201526064016108d5565b60006109ca60085490565b6109d5906001613304565b90506109e18682611d07565b6040516302deb55360e21b8152600481018690526000907f00000000000000000000000000000000000000000000000000000000000000006001600160a01b031690630b7ad54c90602401600060405180830381865afa158015610a49573d6000803e3d6000fd5b505050506040513d6000823e601f3d908101601f19168201604052610a719190810190613377565b90506000610a80600a8761349e565b60405163b4a5c7cf60e01b815260048101899052901591506000907f00000000000000000000000000000000000000000000000000000000000000006001600160a01b03169063b4a5c7cf906024016020604051808303816000875af1158015610aee573d6000803e3d6000fd5b505050506040513d601f19601f82011682018060405250810190610b1291906134b2565b905080610b6b5760405162461bcd60e51b815260206004820152602160248201527f4661696c656420746f20696e6372656d656e74206d696e74656420636f7069656044820152607360f81b60648201526084016108d5565b6040516302deb55360e21b8152600481018990526000907f00000000000000000000000000000000000000000000000000000000000000006001600160a01b031690630b7ad54c90602401600060405180830381865afa158015610bd3573d6000803e3d6000fd5b505050506040513d6000823e601f3d908101601f19168201604052610bfb9190810190613377565b90506040518060c001604052808a815260200185604001516001600160a01b0316815260200189815260200184151581526020018260e00151815260200188815250600f60008781526020019081526020016000206000820151816000015560208201518160010160006101000a8154816001600160a01b0302191690836001600160a01b031602179055506040820151816002015560608201518160030160006101000a81548160ff0219169083151502179055506080820151816004015560a0820151816005019081610cd09190613515565b50905050896001600160a01b031689867fc49622928e6a9619f1efac0300b9a868d077db41c42a37ce78d7774b341e6f79868560e001518c604051610d17939291906135d5565b60405180910390a450505050505050505050565b6000815111610d7c5760405162461bcd60e51b815260206004820152601c60248201527f4d65746164617461205552492063616e6e6f7420626520656d7074790000000060448201526064016108d5565b6040516302deb55360e21b8152600481018390526000907f00000000000000000000000000000000000000000000000000000000000000006001600160a01b031690630b7ad54c90602401600060405180830381865afa158015610de4573d6000803e3d6000fd5b505050506040513d6000823e601f3d908101601f19168201604052610e0c9190810190613377565b90508060800151610e575760405162461bcd60e51b8152602060048201526015602482015274436f6e74656e74206e6f7420617661696c61626c6560581b60448201526064016108d5565b8060c001518160e0015110610ea45760405162461bcd60e51b81526020600482015260136024820152724e6f20636f7069657320617661696c61626c6560681b60448201526064016108d5565b61012081015134811115610f085760405162461bcd60e51b815260206004820152602560248201527f496e73756666696369656e74207061796d656e7420666f72207468697320636f6044820152641b9d195b9d60da1b60648201526084016108d5565b6040805160c0810182527f000000000000000000000000000000000000000000000000000000000000000081527f0000000000000000000000000000000000000000000000000000000000000000602080830191909152600382840152620aae60606083015260016080830152825190810190925260008083529160a0820190610f9190611d21565b9052604051634d8e1c2f60e11b81529091506000906001600160a01b037f00000000000000000000000000000000000000000000000000000000000000001690639b1c385e90610fe59085906004016135ff565b6020604051808303816000875af1158015611004573d6000803e3d6000fd5b505050506040513d601f19601f82011682018060405250810190611028919061365c565b6040805160808101825233815260208082018a81528284018a8152606084018990526000868152601090935293909120825181546001600160a01b0319166001600160a01b039091161781559051600182015591519293509160028201906110909082613515565b5060608201518160030155905050823411156110de57336108fc6110b48534613675565b6040518115909202916000818181858888f193505050501580156110dc573d6000803e3d6000fd5b505b505050505050565b600c546001600160a01b0316331461112657600c5460405163073e64fd60e21b81523360048201526001600160a01b0390911660248201526044016108d5565b610976838383611d92565b61113b338261226e565b6111575760405162461bcd60e51b81526004016108d590613688565b6109768383836122ec565b600061116d83611647565b82106111cf5760405162461bcd60e51b815260206004820152602b60248201527f455243373231456e756d657261626c653a206f776e657220696e646578206f7560448201526a74206f6620626f756e647360a81b60648201526084016108d5565b506001600160a01b03919091166000908152600660209081526040808320938352929052205490565b610976838383604051806020016040528060008152506119ba565b61121b61245d565b6001600160a01b03811661127d5760405162461bcd60e51b815260206004820152602360248201527f4e65772072656365697665722063616e6e6f74206265207a65726f206164647260448201526265737360e81b60648201526084016108d5565b600d80546001600160a01b038381166001600160a01b0319831681179093556040519116919082907ffb5b90d81126d568c8bdaa0398ba8a708fd01e26c7891e91fa88e96051985ce390600090a35050565b60006112da60085490565b821061133d5760405162461bcd60e51b815260206004820152602c60248201527f455243373231456e756d657261626c653a20676c6f62616c20696e646578206f60448201526b7574206f6620626f756e647360a01b60648201526084016108d5565b60088281548110611350576113506136d5565b90600052602060002001549050919050565b6040516302deb55360e21b81526004810182905260009081906001600160a01b037f00000000000000000000000000000000000000000000000000000000000000001690630b7ad54c90602401600060405180830381865afa1580156113cc573d6000803e3d6000fd5b505050506040513d6000823e601f3d908101601f191682016040526113f49190810190613377565b61012001519392505050565b61140861245d565b600e6114148282613515565b507f6741b2fc379fad678116fe3d4d4b9a1a184ab53ba36b86ad0fa66340b1ab41ad816040516114449190612e40565b60405180910390a150565b6000818152600260205260408120546001600160a01b0316806107a25760405162461bcd60e51b8152602060048201526018602482015277115490cdcc8c4e881a5b9d985b1a59081d1bdad95b88125160421b60448201526064016108d5565b6114f36040518060c001604052806000815260200160006001600160a01b031681526020016000815260200160001515815260200160008152602001606081525090565b6000828152600260205260409020546001600160a01b031661154e5760405162461bcd60e51b8152602060048201526014602482015273151bdad95b88191bd95cc81b9bdd08195e1a5cdd60621b60448201526064016108d5565b6000828152600f6020908152604091829020825160c0810184528154815260018201546001600160a01b031692810192909252600281015492820192909252600382015460ff16151560608201526004820154608082015260058201805491929160a0840191906115be906132b4565b80601f01602080910402602001604051908101604052809291908181526020018280546115ea906132b4565b80156116375780601f1061160c57610100808354040283529160200191611637565b820191906000526020600020905b81548152906001019060200180831161161a57829003601f168201915b5050505050815250509050919050565b60006001600160a01b0382166116b15760405162461bcd60e51b815260206004820152602960248201527f4552433732313a2061646472657373207a65726f206973206e6f7420612076616044820152683634b21037bbb732b960b91b60648201526084016108d5565b506001600160a01b031660009081526003602052604090205490565b600b546001600160a01b031633146117205760405162461bcd60e51b815260206004820152601660248201527526bab9ba10313290383937b837b9b2b21037bbb732b960511b60448201526064016108d5565b600a80546001600160a01b031980821633908117909355600b805490911690556040516001600160a01b03909116919082907f8be0079c531659141344cd1fd0a4f28419497f9722a3daafe3b4186f6b6457e090600090a350565b61178361245d565b47806117c75760405162461bcd60e51b81526020600482015260136024820152724e6f206665657320746f20776974686472617760681b60448201526064016108d5565b600d546040516000916001600160a01b03169083908381818185875af1925050503d8060008114611814576040519150601f19603f3d011682016040523d82523d6000602084013e611819565b606091505b505090508061186a5760405162461bcd60e51b815260206004820152601760248201527f4661696c656420746f207769746864726177206665657300000000000000000060448201526064016108d5565b600d546040518381526001600160a01b03909116907fa087657e3d85162090ffd700fbfdf5070d816f63aa5da00063f6ffd369c8a6db9060200160405180910390a25050565b600a546001600160a01b031633148015906118d65750600c546001600160a01b03163314155b1561192757336118ee600a546001600160a01b031690565b600c5460405163061db9c160e01b81526001600160a01b03938416600482015291831660248301529190911660448201526064016108d5565b6001600160a01b03811661194e5760405163d92e233d60e01b815260040160405180910390fd5b600c80546001600160a01b0319166001600160a01b0383169081179091556040519081527fd1a6a14209a385a964d036e404cb5cfb71f4000cdb03c9366292430787261be690602001611444565b6060600180546107b7906132b4565b6119b63383836124b2565b5050565b6119c4338361226e565b6119e05760405162461bcd60e51b81526004016108d590613688565b6119ec84848484612580565b50505050565b6000818152600260205260409020546060906001600160a01b0316611a715760405162461bcd60e51b815260206004820152602f60248201527f4552433732314d657461646174613a2055524920717565727920666f72206e6f60448201526e3732bc34b9ba32b73a103a37b5b2b760891b60648201526084016108d5565b6000828152600f60209081526040808320815160c0810183528154815260018201546001600160a01b031693810193909352600281015491830191909152600381015460ff16151560608301526004810154608083015260058101805460a084019190611add906132b4565b80601f0160208091040260200160405190810160405280929190818152602001828054611b09906132b4565b8015611b565780601f10611b2b57610100808354040283529160200191611b56565b820191906000526020600020905b815481529060010190602001808311611b3957829003601f168201915b505050505081525050905060008160a00151511115611b795760a0015192915050565b6000611b836125b3565b90506000815111611ba35760405180602001604052806000815250611bce565b80611bad856125c2565b604051602001611bbe9291906136eb565b6040516020818303038152906040525b949350505050565b611bde61245d565b611be781612655565b50565b60006001600160e01b031982166380ac58cd60e01b1480611c1b57506001600160e01b03198216635b5e139f60e01b145b806107a257506301ffc9a760e01b6001600160e01b03198316146107a2565b6000818152600260205260409020546001600160a01b0316611be75760405162461bcd60e51b8152602060048201526018602482015277115490cdcc8c4e881a5b9d985b1a59081d1bdad95b88125160421b60448201526064016108d5565b600081815260046020526040902080546001600160a01b0319166001600160a01b0384169081179091558190611cce8261144f565b6001600160a01b03167f8c5be1e5ebec7d5bd14f71427d1e84f3dd0314c0f7b2291e5b200ac8c7c3b92560405160405180910390a45050565b6119b68282604051806020016040528060008152506126ff565b60607f92fd13387c7fe7befbc38d303d6468778fb9731bc4583f17d92989c6fcfdeaaa82604051602401611d5a91511515815260200190565b60408051601f198184030181529190526020810180516001600160e01b03166001600160e01b03199093169290921790915292915050565b6000838152601060209081526040808320815160808101835281546001600160a01b031681526001820154938101939093526002810180549192840191611dd8906132b4565b80601f0160208091040260200160405190810160405280929190818152602001828054611e04906132b4565b8015611e515780601f10611e2657610100808354040283529160200191611e51565b820191906000526020600020905b815481529060010190602001808311611e3457829003601f168201915b50505091835250506003919091015460209091015280519091506001600160a01b0316611ec05760405162461bcd60e51b815260206004820152601e60248201527f50656e64696e67206d696e742072657175657374206e6f7420666f756e64000060448201526064016108d5565b8051602082015130916315179217918686600081611ee057611ee06136d5565b90506020020135856040015186606001516040518663ffffffff1660e01b8152600401611f1195949392919061371a565b600060405180830381600087803b158015611f2b57600080fd5b505af1925050508015611f3c575060015b6120bd57602081015181516040516001600160a01b03909116907feb7135cf2879bb75a60e7351488f1fee4b4e211ed60de7520d8fad88e29bd81990600090a3805160608201516040516000926001600160a01b031691908381818185875af1925050503d8060008114611fcc576040519150601f19603f3d011682016040523d82523d6000602084013e611fd1565b606091505b50509050806120305760405162461bcd60e51b815260206004820152602560248201527f4661696c656420746f20726566756e642075736572206f6e206d696e74206661604482015264696c75726560d81b60648201526084016108d5565b60208201516040516376a6102f60e11b81526004810191909152600160248201527f00000000000000000000000000000000000000000000000000000000000000006001600160a01b03169063ed4c205e90604401600060405180830381600087803b15801561209f57600080fd5b505af11580156120b3573d6000803e3d6000fd5b505050505061222d565b60208101516040516302deb55360e21b81526000916001600160a01b037f00000000000000000000000000000000000000000000000000000000000000001691630b7ad54c916121139160040190815260200190565b600060405180830381865afa158015612130573d6000803e3d6000fd5b505050506040513d6000823e601f3d908101601f191682016040526121589190810190613377565b9050600060646003846060015161216f9190613759565b6121799190613770565b9050801561222a57600082604001516001600160a01b03168260405160006040518083038185875af1925050503d80600081146121d2576040519150601f19603f3d011682016040523d82523d6000602084013e6121d7565b606091505b50509050806122285760405162461bcd60e51b815260206004820181905260248201527f4661696c656420746f2073656e6420726f79616c747920746f20617574686f7260448201526064016108d5565b505b50505b600084815260106020526040812080546001600160a01b0319168155600181018290559061225e6002830182612d68565b6003820160009055505050505050565b60008061227a8361144f565b9050806001600160a01b0316846001600160a01b031614806122c157506001600160a01b0380821660009081526005602090815260408083209388168352929052205460ff165b80611bce5750836001600160a01b03166122da8461083a565b6001600160a01b031614949350505050565b826001600160a01b03166122ff8261144f565b6001600160a01b0316146123255760405162461bcd60e51b81526004016108d590613784565b6001600160a01b0382166123875760405162461bcd60e51b8152602060048201526024808201527f4552433732313a207472616e7366657220746f20746865207a65726f206164646044820152637265737360e01b60648201526084016108d5565b6123948383836001612732565b826001600160a01b03166123a78261144f565b6001600160a01b0316146123cd5760405162461bcd60e51b81526004016108d590613784565b600081815260046020908152604080832080546001600160a01b03199081169091556001600160a01b0387811680865260038552838620805460001901905590871680865283862080546001019055868652600290945282852080549092168417909155905184937fddf252ad1be2c89b69c2b068fc378daa952ba7f163c4a11628f55a4df523b3ef91a4505050565b600a546001600160a01b031633146124b05760405162461bcd60e51b815260206004820152601660248201527527b7363c9031b0b63630b1363290313c9037bbb732b960511b60448201526064016108d5565b565b816001600160a01b0316836001600160a01b0316036125135760405162461bcd60e51b815260206004820152601960248201527f4552433732313a20617070726f766520746f2063616c6c65720000000000000060448201526064016108d5565b6001600160a01b03838116600081815260056020908152604080832094871680845294825291829020805460ff191686151590811790915591519182527f17307eab39ab6107e8899845ad3d59bd9653f200f220920489ca2b5937696c31910160405180910390a3505050565b61258b8484846122ec565b61259784848484612866565b6119ec5760405162461bcd60e51b81526004016108d5906137c9565b6060600e80546107b7906132b4565b606060006125cf83612967565b600101905060008167ffffffffffffffff8111156125ef576125ef612ead565b6040519080825280601f01601f191660200182016040528015612619576020820181803683370190505b5090508181016020015b600019016f181899199a1a9b1b9c1cb0b131b232b360811b600a86061a8153600a850494508461262357509392505050565b336001600160a01b038216036126ad5760405162461bcd60e51b815260206004820152601760248201527f43616e6e6f74207472616e7366657220746f2073656c6600000000000000000060448201526064016108d5565b600b80546001600160a01b0319166001600160a01b03838116918217909255600a54604051919216907fed8889f560326eb138920d842192f0eb3dd22b4f139c87a2c57538e05bae127890600090a350565b6127098383612a3f565b6127166000848484612866565b6109765760405162461bcd60e51b81526004016108d5906137c9565b60018111156127a15760405162461bcd60e51b815260206004820152603560248201527f455243373231456e756d657261626c653a20636f6e7365637574697665207472604482015274185b9cd9995c9cc81b9bdd081cdd5c1c1bdc9d1959605a1b60648201526084016108d5565b816001600160a01b0385166127fd576127f881600880546000838152600960205260408120829055600182018355919091527ff3f7a9fe364faab93b216da50a3214154f22a0a2b415b23a84c8169e8b636ee30155565b612820565b836001600160a01b0316856001600160a01b031614612820576128208582612bd8565b6001600160a01b03841661283c5761283781612c75565b61285f565b846001600160a01b0316846001600160a01b03161461285f5761285f8482612d24565b5050505050565b60006001600160a01b0384163b1561295c57604051630a85bd0160e11b81526001600160a01b0385169063150b7a02906128aa90339089908890889060040161381b565b6020604051808303816000875af19250505080156128e5575060408051601f3d908101601f191682019092526128e291810190613858565b60015b612942573d808015612913576040519150601f19603f3d011682016040523d82523d6000602084013e612918565b606091505b50805160000361293a5760405162461bcd60e51b81526004016108d5906137c9565b805181602001fd5b6001600160e01b031916630a85bd0160e11b149050611bce565b506001949350505050565b60008072184f03e93ff9f4daa797ed6e38ed64bf6a1f0160401b83106129a65772184f03e93ff9f4daa797ed6e38ed64bf6a1f0160401b830492506040015b6d04ee2d6d415b85acef810000000083106129d2576d04ee2d6d415b85acef8100000000830492506020015b662386f26fc1000083106129f057662386f26fc10000830492506010015b6305f5e1008310612a08576305f5e100830492506008015b6127108310612a1c57612710830492506004015b60648310612a2e576064830492506002015b600a83106107a25760010192915050565b6001600160a01b038216612a955760405162461bcd60e51b815260206004820181905260248201527f4552433732313a206d696e7420746f20746865207a65726f206164647265737360448201526064016108d5565b6000818152600260205260409020546001600160a01b031615612afa5760405162461bcd60e51b815260206004820152601c60248201527f4552433732313a20746f6b656e20616c7265616479206d696e7465640000000060448201526064016108d5565b612b08600083836001612732565b6000818152600260205260409020546001600160a01b031615612b6d5760405162461bcd60e51b815260206004820152601c60248201527f4552433732313a20746f6b656e20616c7265616479206d696e7465640000000060448201526064016108d5565b6001600160a01b038216600081815260036020908152604080832080546001019055848352600290915280822080546001600160a01b0319168417905551839291907fddf252ad1be2c89b69c2b068fc378daa952ba7f163c4a11628f55a4df523b3ef908290a45050565b60006001612be584611647565b612bef9190613675565b600083815260076020526040902054909150808214612c42576001600160a01b03841660009081526006602090815260408083208584528252808320548484528184208190558352600790915290208190555b5060009182526007602090815260408084208490556001600160a01b039094168352600681528383209183525290812055565b600854600090612c8790600190613675565b60008381526009602052604081205460088054939450909284908110612caf57612caf6136d5565b906000526020600020015490508060088381548110612cd057612cd06136d5565b6000918252602080832090910192909255828152600990915260408082208490558582528120556008805480612d0857612d08613875565b6001900381819060005260206000200160009055905550505050565b6000612d2f83611647565b6001600160a01b039093166000908152600660209081526040808320868452825280832085905593825260079052919091209190915550565b508054612d74906132b4565b6000825580601f10612d84575050565b601f016020900490600052602060002090810190611be791905b80821115612db25760008155600101612d9e565b5090565b6001600160e01b031981168114611be757600080fd5b600060208284031215612dde57600080fd5b8135612de981612db6565b9392505050565b60005b83811015612e0b578181015183820152602001612df3565b50506000910152565b60008151808452612e2c816020860160208601612df0565b601f01601f19169290920160200192915050565b602081526000612de96020830184612e14565b600060208284031215612e6557600080fd5b5035919050565b6001600160a01b0381168114611be757600080fd5b60008060408385031215612e9457600080fd5b8235612e9f81612e6c565b946020939093013593505050565b634e487b7160e01b600052604160045260246000fd5b604051610140810167ffffffffffffffff81118282101715612ee757612ee7612ead565b60405290565b604051601f8201601f1916810167ffffffffffffffff81118282101715612f1657612f16612ead565b604052919050565b600067ffffffffffffffff821115612f3857612f38612ead565b50601f01601f191660200190565b6000612f59612f5484612f1e565b612eed565b9050828152838383011115612f6d57600080fd5b828260208301376000602084830101529392505050565b600082601f830112612f9557600080fd5b612de983833560208501612f46565b600080600080600060a08688031215612fbc57600080fd5b8535612fc781612e6c565b94506020860135935060408601359250606086013567ffffffffffffffff811115612ff157600080fd5b612ffd88828901612f84565b95989497509295608001359392505050565b6000806040838503121561302257600080fd5b82359150602083013567ffffffffffffffff81111561304057600080fd5b61304c85828601612f84565b9150509250929050565b60008060006040848603121561306b57600080fd5b83359250602084013567ffffffffffffffff8082111561308a57600080fd5b818601915086601f83011261309e57600080fd5b8135818111156130ad57600080fd5b8760208260051b85010111156130c257600080fd5b6020830194508093505050509250925092565b6000806000606084860312156130ea57600080fd5b83356130f581612e6c565b9250602084013561310581612e6c565b929592945050506040919091013590565b60006020828403121561312857600080fd5b8135612de981612e6c565b60006020828403121561314557600080fd5b813567ffffffffffffffff81111561315c57600080fd5b611bce84828501612f84565b602081528151602082015260018060a01b03602083015116604082015260408201516060820152606082015115156080820152608082015160a0820152600060a083015160c080840152611bce60e0840182612e14565b8015158114611be757600080fd5b600080604083850312156131e057600080fd5b82356131eb81612e6c565b915060208301356131fb816131bf565b809150509250929050565b6000806000806080858703121561321c57600080fd5b843561322781612e6c565b9350602085013561323781612e6c565b925060408501359150606085013567ffffffffffffffff81111561325a57600080fd5b8501601f8101871361326b57600080fd5b61327a87823560208401612f46565b91505092959194509250565b6000806040838503121561329957600080fd5b82356132a481612e6c565b915060208301356131fb81612e6c565b600181811c908216806132c857607f821691505b6020821081036132e857634e487b7160e01b600052602260045260246000fd5b50919050565b634e487b7160e01b600052601160045260246000fd5b808201808211156107a2576107a26132ee565b600082601f83011261332857600080fd5b8151613336612f5482612f1e565b81815284602083860101111561334b57600080fd5b611bce826020830160208701612df0565b805161336781612e6c565b919050565b8051613367816131bf565b60006020828403121561338957600080fd5b815167ffffffffffffffff808211156133a157600080fd5b9083019061014082860312156133b657600080fd5b6133be612ec3565b8251828111156133cd57600080fd5b6133d987828601613317565b8252506020830151828111156133ee57600080fd5b6133fa87828601613317565b60208301525061340c6040840161335c565b6040820152606083015160608201526134276080840161336c565b608082015260a083015160a082015260c083015160c082015260e083015160e0820152610100808401518381111561345e57600080fd5b61346a88828701613317565b91830191909152506101209283015192810192909252509392505050565b634e487b7160e01b600052601260045260246000fd5b6000826134ad576134ad613488565b500690565b6000602082840312156134c457600080fd5b8151612de9816131bf565b601f82111561097657600081815260208120601f850160051c810160208610156134f65750805b601f850160051c820191505b818110156110de57828155600101613502565b815167ffffffffffffffff81111561352f5761352f612ead565b6135438161353d84546132b4565b846134cf565b602080601f83116001811461357857600084156135605750858301515b600019600386901b1c1916600185901b1785556110de565b600085815260208120601f198616915b828110156135a757888601518255948401946001909101908401613588565b50858210156135c55787850151600019600388901b60f8161c191681555b5050505050600190811b01905550565b83151581528260208201526060604082015260006135f66060830184612e14565b95945050505050565b60208152815160208201526020820151604082015261ffff60408301511660608201526000606083015163ffffffff80821660808501528060808601511660a0850152505060a083015160c080840152611bce60e0840182612e14565b60006020828403121561366e57600080fd5b5051919050565b818103818111156107a2576107a26132ee565b6020808252602d908201527f4552433732313a2063616c6c6572206973206e6f7420746f6b656e206f776e6560408201526c1c881bdc88185c1c1c9bdd9959609a1b606082015260800190565b634e487b7160e01b600052603260045260246000fd5b600083516136fd818460208801612df0565b835190830190613711818360208801612df0565b01949350505050565b60018060a01b038616815284602082015283604082015260a06060820152600061374760a0830185612e14565b90508260808301529695505050505050565b80820281158282048414176107a2576107a26132ee565b60008261377f5761377f613488565b500490565b60208082526025908201527f4552433732313a207472616e736665722066726f6d20696e636f72726563742060408201526437bbb732b960d91b606082015260800190565b60208082526032908201527f4552433732313a207472616e7366657220746f206e6f6e20455243373231526560408201527131b2b4bb32b91034b6b83632b6b2b73a32b960711b606082015260800190565b6001600160a01b038581168252841660208201526040810183905260806060820181905260009061384e90830184612e14565b9695505050505050565b60006020828403121561386a57600080fd5b8151612de981612db6565b634e487b7160e01b600052603160045260246000fdfea26469706673582212205eef719251c85fb84d7143c3da400299cacf754459cccb766ba3cbbebebbab2964736f6c63430008140033",
  "linkReferences": {},
  "deployedLinkReferences": {}
}