{
  "_format": "hh-sol-artifact-1",
  "contractName": "ScientificContentRegistry",
  "sourceName": "contracts/ScientificContentRegistry.sol",
  "abi": [
    {
      "anonymous": false,
      "inputs": [
        {
          "indexed": true,
          "internalType": "uint256",
          "name": "contentId",
          "type": "uint256"
        },
        {
          "indexed": true,
          "internalType": "address",
          "name": "author",
          "type": "address"
        },
        {
          "indexed": false,
          "internalType": "string",
          "name": "title",
          "type": "string"
        },
        {
          "indexed": false,
          "internalType": "bytes32",
          "name": "contentHash",
          "type": "bytes32"
        },
        {
          "indexed": false,
          "internalType": "uint256",
          "name": "maxCopies",
          "type": "uint256"
        },
        {
          "indexed": false,
          "internalType": "string",
          "name": "ipfsHash",
          "type": "string"
        },
        {
          "indexed": false,
          "internalType": "uint256",
          "name": "nftMintPrice",
          "type": "uint256"
        }
      ],
      "name": "ContentRegistered",
      "type": "event"
    },
    {
      "anonymous": false,
      "inputs": [
        {
          "indexed": true,
          "internalType": "uint256",
          "name": "contentId",
          "type": "uint256"
        },
        {
          "indexed": false,
          "internalType": "bool",
          "name": "isAvailable",
          "type": "bool"
        }
      ],
      "name": "ContentStatusChanged",
      "type": "event"
    },
    {
      "anonymous": false,
      "inputs": [
        {
          "indexed": true,
          "internalType": "uint256",
          "name": "contentId",
          "type": "uint256"
        },
        {
          "indexed": false,
          "internalType": "uint256",
          "name": "currentCopies",
          "type": "uint256"
        }
      ],
      "name": "CopyMinted",
      "type": "event"
    },
    {
      "anonymous": false,
      "inputs": [
        {
          "indexed": false,
          "internalType": "string",
          "name": "message",
          "type": "string"
        },
        {
          "indexed": false,
          "internalType": "uint256",
          "name": "id",
          "type": "uint256"
        },
        {
          "indexed": false,
          "internalType": "string",
          "name": "data",
          "type": "string"
        }
      ],
      "name": "DebugLog",
      "type": "event"
    },
    {
      "anonymous": false,
      "inputs": [
        {
          "indexed": true,
          "internalType": "address",
          "name": "nftContract",
          "type": "address"
        }
      ],
      "name": "NFTContractSet",
      "type": "event"
    },
    {
      "anonymous": false,
      "inputs": [
        {
          "indexed": true,
          "internalType": "address",
          "name": "previousOwner",
          "type": "address"
        },
        {
          "indexed": true,
          "internalType": "address",
          "name": "newOwner",
          "type": "address"
        }
      ],
      "name": "OwnershipTransferred",
      "type": "event"
    },
    {
      "inputs": [
        {
          "internalType": "uint256",
          "name": "contentId",
          "type": "uint256"
        }
      ],
      "name": "contentExists",
      "outputs": [
        {
          "internalType": "bool",
          "name": "",
          "type": "bool"
        }
      ],
      "stateMutability": "view",
      "type": "function"
    },
    {
      "inputs": [
        {
          "internalType": "uint256",
          "name": "contentId",
          "type": "uint256"
        }
      ],
      "name": "getAvailableCopies",
      "outputs": [
        {
          "internalType": "uint256",
          "name": "",
          "type": "uint256"
        }
      ],
      "stateMutability": "view",
      "type": "function"
    },
    {
      "inputs": [
        {
          "internalType": "uint256",
          "name": "contentId",
          "type": "uint256"
        }
      ],
      "name": "getContent",
      "outputs": [
        {
          "components": [
            {
              "internalType": "string",
              "name": "title",
              "type": "string"
            },
            {
              "internalType": "string",
              "name": "description",
              "type": "string"
            },
            {
              "internalType": "address",
              "name": "author",
              "type": "address"
            },
            {
              "internalType": "bytes32",
              "name": "contentHash",
              "type": "bytes32"
            },
            {
              "internalType": "bool",
              "name": "isAvailable",
              "type": "bool"
            },
            {
              "internalType": "uint256",
              "name": "registrationTime",
              "type": "uint256"
            },
            {
              "internalType": "uint256",
              "name": "maxCopies",
              "type": "uint256"
            },
            {
              "internalType": "uint256",
              "name": "mintedCopies",
              "type": "uint256"
            },
            {
              "internalType": "string",
              "name": "ipfsHash",
              "type": "string"
            },
            {
              "internalType": "uint256",
              "name": "nftMintPrice",
              "type": "uint256"
            }
          ],
          "internalType": "struct ScientificContentRegistry.Content",
          "name": "",
          "type": "tuple"
        }
      ],
      "stateMutability": "view",
      "type": "function"
    },
    {
      "inputs": [
        {
          "internalType": "uint256",
          "name": "contentId",
          "type": "uint256"
        }
      ],
      "name": "incrementMintedCopies",
      "outputs": [
        {
          "internalType": "bool",
          "name": "",
          "type": "bool"
        }
      ],
      "stateMutability": "nonpayable",
      "type": "function"
    },
    {
      "inputs": [],
      "name": "nextContentId",
      "outputs": [
        {
          "internalType": "uint256",
          "name": "",
          "type": "uint256"
        }
      ],
      "stateMutability": "view",
      "type": "function"
    },
    {
      "inputs": [],
      "name": "nftContract",
      "outputs": [
        {
          "internalType": "address",
          "name": "",
          "type": "address"
        }
      ],
      "stateMutability": "view",
      "type": "function"
    },
    {
      "inputs": [],
      "name": "owner",
      "outputs": [
        {
          "internalType": "address",
          "name": "",
          "type": "address"
        }
      ],
      "stateMutability": "view",
      "type": "function"
    },
    {
      "inputs": [
        {
          "internalType": "string",
          "name": "title",
          "type": "string"
        },
        {
          "internalType": "string",
          "name": "description",
          "type": "string"
        },
        {
          "internalType": "uint256",
          "name": "maxCopies",
          "type": "uint256"
        },
        {
          "internalType": "string",
          "name": "_ipfsHash",
          "type": "string"
        },
        {
          "internalType": "uint256",
          "name": "_nftMintPrice",
          "type": "uint256"
        }
      ],
      "name": "registerContent",
      "outputs": [
        {
          "internalType": "uint256",
          "name": "",
          "type": "uint256"
        }
      ],
      "stateMutability": "nonpayable",
      "type": "function"
    },
    {
      "inputs": [],
      "name": "renounceOwnership",
      "outputs": [],
      "stateMutability": "nonpayable",
      "type": "function"
    },
    {
      "inputs": [
        {
          "internalType": "uint256",
          "name": "contentId",
          "type": "uint256"
        },
        {
          "internalType": "bool",
          "name": "isAvailable",
          "type": "bool"
        }
      ],
      "name": "setContentAvailability",
      "outputs": [],
      "stateMutability": "nonpayable",
      "type": "function"
    },
    {
      "inputs": [
        {
          "internalType": "address",
          "name": "_nftContract",
          "type": "address"
        }
      ],
      "name": "setNFTContract",
      "outputs": [],
      "stateMutability": "nonpayable",
      "type": "function"
    },
    {
      "inputs": [
        {
          "internalType": "address",
          "name": "newOwner",
          "type": "address"
        }
      ],
      "name": "transferOwnership",
      "outputs": [],
      "stateMutability": "nonpayable",
      "type": "function"
    }
  ],
  "bytecode": "0x608060405234801561001057600080fd5b5061001a3361001f565b61006f565b600080546001600160a01b038381166001600160a01b0319831681178455604051919092169283917f8be0079c531659141344cd1fd0a4f28419497f9722a3daafe3b4186f6b6457e09190a35050565b6117688061007e6000396000f3fe608060405234801561001057600080fd5b50600436106100b45760003560e01c80638da5cb5b116100715780638da5cb5b14610147578063a7ccabdf1461016c578063b4a5c7cf1461017f578063d56d229d14610192578063ed4c205e146101a5578063f2fde38b146101b857600080fd5b80630a248d7f146100b95780630b7ad54c146100d4578063148bf7e6146100f4578063150ce28b14610107578063715018a61461011a578063724121ae14610124575b600080fd5b6100c16101cb565b6040519081526020015b60405180910390f35b6100e76100e23660046110b7565b6101e1565b6040516100cb9190611120565b6100c16101023660046110b7565b6104a1565b6100c1610115366004611291565b61070b565b610122610aff565b005b6101376101323660046110b7565b610b13565b60405190151581526020016100cb565b6000546001600160a01b03165b6040516001600160a01b0390911681526020016100cb565b61012261017a36600461132b565b610b2c565b61013761018d3660046110b7565b610c1f565b600454610154906001600160a01b031681565b6101226101b3366004611354565b610de5565b6101226101c636600461132b565b610f94565b600060035460016101dc919061139f565b905090565b610245604051806101400160405280606081526020016060815260200160006001600160a01b031681526020016000801916815260200160001515815260200160008152602001600081526020016000815260200160608152602001600081525090565b61024e82610b13565b6102735760405162461bcd60e51b815260040161026a906113b2565b60405180910390fd5b600082815260016020526040908190208151610140810190925280548290829061029c906113e2565b80601f01602080910402602001604051908101604052809291908181526020018280546102c8906113e2565b80156103155780601f106102ea57610100808354040283529160200191610315565b820191906000526020600020905b8154815290600101906020018083116102f857829003601f168201915b5050505050815260200160018201805461032e906113e2565b80601f016020809104026020016040519081016040528092919081815260200182805461035a906113e2565b80156103a75780601f1061037c576101008083540402835291602001916103a7565b820191906000526020600020905b81548152906001019060200180831161038a57829003601f168201915b505050918352505060028201546001600160a01b0316602082015260038201546040820152600482015460ff161515606082015260058201546080820152600682015460a0820152600782015460c082015260088201805460e09092019161040e906113e2565b80601f016020809104026020016040519081016040528092919081815260200182805461043a906113e2565b80156104875780601f1061045c57610100808354040283529160200191610487565b820191906000526020600020905b81548152906001019060200180831161046a57829003601f168201915b505050505081526020016009820154815250509050919050565b60006104ac82610b13565b6104c85760405162461bcd60e51b815260040161026a906113b2565b600082815260016020526040808220815161014081019092528054829082906104f0906113e2565b80601f016020809104026020016040519081016040528092919081815260200182805461051c906113e2565b80156105695780601f1061053e57610100808354040283529160200191610569565b820191906000526020600020905b81548152906001019060200180831161054c57829003601f168201915b50505050508152602001600182018054610582906113e2565b80601f01602080910402602001604051908101604052809291908181526020018280546105ae906113e2565b80156105fb5780601f106105d0576101008083540402835291602001916105fb565b820191906000526020600020905b8154815290600101906020018083116105de57829003601f168201915b505050918352505060028201546001600160a01b0316602082015260038201546040820152600482015460ff161515606082015260058201546080820152600682015460a0820152600782015460c082015260088201805460e090920191610662906113e2565b80601f016020809104026020016040519081016040528092919081815260200182805461068e906113e2565b80156106db5780601f106106b0576101008083540402835291602001916106db565b820191906000526020600020905b8154815290600101906020018083116106be57829003601f168201915b5050505050815260200160098201548152505090508060e001518160c00151610704919061141c565b9392505050565b6000808651116107555760405162461bcd60e51b81526020600482015260156024820152745469746c652063616e6e6f7420626520656d70747960581b604482015260640161026a565b60008551116107a65760405162461bcd60e51b815260206004820152601b60248201527f4465736372697074696f6e2063616e6e6f7420626520656d7074790000000000604482015260640161026a565b600084116107f65760405162461bcd60e51b815260206004820152601c60248201527f4d75737420616c6c6f77206174206c65617374206f6e6520636f707900000000604482015260640161026a565b60008351116108475760405162461bcd60e51b815260206004820152601960248201527f4950465320686173682063616e6e6f7420626520656d70747900000000000000604482015260640161026a565b600082116108a85760405162461bcd60e51b815260206004820152602860248201527f4e4654206d696e74207072696365206d7573742062652067726561746572207460448201526768616e207a65726f60c01b606482015260840161026a565b60008686336040516020016108bf9392919061142f565b60408051601f1981840301815291815281516020928301206000818152600290935291205490915060ff16156109375760405162461bcd60e51b815260206004820152601a60248201527f436f6e74656e7420616c72656164792072656769737465726564000000000000604482015260640161026a565b600380549060006109478361147a565b9091555050604080516101408101825288815260208082018990523382840152606082018490526001608083018190524260a084015260c08301899052600060e08401819052610100840189905261012084018890526003548152915291909120815181906109b690826114e2565b50602082015160018201906109cb90826114e2565b5060408201516002820180546001600160a01b0319166001600160a01b0390921691909117905560608201516003820155608082015160048201805460ff191691151591909117905560a0820151600582015560c0820151600682015560e082015160078201556101008201516008820190610a4790826114e2565b50610120919091015160099091015560008181526002602052604090819020805460ff1916600117905560035490513391907fb3fb1534604fd9d4678cce38f4708f0b6725d2692cbfb2af0e493612a78944dc90610aae908b9086908b908b908b906115a2565b60405180910390a37f099462b0f343b9a6ebddfc9ac5ec84952a627782b34f753697974b390e55020560035488604051610ae99291906115e6565b60405180910390a1505060035495945050505050565b610b0761100d565b610b116000611067565b565b60008082118015610b2657506003548211155b92915050565b610b3461100d565b6001600160a01b038116610b7c5760405162461bcd60e51b815260206004820152600f60248201526e496e76616c6964206164647265737360881b604482015260640161026a565b6004546001600160a01b031615610bd55760405162461bcd60e51b815260206004820152601860248201527f4e465420636f6e747261637420616c7265616479207365740000000000000000604482015260640161026a565b600480546001600160a01b0319166001600160a01b0383169081179091556040517f5a6a54be6929433a25d1b5103e7dea8d9440b7903216e380344a320ca1cdd85f90600090a250565b6004546000906001600160a01b03163314610c7c5760405162461bcd60e51b815260206004820152601c60248201527f4f6e6c79204e465420636f6e74726163742063616e206d6f6469667900000000604482015260640161026a565b610c8582610b13565b610ca15760405162461bcd60e51b815260040161026a906113b2565b60008281526001602052604090206006810154600782015410610cfb5760405162461bcd60e51b815260206004820152601260248201527113585e0818dbdc1a595cc81c995858da195960721b604482015260640161026a565b600781018054906000610d0d8361147a565b9190505550827f24f887ec780fb0ce30a0fc3f106ced759023555d2815be10bd7078f00b748dc18260070154604051610d4891815260200190565b60405180910390a26040517f099462b0f343b9a6ebddfc9ac5ec84952a627782b34f753697974b390e55020590610d829085908490611630565b60405180910390a18060060154816007015410610ddc5760048101805460ff191690556040516000815283907f308f248530f3edb6a647f6ce9f3bb532da11696086edcee1a05e1e434d7a85139060200160405180910390a25b50600192915050565b6004546001600160a01b03163314610e3f5760405162461bcd60e51b815260206004820152601c60248201527f4f6e6c79204e465420636f6e74726163742063616e206d6f6469667900000000604482015260640161026a565b610e4882610b13565b610e645760405162461bcd60e51b815260040161026a906113b2565b60008281526001602052604090206006810154600782015410610ebe5760405162461bcd60e51b815260206004820152601260248201527113585e0818dbdc1a595cc81c995858da195960721b604482015260640161026a565b60048101805460ff191683151590811790915560405190815283907f308f248530f3edb6a647f6ce9f3bb532da11696086edcee1a05e1e434d7a85139060200160405180910390a27f099462b0f343b9a6ebddfc9ac5ec84952a627782b34f753697974b390e5502058383610f56576040518060400160405280600b81526020016a556e617661696c61626c6560a81b815250610f79565b60405180604001604052806009815260200168417661696c61626c6560b81b8152505b604051610f879291906116e5565b60405180910390a1505050565b610f9c61100d565b6001600160a01b0381166110015760405162461bcd60e51b815260206004820152602660248201527f4f776e61626c653a206e6577206f776e657220697320746865207a65726f206160448201526564647265737360d01b606482015260840161026a565b61100a81611067565b50565b6000546001600160a01b03163314610b115760405162461bcd60e51b815260206004820181905260248201527f4f776e61626c653a2063616c6c6572206973206e6f7420746865206f776e6572604482015260640161026a565b600080546001600160a01b038381166001600160a01b0319831681178455604051919092169283917f8be0079c531659141344cd1fd0a4f28419497f9722a3daafe3b4186f6b6457e09190a35050565b6000602082840312156110c957600080fd5b5035919050565b60005b838110156110eb5781810151838201526020016110d3565b50506000910152565b6000815180845261110c8160208601602086016110d0565b601f01601f19169290920160200192915050565b602081526000825161014080602085015261113f6101608501836110f4565b91506020850151601f198086850301604087015261115d84836110f4565b93506040870151915061117b60608701836001600160a01b03169052565b606087015160808701526080870151915061119a60a087018315159052565b60a087015160c087015260c087015160e087015260e087015191506101008281880152808801519250506101208187860301818801526111da85846110f4565b970151959092019490945250929392505050565b634e487b7160e01b600052604160045260246000fd5b600082601f83011261121557600080fd5b813567ffffffffffffffff80821115611230576112306111ee565b604051601f8301601f19908116603f01168101908282118183101715611258576112586111ee565b8160405283815286602085880101111561127157600080fd5b836020870160208301376000602085830101528094505050505092915050565b600080600080600060a086880312156112a957600080fd5b853567ffffffffffffffff808211156112c157600080fd5b6112cd89838a01611204565b965060208801359150808211156112e357600080fd5b6112ef89838a01611204565b955060408801359450606088013591508082111561130c57600080fd5b5061131988828901611204565b95989497509295608001359392505050565b60006020828403121561133d57600080fd5b81356001600160a01b038116811461070457600080fd5b6000806040838503121561136757600080fd5b823591506020830135801515811461137e57600080fd5b809150509250929050565b634e487b7160e01b600052601160045260246000fd5b80820180821115610b2657610b26611389565b60208082526016908201527510dbdb9d195b9d08191bd95cc81b9bdd08195e1a5cdd60521b604082015260600190565b600181811c908216806113f657607f821691505b60208210810361141657634e487b7160e01b600052602260045260246000fd5b50919050565b81810381811115610b2657610b26611389565b600084516114418184602089016110d0565b8451908301906114558183602089016110d0565b60609490941b6bffffffffffffffffffffffff19169301928352505060140192915050565b60006001820161148c5761148c611389565b5060010190565b601f8211156114dd57600081815260208120601f850160051c810160208610156114ba5750805b601f850160051c820191505b818110156114d9578281556001016114c6565b5050505b505050565b815167ffffffffffffffff8111156114fc576114fc6111ee565b6115108161150a84546113e2565b84611493565b602080601f831160018114611545576000841561152d5750858301515b600019600386901b1c1916600185901b1785556114d9565b600085815260208120601f198616915b8281101561157457888601518255948401946001909101908401611555565b50858210156115925787850151600019600388901b60f8161c191681555b5050505050600190811b01905550565b60a0815260006115b560a08301886110f4565b86602084015285604084015282810360608401526115d381866110f4565b9150508260808301529695505050505050565b60608152601260608201527110dbdb9d195b9d081c9959da5cdd195c995960721b608082015282602082015260a06040820152600061162860a08301846110f4565b949350505050565b60608152600b60608201526a10dbdc1e481b5a5b9d195960aa1b608082015260006020848184015260a060408401526000845461166c816113e2565b8060a087015260c060018084166000811461168e57600181146116a8576116d6565b60ff1985168984015283151560051b8901830195506116d6565b896000528660002060005b858110156116ce5781548b82018601529083019088016116b3565b8a0184019650505b50939998505050505050505050565b60608152601c60608201527f436f6e74656e7420617661696c6162696c697479206368616e67656400000000608082015282602082015260a06040820152600061162860a08301846110f456fea26469706673582212208fc3fe43514447a6a41d8e4aea2c06c91f8ace238d68b8e07b0964d54b0aa7e764736f6c63430008140033",
  "linkReferences": {},
  "deployedLinkReferences": {}
}