{
  "_format": "hh-sol-artifact-1",
  "contractName": "ScientificContentNFT",
  "sourceName": "contracts/ScientificContentNFT.sol",
  "abi": [
    {
      "inputs": [
        {
          "internalType": "address",
          "name": "_contentRegistry",
          "type": "address"
        },
        {
          "internalType": "address",
          "name": "_vrfCoordinator",
          "type": "address"
        },
        {
          "internalType": "bytes32",
          "name": "_keyHash",
          "type": "bytes32"
        },
        {
          "internalType": "uint256",
          "name": "_subscriptionId",
          "type": "uint256"
        }
      ],
      "stateMutability": "nonpayable",
      "type": "constructor"
    },
    {
      "inputs": [
        {
          "internalType": "address",
          "name": "have",
          "type": "address"
        },
        {
          "internalType": "address",
          "name": "want",
          "type": "address"
        }
      ],
      "name": "OnlyCoordinatorCanFulfill",
      "type": "error"
    },
    {
      "inputs": [
        {
          "internalType": "address",
          "name": "have",
          "type": "address"
        },
        {
          "internalType": "address",
          "name": "owner",
          "type": "address"
        },
        {
          "internalType": "address",
          "name": "coordinator",
          "type": "address"
        }
      ],
      "name": "OnlyOwnerOrCoordinator",
      "type": "error"
    },
    {
      "inputs": [],
      "name": "ZeroAddress",
      "type": "error"
    },
    {
      "anonymous": false,
      "inputs": [
        {
          "indexed": true,
          "internalType": "address",
          "name": "owner",
          "type": "address"
        },
        {
          "indexed": true,
          "internalType": "address",
          "name": "approved",
          "type": "address"
        },
        {
          "indexed": true,
          "internalType": "uint256",
          "name": "tokenId",
          "type": "uint256"
        }
      ],
      "name": "Approval",
      "type": "event"
    },
    {
      "anonymous": false,
      "inputs": [
        {
          "indexed": true,
          "internalType": "address",
          "name": "owner",
          "type": "address"
        },
        {
          "indexed": true,
          "internalType": "address",
          "name": "operator",
          "type": "address"
        },
        {
          "indexed": false,
          "internalType": "bool",
          "name": "approved",
          "type": "bool"
        }
      ],
      "name": "ApprovalForAll",
      "type": "event"
    },
    {
      "anonymous": false,
      "inputs": [
        {
          "indexed": false,
          "internalType": "string",
          "name": "newBaseURI",
          "type": "string"
        }
      ],
      "name": "BaseURIUpdated",
      "type": "event"
    },
    {
      "anonymous": false,
      "inputs": [
        {
          "indexed": false,
          "internalType": "address",
          "name": "vrfCoordinator",
          "type": "address"
        }
      ],
      "name": "CoordinatorSet",
      "type": "event"
    },
    {
      "anonymous": false,
      "inputs": [
        {
          "indexed": true,
          "internalType": "address",
          "name": "minter",
          "type": "address"
        },
        {
          "indexed": true,
          "internalType": "uint256",
          "name": "contentId",
          "type": "uint256"
        }
      ],
      "name": "MintingFailed",
      "type": "event"
    },
    {
      "anonymous": false,
      "inputs": [
        {
          "indexed": true,
          "internalType": "uint256",
          "name": "tokenId",
          "type": "uint256"
        },
        {
          "indexed": true,
          "internalType": "uint256",
          "name": "contentId",
          "type": "uint256"
        },
        {
          "indexed": true,
          "internalType": "address",
          "name": "owner",
          "type": "address"
        },
        {
          "indexed": false,
          "internalType": "bool",
          "name": "isSpecial",
          "type": "bool"
        },
        {
          "indexed": false,
          "internalType": "uint256",
          "name": "copyNumber",
          "type": "uint256"
        },
        {
          "indexed": false,
          "internalType": "string",
          "name": "metadataURI",
          "type": "string"
        }
      ],
      "name": "NFTMinted",
      "type": "event"
    },
    {
      "anonymous": false,
      "inputs": [
        {
          "indexed": true,
          "internalType": "address",
          "name": "from",
          "type": "address"
        },
        {
          "indexed": true,
          "internalType": "address",
          "name": "to",
          "type": "address"
        }
      ],
      "name": "OwnershipTransferRequested",
      "type": "event"
    },
    {
      "anonymous": false,
      "inputs": [
        {
          "indexed": true,
          "internalType": "address",
          "name": "from",
          "type": "address"
        },
        {
          "indexed": true,
          "internalType": "address",
          "name": "to",
          "type": "address"
        }
      ],
      "name": "OwnershipTransferred",
      "type": "event"
    },
    {
      "anonymous": false,
      "inputs": [
        {
          "indexed": true,
          "internalType": "address",
          "name": "oldReceiver",
          "type": "address"
        },
        {
          "indexed": true,
          "internalType": "address",
          "name": "newReceiver",
          "type": "address"
        }
      ],
      "name": "ProtocolFeeReceiverUpdated",
      "type": "event"
    },
    {
      "anonymous": false,
      "inputs": [
        {
          "indexed": true,
          "internalType": "address",
          "name": "to",
          "type": "address"
        },
        {
          "indexed": false,
          "internalType": "uint256",
          "name": "amount",
          "type": "uint256"
        }
      ],
      "name": "ProtocolFeesWithdrawn",
      "type": "event"
    },
    {
      "anonymous": false,
      "inputs": [
        {
          "indexed": true,
          "internalType": "bytes32",
          "name": "role",
          "type": "bytes32"
        },
        {
          "indexed": true,
          "internalType": "bytes32",
          "name": "previousAdminRole",
          "type": "bytes32"
        },
        {
          "indexed": true,
          "internalType": "bytes32",
          "name": "newAdminRole",
          "type": "bytes32"
        }
      ],
      "name": "RoleAdminChanged",
      "type": "event"
    },
    {
      "anonymous": false,
      "inputs": [
        {
          "indexed": true,
          "internalType": "bytes32",
          "name": "role",
          "type": "bytes32"
        },
        {
          "indexed": true,
          "internalType": "address",
          "name": "account",
          "type": "address"
        },
        {
          "indexed": true,
          "internalType": "address",
          "name": "sender",
          "type": "address"
        }
      ],
      "name": "RoleGranted",
      "type": "event"
    },
    {
      "anonymous": false,
      "inputs": [
        {
          "indexed": true,
          "internalType": "bytes32",
          "name": "role",
          "type": "bytes32"
        },
        {
          "indexed": true,
          "internalType": "address",
          "name": "account",
          "type": "address"
        },
        {
          "indexed": true,
          "internalType": "address",
          "name": "sender",
          "type": "address"
        }
      ],
      "name": "RoleRevoked",
      "type": "event"
    },
    {
      "anonymous": false,
      "inputs": [
        {
          "indexed": true,
          "internalType": "address",
          "name": "from",
          "type": "address"
        },
        {
          "indexed": true,
          "internalType": "address",
          "name": "to",
          "type": "address"
        },
        {
          "indexed": true,
          "internalType": "uint256",
          "name": "tokenId",
          "type": "uint256"
        }
      ],
      "name": "Transfer",
      "type": "event"
    },
    {
      "inputs": [],
      "name": "ADMIN_ROLE",
      "outputs": [
        {
          "internalType": "bytes32",
          "name": "",
          "type": "bytes32"
        }
      ],
      "stateMutability": "view",
      "type": "function"
    },
    {
      "inputs": [],
      "name": "DEFAULT_ADMIN_ROLE",
      "outputs": [
        {
          "internalType": "bytes32",
          "name": "",
          "type": "bytes32"
        }
      ],
      "stateMutability": "view",
      "type": "function"
    },
    {
      "inputs": [
        {
          "internalType": "address",
          "name": "minter",
          "type": "address"
        },
        {
          "internalType": "uint256",
          "name": "contentId",
          "type": "uint256"
        },
        {
          "internalType": "uint256",
          "name": "randomWord",
          "type": "uint256"
        },
        {
          "internalType": "string",
          "name": "nftMetadataURI",
          "type": "string"
        },
        {
          "internalType": "uint256",
          "name": "",
          "type": "uint256"
        }
      ],
      "name": "_processMint",
      "outputs": [],
      "stateMutability": "nonpayable",
      "type": "function"
    },
    {
      "inputs": [],
      "name": "acceptOwnership",
      "outputs": [],
      "stateMutability": "nonpayable",
      "type": "function"
    },
    {
      "inputs": [
        {
          "internalType": "address",
          "name": "account",
          "type": "address"
        }
      ],
      "name": "addAdmin",
      "outputs": [],
      "stateMutability": "nonpayable",
      "type": "function"
    },
    {
      "inputs": [
        {
          "internalType": "address",
          "name": "to",
          "type": "address"
        },
        {
          "internalType": "uint256",
          "name": "tokenId",
          "type": "uint256"
        }
      ],
      "name": "approve",
      "outputs": [],
      "stateMutability": "nonpayable",
      "type": "function"
    },
    {
      "inputs": [
        {
          "internalType": "address",
          "name": "owner",
          "type": "address"
        }
      ],
      "name": "balanceOf",
      "outputs": [
        {
          "internalType": "uint256",
          "name": "",
          "type": "uint256"
        }
      ],
      "stateMutability": "view",
      "type": "function"
    },
    {
      "inputs": [],
      "name": "contentRegistry",
      "outputs": [
        {
          "internalType": "contract ScientificContentRegistry",
          "name": "",
          "type": "address"
        }
      ],
      "stateMutability": "view",
      "type": "function"
    },
    {
      "inputs": [
        {
          "internalType": "uint256",
          "name": "tokenId",
          "type": "uint256"
        }
      ],
      "name": "getApproved",
      "outputs": [
        {
          "internalType": "address",
          "name": "",
          "type": "address"
        }
      ],
      "stateMutability": "view",
      "type": "function"
    },
    {
      "inputs": [],
      "name": "getContractBalance",
      "outputs": [
        {
          "internalType": "uint256",
          "name": "",
          "type": "uint256"
        }
      ],
      "stateMutability": "view",
      "type": "function"
    },
    {
      "inputs": [],
      "name": "getKeyHash",
      "outputs": [
        {
          "internalType": "bytes32",
          "name": "",
          "type": "bytes32"
        }
      ],
      "stateMutability": "view",
      "type": "function"
    },
    {
      "inputs": [
        {
          "internalType": "uint256",
          "name": "contentId",
          "type": "uint256"
        }
      ],
      "name": "getMintPrice",
      "outputs": [
        {
          "internalType": "uint256",
          "name": "",
          "type": "uint256"
        }
      ],
      "stateMutability": "view",
      "type": "function"
    },
    {
      "inputs": [
        {
          "internalType": "uint256",
          "name": "tokenId",
          "type": "uint256"
        }
      ],
      "name": "getNFTMetadata",
      "outputs": [
        {
          "components": [
            {
              "internalType": "uint256",
              "name": "contentId",
              "type": "uint256"
            },
            {
              "internalType": "address",
              "name": "author",
              "type": "address"
            },
            {
              "internalType": "uint256",
              "name": "randomSeed",
              "type": "uint256"
            },
            {
              "internalType": "bool",
              "name": "hasSpecialContent",
              "type": "bool"
            },
            {
              "internalType": "uint256",
              "name": "copyNumber",
              "type": "uint256"
            },
            {
              "internalType": "string",
              "name": "metadataURI",
              "type": "string"
            }
          ],
          "internalType": "struct ScientificContentNFT.NFTMetadata",
          "name": "",
          "type": "tuple"
        }
      ],
      "stateMutability": "view",
      "type": "function"
    },
    {
      "inputs": [
        {
          "internalType": "bytes32",
          "name": "role",
          "type": "bytes32"
        }
      ],
      "name": "getRoleAdmin",
      "outputs": [
        {
          "internalType": "bytes32",
          "name": "",
          "type": "bytes32"
        }
      ],
      "stateMutability": "view",
      "type": "function"
    },
    {
      "inputs": [],
      "name": "getSubscriptionId",
      "outputs": [
        {
          "internalType": "uint256",
          "name": "",
          "type": "uint256"
        }
      ],
      "stateMutability": "view",
      "type": "function"
    },
    {
      "inputs": [],
      "name": "getVRFConfig",
      "outputs": [
        {
          "internalType": "address",
          "name": "coordinator",
          "type": "address"
        },
        {
          "internalType": "bytes32",
          "name": "vrfKeyHash",
          "type": "bytes32"
        },
        {
          "internalType": "uint256",
          "name": "vrfSubscriptionId",
          "type": "uint256"
        }
      ],
      "stateMutability": "view",
      "type": "function"
    },
    {
      "inputs": [],
      "name": "getVRFCoordinator",
      "outputs": [
        {
          "internalType": "address",
          "name": "",
          "type": "address"
        }
      ],
      "stateMutability": "view",
      "type": "function"
    },
    {
      "inputs": [
        {
          "internalType": "bytes32",
          "name": "role",
          "type": "bytes32"
        },
        {
          "internalType": "address",
          "name": "account",
          "type": "address"
        }
      ],
      "name": "grantRole",
      "outputs": [],
      "stateMutability": "nonpayable",
      "type": "function"
    },
    {
      "inputs": [
        {
          "internalType": "bytes32",
          "name": "role",
          "type": "bytes32"
        },
        {
          "internalType": "address",
          "name": "account",
          "type": "address"
        }
      ],
      "name": "hasRole",
      "outputs": [
        {
          "internalType": "bool",
          "name": "",
          "type": "bool"
        }
      ],
      "stateMutability": "view",
      "type": "function"
    },
    {
      "inputs": [
        {
          "internalType": "address",
          "name": "owner",
          "type": "address"
        },
        {
          "internalType": "address",
          "name": "operator",
          "type": "address"
        }
      ],
      "name": "isApprovedForAll",
      "outputs": [
        {
          "internalType": "bool",
          "name": "",
          "type": "bool"
        }
      ],
      "stateMutability": "view",
      "type": "function"
    },
    {
      "inputs": [
        {
          "internalType": "uint256",
          "name": "contentId",
          "type": "uint256"
        },
        {
          "internalType": "string",
          "name": "nftMetadataURI",
          "type": "string"
        }
      ],
      "name": "mintNFT",
      "outputs": [],
      "stateMutability": "payable",
      "type": "function"
    },
    {
      "inputs": [],
      "name": "name",
      "outputs": [
        {
          "internalType": "string",
          "name": "",
          "type": "string"
        }
      ],
      "stateMutability": "view",
      "type": "function"
    },
    {
      "inputs": [],
      "name": "owner",
      "outputs": [
        {
          "internalType": "address",
          "name": "",
          "type": "address"
        }
      ],
      "stateMutability": "view",
      "type": "function"
    },
    {
      "inputs": [
        {
          "internalType": "uint256",
          "name": "tokenId",
          "type": "uint256"
        }
      ],
      "name": "ownerOf",
      "outputs": [
        {
          "internalType": "address",
          "name": "",
          "type": "address"
        }
      ],
      "stateMutability": "view",
      "type": "function"
    },
    {
      "inputs": [],
      "name": "protocolFeeReceiver",
      "outputs": [
        {
          "internalType": "address",
          "name": "",
          "type": "address"
        }
      ],
      "stateMutability": "view",
      "type": "function"
    },
    {
      "inputs": [
        {
          "internalType": "uint256",
          "name": "requestId",
          "type": "uint256"
        },
        {
          "internalType": "uint256[]",
          "name": "randomWords",
          "type": "uint256[]"
        }
      ],
      "name": "rawFulfillRandomWords",
      "outputs": [],
      "stateMutability": "nonpayable",
      "type": "function"
    },
    {
      "inputs": [
        {
          "internalType": "address",
          "name": "account",
          "type": "address"
        }
      ],
      "name": "removeAdmin",
      "outputs": [],
      "stateMutability": "nonpayable",
      "type": "function"
    },
    {
      "inputs": [
        {
          "internalType": "bytes32",
          "name": "role",
          "type": "bytes32"
        },
        {
          "internalType": "address",
          "name": "account",
          "type": "address"
        }
      ],
      "name": "renounceRole",
      "outputs": [],
      "stateMutability": "nonpayable",
      "type": "function"
    },
    {
      "inputs": [
        {
          "internalType": "bytes32",
          "name": "role",
          "type": "bytes32"
        },
        {
          "internalType": "address",
          "name": "account",
          "type": "address"
        }
      ],
      "name": "revokeRole",
      "outputs": [],
      "stateMutability": "nonpayable",
      "type": "function"
    },
    {
      "inputs": [],
      "name": "s_vrfCoordinator",
      "outputs": [
        {
          "internalType": "contract IVRFCoordinatorV2Plus",
          "name": "",
          "type": "address"
        }
      ],
      "stateMutability": "view",
      "type": "function"
    },
    {
      "inputs": [
        {
          "internalType": "address",
          "name": "from",
          "type": "address"
        },
        {
          "internalType": "address",
          "name": "to",
          "type": "address"
        },
        {
          "internalType": "uint256",
          "name": "tokenId",
          "type": "uint256"
        }
      ],
      "name": "safeTransferFrom",
      "outputs": [],
      "stateMutability": "nonpayable",
      "type": "function"
    },
    {
      "inputs": [
        {
          "internalType": "address",
          "name": "from",
          "type": "address"
        },
        {
          "internalType": "address",
          "name": "to",
          "type": "address"
        },
        {
          "internalType": "uint256",
          "name": "tokenId",
          "type": "uint256"
        },
        {
          "internalType": "bytes",
          "name": "data",
          "type": "bytes"
        }
      ],
      "name": "safeTransferFrom",
      "outputs": [],
      "stateMutability": "nonpayable",
      "type": "function"
    },
    {
      "inputs": [
        {
          "internalType": "address",
          "name": "operator",
          "type": "address"
        },
        {
          "internalType": "bool",
          "name": "approved",
          "type": "bool"
        }
      ],
      "name": "setApprovalForAll",
      "outputs": [],
      "stateMutability": "nonpayable",
      "type": "function"
    },
    {
      "inputs": [
        {
          "internalType": "string",
          "name": "newBaseURI",
          "type": "string"
        }
      ],
      "name": "setBaseURI",
      "outputs": [],
      "stateMutability": "nonpayable",
      "type": "function"
    },
    {
      "inputs": [
        {
          "internalType": "address",
          "name": "_vrfCoordinator",
          "type": "address"
        }
      ],
      "name": "setCoordinator",
      "outputs": [],
      "stateMutability": "nonpayable",
      "type": "function"
    },
    {
      "inputs": [
        {
          "internalType": "address",
          "name": "newReceiver",
          "type": "address"
        }
      ],
      "name": "setProtocolFeeReceiver",
      "outputs": [],
      "stateMutability": "nonpayable",
      "type": "function"
    },
    {
      "inputs": [
        {
          "internalType": "bytes4",
          "name": "interfaceId",
          "type": "bytes4"
        }
      ],
      "name": "supportsInterface",
      "outputs": [
        {
          "internalType": "bool",
          "name": "",
          "type": "bool"
        }
      ],
      "stateMutability": "view",
      "type": "function"
    },
    {
      "inputs": [],
      "name": "symbol",
      "outputs": [
        {
          "internalType": "string",
          "name": "",
          "type": "string"
        }
      ],
      "stateMutability": "view",
      "type": "function"
    },
    {
      "inputs": [
        {
          "internalType": "uint256",
          "name": "index",
          "type": "uint256"
        }
      ],
      "name": "tokenByIndex",
      "outputs": [
        {
          "internalType": "uint256",
          "name": "",
          "type": "uint256"
        }
      ],
      "stateMutability": "view",
      "type": "function"
    },
    {
      "inputs": [
        {
          "internalType": "address",
          "name": "owner",
          "type": "address"
        },
        {
          "internalType": "uint256",
          "name": "index",
          "type": "uint256"
        }
      ],
      "name": "tokenOfOwnerByIndex",
      "outputs": [
        {
          "internalType": "uint256",
          "name": "",
          "type": "uint256"
        }
      ],
      "stateMutability": "view",
      "type": "function"
    },
    {
      "inputs": [
        {
          "internalType": "uint256",
          "name": "tokenId",
          "type": "uint256"
        }
      ],
      "name": "tokenURI",
      "outputs": [
        {
          "internalType": "string",
          "name": "",
          "type": "string"
        }
      ],
      "stateMutability": "view",
      "type": "function"
    },
    {
      "inputs": [],
      "name": "totalSupply",
      "outputs": [
        {
          "internalType": "uint256",
          "name": "",
          "type": "uint256"
        }
      ],
      "stateMutability": "view",
      "type": "function"
    },
    {
      "inputs": [
        {
          "internalType": "address",
          "name": "from",
          "type": "address"
        },
        {
          "internalType": "address",
          "name": "to",
          "type": "address"
        },
        {
          "internalType": "uint256",
          "name": "tokenId",
          "type": "uint256"
        }
      ],
      "name": "transferFrom",
      "outputs": [],
      "stateMutability": "nonpayable",
      "type": "function"
    },
    {
      "inputs": [
        {
          "internalType": "address",
          "name": "to",
          "type": "address"
        }
      ],
      "name": "transferOwnership",
      "outputs": [],
      "stateMutability": "nonpayable",
      "type": "function"
    },
    {
      "inputs": [],
      "name": "withdrawProtocolFees",
      "outputs": [],
      "stateMutability": "nonpayable",
      "type": "function"
    }
  ],
  "bytecode": "0x6101006040523480156200001257600080fd5b506040516200473c3803806200473c8339810160408190526200003591620004ed565b82338060006040518060400160405280601681526020017f446e4120536369656e746966696320436f6e74656e740000000000000000000081525060405180604001604052806006815260200165444e4153434960d01b8152508160009081620000a09190620005da565b506001620000af8282620005da565b5050506001600160a01b0382166200010e5760405162461bcd60e51b815260206004820152601860248201527f43616e6e6f7420736574206f776e657220746f207a65726f000000000000000060448201526064015b60405180910390fd5b600a80546001600160a01b0319166001600160a01b03848116919091179091558116156200014157620001418162000334565b5050506001600160a01b0381166200016c5760405163d92e233d60e01b815260040160405180910390fd5b600c80546001600160a01b0319166001600160a01b039283161790558416620001d85760405162461bcd60e51b815260206004820152601860248201527f496e76616c696420726567697374727920616464726573730000000000000000604482015260640162000105565b6001600160a01b038316620002305760405162461bcd60e51b815260206004820152601760248201527f496e76616c69642056524620636f6f7264696e61746f72000000000000000000604482015260640162000105565b81620002725760405162461bcd60e51b815260206004820152601060248201526f092dcecc2d8d2c840d6caf240d0c2e6d60831b604482015260640162000105565b80600003620002c45760405162461bcd60e51b815260206004820152601760248201527f496e76616c696420737562736372697074696f6e204944000000000000000000604482015260640162000105565b600e80546001600160a01b03191633908117909155620002f5906000805160206200471c83398151915290620003e0565b620003106000805160206200471c8339815191528062000485565b6001600160a01b0393841660e0529190921660805260a09190915260c052620006a6565b336001600160a01b038216036200038e5760405162461bcd60e51b815260206004820152601760248201527f43616e6e6f74207472616e7366657220746f2073656c66000000000000000000604482015260640162000105565b600b80546001600160a01b0319166001600160a01b03838116918217909255600a54604051919216907fed8889f560326eb138920d842192f0eb3dd22b4f139c87a2c57538e05bae127890600090a350565b6000828152600d602090815260408083206001600160a01b038516845290915290205460ff1662000481576000828152600d602090815260408083206001600160a01b03851684529091529020805460ff19166001179055620004403390565b6001600160a01b0316816001600160a01b0316837f2f8788117e7eff1d82e926ec794901d17c78024a50270940304540a733656f0d60405160405180910390a45b5050565b6000828152600d6020526040808220600101805490849055905190918391839186917fbd79b86ffe0ab8e8776151514217cd7cacd52c909f66475c3af44e129f0b00ff9190a4505050565b80516001600160a01b0381168114620004e857600080fd5b919050565b600080600080608085870312156200050457600080fd5b6200050f85620004d0565b93506200051f60208601620004d0565b6040860151606090960151949790965092505050565b634e487b7160e01b600052604160045260246000fd5b600181811c908216806200056057607f821691505b6020821081036200058157634e487b7160e01b600052602260045260246000fd5b50919050565b601f821115620005d557600081815260208120601f850160051c81016020861015620005b05750805b601f850160051c820191505b81811015620005d157828155600101620005bc565b5050505b505050565b81516001600160401b03811115620005f657620005f662000535565b6200060e816200060784546200054b565b8462000587565b602080601f8311600181146200064657600084156200062d5750858301515b600019600386901b1c1916600185901b178555620005d1565b600085815260208120601f198616915b82811015620006775788860151825594840194600190910190840162000656565b5085821015620006965787850151600019600388901b60f8161c191681555b5050505050600190811b01905550565b60805160a05160c05160e051613fe16200073b6000396000818161041c01528181610b7901528181610c1c01528181610d0301528181610f48015281816115e80152818161235e01526123e70152600081816107550152818161087a01526110ea01526000818161048d0152818161072f01526110c701526000818161070b015281816107e701526111630152613fe16000f3fe6080604052600436106102725760003560e01c80636352211e1161014f57806395d89b41116100c1578063b88d4fde1161007a578063b88d4fde1461080b578063c87b56dd1461082b578063d547741f1461084b578063de3d9fb71461086b578063e985e9c51461089e578063f2fde38b146108e757600080fd5b806395d89b41146106db5780639a5ea6a0146106f05780639eccacf614610783578063a217fddf146107a3578063a22cb465146107b8578063a378f371146107d857600080fd5b806375b238fc1161011357806375b238fc1461063157806379ba5097146106535780638795cccb146106685780638da5cb5b1461067d5780638ea981171461069b57806391d14854146106bb57600080fd5b80636352211e146105915780636be9a6f1146105b15780636f9fb98a146105de57806370480275146105f157806370a082311461061157600080fd5b806327a4f2bb116101e857806339a51be5116101ac57806339a51be5146104d157806342842e0e146104f157806346877b1a146105115780634f6ccce714610531578063559e775b1461055157806355f804b31461057157600080fd5b806327a4f2bb1461040a5780632f2ff15d1461043e5780632f745c591461045e578063331bf1251461047e57806336568abe146104b157600080fd5b80631785f53c1161023a5780631785f53c1461034857806318160ddd146103685780631a0c8fa0146103875780631fe543e31461039a57806323b872dd146103ba578063248a9ca3146103da57600080fd5b806301ffc9a71461027757806306fdde03146102ac578063081812fc146102ce578063095ea7b3146103065780631517921714610328575b600080fd5b34801561028357600080fd5b50610297610292366004613422565b610907565b60405190151581526020015b60405180910390f35b3480156102b857600080fd5b506102c1610927565b6040516102a3919061348f565b3480156102da57600080fd5b506102ee6102e93660046134a2565b6109b9565b6040516001600160a01b0390911681526020016102a3565b34801561031257600080fd5b506103266103213660046134d0565b6109e0565b005b34801561033457600080fd5b506103266103433660046135f3565b610afa565b34801561035457600080fd5b5061032661036336600461365e565b610eaa565b34801561037457600080fd5b506008545b6040519081526020016102a3565b61032661039536600461367b565b610ede565b3480156103a657600080fd5b506103266103b53660046136c2565b611299565b3480156103c657600080fd5b506103266103d5366004613741565b6112e4565b3480156103e657600080fd5b506103796103f53660046134a2565b6000908152600d602052604090206001015490565b34801561041657600080fd5b506102ee7f000000000000000000000000000000000000000000000000000000000000000081565b34801561044a57600080fd5b50610326610459366004613782565b611315565b34801561046a57600080fd5b506103796104793660046134d0565b61133a565b34801561048a57600080fd5b507f0000000000000000000000000000000000000000000000000000000000000000610379565b3480156104bd57600080fd5b506103266104cc366004613782565b6113d0565b3480156104dd57600080fd5b50600e546102ee906001600160a01b031681565b3480156104fd57600080fd5b5061032661050c366004613741565b61144a565b34801561051d57600080fd5b5061032661052c36600461365e565b611465565b34801561053d57600080fd5b5061037961054c3660046134a2565b611532565b34801561055d57600080fd5b5061037961056c3660046134a2565b6115c5565b34801561057d57600080fd5b5061032661058c3660046137b2565b611663565b34801561059d57600080fd5b506102ee6105ac3660046134a2565b6116c3565b3480156105bd57600080fd5b506105d16105cc3660046134a2565b611723565b6040516102a391906137e7565b3480156105ea57600080fd5b5047610379565b3480156105fd57600080fd5b5061032661060c36600461365e565b6118bb565b34801561061d57600080fd5b5061037961062c36600461365e565b6118eb565b34801561063d57600080fd5b50610379600080516020613f8c83398151915281565b34801561065f57600080fd5b50610326611971565b34801561067457600080fd5b50610326611a1f565b34801561068957600080fd5b50600a546001600160a01b03166102ee565b3480156106a757600080fd5b506103266106b636600461365e565b611b65565b3480156106c757600080fd5b506102976106d6366004613782565b611c57565b3480156106e757600080fd5b506102c1611c82565b3480156106fc57600080fd5b50604080516001600160a01b037f00000000000000000000000000000000000000000000000000000000000000001681527f000000000000000000000000000000000000000000000000000000000000000060208201527f0000000000000000000000000000000000000000000000000000000000000000918101919091526060016102a3565b34801561078f57600080fd5b50600c546102ee906001600160a01b031681565b3480156107af57600080fd5b50610379600081565b3480156107c457600080fd5b506103266107d336600461384c565b611c91565b3480156107e457600080fd5b507f00000000000000000000000000000000000000000000000000000000000000006102ee565b34801561081757600080fd5b5061032661082636600461387a565b611c9c565b34801561083757600080fd5b506102c16108463660046134a2565b611cd4565b34801561085757600080fd5b50610326610866366004613782565b611eb8565b34801561087757600080fd5b507f0000000000000000000000000000000000000000000000000000000000000000610379565b3480156108aa57600080fd5b506102976108b93660046138fa565b6001600160a01b03918216600090815260056020908152604080832093909416825291909152205460ff1690565b3480156108f357600080fd5b5061032661090236600461365e565b611edd565b600061091282611ef1565b80610921575061092182611f16565b92915050565b60606000805461093690613928565b80601f016020809104026020016040519081016040528092919081815260200182805461096290613928565b80156109af5780601f10610984576101008083540402835291602001916109af565b820191906000526020600020905b81548152906001019060200180831161099257829003601f168201915b5050505050905090565b60006109c482611f3b565b506000908152600460205260409020546001600160a01b031690565b60006109eb826116c3565b9050806001600160a01b0316836001600160a01b031603610a5d5760405162461bcd60e51b815260206004820152602160248201527f4552433732313a20617070726f76616c20746f2063757272656e74206f776e656044820152603960f91b60648201526084015b60405180910390fd5b336001600160a01b0382161480610a795750610a7981336108b9565b610aeb5760405162461bcd60e51b815260206004820152603d60248201527f4552433732313a20617070726f76652063616c6c6572206973206e6f7420746f60448201527f6b656e206f776e6572206f7220617070726f76656420666f7220616c6c0000006064820152608401610a54565b610af58383611f9a565b505050565b333014610b3e5760405162461bcd60e51b8152602060048201526012602482015271496e7465726e616c2063616c6c206f6e6c7960701b6044820152606401610a54565b6000610b4960085490565b610b54906001613978565b9050610b608682612008565b6040516302deb55360e21b8152600481018690526000907f00000000000000000000000000000000000000000000000000000000000000006001600160a01b031690630b7ad54c90602401600060405180830381865afa158015610bc8573d6000803e3d6000fd5b505050506040513d6000823e601f3d908101601f19168201604052610bf091908101906139eb565b90506000610bff600a87613b12565b60405163b4a5c7cf60e01b815260048101899052901591506000907f00000000000000000000000000000000000000000000000000000000000000006001600160a01b03169063b4a5c7cf906024016020604051808303816000875af1158015610c6d573d6000803e3d6000fd5b505050506040513d601f19601f82011682018060405250810190610c919190613b26565b905080610cea5760405162461bcd60e51b815260206004820152602160248201527f4661696c656420746f20696e6372656d656e74206d696e74656420636f7069656044820152607360f81b6064820152608401610a54565b6040516302deb55360e21b8152600481018990526000907f00000000000000000000000000000000000000000000000000000000000000006001600160a01b031690630b7ad54c90602401600060405180830381865afa158015610d52573d6000803e3d6000fd5b505050506040513d6000823e601f3d908101601f19168201604052610d7a91908101906139eb565b90506040518060c001604052808a815260200185604001516001600160a01b0316815260200189815260200184151581526020018260e00151815260200188815250601060008781526020019081526020016000206000820151816000015560208201518160010160006101000a8154816001600160a01b0302191690836001600160a01b031602179055506040820151816002015560608201518160030160006101000a81548160ff0219169083151502179055506080820151816004015560a0820151816005019081610e4f9190613b89565b50905050896001600160a01b031689867fc49622928e6a9619f1efac0300b9a868d077db41c42a37ce78d7774b341e6f79868560e001518c604051610e9693929190613c49565b60405180910390a450505050505050505050565b600080516020613f8c833981519152610ec281612022565b610eda600080516020613f8c83398151915283611eb8565b5050565b6000815111610f2f5760405162461bcd60e51b815260206004820152601c60248201527f4d65746164617461205552492063616e6e6f7420626520656d707479000000006044820152606401610a54565b6040516302deb55360e21b8152600481018390526000907f00000000000000000000000000000000000000000000000000000000000000006001600160a01b031690630b7ad54c90602401600060405180830381865afa158015610f97573d6000803e3d6000fd5b505050506040513d6000823e601f3d908101601f19168201604052610fbf91908101906139eb565b9050806080015161100a5760405162461bcd60e51b8152602060048201526015602482015274436f6e74656e74206e6f7420617661696c61626c6560581b6044820152606401610a54565b8060c001518160e00151106110575760405162461bcd60e51b81526020600482015260136024820152724e6f20636f7069657320617661696c61626c6560681b6044820152606401610a54565b610120810151348111156110bb5760405162461bcd60e51b815260206004820152602560248201527f496e73756666696369656e74207061796d656e7420666f72207468697320636f6044820152641b9d195b9d60da1b6064820152608401610a54565b6040805160c0810182527f000000000000000000000000000000000000000000000000000000000000000081527f0000000000000000000000000000000000000000000000000000000000000000602080830191909152600382840152620aae60606083015260016080830152825190810190925260008083529160a08201906111449061202c565b9052604051634d8e1c2f60e11b81529091506000906001600160a01b037f00000000000000000000000000000000000000000000000000000000000000001690639b1c385e90611198908590600401613c73565b6020604051808303816000875af11580156111b7573d6000803e3d6000fd5b505050506040513d601f19601f820116820180604052508101906111db9190613cd0565b6040805160808101825233815260208082018a81528284018a8152606084018990526000868152601190935293909120825181546001600160a01b0319166001600160a01b039091161781559051600182015591519293509160028201906112439082613b89565b50606082015181600301559050508234111561129157336108fc6112678534613ce9565b6040518115909202916000818181858888f1935050505015801561128f573d6000803e3d6000fd5b505b505050505050565b600c546001600160a01b031633146112d957600c5460405163073e64fd60e21b81523360048201526001600160a01b039091166024820152604401610a54565b610af583838361209d565b6112ee3382612579565b61130a5760405162461bcd60e51b8152600401610a5490613cfc565b610af58383836125f7565b6000828152600d602052604090206001015461133081612022565b610af58383612768565b6000611345836118eb565b82106113a75760405162461bcd60e51b815260206004820152602b60248201527f455243373231456e756d657261626c653a206f776e657220696e646578206f7560448201526a74206f6620626f756e647360a81b6064820152608401610a54565b506001600160a01b03919091166000908152600660209081526040808320938352929052205490565b6001600160a01b03811633146114405760405162461bcd60e51b815260206004820152602f60248201527f416363657373436f6e74726f6c3a2063616e206f6e6c792072656e6f756e636560448201526e103937b632b9903337b91039b2b63360891b6064820152608401610a54565b610eda82826127ee565b610af583838360405180602001604052806000815250611c9c565b600080516020613f8c83398151915261147d81612022565b6001600160a01b0382166114df5760405162461bcd60e51b815260206004820152602360248201527f4e65772072656365697665722063616e6e6f74206265207a65726f206164647260448201526265737360e81b6064820152608401610a54565b600e80546001600160a01b038481166001600160a01b0319831681179093556040519116919082907ffb5b90d81126d568c8bdaa0398ba8a708fd01e26c7891e91fa88e96051985ce390600090a3505050565b600061153d60085490565b82106115a05760405162461bcd60e51b815260206004820152602c60248201527f455243373231456e756d657261626c653a20676c6f62616c20696e646578206f60448201526b7574206f6620626f756e647360a01b6064820152608401610a54565b600882815481106115b3576115b3613d49565b90600052602060002001549050919050565b6040516302deb55360e21b81526004810182905260009081906001600160a01b037f00000000000000000000000000000000000000000000000000000000000000001690630b7ad54c90602401600060405180830381865afa15801561162f573d6000803e3d6000fd5b505050506040513d6000823e601f3d908101601f1916820160405261165791908101906139eb565b61012001519392505050565b600080516020613f8c83398151915261167b81612022565b600f6116878382613b89565b507f6741b2fc379fad678116fe3d4d4b9a1a184ab53ba36b86ad0fa66340b1ab41ad826040516116b7919061348f565b60405180910390a15050565b6000818152600260205260408120546001600160a01b0316806109215760405162461bcd60e51b8152602060048201526018602482015277115490cdcc8c4e881a5b9d985b1a59081d1bdad95b88125160421b6044820152606401610a54565b6117676040518060c001604052806000815260200160006001600160a01b031681526020016000815260200160001515815260200160008152602001606081525090565b6000828152600260205260409020546001600160a01b03166117c25760405162461bcd60e51b8152602060048201526014602482015273151bdad95b88191bd95cc81b9bdd08195e1a5cdd60621b6044820152606401610a54565b600082815260106020908152604091829020825160c0810184528154815260018201546001600160a01b031692810192909252600281015492820192909252600382015460ff16151560608201526004820154608082015260058201805491929160a08401919061183290613928565b80601f016020809104026020016040519081016040528092919081815260200182805461185e90613928565b80156118ab5780601f10611880576101008083540402835291602001916118ab565b820191906000526020600020905b81548152906001019060200180831161188e57829003601f168201915b5050505050815250509050919050565b600080516020613f8c8339815191526118d381612022565b610eda600080516020613f8c83398151915283611315565b60006001600160a01b0382166119555760405162461bcd60e51b815260206004820152602960248201527f4552433732313a2061646472657373207a65726f206973206e6f7420612076616044820152683634b21037bbb732b960b91b6064820152608401610a54565b506001600160a01b031660009081526003602052604090205490565b600b546001600160a01b031633146119c45760405162461bcd60e51b815260206004820152601660248201527526bab9ba10313290383937b837b9b2b21037bbb732b960511b6044820152606401610a54565b600a80546001600160a01b031980821633908117909355600b805490911690556040516001600160a01b03909116919082907f8be0079c531659141344cd1fd0a4f28419497f9722a3daafe3b4186f6b6457e090600090a350565b600080516020613f8c833981519152611a3781612022565b4780611a7b5760405162461bcd60e51b81526020600482015260136024820152724e6f206665657320746f20776974686472617760681b6044820152606401610a54565b600e546040516000916001600160a01b03169083908381818185875af1925050503d8060008114611ac8576040519150601f19603f3d011682016040523d82523d6000602084013e611acd565b606091505b5050905080611b1e5760405162461bcd60e51b815260206004820152601760248201527f4661696c656420746f20776974686472617720666565730000000000000000006044820152606401610a54565b600e546040518381526001600160a01b03909116907fa087657e3d85162090ffd700fbfdf5070d816f63aa5da00063f6ffd369c8a6db9060200160405180910390a2505050565b600a546001600160a01b03163314801590611b8b5750600c546001600160a01b03163314155b15611bdc5733611ba3600a546001600160a01b031690565b600c5460405163061db9c160e01b81526001600160a01b0393841660048201529183166024830152919091166044820152606401610a54565b6001600160a01b038116611c035760405163d92e233d60e01b815260040160405180910390fd5b600c80546001600160a01b0319166001600160a01b0383169081179091556040519081527fd1a6a14209a385a964d036e404cb5cfb71f4000cdb03c9366292430787261be69060200160405180910390a150565b6000918252600d602090815260408084206001600160a01b0393909316845291905290205460ff1690565b60606001805461093690613928565b610eda338383612855565b611ca63383612579565b611cc25760405162461bcd60e51b8152600401610a5490613cfc565b611cce84848484612923565b50505050565b6000818152600260205260409020546060906001600160a01b0316611d535760405162461bcd60e51b815260206004820152602f60248201527f4552433732314d657461646174613a2055524920717565727920666f72206e6f60448201526e3732bc34b9ba32b73a103a37b5b2b760891b6064820152608401610a54565b6000828152601060209081526040808320815160c0810183528154815260018201546001600160a01b031693810193909352600281015491830191909152600381015460ff16151560608301526004810154608083015260058101805460a084019190611dbf90613928565b80601f0160208091040260200160405190810160405280929190818152602001828054611deb90613928565b8015611e385780601f10611e0d57610100808354040283529160200191611e38565b820191906000526020600020905b815481529060010190602001808311611e1b57829003601f168201915b505050505081525050905060008160a00151511115611e5b5760a0015192915050565b6000611e65612956565b90506000815111611e855760405180602001604052806000815250611eb0565b80611e8f85612965565b604051602001611ea0929190613d5f565b6040516020818303038152906040525b949350505050565b6000828152600d6020526040902060010154611ed381612022565b610af583836127ee565b611ee56129f8565b611eee81612a4d565b50565b60006001600160e01b0319821663780e9d6360e01b1480610921575061092182612af7565b60006001600160e01b03198216637965db0b60e01b1480610921575061092182611ef1565b6000818152600260205260409020546001600160a01b0316611eee5760405162461bcd60e51b8152602060048201526018602482015277115490cdcc8c4e881a5b9d985b1a59081d1bdad95b88125160421b6044820152606401610a54565b600081815260046020526040902080546001600160a01b0319166001600160a01b0384169081179091558190611fcf826116c3565b6001600160a01b03167f8c5be1e5ebec7d5bd14f71427d1e84f3dd0314c0f7b2291e5b200ac8c7c3b92560405160405180910390a45050565b610eda828260405180602001604052806000815250612b47565b611eee8133612b7a565b60607f92fd13387c7fe7befbc38d303d6468778fb9731bc4583f17d92989c6fcfdeaaa8260405160240161206591511515815260200190565b60408051601f198184030181529190526020810180516001600160e01b03166001600160e01b03199093169290921790915292915050565b6000838152601160209081526040808320815160808101835281546001600160a01b0316815260018201549381019390935260028101805491928401916120e390613928565b80601f016020809104026020016040519081016040528092919081815260200182805461210f90613928565b801561215c5780601f106121315761010080835404028352916020019161215c565b820191906000526020600020905b81548152906001019060200180831161213f57829003601f168201915b50505091835250506003919091015460209091015280519091506001600160a01b03166121cb5760405162461bcd60e51b815260206004820152601e60248201527f50656e64696e67206d696e742072657175657374206e6f7420666f756e6400006044820152606401610a54565b80516020820151309163151792179186866000816121eb576121eb613d49565b90506020020135856040015186606001516040518663ffffffff1660e01b815260040161221c959493929190613d8e565b600060405180830381600087803b15801561223657600080fd5b505af1925050508015612247575060015b6123c857602081015181516040516001600160a01b03909116907feb7135cf2879bb75a60e7351488f1fee4b4e211ed60de7520d8fad88e29bd81990600090a3805160608201516040516000926001600160a01b031691908381818185875af1925050503d80600081146122d7576040519150601f19603f3d011682016040523d82523d6000602084013e6122dc565b606091505b505090508061233b5760405162461bcd60e51b815260206004820152602560248201527f4661696c656420746f20726566756e642075736572206f6e206d696e74206661604482015264696c75726560d81b6064820152608401610a54565b60208201516040516376a6102f60e11b81526004810191909152600160248201527f00000000000000000000000000000000000000000000000000000000000000006001600160a01b03169063ed4c205e90604401600060405180830381600087803b1580156123aa57600080fd5b505af11580156123be573d6000803e3d6000fd5b5050505050612538565b60208101516040516302deb55360e21b81526000916001600160a01b037f00000000000000000000000000000000000000000000000000000000000000001691630b7ad54c9161241e9160040190815260200190565b600060405180830381865afa15801561243b573d6000803e3d6000fd5b505050506040513d6000823e601f3d908101601f1916820160405261246391908101906139eb565b9050600060646003846060015161247a9190613dcd565b6124849190613de4565b9050801561253557600082604001516001600160a01b03168260405160006040518083038185875af1925050503d80600081146124dd576040519150601f19603f3d011682016040523d82523d6000602084013e6124e2565b606091505b50509050806125335760405162461bcd60e51b815260206004820181905260248201527f4661696c656420746f2073656e6420726f79616c747920746f20617574686f726044820152606401610a54565b505b50505b600084815260116020526040812080546001600160a01b0319168155600181018290559061256960028301826133be565b6003820160009055505050505050565b600080612585836116c3565b9050806001600160a01b0316846001600160a01b031614806125cc57506001600160a01b0380821660009081526005602090815260408083209388168352929052205460ff165b80611eb05750836001600160a01b03166125e5846109b9565b6001600160a01b031614949350505050565b826001600160a01b031661260a826116c3565b6001600160a01b0316146126305760405162461bcd60e51b8152600401610a5490613df8565b6001600160a01b0382166126925760405162461bcd60e51b8152602060048201526024808201527f4552433732313a207472616e7366657220746f20746865207a65726f206164646044820152637265737360e01b6064820152608401610a54565b61269f8383836001612bd3565b826001600160a01b03166126b2826116c3565b6001600160a01b0316146126d85760405162461bcd60e51b8152600401610a5490613df8565b600081815260046020908152604080832080546001600160a01b03199081169091556001600160a01b0387811680865260038552838620805460001901905590871680865283862080546001019055868652600290945282852080549092168417909155905184937fddf252ad1be2c89b69c2b068fc378daa952ba7f163c4a11628f55a4df523b3ef91a4505050565b6127728282611c57565b610eda576000828152600d602090815260408083206001600160a01b03851684529091529020805460ff191660011790556127aa3390565b6001600160a01b0316816001600160a01b0316837f2f8788117e7eff1d82e926ec794901d17c78024a50270940304540a733656f0d60405160405180910390a45050565b6127f88282611c57565b15610eda576000828152600d602090815260408083206001600160a01b0385168085529252808320805460ff1916905551339285917ff6391f5c32d9c69d2a47ea670b442974b53935d1edc7fd64eb21e047a839171b9190a45050565b816001600160a01b0316836001600160a01b0316036128b65760405162461bcd60e51b815260206004820152601960248201527f4552433732313a20617070726f766520746f2063616c6c6572000000000000006044820152606401610a54565b6001600160a01b03838116600081815260056020908152604080832094871680845294825291829020805460ff191686151590811790915591519182527f17307eab39ab6107e8899845ad3d59bd9653f200f220920489ca2b5937696c31910160405180910390a3505050565b61292e8484846125f7565b61293a84848484612d07565b611cce5760405162461bcd60e51b8152600401610a5490613e3d565b6060600f805461093690613928565b6060600061297283612e08565b600101905060008167ffffffffffffffff811115612992576129926134fc565b6040519080825280601f01601f1916602001820160405280156129bc576020820181803683370190505b5090508181016020015b600019016f181899199a1a9b1b9c1cb0b131b232b360811b600a86061a8153600a85049450846129c657509392505050565b600a546001600160a01b03163314612a4b5760405162461bcd60e51b815260206004820152601660248201527527b7363c9031b0b63630b1363290313c9037bbb732b960511b6044820152606401610a54565b565b336001600160a01b03821603612aa55760405162461bcd60e51b815260206004820152601760248201527f43616e6e6f74207472616e7366657220746f2073656c660000000000000000006044820152606401610a54565b600b80546001600160a01b0319166001600160a01b03838116918217909255600a54604051919216907fed8889f560326eb138920d842192f0eb3dd22b4f139c87a2c57538e05bae127890600090a350565b60006001600160e01b031982166380ac58cd60e01b1480612b2857506001600160e01b03198216635b5e139f60e01b145b8061092157506301ffc9a760e01b6001600160e01b0319831614610921565b612b518383612ee0565b612b5e6000848484612d07565b610af55760405162461bcd60e51b8152600401610a5490613e3d565b612b848282611c57565b610eda57612b9181613079565b612b9c83602061308b565b604051602001612bad929190613e8f565b60408051601f198184030181529082905262461bcd60e51b8252610a549160040161348f565b6001811115612c425760405162461bcd60e51b815260206004820152603560248201527f455243373231456e756d657261626c653a20636f6e7365637574697665207472604482015274185b9cd9995c9cc81b9bdd081cdd5c1c1bdc9d1959605a1b6064820152608401610a54565b816001600160a01b038516612c9e57612c9981600880546000838152600960205260408120829055600182018355919091527ff3f7a9fe364faab93b216da50a3214154f22a0a2b415b23a84c8169e8b636ee30155565b612cc1565b836001600160a01b0316856001600160a01b031614612cc157612cc1858261322e565b6001600160a01b038416612cdd57612cd8816132cb565b612d00565b846001600160a01b0316846001600160a01b031614612d0057612d00848261337a565b5050505050565b60006001600160a01b0384163b15612dfd57604051630a85bd0160e11b81526001600160a01b0385169063150b7a0290612d4b903390899088908890600401613f04565b6020604051808303816000875af1925050508015612d86575060408051601f3d908101601f19168201909252612d8391810190613f41565b60015b612de3573d808015612db4576040519150601f19603f3d011682016040523d82523d6000602084013e612db9565b606091505b508051600003612ddb5760405162461bcd60e51b8152600401610a5490613e3d565b805181602001fd5b6001600160e01b031916630a85bd0160e11b149050611eb0565b506001949350505050565b60008072184f03e93ff9f4daa797ed6e38ed64bf6a1f0160401b8310612e475772184f03e93ff9f4daa797ed6e38ed64bf6a1f0160401b830492506040015b6d04ee2d6d415b85acef81000000008310612e73576d04ee2d6d415b85acef8100000000830492506020015b662386f26fc100008310612e9157662386f26fc10000830492506010015b6305f5e1008310612ea9576305f5e100830492506008015b6127108310612ebd57612710830492506004015b60648310612ecf576064830492506002015b600a83106109215760010192915050565b6001600160a01b038216612f365760405162461bcd60e51b815260206004820181905260248201527f4552433732313a206d696e7420746f20746865207a65726f20616464726573736044820152606401610a54565b6000818152600260205260409020546001600160a01b031615612f9b5760405162461bcd60e51b815260206004820152601c60248201527f4552433732313a20746f6b656e20616c7265616479206d696e746564000000006044820152606401610a54565b612fa9600083836001612bd3565b6000818152600260205260409020546001600160a01b03161561300e5760405162461bcd60e51b815260206004820152601c60248201527f4552433732313a20746f6b656e20616c7265616479206d696e746564000000006044820152606401610a54565b6001600160a01b038216600081815260036020908152604080832080546001019055848352600290915280822080546001600160a01b0319168417905551839291907fddf252ad1be2c89b69c2b068fc378daa952ba7f163c4a11628f55a4df523b3ef908290a45050565b60606109216001600160a01b03831660145b6060600061309a836002613dcd565b6130a5906002613978565b67ffffffffffffffff8111156130bd576130bd6134fc565b6040519080825280601f01601f1916602001820160405280156130e7576020820181803683370190505b509050600360fc1b8160008151811061310257613102613d49565b60200101906001600160f81b031916908160001a905350600f60fb1b8160018151811061313157613131613d49565b60200101906001600160f81b031916908160001a9053506000613155846002613dcd565b613160906001613978565b90505b60018111156131d8576f181899199a1a9b1b9c1cb0b131b232b360811b85600f166010811061319457613194613d49565b1a60f81b8282815181106131aa576131aa613d49565b60200101906001600160f81b031916908160001a90535060049490941c936131d181613f5e565b9050613163565b5083156132275760405162461bcd60e51b815260206004820181905260248201527f537472696e67733a20686578206c656e67746820696e73756666696369656e746044820152606401610a54565b9392505050565b6000600161323b846118eb565b6132459190613ce9565b600083815260076020526040902054909150808214613298576001600160a01b03841660009081526006602090815260408083208584528252808320548484528184208190558352600790915290208190555b5060009182526007602090815260408084208490556001600160a01b039094168352600681528383209183525290812055565b6008546000906132dd90600190613ce9565b6000838152600960205260408120546008805493945090928490811061330557613305613d49565b90600052602060002001549050806008838154811061332657613326613d49565b600091825260208083209091019290925582815260099091526040808220849055858252812055600880548061335e5761335e613f75565b6001900381819060005260206000200160009055905550505050565b6000613385836118eb565b6001600160a01b039093166000908152600660209081526040808320868452825280832085905593825260079052919091209190915550565b5080546133ca90613928565b6000825580601f106133da575050565b601f016020900490600052602060002090810190611eee91905b8082111561340857600081556001016133f4565b5090565b6001600160e01b031981168114611eee57600080fd5b60006020828403121561343457600080fd5b81356132278161340c565b60005b8381101561345a578181015183820152602001613442565b50506000910152565b6000815180845261347b81602086016020860161343f565b601f01601f19169290920160200192915050565b6020815260006132276020830184613463565b6000602082840312156134b457600080fd5b5035919050565b6001600160a01b0381168114611eee57600080fd5b600080604083850312156134e357600080fd5b82356134ee816134bb565b946020939093013593505050565b634e487b7160e01b600052604160045260246000fd5b604051610140810167ffffffffffffffff81118282101715613536576135366134fc565b60405290565b604051601f8201601f1916810167ffffffffffffffff81118282101715613565576135656134fc565b604052919050565b600067ffffffffffffffff821115613587576135876134fc565b50601f01601f191660200190565b60006135a86135a38461356d565b61353c565b90508281528383830111156135bc57600080fd5b828260208301376000602084830101529392505050565b600082601f8301126135e457600080fd5b61322783833560208501613595565b600080600080600060a0868803121561360b57600080fd5b8535613616816134bb565b94506020860135935060408601359250606086013567ffffffffffffffff81111561364057600080fd5b61364c888289016135d3565b95989497509295608001359392505050565b60006020828403121561367057600080fd5b8135613227816134bb565b6000806040838503121561368e57600080fd5b82359150602083013567ffffffffffffffff8111156136ac57600080fd5b6136b8858286016135d3565b9150509250929050565b6000806000604084860312156136d757600080fd5b83359250602084013567ffffffffffffffff808211156136f657600080fd5b818601915086601f83011261370a57600080fd5b81358181111561371957600080fd5b8760208260051b850101111561372e57600080fd5b6020830194508093505050509250925092565b60008060006060848603121561375657600080fd5b8335613761816134bb565b92506020840135613771816134bb565b929592945050506040919091013590565b6000806040838503121561379557600080fd5b8235915060208301356137a7816134bb565b809150509250929050565b6000602082840312156137c457600080fd5b813567ffffffffffffffff8111156137db57600080fd5b611eb0848285016135d3565b602081528151602082015260018060a01b03602083015116604082015260408201516060820152606082015115156080820152608082015160a0820152600060a083015160c080840152611eb060e0840182613463565b8015158114611eee57600080fd5b6000806040838503121561385f57600080fd5b823561386a816134bb565b915060208301356137a78161383e565b6000806000806080858703121561389057600080fd5b843561389b816134bb565b935060208501356138ab816134bb565b925060408501359150606085013567ffffffffffffffff8111156138ce57600080fd5b8501601f810187136138df57600080fd5b6138ee87823560208401613595565b91505092959194509250565b6000806040838503121561390d57600080fd5b8235613918816134bb565b915060208301356137a7816134bb565b600181811c9082168061393c57607f821691505b60208210810361395c57634e487b7160e01b600052602260045260246000fd5b50919050565b634e487b7160e01b600052601160045260246000fd5b8082018082111561092157610921613962565b600082601f83011261399c57600080fd5b81516139aa6135a38261356d565b8181528460208386010111156139bf57600080fd5b611eb082602083016020870161343f565b80516139db816134bb565b919050565b80516139db8161383e565b6000602082840312156139fd57600080fd5b815167ffffffffffffffff80821115613a1557600080fd5b908301906101408286031215613a2a57600080fd5b613a32613512565b825182811115613a4157600080fd5b613a4d8782860161398b565b825250602083015182811115613a6257600080fd5b613a6e8782860161398b565b602083015250613a80604084016139d0565b604082015260608301516060820152613a9b608084016139e0565b608082015260a083015160a082015260c083015160c082015260e083015160e08201526101008084015183811115613ad257600080fd5b613ade8882870161398b565b91830191909152506101209283015192810192909252509392505050565b634e487b7160e01b600052601260045260246000fd5b600082613b2157613b21613afc565b500690565b600060208284031215613b3857600080fd5b81516132278161383e565b601f821115610af557600081815260208120601f850160051c81016020861015613b6a5750805b601f850160051c820191505b8181101561129157828155600101613b76565b815167ffffffffffffffff811115613ba357613ba36134fc565b613bb781613bb18454613928565b84613b43565b602080601f831160018114613bec5760008415613bd45750858301515b600019600386901b1c1916600185901b178555611291565b600085815260208120601f198616915b82811015613c1b57888601518255948401946001909101908401613bfc565b5085821015613c395787850151600019600388901b60f8161c191681555b5050505050600190811b01905550565b8315158152826020820152606060408201526000613c6a6060830184613463565b95945050505050565b60208152815160208201526020820151604082015261ffff60408301511660608201526000606083015163ffffffff80821660808501528060808601511660a0850152505060a083015160c080840152611eb060e0840182613463565b600060208284031215613ce257600080fd5b5051919050565b8181038181111561092157610921613962565b6020808252602d908201527f4552433732313a2063616c6c6572206973206e6f7420746f6b656e206f776e6560408201526c1c881bdc88185c1c1c9bdd9959609a1b606082015260800190565b634e487b7160e01b600052603260045260246000fd5b60008351613d7181846020880161343f565b835190830190613d8581836020880161343f565b01949350505050565b60018060a01b038616815284602082015283604082015260a060608201526000613dbb60a0830185613463565b90508260808301529695505050505050565b808202811582820484141761092157610921613962565b600082613df357613df3613afc565b500490565b60208082526025908201527f4552433732313a207472616e736665722066726f6d20696e636f72726563742060408201526437bbb732b960d91b606082015260800190565b60208082526032908201527f4552433732313a207472616e7366657220746f206e6f6e20455243373231526560408201527131b2b4bb32b91034b6b83632b6b2b73a32b960711b606082015260800190565b7f416363657373436f6e74726f6c3a206163636f756e7420000000000000000000815260008351613ec781601785016020880161343f565b7001034b99036b4b9b9b4b733903937b6329607d1b6017918401918201528351613ef881602884016020880161343f565b01602801949350505050565b6001600160a01b0385811682528416602082015260408101839052608060608201819052600090613f3790830184613463565b9695505050505050565b600060208284031215613f5357600080fd5b81516132278161340c565b600081613f6d57613f6d613962565b506000190190565b634e487b7160e01b600052603160045260246000fdfea49807205ce4d355092ef5a8a18f56e8913cf4a201fbe287825b095693c21775a26469706673582212204a9ec7fbce279de417a535616fd84051f68d3dc79ff89e073b3b04af2188cb5b64736f6c63430008140033a49807205ce4d355092ef5a8a18f56e8913cf4a201fbe287825b095693c21775",
  "linkReferences": {},
  "deployedLinkReferences": {}
}