{
  "_format": "hh-sol-artifact-1",
  "contractName": "ScientificContentRegistry",
  "sourceName": "contracts/ScientificContentRegistry.sol",
  "abi": [
    {
      "inputs": [],
      "stateMutability": "nonpayable",
      "type": "constructor"
    },
    {
      "anonymous": false,
      "inputs": [
        {
          "indexed": true,
          "internalType": "address",
          "name": "author",
          "type": "address"
        }
      ],
      "name": "AuthorRemovedFromWhitelist",
      "type": "event"
    },
    {
      "anonymous": false,
      "inputs": [
        {
          "indexed": true,
          "internalType": "address",
          "name": "author",
          "type": "address"
        }
      ],
      "name": "AuthorWhitelisted",
      "type": "event"
    },
    {
      "anonymous": false,
      "inputs": [
        {
          "indexed": true,
          "internalType": "uint256",
          "name": "contentId",
          "type": "uint256"
        },
        {
          "indexed": true,
          "internalType": "address",
          "name": "author",
          "type": "address"
        },
        {
          "indexed": false,
          "internalType": "string",
          "name": "title",
          "type": "string"
        },
        {
          "indexed": false,
          "internalType": "bytes32",
          "name": "contentHash",
          "type": "bytes32"
        },
        {
          "indexed": false,
          "internalType": "uint256",
          "name": "maxCopies",
          "type": "uint256"
        },
        {
          "indexed": false,
          "internalType": "string",
          "name": "ipfsHash",
          "type": "string"
        },
        {
          "indexed": false,
          "internalType": "uint256",
          "name": "nftMintPrice",
          "type": "uint256"
        }
      ],
      "name": "ContentRegistered",
      "type": "event"
    },
    {
      "anonymous": false,
      "inputs": [
        {
          "indexed": true,
          "internalType": "uint256",
          "name": "contentId",
          "type": "uint256"
        },
        {
          "indexed": false,
          "internalType": "bool",
          "name": "isAvailable",
          "type": "bool"
        }
      ],
      "name": "ContentStatusChanged",
      "type": "event"
    },
    {
      "anonymous": false,
      "inputs": [
        {
          "indexed": true,
          "internalType": "uint256",
          "name": "contentId",
          "type": "uint256"
        },
        {
          "indexed": false,
          "internalType": "uint256",
          "name": "currentCopies",
          "type": "uint256"
        }
      ],
      "name": "CopyMinted",
      "type": "event"
    },
    {
      "anonymous": false,
      "inputs": [
        {
          "indexed": false,
          "internalType": "string",
          "name": "message",
          "type": "string"
        },
        {
          "indexed": false,
          "internalType": "uint256",
          "name": "id",
          "type": "uint256"
        },
        {
          "indexed": false,
          "internalType": "string",
          "name": "data",
          "type": "string"
        }
      ],
      "name": "DebugLog",
      "type": "event"
    },
    {
      "anonymous": false,
      "inputs": [
        {
          "indexed": true,
          "internalType": "address",
          "name": "nftContract",
          "type": "address"
        }
      ],
      "name": "NFTContractSet",
      "type": "event"
    },
    {
      "anonymous": false,
      "inputs": [
        {
          "indexed": true,
          "internalType": "bytes32",
          "name": "role",
          "type": "bytes32"
        },
        {
          "indexed": true,
          "internalType": "bytes32",
          "name": "previousAdminRole",
          "type": "bytes32"
        },
        {
          "indexed": true,
          "internalType": "bytes32",
          "name": "newAdminRole",
          "type": "bytes32"
        }
      ],
      "name": "RoleAdminChanged",
      "type": "event"
    },
    {
      "anonymous": false,
      "inputs": [
        {
          "indexed": true,
          "internalType": "bytes32",
          "name": "role",
          "type": "bytes32"
        },
        {
          "indexed": true,
          "internalType": "address",
          "name": "account",
          "type": "address"
        },
        {
          "indexed": true,
          "internalType": "address",
          "name": "sender",
          "type": "address"
        }
      ],
      "name": "RoleGranted",
      "type": "event"
    },
    {
      "anonymous": false,
      "inputs": [
        {
          "indexed": true,
          "internalType": "bytes32",
          "name": "role",
          "type": "bytes32"
        },
        {
          "indexed": true,
          "internalType": "address",
          "name": "account",
          "type": "address"
        },
        {
          "indexed": true,
          "internalType": "address",
          "name": "sender",
          "type": "address"
        }
      ],
      "name": "RoleRevoked",
      "type": "event"
    },
    {
      "inputs": [],
      "name": "ADMIN_ROLE",
      "outputs": [
        {
          "internalType": "bytes32",
          "name": "",
          "type": "bytes32"
        }
      ],
      "stateMutability": "view",
      "type": "function"
    },
    {
      "inputs": [],
      "name": "DEFAULT_ADMIN_ROLE",
      "outputs": [
        {
          "internalType": "bytes32",
          "name": "",
          "type": "bytes32"
        }
      ],
      "stateMutability": "view",
      "type": "function"
    },
    {
      "inputs": [
        {
          "internalType": "address",
          "name": "account",
          "type": "address"
        }
      ],
      "name": "addAdmin",
      "outputs": [],
      "stateMutability": "nonpayable",
      "type": "function"
    },
    {
      "inputs": [
        {
          "internalType": "address",
          "name": "_authorAddress",
          "type": "address"
        }
      ],
      "name": "addAuthorToWhitelist",
      "outputs": [],
      "stateMutability": "nonpayable",
      "type": "function"
    },
    {
      "inputs": [
        {
          "internalType": "uint256",
          "name": "contentId",
          "type": "uint256"
        }
      ],
      "name": "contentExists",
      "outputs": [
        {
          "internalType": "bool",
          "name": "",
          "type": "bool"
        }
      ],
      "stateMutability": "view",
      "type": "function"
    },
    {
      "inputs": [
        {
          "internalType": "uint256",
          "name": "contentId",
          "type": "uint256"
        }
      ],
      "name": "getAvailableCopies",
      "outputs": [
        {
          "internalType": "uint256",
          "name": "",
          "type": "uint256"
        }
      ],
      "stateMutability": "view",
      "type": "function"
    },
    {
      "inputs": [
        {
          "internalType": "uint256",
          "name": "contentId",
          "type": "uint256"
        }
      ],
      "name": "getContent",
      "outputs": [
        {
          "components": [
            {
              "internalType": "string",
              "name": "title",
              "type": "string"
            },
            {
              "internalType": "string",
              "name": "description",
              "type": "string"
            },
            {
              "internalType": "address",
              "name": "author",
              "type": "address"
            },
            {
              "internalType": "bytes32",
              "name": "contentHash",
              "type": "bytes32"
            },
            {
              "internalType": "bool",
              "name": "isAvailable",
              "type": "bool"
            },
            {
              "internalType": "uint256",
              "name": "registrationTime",
              "type": "uint256"
            },
            {
              "internalType": "uint256",
              "name": "maxCopies",
              "type": "uint256"
            },
            {
              "internalType": "uint256",
              "name": "mintedCopies",
              "type": "uint256"
            },
            {
              "internalType": "string",
              "name": "ipfsHash",
              "type": "string"
            },
            {
              "internalType": "uint256",
              "name": "nftMintPrice",
              "type": "uint256"
            }
          ],
          "internalType": "struct ScientificContentRegistry.Content",
          "name": "",
          "type": "tuple"
        }
      ],
      "stateMutability": "view",
      "type": "function"
    },
    {
      "inputs": [
        {
          "internalType": "bytes32",
          "name": "role",
          "type": "bytes32"
        }
      ],
      "name": "getRoleAdmin",
      "outputs": [
        {
          "internalType": "bytes32",
          "name": "",
          "type": "bytes32"
        }
      ],
      "stateMutability": "view",
      "type": "function"
    },
    {
      "inputs": [
        {
          "internalType": "bytes32",
          "name": "role",
          "type": "bytes32"
        },
        {
          "internalType": "address",
          "name": "account",
          "type": "address"
        }
      ],
      "name": "grantRole",
      "outputs": [],
      "stateMutability": "nonpayable",
      "type": "function"
    },
    {
      "inputs": [
        {
          "internalType": "bytes32",
          "name": "role",
          "type": "bytes32"
        },
        {
          "internalType": "address",
          "name": "account",
          "type": "address"
        }
      ],
      "name": "hasRole",
      "outputs": [
        {
          "internalType": "bool",
          "name": "",
          "type": "bool"
        }
      ],
      "stateMutability": "view",
      "type": "function"
    },
    {
      "inputs": [
        {
          "internalType": "uint256",
          "name": "contentId",
          "type": "uint256"
        }
      ],
      "name": "incrementMintedCopies",
      "outputs": [
        {
          "internalType": "bool",
          "name": "",
          "type": "bool"
        }
      ],
      "stateMutability": "nonpayable",
      "type": "function"
    },
    {
      "inputs": [
        {
          "internalType": "address",
          "name": "",
          "type": "address"
        }
      ],
      "name": "isAuthorWhitelisted",
      "outputs": [
        {
          "internalType": "bool",
          "name": "",
          "type": "bool"
        }
      ],
      "stateMutability": "view",
      "type": "function"
    },
    {
      "inputs": [],
      "name": "nextContentId",
      "outputs": [
        {
          "internalType": "uint256",
          "name": "",
          "type": "uint256"
        }
      ],
      "stateMutability": "view",
      "type": "function"
    },
    {
      "inputs": [],
      "name": "nftContract",
      "outputs": [
        {
          "internalType": "address",
          "name": "",
          "type": "address"
        }
      ],
      "stateMutability": "view",
      "type": "function"
    },
    {
      "inputs": [
        {
          "internalType": "string",
          "name": "title",
          "type": "string"
        },
        {
          "internalType": "string",
          "name": "description",
          "type": "string"
        },
        {
          "internalType": "uint256",
          "name": "maxCopies",
          "type": "uint256"
        },
        {
          "internalType": "string",
          "name": "_ipfsHash",
          "type": "string"
        },
        {
          "internalType": "uint256",
          "name": "_nftMintPrice",
          "type": "uint256"
        }
      ],
      "name": "registerContent",
      "outputs": [
        {
          "internalType": "uint256",
          "name": "",
          "type": "uint256"
        }
      ],
      "stateMutability": "nonpayable",
      "type": "function"
    },
    {
      "inputs": [
        {
          "internalType": "address",
          "name": "account",
          "type": "address"
        }
      ],
      "name": "removeAdmin",
      "outputs": [],
      "stateMutability": "nonpayable",
      "type": "function"
    },
    {
      "inputs": [
        {
          "internalType": "address",
          "name": "_authorAddress",
          "type": "address"
        }
      ],
      "name": "removeAuthorFromWhitelist",
      "outputs": [],
      "stateMutability": "nonpayable",
      "type": "function"
    },
    {
      "inputs": [
        {
          "internalType": "bytes32",
          "name": "role",
          "type": "bytes32"
        },
        {
          "internalType": "address",
          "name": "account",
          "type": "address"
        }
      ],
      "name": "renounceRole",
      "outputs": [],
      "stateMutability": "nonpayable",
      "type": "function"
    },
    {
      "inputs": [
        {
          "internalType": "bytes32",
          "name": "role",
          "type": "bytes32"
        },
        {
          "internalType": "address",
          "name": "account",
          "type": "address"
        }
      ],
      "name": "revokeRole",
      "outputs": [],
      "stateMutability": "nonpayable",
      "type": "function"
    },
    {
      "inputs": [
        {
          "internalType": "uint256",
          "name": "contentId",
          "type": "uint256"
        },
        {
          "internalType": "bool",
          "name": "isAvailable",
          "type": "bool"
        }
      ],
      "name": "setContentAvailability",
      "outputs": [],
      "stateMutability": "nonpayable",
      "type": "function"
    },
    {
      "inputs": [
        {
          "internalType": "address",
          "name": "_nftContract",
          "type": "address"
        }
      ],
      "name": "setNFTContract",
      "outputs": [],
      "stateMutability": "nonpayable",
      "type": "function"
    },
    {
      "inputs": [
        {
          "internalType": "bytes4",
          "name": "interfaceId",
          "type": "bytes4"
        }
      ],
      "name": "supportsInterface",
      "outputs": [
        {
          "internalType": "bool",
          "name": "",
          "type": "bool"
        }
      ],
      "stateMutability": "view",
      "type": "function"
    }
  ],
  "bytecode": "0x60806040523480156200001157600080fd5b506200002d6000805160206200214d833981519152336200008e565b620000486000805160206200214d833981519152806200012f565b33600081815260036020526040808220805460ff19166001179055517ffbd24f0be3d265c8891eaac4dda85369dae1a3a711fc34dc8e0ff319dc4c36239190a26200017a565b6000828152602081815260408083206001600160a01b038516845290915290205460ff166200012b576000828152602081815260408083206001600160a01b03851684529091529020805460ff19166001179055620000ea3390565b6001600160a01b0316816001600160a01b0316837f2f8788117e7eff1d82e926ec794901d17c78024a50270940304540a733656f0d60405160405180910390a45b5050565b600082815260208190526040808220600101805490849055905190918391839186917fbd79b86ffe0ab8e8776151514217cd7cacd52c909f66475c3af44e129f0b00ff9190a4505050565b611fc3806200018a6000396000f3fe608060405234801561001057600080fd5b50600436106101425760003560e01c806370480275116100b8578063a217fddf1161007c578063a217fddf146102c0578063a7ccabdf146102c8578063b4a5c7cf146102db578063d547741f146102ee578063d56d229d14610301578063ed4c205e1461032c57600080fd5b8063704802751461025f578063724121ae1461027257806375b238fc1461028557806391d148541461029a578063a1880b32146102ad57600080fd5b80631785f53c1161010a5780631785f53c146101cb578063248a9ca3146101e057806326bbc428146102035780632f2ff15d1461022657806336568abe1461023957806358f839421461024c57600080fd5b806301ffc9a7146101475780630a248d7f1461016f5780630b7ad54c14610185578063148bf7e6146101a5578063150ce28b146101b8575b600080fd5b61015a61015536600461179f565b61033f565b60405190151581526020015b60405180910390f35b610177610376565b604051908152602001610166565b6101986101933660046117c9565b61038c565b6040516101669190611832565b6101776101b33660046117c9565b61064c565b6101776101c63660046119a3565b6108b6565b6101de6101d9366004611a54565b610d01565b005b6101776101ee3660046117c9565b60009081526020819052604090206001015490565b61015a610211366004611a54565b60036020526000908152604090205460ff1681565b6101de610234366004611a6f565b610d35565b6101de610247366004611a6f565b610d5f565b6101de61025a366004611a54565b610dd9565b6101de61026d366004611a54565b610ecd565b61015a6102803660046117c9565b610efd565b610177600080516020611f6e83398151915281565b61015a6102a8366004611a6f565b610f12565b6101de6102bb366004611a54565b610f3b565b610177600081565b6101de6102d6366004611a54565b611024565b61015a6102e93660046117c9565b611106565b6101de6102fc366004611a6f565b6112ce565b600554610314906001600160a01b031681565b6040516001600160a01b039091168152602001610166565b6101de61033a366004611a9b565b6112f3565b60006001600160e01b03198216637965db0b60e01b148061037057506301ffc9a760e01b6001600160e01b03198316145b92915050565b600060045460016103879190611ae6565b905090565b6103f0604051806101400160405280606081526020016060815260200160006001600160a01b031681526020016000801916815260200160001515815260200160008152602001600081526020016000815260200160608152602001600081525090565b6103f982610efd565b61041e5760405162461bcd60e51b815260040161041590611af9565b60405180910390fd5b600082815260016020526040908190208151610140810190925280548290829061044790611b29565b80601f016020809104026020016040519081016040528092919081815260200182805461047390611b29565b80156104c05780601f10610495576101008083540402835291602001916104c0565b820191906000526020600020905b8154815290600101906020018083116104a357829003601f168201915b505050505081526020016001820180546104d990611b29565b80601f016020809104026020016040519081016040528092919081815260200182805461050590611b29565b80156105525780601f1061052757610100808354040283529160200191610552565b820191906000526020600020905b81548152906001019060200180831161053557829003601f168201915b505050918352505060028201546001600160a01b0316602082015260038201546040820152600482015460ff161515606082015260058201546080820152600682015460a0820152600782015460c082015260088201805460e0909201916105b990611b29565b80601f01602080910402602001604051908101604052809291908181526020018280546105e590611b29565b80156106325780601f1061060757610100808354040283529160200191610632565b820191906000526020600020905b81548152906001019060200180831161061557829003601f168201915b505050505081526020016009820154815250509050919050565b600061065782610efd565b6106735760405162461bcd60e51b815260040161041590611af9565b6000828152600160205260408082208151610140810190925280548290829061069b90611b29565b80601f01602080910402602001604051908101604052809291908181526020018280546106c790611b29565b80156107145780601f106106e957610100808354040283529160200191610714565b820191906000526020600020905b8154815290600101906020018083116106f757829003601f168201915b5050505050815260200160018201805461072d90611b29565b80601f016020809104026020016040519081016040528092919081815260200182805461075990611b29565b80156107a65780601f1061077b576101008083540402835291602001916107a6565b820191906000526020600020905b81548152906001019060200180831161078957829003601f168201915b505050918352505060028201546001600160a01b0316602082015260038201546040820152600482015460ff161515606082015260058201546080820152600682015460a0820152600782015460c082015260088201805460e09092019161080d90611b29565b80601f016020809104026020016040519081016040528092919081815260200182805461083990611b29565b80156108865780601f1061085b57610100808354040283529160200191610886565b820191906000526020600020905b81548152906001019060200180831161086957829003601f168201915b5050505050815260200160098201548152505090508060e001518160c001516108af9190611b63565b9392505050565b3360009081526003602052604081205460ff1661090e5760405162461bcd60e51b8152602060048201526016602482015275105d5d1a1bdc881b9bdd081dda1a5d195b1a5cdd195960521b6044820152606401610415565b60008651116109575760405162461bcd60e51b81526020600482015260156024820152745469746c652063616e6e6f7420626520656d70747960581b6044820152606401610415565b60008551116109a85760405162461bcd60e51b815260206004820152601b60248201527f4465736372697074696f6e2063616e6e6f7420626520656d70747900000000006044820152606401610415565b600084116109f85760405162461bcd60e51b815260206004820152601c60248201527f4d75737420616c6c6f77206174206c65617374206f6e6520636f7079000000006044820152606401610415565b6000835111610a495760405162461bcd60e51b815260206004820152601960248201527f4950465320686173682063616e6e6f7420626520656d707479000000000000006044820152606401610415565b60008211610aaa5760405162461bcd60e51b815260206004820152602860248201527f4e4654206d696e74207072696365206d7573742062652067726561746572207460448201526768616e207a65726f60c01b6064820152608401610415565b6000868633604051602001610ac193929190611b76565b60408051601f1981840301815291815281516020928301206000818152600290935291205490915060ff1615610b395760405162461bcd60e51b815260206004820152601a60248201527f436f6e74656e7420616c726561647920726567697374657265640000000000006044820152606401610415565b60048054906000610b4983611bc1565b9091555050604080516101408101825288815260208082018990523382840152606082018490526001608083018190524260a084015260c08301899052600060e0840181905261010084018990526101208401889052600454815291529190912081518190610bb89082611c28565b5060208201516001820190610bcd9082611c28565b5060408201516002820180546001600160a01b0319166001600160a01b0390921691909117905560608201516003820155608082015160048201805460ff191691151591909117905560a0820151600582015560c0820151600682015560e082015160078201556101008201516008820190610c499082611c28565b50610120919091015160099091015560008181526002602052604090819020805460ff1916600117905560045490513391907fb3fb1534604fd9d4678cce38f4708f0b6725d2692cbfb2af0e493612a78944dc90610cb0908b9086908b908b908b90611ce8565b60405180910390a37f099462b0f343b9a6ebddfc9ac5ec84952a627782b34f753697974b390e55020560045488604051610ceb929190611d2c565b60405180910390a1505060045495945050505050565b600080516020611f6e833981519152610d19816114a2565b610d31600080516020611f6e833981519152836112ce565b5050565b600082815260208190526040902060010154610d50816114a2565b610d5a83836114af565b505050565b6001600160a01b0381163314610dcf5760405162461bcd60e51b815260206004820152602f60248201527f416363657373436f6e74726f6c3a2063616e206f6e6c792072656e6f756e636560448201526e103937b632b9903337b91039b2b63360891b6064820152608401610415565b610d318282611533565b600080516020611f6e833981519152610df1816114a2565b6001600160a01b038216610e175760405162461bcd60e51b815260040161041590611d76565b6001600160a01b03821660009081526003602052604090205460ff1615610e805760405162461bcd60e51b815260206004820152601a60248201527f417574686f7220616c72656164792077686974656c69737465640000000000006044820152606401610415565b6001600160a01b038216600081815260036020526040808220805460ff19166001179055517ffbd24f0be3d265c8891eaac4dda85369dae1a3a711fc34dc8e0ff319dc4c36239190a25050565b600080516020611f6e833981519152610ee5816114a2565b610d31600080516020611f6e83398151915283610d35565b60008082118015610370575050600454101590565b6000918252602082815260408084206001600160a01b0393909316845291905290205460ff1690565b600080516020611f6e833981519152610f53816114a2565b6001600160a01b038216610f795760405162461bcd60e51b815260040161041590611d76565b6001600160a01b03821660009081526003602052604090205460ff16610fda5760405162461bcd60e51b8152602060048201526016602482015275105d5d1a1bdc881b9bdd081dda1a5d195b1a5cdd195960521b6044820152606401610415565b6001600160a01b038216600081815260036020526040808220805460ff19169055517fcea8384ad85dd20fce2a7988b253ee2b6834c1234d62d2c61ad6ff6ab35d07a09190a25050565b600080516020611f6e83398151915261103c816114a2565b6001600160a01b0382166110625760405162461bcd60e51b815260040161041590611d76565b6005546001600160a01b0316156110bb5760405162461bcd60e51b815260206004820152601860248201527f4e465420636f6e747261637420616c72656164792073657400000000000000006044820152606401610415565b600580546001600160a01b0319166001600160a01b0384169081179091556040517f5a6a54be6929433a25d1b5103e7dea8d9440b7903216e380344a320ca1cdd85f90600090a25050565b6005546000906001600160a01b031633146111635760405162461bcd60e51b815260206004820152601c60248201527f4f6e6c79204e465420636f6e74726163742063616e206d6f64696679000000006044820152606401610415565b61116c82610efd565b6111885760405162461bcd60e51b815260040161041590611af9565b600082815260016020526040902060068101546007820154106111e25760405162461bcd60e51b815260206004820152601260248201527113585e0818dbdc1a595cc81c995858da195960721b6044820152606401610415565b6007810180549060006111f483611bc1565b9190505550827f24f887ec780fb0ce30a0fc3f106ced759023555d2815be10bd7078f00b748dc1826007015460405161122f91815260200190565b60405180910390a26040517f099462b0f343b9a6ebddfc9ac5ec84952a627782b34f753697974b390e550205906112699085908490611d9f565b60405180910390a180600601548160070154106112c35760048101805460ff191690556040516000815283907f308f248530f3edb6a647f6ce9f3bb532da11696086edcee1a05e1e434d7a85139060200160405180910390a25b60019150505b919050565b6000828152602081905260409020600101546112e9816114a2565b610d5a8383611533565b6005546001600160a01b0316331461134d5760405162461bcd60e51b815260206004820152601c60248201527f4f6e6c79204e465420636f6e74726163742063616e206d6f64696679000000006044820152606401610415565b61135682610efd565b6113725760405162461bcd60e51b815260040161041590611af9565b600082815260016020526040902060068101546007820154106113cc5760405162461bcd60e51b815260206004820152601260248201527113585e0818dbdc1a595cc81c995858da195960721b6044820152606401610415565b60048101805460ff191683151590811790915560405190815283907f308f248530f3edb6a647f6ce9f3bb532da11696086edcee1a05e1e434d7a85139060200160405180910390a27f099462b0f343b9a6ebddfc9ac5ec84952a627782b34f753697974b390e5502058383611464576040518060400160405280600b81526020016a556e617661696c61626c6560a81b815250611487565b60405180604001604052806009815260200168417661696c61626c6560b81b8152505b604051611495929190611e54565b60405180910390a1505050565b6114ac8133611598565b50565b6114b98282610f12565b610d31576000828152602081815260408083206001600160a01b03851684529091529020805460ff191660011790556114ef3390565b6001600160a01b0316816001600160a01b0316837f2f8788117e7eff1d82e926ec794901d17c78024a50270940304540a733656f0d60405160405180910390a45050565b61153d8282610f12565b15610d31576000828152602081815260408083206001600160a01b0385168085529252808320805460ff1916905551339285917ff6391f5c32d9c69d2a47ea670b442974b53935d1edc7fd64eb21e047a839171b9190a45050565b6115a28282610f12565b610d31576115af816115f1565b6115ba836020611603565b6040516020016115cb929190611ea1565b60408051601f198184030181529082905262461bcd60e51b825261041591600401611f16565b60606103706001600160a01b03831660145b60606000611612836002611f29565b61161d906002611ae6565b67ffffffffffffffff81111561163557611635611900565b6040519080825280601f01601f19166020018201604052801561165f576020820181803683370190505b509050600360fc1b8160008151811061167a5761167a611f40565b60200101906001600160f81b031916908160001a905350600f60fb1b816001815181106116a9576116a9611f40565b60200101906001600160f81b031916908160001a90535060006116cd846002611f29565b6116d8906001611ae6565b90505b6001811115611750576f181899199a1a9b1b9c1cb0b131b232b360811b85600f166010811061170c5761170c611f40565b1a60f81b82828151811061172257611722611f40565b60200101906001600160f81b031916908160001a90535060049490941c9361174981611f56565b90506116db565b5083156108af5760405162461bcd60e51b815260206004820181905260248201527f537472696e67733a20686578206c656e67746820696e73756666696369656e746044820152606401610415565b6000602082840312156117b157600080fd5b81356001600160e01b0319811681146108af57600080fd5b6000602082840312156117db57600080fd5b5035919050565b60005b838110156117fd5781810151838201526020016117e5565b50506000910152565b6000815180845261181e8160208601602086016117e2565b601f01601f19169290920160200192915050565b6020815260008251610140806020850152611851610160850183611806565b91506020850151601f198086850301604087015261186f8483611806565b93506040870151915061188d60608701836001600160a01b03169052565b60608701516080870152608087015191506118ac60a087018315159052565b60a087015160c087015260c087015160e087015260e087015191506101008281880152808801519250506101208187860301818801526118ec8584611806565b970151959092019490945250929392505050565b634e487b7160e01b600052604160045260246000fd5b600082601f83011261192757600080fd5b813567ffffffffffffffff8082111561194257611942611900565b604051601f8301601f19908116603f0116810190828211818310171561196a5761196a611900565b8160405283815286602085880101111561198357600080fd5b836020870160208301376000602085830101528094505050505092915050565b600080600080600060a086880312156119bb57600080fd5b853567ffffffffffffffff808211156119d357600080fd5b6119df89838a01611916565b965060208801359150808211156119f557600080fd5b611a0189838a01611916565b9550604088013594506060880135915080821115611a1e57600080fd5b50611a2b88828901611916565b95989497509295608001359392505050565b80356001600160a01b03811681146112c957600080fd5b600060208284031215611a6657600080fd5b6108af82611a3d565b60008060408385031215611a8257600080fd5b82359150611a9260208401611a3d565b90509250929050565b60008060408385031215611aae57600080fd5b8235915060208301358015158114611ac557600080fd5b809150509250929050565b634e487b7160e01b600052601160045260246000fd5b8082018082111561037057610370611ad0565b60208082526016908201527510dbdb9d195b9d08191bd95cc81b9bdd08195e1a5cdd60521b604082015260600190565b600181811c90821680611b3d57607f821691505b602082108103611b5d57634e487b7160e01b600052602260045260246000fd5b50919050565b8181038181111561037057610370611ad0565b60008451611b888184602089016117e2565b845190830190611b9c8183602089016117e2565b60609490941b6bffffffffffffffffffffffff19169301928352505060140192915050565b600060018201611bd357611bd3611ad0565b5060010190565b601f821115610d5a57600081815260208120601f850160051c81016020861015611c015750805b601f850160051c820191505b81811015611c2057828155600101611c0d565b505050505050565b815167ffffffffffffffff811115611c4257611c42611900565b611c5681611c508454611b29565b84611bda565b602080601f831160018114611c8b5760008415611c735750858301515b600019600386901b1c1916600185901b178555611c20565b600085815260208120601f198616915b82811015611cba57888601518255948401946001909101908401611c9b565b5085821015611cd85787850151600019600388901b60f8161c191681555b5050505050600190811b01905550565b60a081526000611cfb60a0830188611806565b8660208401528560408401528281036060840152611d198186611806565b9150508260808301529695505050505050565b60608152601260608201527110dbdb9d195b9d081c9959da5cdd195c995960721b608082015282602082015260a060408201526000611d6e60a0830184611806565b949350505050565b6020808252600f908201526e496e76616c6964206164647265737360881b604082015260600190565b60608152600b60608201526a10dbdc1e481b5a5b9d195960aa1b608082015260006020848184015260a0604084015260008454611ddb81611b29565b8060a087015260c0600180841660008114611dfd5760018114611e1757611e45565b60ff1985168984015283151560051b890183019550611e45565b896000528660002060005b85811015611e3d5781548b8201860152908301908801611e22565b8a0184019650505b50939998505050505050505050565b60608152601c60608201527f436f6e74656e7420617661696c6162696c697479206368616e67656400000000608082015282602082015260a060408201526000611d6e60a0830184611806565b7f416363657373436f6e74726f6c3a206163636f756e7420000000000000000000815260008351611ed98160178501602088016117e2565b7001034b99036b4b9b9b4b733903937b6329607d1b6017918401918201528351611f0a8160288401602088016117e2565b01602801949350505050565b6020815260006108af6020830184611806565b808202811582820484141761037057610370611ad0565b634e487b7160e01b600052603260045260246000fd5b600081611f6557611f65611ad0565b50600019019056fea49807205ce4d355092ef5a8a18f56e8913cf4a201fbe287825b095693c21775a26469706673582212209eb510fe8490abe8ec27d068f0639b22e8c8d7f216b9475a2b8208cf109f9ad364736f6c63430008140033a49807205ce4d355092ef5a8a18f56e8913cf4a201fbe287825b095693c21775",
  "linkReferences": {},
  "deployedLinkReferences": {}
}