{
  "_format": "hh-sol-artifact-1",
  "contractName": "ScientificContentRegistry",
  "sourceName": "contracts/ScientificContentRegistry.sol",
  "abi": [
    {
      "anonymous": false,
      "inputs": [
        {
          "indexed": true,
          "internalType": "uint256",
          "name": "contentId",
          "type": "uint256"
        },
        {
          "indexed": true,
          "internalType": "address",
          "name": "author",
          "type": "address"
        },
        {
          "indexed": false,
          "internalType": "string",
          "name": "title",
          "type": "string"
        },
        {
          "indexed": false,
          "internalType": "bytes32",
          "name": "contentHash",
          "type": "bytes32"
        },
        {
          "indexed": false,
          "internalType": "uint256",
          "name": "maxCopies",
          "type": "uint256"
        }
      ],
      "name": "ContentRegistered",
      "type": "event"
    },
    {
      "anonymous": false,
      "inputs": [
        {
          "indexed": true,
          "internalType": "uint256",
          "name": "contentId",
          "type": "uint256"
        },
        {
          "indexed": false,
          "internalType": "bool",
          "name": "isAvailable",
          "type": "bool"
        }
      ],
      "name": "ContentStatusChanged",
      "type": "event"
    },
    {
      "anonymous": false,
      "inputs": [
        {
          "indexed": true,
          "internalType": "uint256",
          "name": "contentId",
          "type": "uint256"
        },
        {
          "indexed": false,
          "internalType": "uint256",
          "name": "currentCopies",
          "type": "uint256"
        }
      ],
      "name": "CopyMinted",
      "type": "event"
    },
    {
      "anonymous": false,
      "inputs": [
        {
          "indexed": false,
          "internalType": "string",
          "name": "message",
          "type": "string"
        },
        {
          "indexed": false,
          "internalType": "uint256",
          "name": "id",
          "type": "uint256"
        },
        {
          "indexed": false,
          "internalType": "string",
          "name": "data",
          "type": "string"
        }
      ],
      "name": "DebugLog",
      "type": "event"
    },
    {
      "anonymous": false,
      "inputs": [
        {
          "indexed": true,
          "internalType": "address",
          "name": "nftContract",
          "type": "address"
        }
      ],
      "name": "NFTContractSet",
      "type": "event"
    },
    {
      "anonymous": false,
      "inputs": [
        {
          "indexed": true,
          "internalType": "address",
          "name": "previousOwner",
          "type": "address"
        },
        {
          "indexed": true,
          "internalType": "address",
          "name": "newOwner",
          "type": "address"
        }
      ],
      "name": "OwnershipTransferred",
      "type": "event"
    },
    {
      "inputs": [
        {
          "internalType": "uint256",
          "name": "contentId",
          "type": "uint256"
        }
      ],
      "name": "contentExists",
      "outputs": [
        {
          "internalType": "bool",
          "name": "",
          "type": "bool"
        }
      ],
      "stateMutability": "view",
      "type": "function"
    },
    {
      "inputs": [
        {
          "internalType": "uint256",
          "name": "contentId",
          "type": "uint256"
        }
      ],
      "name": "getAvailableCopies",
      "outputs": [
        {
          "internalType": "uint256",
          "name": "",
          "type": "uint256"
        }
      ],
      "stateMutability": "view",
      "type": "function"
    },
    {
      "inputs": [
        {
          "internalType": "uint256",
          "name": "contentId",
          "type": "uint256"
        }
      ],
      "name": "getContent",
      "outputs": [
        {
          "components": [
            {
              "internalType": "string",
              "name": "title",
              "type": "string"
            },
            {
              "internalType": "string",
              "name": "description",
              "type": "string"
            },
            {
              "internalType": "address",
              "name": "author",
              "type": "address"
            },
            {
              "internalType": "bytes32",
              "name": "contentHash",
              "type": "bytes32"
            },
            {
              "internalType": "bool",
              "name": "isAvailable",
              "type": "bool"
            },
            {
              "internalType": "uint256",
              "name": "registrationTime",
              "type": "uint256"
            },
            {
              "internalType": "uint256",
              "name": "maxCopies",
              "type": "uint256"
            },
            {
              "internalType": "uint256",
              "name": "mintedCopies",
              "type": "uint256"
            }
          ],
          "internalType": "struct ScientificContentRegistry.Content",
          "name": "",
          "type": "tuple"
        }
      ],
      "stateMutability": "view",
      "type": "function"
    },
    {
      "inputs": [
        {
          "internalType": "uint256",
          "name": "contentId",
          "type": "uint256"
        }
      ],
      "name": "incrementMintedCopies",
      "outputs": [
        {
          "internalType": "bool",
          "name": "",
          "type": "bool"
        }
      ],
      "stateMutability": "nonpayable",
      "type": "function"
    },
    {
      "inputs": [],
      "name": "nftContract",
      "outputs": [
        {
          "internalType": "address",
          "name": "",
          "type": "address"
        }
      ],
      "stateMutability": "view",
      "type": "function"
    },
    {
      "inputs": [],
      "name": "owner",
      "outputs": [
        {
          "internalType": "address",
          "name": "",
          "type": "address"
        }
      ],
      "stateMutability": "view",
      "type": "function"
    },
    {
      "inputs": [
        {
          "internalType": "string",
          "name": "title",
          "type": "string"
        },
        {
          "internalType": "string",
          "name": "description",
          "type": "string"
        },
        {
          "internalType": "uint256",
          "name": "maxCopies",
          "type": "uint256"
        }
      ],
      "name": "registerContent",
      "outputs": [
        {
          "internalType": "uint256",
          "name": "",
          "type": "uint256"
        }
      ],
      "stateMutability": "nonpayable",
      "type": "function"
    },
    {
      "inputs": [],
      "name": "renounceOwnership",
      "outputs": [],
      "stateMutability": "nonpayable",
      "type": "function"
    },
    {
      "inputs": [
        {
          "internalType": "uint256",
          "name": "contentId",
          "type": "uint256"
        },
        {
          "internalType": "bool",
          "name": "isAvailable",
          "type": "bool"
        }
      ],
      "name": "setContentAvailability",
      "outputs": [],
      "stateMutability": "nonpayable",
      "type": "function"
    },
    {
      "inputs": [
        {
          "internalType": "address",
          "name": "_nftContract",
          "type": "address"
        }
      ],
      "name": "setNFTContract",
      "outputs": [],
      "stateMutability": "nonpayable",
      "type": "function"
    },
    {
      "inputs": [
        {
          "internalType": "address",
          "name": "newOwner",
          "type": "address"
        }
      ],
      "name": "transferOwnership",
      "outputs": [],
      "stateMutability": "nonpayable",
      "type": "function"
    }
  ],
  "bytecode": "0x608060405234801561001057600080fd5b5061001a3361001f565b61006f565b600080546001600160a01b038381166001600160a01b0319831681178455604051919092169283917f8be0079c531659141344cd1fd0a4f28419497f9722a3daafe3b4186f6b6457e09190a35050565b61147c8061007e6000396000f3fe608060405234801561001057600080fd5b50600436106100a95760003560e01c80638da5cb5b116100715780638da5cb5b14610138578063a7ccabdf1461015d578063b4a5c7cf14610170578063d56d229d14610183578063ed4c205e14610196578063f2fde38b146101a957600080fd5b80630b7ad54c146100ae578063148bf7e6146100d75780632bbf7cf5146100f8578063715018a61461010b578063724121ae14610115575b600080fd5b6100c16100bc366004610e61565b6101bc565b6040516100ce9190610eca565b60405180910390f35b6100ea6100e5366004610e61565b6103ce565b6040519081526020016100ce565b6100ea610106366004611004565b610598565b6101136108a9565b005b610128610123366004610e61565b6108bd565b60405190151581526020016100ce565b6000546001600160a01b03165b6040516001600160a01b0390911681526020016100ce565b61011361016b366004611071565b6108d6565b61012861017e366004610e61565b6109c9565b600454610145906001600160a01b031681565b6101136101a436600461109a565b610b8f565b6101136101b7366004611071565b610d3e565b610212604051806101000160405280606081526020016060815260200160006001600160a01b03168152602001600080191681526020016000151581526020016000815260200160008152602001600081525090565b61021b826108bd565b6102405760405162461bcd60e51b8152600401610237906110cf565b60405180910390fd5b6000828152600160205260409081902081516101008101909252805482908290610269906110ff565b80601f0160208091040260200160405190810160405280929190818152602001828054610295906110ff565b80156102e25780601f106102b7576101008083540402835291602001916102e2565b820191906000526020600020905b8154815290600101906020018083116102c557829003601f168201915b505050505081526020016001820180546102fb906110ff565b80601f0160208091040260200160405190810160405280929190818152602001828054610327906110ff565b80156103745780601f1061034957610100808354040283529160200191610374565b820191906000526020600020905b81548152906001019060200180831161035757829003601f168201915b505050918352505060028201546001600160a01b0316602082015260038201546040820152600482015460ff161515606082015260058201546080820152600682015460a082015260079091015460c09091015292915050565b60006103d9826108bd565b6103f55760405162461bcd60e51b8152600401610237906110cf565b6000828152600160205260408082208151610100810190925280548290829061041d906110ff565b80601f0160208091040260200160405190810160405280929190818152602001828054610449906110ff565b80156104965780601f1061046b57610100808354040283529160200191610496565b820191906000526020600020905b81548152906001019060200180831161047957829003601f168201915b505050505081526020016001820180546104af906110ff565b80601f01602080910402602001604051908101604052809291908181526020018280546104db906110ff565b80156105285780601f106104fd57610100808354040283529160200191610528565b820191906000526020600020905b81548152906001019060200180831161050b57829003601f168201915b505050918352505060028201546001600160a01b0316602082015260038201546040820152600482015460ff161515606082015260058201546080820152600682015460a082015260079091015460c09182015260e0820151908201519192506105919161114f565b9392505050565b6000808451116105e25760405162461bcd60e51b81526020600482015260156024820152745469746c652063616e6e6f7420626520656d70747960581b6044820152606401610237565b60008351116106335760405162461bcd60e51b815260206004820152601b60248201527f4465736372697074696f6e2063616e6e6f7420626520656d70747900000000006044820152606401610237565b600082116106835760405162461bcd60e51b815260206004820152601c60248201527f4d75737420616c6c6f77206174206c65617374206f6e6520636f7079000000006044820152606401610237565b600084843360405160200161069a93929190611162565b60408051601f1981840301815291815281516020928301206000818152600290935291205490915060ff16156107125760405162461bcd60e51b815260206004820152601a60248201527f436f6e74656e7420616c726561647920726567697374657265640000000000006044820152606401610237565b60038054906000610722836111ad565b9091555050604080516101008101825286815260208082018790523382840152606082018490526001608083018190524260a084015260c08301879052600060e084018190526003548152915291909120815181906107819082611215565b50602082015160018201906107969082611215565b50604082810151600280840180546001600160a01b039093166001600160a01b0319909316929092179091556060840151600380850191909155608085015160048501805491151560ff1992831617905560a0860151600586015560c0860151600686015560e090950151600790940193909355600085815260209190915281902080549093166001179092555490513391907fc8245040d4556f447e1b15838b10c41bbfb809be098c8b3a582a514a2ba81bc39061085a908990869089906112d5565b60405180910390a37f099462b0f343b9a6ebddfc9ac5ec84952a627782b34f753697974b390e550205600354866040516108959291906112fa565b60405180910390a150506003549392505050565b6108b1610db7565b6108bb6000610e11565b565b600080821180156108d057506003548211155b92915050565b6108de610db7565b6001600160a01b0381166109265760405162461bcd60e51b815260206004820152600f60248201526e496e76616c6964206164647265737360881b6044820152606401610237565b6004546001600160a01b03161561097f5760405162461bcd60e51b815260206004820152601860248201527f4e465420636f6e747261637420616c72656164792073657400000000000000006044820152606401610237565b600480546001600160a01b0319166001600160a01b0383169081179091556040517f5a6a54be6929433a25d1b5103e7dea8d9440b7903216e380344a320ca1cdd85f90600090a250565b6004546000906001600160a01b03163314610a265760405162461bcd60e51b815260206004820152601c60248201527f4f6e6c79204e465420636f6e74726163742063616e206d6f64696679000000006044820152606401610237565b610a2f826108bd565b610a4b5760405162461bcd60e51b8152600401610237906110cf565b60008281526001602052604090206006810154600782015410610aa55760405162461bcd60e51b815260206004820152601260248201527113585e0818dbdc1a595cc81c995858da195960721b6044820152606401610237565b600781018054906000610ab7836111ad565b9190505550827f24f887ec780fb0ce30a0fc3f106ced759023555d2815be10bd7078f00b748dc18260070154604051610af291815260200190565b60405180910390a26040517f099462b0f343b9a6ebddfc9ac5ec84952a627782b34f753697974b390e55020590610b2c9085908490611344565b60405180910390a18060060154816007015410610b865760048101805460ff191690556040516000815283907f308f248530f3edb6a647f6ce9f3bb532da11696086edcee1a05e1e434d7a85139060200160405180910390a25b50600192915050565b6004546001600160a01b03163314610be95760405162461bcd60e51b815260206004820152601c60248201527f4f6e6c79204e465420636f6e74726163742063616e206d6f64696679000000006044820152606401610237565b610bf2826108bd565b610c0e5760405162461bcd60e51b8152600401610237906110cf565b60008281526001602052604090206006810154600782015410610c685760405162461bcd60e51b815260206004820152601260248201527113585e0818dbdc1a595cc81c995858da195960721b6044820152606401610237565b60048101805460ff191683151590811790915560405190815283907f308f248530f3edb6a647f6ce9f3bb532da11696086edcee1a05e1e434d7a85139060200160405180910390a27f099462b0f343b9a6ebddfc9ac5ec84952a627782b34f753697974b390e5502058383610d00576040518060400160405280600b81526020016a556e617661696c61626c6560a81b815250610d23565b60405180604001604052806009815260200168417661696c61626c6560b81b8152505b604051610d319291906113f9565b60405180910390a1505050565b610d46610db7565b6001600160a01b038116610dab5760405162461bcd60e51b815260206004820152602660248201527f4f776e61626c653a206e6577206f776e657220697320746865207a65726f206160448201526564647265737360d01b6064820152608401610237565b610db481610e11565b50565b6000546001600160a01b031633146108bb5760405162461bcd60e51b815260206004820181905260248201527f4f776e61626c653a2063616c6c6572206973206e6f7420746865206f776e65726044820152606401610237565b600080546001600160a01b038381166001600160a01b0319831681178455604051919092169283917f8be0079c531659141344cd1fd0a4f28419497f9722a3daafe3b4186f6b6457e09190a35050565b600060208284031215610e7357600080fd5b5035919050565b60005b83811015610e95578181015183820152602001610e7d565b50506000910152565b60008151808452610eb6816020860160208601610e7a565b601f01601f19169290920160200192915050565b6020815260008251610100806020850152610ee9610120850183610e9e565b91506020850151601f19858403016040860152610f068382610e9e565b92505060018060a01b036040860151166060850152606085015160808501526080850151610f3860a086018215159052565b5060a085015160c085015260c085015160e085015260e085015181850152508091505092915050565b634e487b7160e01b600052604160045260246000fd5b600082601f830112610f8857600080fd5b813567ffffffffffffffff80821115610fa357610fa3610f61565b604051601f8301601f19908116603f01168101908282118183101715610fcb57610fcb610f61565b81604052838152866020858801011115610fe457600080fd5b836020870160208301376000602085830101528094505050505092915050565b60008060006060848603121561101957600080fd5b833567ffffffffffffffff8082111561103157600080fd5b61103d87838801610f77565b9450602086013591508082111561105357600080fd5b5061106086828701610f77565b925050604084013590509250925092565b60006020828403121561108357600080fd5b81356001600160a01b038116811461059157600080fd5b600080604083850312156110ad57600080fd5b82359150602083013580151581146110c457600080fd5b809150509250929050565b60208082526016908201527510dbdb9d195b9d08191bd95cc81b9bdd08195e1a5cdd60521b604082015260600190565b600181811c9082168061111357607f821691505b60208210810361113357634e487b7160e01b600052602260045260246000fd5b50919050565b634e487b7160e01b600052601160045260246000fd5b818103818111156108d0576108d0611139565b60008451611174818460208901610e7a565b845190830190611188818360208901610e7a565b60609490941b6bffffffffffffffffffffffff19169301928352505060140192915050565b6000600182016111bf576111bf611139565b5060010190565b601f82111561121057600081815260208120601f850160051c810160208610156111ed5750805b601f850160051c820191505b8181101561120c578281556001016111f9565b5050505b505050565b815167ffffffffffffffff81111561122f5761122f610f61565b6112438161123d84546110ff565b846111c6565b602080601f83116001811461127857600084156112605750858301515b600019600386901b1c1916600185901b17855561120c565b600085815260208120601f198616915b828110156112a757888601518255948401946001909101908401611288565b50858210156112c55787850151600019600388901b60f8161c191681555b5050505050600190811b01905550565b6060815260006112e86060830186610e9e565b60208301949094525060400152919050565b60608152601260608201527110dbdb9d195b9d081c9959da5cdd195c995960721b608082015282602082015260a06040820152600061133c60a0830184610e9e565b949350505050565b60608152600b60608201526a10dbdc1e481b5a5b9d195960aa1b608082015260006020848184015260a0604084015260008454611380816110ff565b8060a087015260c06001808416600081146113a257600181146113bc576113ea565b60ff1985168984015283151560051b8901830195506113ea565b896000528660002060005b858110156113e25781548b82018601529083019088016113c7565b8a0184019650505b50939998505050505050505050565b60608152601c60608201527f436f6e74656e7420617661696c6162696c697479206368616e67656400000000608082015282602082015260a06040820152600061133c60a0830184610e9e56fea26469706673582212202a0eb7c5c2630a421cbc8880b9a67901a081c089115042de1264e02efead5f4864736f6c63430008140033",
  "linkReferences": {},
  "deployedLinkReferences": {}
}