{
  "_format": "hh-sol-artifact-1",
  "contractName": "ScientificContentNFT",
  "sourceName": "contracts/ScientificContentNFT.sol",
  "abi": [
    {
      "inputs": [
        {
          "internalType": "address",
          "name": "_contentRegistry",
          "type": "address"
        },
        {
          "internalType": "address",
          "name": "_vrfCoordinator",
          "type": "address"
        },
        {
          "internalType": "bytes32",
          "name": "_keyHash",
          "type": "bytes32"
        },
        {
          "internalType": "uint256",
          "name": "_subscriptionId",
          "type": "uint256"
        }
      ],
      "stateMutability": "nonpayable",
      "type": "constructor"
    },
    {
      "inputs": [
        {
          "internalType": "address",
          "name": "have",
          "type": "address"
        },
        {
          "internalType": "address",
          "name": "want",
          "type": "address"
        }
      ],
      "name": "OnlyCoordinatorCanFulfill",
      "type": "error"
    },
    {
      "inputs": [
        {
          "internalType": "address",
          "name": "have",
          "type": "address"
        },
        {
          "internalType": "address",
          "name": "owner",
          "type": "address"
        },
        {
          "internalType": "address",
          "name": "coordinator",
          "type": "address"
        }
      ],
      "name": "OnlyOwnerOrCoordinator",
      "type": "error"
    },
    {
      "inputs": [],
      "name": "ZeroAddress",
      "type": "error"
    },
    {
      "anonymous": false,
      "inputs": [
        {
          "indexed": true,
          "internalType": "address",
          "name": "owner",
          "type": "address"
        },
        {
          "indexed": true,
          "internalType": "address",
          "name": "approved",
          "type": "address"
        },
        {
          "indexed": true,
          "internalType": "uint256",
          "name": "tokenId",
          "type": "uint256"
        }
      ],
      "name": "Approval",
      "type": "event"
    },
    {
      "anonymous": false,
      "inputs": [
        {
          "indexed": true,
          "internalType": "address",
          "name": "owner",
          "type": "address"
        },
        {
          "indexed": true,
          "internalType": "address",
          "name": "operator",
          "type": "address"
        },
        {
          "indexed": false,
          "internalType": "bool",
          "name": "approved",
          "type": "bool"
        }
      ],
      "name": "ApprovalForAll",
      "type": "event"
    },
    {
      "anonymous": false,
      "inputs": [
        {
          "indexed": false,
          "internalType": "string",
          "name": "newBaseURI",
          "type": "string"
        }
      ],
      "name": "BaseURIUpdated",
      "type": "event"
    },
    {
      "anonymous": false,
      "inputs": [
        {
          "indexed": false,
          "internalType": "address",
          "name": "vrfCoordinator",
          "type": "address"
        }
      ],
      "name": "CoordinatorSet",
      "type": "event"
    },
    {
      "anonymous": false,
      "inputs": [
        {
          "indexed": true,
          "internalType": "address",
          "name": "minter",
          "type": "address"
        },
        {
          "indexed": true,
          "internalType": "uint256",
          "name": "contentId",
          "type": "uint256"
        }
      ],
      "name": "MintingFailed",
      "type": "event"
    },
    {
      "anonymous": false,
      "inputs": [
        {
          "indexed": true,
          "internalType": "uint256",
          "name": "tokenId",
          "type": "uint256"
        },
        {
          "indexed": true,
          "internalType": "uint256",
          "name": "contentId",
          "type": "uint256"
        },
        {
          "indexed": true,
          "internalType": "address",
          "name": "owner",
          "type": "address"
        },
        {
          "indexed": false,
          "internalType": "bool",
          "name": "isSpecial",
          "type": "bool"
        },
        {
          "indexed": false,
          "internalType": "uint256",
          "name": "copyNumber",
          "type": "uint256"
        },
        {
          "indexed": false,
          "internalType": "string",
          "name": "metadataURI",
          "type": "string"
        }
      ],
      "name": "NFTMinted",
      "type": "event"
    },
    {
      "anonymous": false,
      "inputs": [
        {
          "indexed": true,
          "internalType": "address",
          "name": "from",
          "type": "address"
        },
        {
          "indexed": true,
          "internalType": "address",
          "name": "to",
          "type": "address"
        }
      ],
      "name": "OwnershipTransferRequested",
      "type": "event"
    },
    {
      "anonymous": false,
      "inputs": [
        {
          "indexed": true,
          "internalType": "address",
          "name": "from",
          "type": "address"
        },
        {
          "indexed": true,
          "internalType": "address",
          "name": "to",
          "type": "address"
        }
      ],
      "name": "OwnershipTransferred",
      "type": "event"
    },
    {
      "anonymous": false,
      "inputs": [
        {
          "indexed": true,
          "internalType": "address",
          "name": "oldReceiver",
          "type": "address"
        },
        {
          "indexed": true,
          "internalType": "address",
          "name": "newReceiver",
          "type": "address"
        }
      ],
      "name": "ProtocolFeeReceiverUpdated",
      "type": "event"
    },
    {
      "anonymous": false,
      "inputs": [
        {
          "indexed": true,
          "internalType": "address",
          "name": "to",
          "type": "address"
        },
        {
          "indexed": false,
          "internalType": "uint256",
          "name": "amount",
          "type": "uint256"
        }
      ],
      "name": "ProtocolFeesWithdrawn",
      "type": "event"
    },
    {
      "anonymous": false,
      "inputs": [
        {
          "indexed": true,
          "internalType": "address",
          "name": "from",
          "type": "address"
        },
        {
          "indexed": true,
          "internalType": "address",
          "name": "to",
          "type": "address"
        },
        {
          "indexed": true,
          "internalType": "uint256",
          "name": "tokenId",
          "type": "uint256"
        }
      ],
      "name": "Transfer",
      "type": "event"
    },
    {
      "inputs": [],
      "name": "MINT_PRICE",
      "outputs": [
        {
          "internalType": "uint256",
          "name": "",
          "type": "uint256"
        }
      ],
      "stateMutability": "view",
      "type": "function"
    },
    {
      "inputs": [
        {
          "internalType": "address",
          "name": "minter",
          "type": "address"
        },
        {
          "internalType": "uint256",
          "name": "contentId",
          "type": "uint256"
        },
        {
          "internalType": "uint256",
          "name": "randomWord",
          "type": "uint256"
        },
        {
          "internalType": "string",
          "name": "nftMetadataURI",
          "type": "string"
        }
      ],
      "name": "_processMint",
      "outputs": [],
      "stateMutability": "nonpayable",
      "type": "function"
    },
    {
      "inputs": [],
      "name": "acceptOwnership",
      "outputs": [],
      "stateMutability": "nonpayable",
      "type": "function"
    },
    {
      "inputs": [
        {
          "internalType": "address",
          "name": "to",
          "type": "address"
        },
        {
          "internalType": "uint256",
          "name": "tokenId",
          "type": "uint256"
        }
      ],
      "name": "approve",
      "outputs": [],
      "stateMutability": "nonpayable",
      "type": "function"
    },
    {
      "inputs": [
        {
          "internalType": "address",
          "name": "owner",
          "type": "address"
        }
      ],
      "name": "balanceOf",
      "outputs": [
        {
          "internalType": "uint256",
          "name": "",
          "type": "uint256"
        }
      ],
      "stateMutability": "view",
      "type": "function"
    },
    {
      "inputs": [],
      "name": "contentRegistry",
      "outputs": [
        {
          "internalType": "contract ScientificContentRegistry",
          "name": "",
          "type": "address"
        }
      ],
      "stateMutability": "view",
      "type": "function"
    },
    {
      "inputs": [
        {
          "internalType": "uint256",
          "name": "tokenId",
          "type": "uint256"
        }
      ],
      "name": "getApproved",
      "outputs": [
        {
          "internalType": "address",
          "name": "",
          "type": "address"
        }
      ],
      "stateMutability": "view",
      "type": "function"
    },
    {
      "inputs": [],
      "name": "getContractBalance",
      "outputs": [
        {
          "internalType": "uint256",
          "name": "",
          "type": "uint256"
        }
      ],
      "stateMutability": "view",
      "type": "function"
    },
    {
      "inputs": [],
      "name": "getKeyHash",
      "outputs": [
        {
          "internalType": "bytes32",
          "name": "",
          "type": "bytes32"
        }
      ],
      "stateMutability": "view",
      "type": "function"
    },
    {
      "inputs": [
        {
          "internalType": "uint256",
          "name": "tokenId",
          "type": "uint256"
        }
      ],
      "name": "getNFTMetadata",
      "outputs": [
        {
          "components": [
            {
              "internalType": "uint256",
              "name": "contentId",
              "type": "uint256"
            },
            {
              "internalType": "address",
              "name": "author",
              "type": "address"
            },
            {
              "internalType": "uint256",
              "name": "randomSeed",
              "type": "uint256"
            },
            {
              "internalType": "bool",
              "name": "hasSpecialContent",
              "type": "bool"
            },
            {
              "internalType": "uint256",
              "name": "copyNumber",
              "type": "uint256"
            },
            {
              "internalType": "string",
              "name": "metadataURI",
              "type": "string"
            }
          ],
          "internalType": "struct ScientificContentNFT.NFTMetadata",
          "name": "",
          "type": "tuple"
        }
      ],
      "stateMutability": "view",
      "type": "function"
    },
    {
      "inputs": [],
      "name": "getSubscriptionId",
      "outputs": [
        {
          "internalType": "uint256",
          "name": "",
          "type": "uint256"
        }
      ],
      "stateMutability": "view",
      "type": "function"
    },
    {
      "inputs": [],
      "name": "getVRFConfig",
      "outputs": [
        {
          "internalType": "address",
          "name": "coordinator",
          "type": "address"
        },
        {
          "internalType": "bytes32",
          "name": "vrfKeyHash",
          "type": "bytes32"
        },
        {
          "internalType": "uint256",
          "name": "vrfSubscriptionId",
          "type": "uint256"
        }
      ],
      "stateMutability": "view",
      "type": "function"
    },
    {
      "inputs": [],
      "name": "getVRFCoordinator",
      "outputs": [
        {
          "internalType": "address",
          "name": "",
          "type": "address"
        }
      ],
      "stateMutability": "view",
      "type": "function"
    },
    {
      "inputs": [
        {
          "internalType": "address",
          "name": "owner",
          "type": "address"
        },
        {
          "internalType": "address",
          "name": "operator",
          "type": "address"
        }
      ],
      "name": "isApprovedForAll",
      "outputs": [
        {
          "internalType": "bool",
          "name": "",
          "type": "bool"
        }
      ],
      "stateMutability": "view",
      "type": "function"
    },
    {
      "inputs": [
        {
          "internalType": "uint256",
          "name": "contentId",
          "type": "uint256"
        },
        {
          "internalType": "string",
          "name": "nftMetadataURI",
          "type": "string"
        }
      ],
      "name": "mintNFT",
      "outputs": [],
      "stateMutability": "payable",
      "type": "function"
    },
    {
      "inputs": [],
      "name": "name",
      "outputs": [
        {
          "internalType": "string",
          "name": "",
          "type": "string"
        }
      ],
      "stateMutability": "view",
      "type": "function"
    },
    {
      "inputs": [],
      "name": "owner",
      "outputs": [
        {
          "internalType": "address",
          "name": "",
          "type": "address"
        }
      ],
      "stateMutability": "view",
      "type": "function"
    },
    {
      "inputs": [
        {
          "internalType": "uint256",
          "name": "tokenId",
          "type": "uint256"
        }
      ],
      "name": "ownerOf",
      "outputs": [
        {
          "internalType": "address",
          "name": "",
          "type": "address"
        }
      ],
      "stateMutability": "view",
      "type": "function"
    },
    {
      "inputs": [],
      "name": "protocolFeeReceiver",
      "outputs": [
        {
          "internalType": "address",
          "name": "",
          "type": "address"
        }
      ],
      "stateMutability": "view",
      "type": "function"
    },
    {
      "inputs": [
        {
          "internalType": "uint256",
          "name": "requestId",
          "type": "uint256"
        },
        {
          "internalType": "uint256[]",
          "name": "randomWords",
          "type": "uint256[]"
        }
      ],
      "name": "rawFulfillRandomWords",
      "outputs": [],
      "stateMutability": "nonpayable",
      "type": "function"
    },
    {
      "inputs": [],
      "name": "s_vrfCoordinator",
      "outputs": [
        {
          "internalType": "contract IVRFCoordinatorV2Plus",
          "name": "",
          "type": "address"
        }
      ],
      "stateMutability": "view",
      "type": "function"
    },
    {
      "inputs": [
        {
          "internalType": "address",
          "name": "from",
          "type": "address"
        },
        {
          "internalType": "address",
          "name": "to",
          "type": "address"
        },
        {
          "internalType": "uint256",
          "name": "tokenId",
          "type": "uint256"
        }
      ],
      "name": "safeTransferFrom",
      "outputs": [],
      "stateMutability": "nonpayable",
      "type": "function"
    },
    {
      "inputs": [
        {
          "internalType": "address",
          "name": "from",
          "type": "address"
        },
        {
          "internalType": "address",
          "name": "to",
          "type": "address"
        },
        {
          "internalType": "uint256",
          "name": "tokenId",
          "type": "uint256"
        },
        {
          "internalType": "bytes",
          "name": "data",
          "type": "bytes"
        }
      ],
      "name": "safeTransferFrom",
      "outputs": [],
      "stateMutability": "nonpayable",
      "type": "function"
    },
    {
      "inputs": [
        {
          "internalType": "address",
          "name": "operator",
          "type": "address"
        },
        {
          "internalType": "bool",
          "name": "approved",
          "type": "bool"
        }
      ],
      "name": "setApprovalForAll",
      "outputs": [],
      "stateMutability": "nonpayable",
      "type": "function"
    },
    {
      "inputs": [
        {
          "internalType": "string",
          "name": "newBaseURI",
          "type": "string"
        }
      ],
      "name": "setBaseURI",
      "outputs": [],
      "stateMutability": "nonpayable",
      "type": "function"
    },
    {
      "inputs": [
        {
          "internalType": "address",
          "name": "_vrfCoordinator",
          "type": "address"
        }
      ],
      "name": "setCoordinator",
      "outputs": [],
      "stateMutability": "nonpayable",
      "type": "function"
    },
    {
      "inputs": [
        {
          "internalType": "address",
          "name": "newReceiver",
          "type": "address"
        }
      ],
      "name": "setProtocolFeeReceiver",
      "outputs": [],
      "stateMutability": "nonpayable",
      "type": "function"
    },
    {
      "inputs": [
        {
          "internalType": "bytes4",
          "name": "interfaceId",
          "type": "bytes4"
        }
      ],
      "name": "supportsInterface",
      "outputs": [
        {
          "internalType": "bool",
          "name": "",
          "type": "bool"
        }
      ],
      "stateMutability": "view",
      "type": "function"
    },
    {
      "inputs": [],
      "name": "symbol",
      "outputs": [
        {
          "internalType": "string",
          "name": "",
          "type": "string"
        }
      ],
      "stateMutability": "view",
      "type": "function"
    },
    {
      "inputs": [
        {
          "internalType": "uint256",
          "name": "index",
          "type": "uint256"
        }
      ],
      "name": "tokenByIndex",
      "outputs": [
        {
          "internalType": "uint256",
          "name": "",
          "type": "uint256"
        }
      ],
      "stateMutability": "view",
      "type": "function"
    },
    {
      "inputs": [
        {
          "internalType": "address",
          "name": "owner",
          "type": "address"
        },
        {
          "internalType": "uint256",
          "name": "index",
          "type": "uint256"
        }
      ],
      "name": "tokenOfOwnerByIndex",
      "outputs": [
        {
          "internalType": "uint256",
          "name": "",
          "type": "uint256"
        }
      ],
      "stateMutability": "view",
      "type": "function"
    },
    {
      "inputs": [
        {
          "internalType": "uint256",
          "name": "tokenId",
          "type": "uint256"
        }
      ],
      "name": "tokenURI",
      "outputs": [
        {
          "internalType": "string",
          "name": "",
          "type": "string"
        }
      ],
      "stateMutability": "view",
      "type": "function"
    },
    {
      "inputs": [],
      "name": "totalSupply",
      "outputs": [
        {
          "internalType": "uint256",
          "name": "",
          "type": "uint256"
        }
      ],
      "stateMutability": "view",
      "type": "function"
    },
    {
      "inputs": [
        {
          "internalType": "address",
          "name": "from",
          "type": "address"
        },
        {
          "internalType": "address",
          "name": "to",
          "type": "address"
        },
        {
          "internalType": "uint256",
          "name": "tokenId",
          "type": "uint256"
        }
      ],
      "name": "transferFrom",
      "outputs": [],
      "stateMutability": "nonpayable",
      "type": "function"
    },
    {
      "inputs": [
        {
          "internalType": "address",
          "name": "to",
          "type": "address"
        }
      ],
      "name": "transferOwnership",
      "outputs": [],
      "stateMutability": "nonpayable",
      "type": "function"
    },
    {
      "inputs": [],
      "name": "withdrawProtocolFees",
      "outputs": [],
      "stateMutability": "nonpayable",
      "type": "function"
    }
  ],
  "bytecode": "0x6101006040523480156200001257600080fd5b5060405162003ce238038062003ce28339810160408190526200003591620003c3565b82338060006040518060400160405280601681526020017f446e4120536369656e746966696320436f6e74656e740000000000000000000081525060405180604001604052806006815260200165444e4153434960d01b8152508160009081620000a09190620004b0565b506001620000af8282620004b0565b5050506001600160a01b0382166200010e5760405162461bcd60e51b815260206004820152601860248201527f43616e6e6f7420736574206f776e657220746f207a65726f000000000000000060448201526064015b60405180910390fd5b600a80546001600160a01b0319166001600160a01b038481169190911790915581161562000141576200014181620002fa565b5050506001600160a01b0381166200016c5760405163d92e233d60e01b815260040160405180910390fd5b600c80546001600160a01b0319166001600160a01b039283161790558416620001d85760405162461bcd60e51b815260206004820152601860248201527f496e76616c696420726567697374727920616464726573730000000000000000604482015260640162000105565b6001600160a01b038316620002305760405162461bcd60e51b815260206004820152601760248201527f496e76616c69642056524620636f6f7264696e61746f72000000000000000000604482015260640162000105565b81620002725760405162461bcd60e51b815260206004820152601060248201526f092dcecc2d8d2c840d6caf240d0c2e6d60831b604482015260640162000105565b80600003620002c45760405162461bcd60e51b815260206004820152601760248201527f496e76616c696420737562736372697074696f6e204944000000000000000000604482015260640162000105565b600d80546001600160a01b031916331790556001600160a01b0393841660e0529190921660805260a09190915260c0526200057c565b336001600160a01b03821603620003545760405162461bcd60e51b815260206004820152601760248201527f43616e6e6f74207472616e7366657220746f2073656c66000000000000000000604482015260640162000105565b600b80546001600160a01b0319166001600160a01b03838116918217909255600a54604051919216907fed8889f560326eb138920d842192f0eb3dd22b4f139c87a2c57538e05bae127890600090a350565b80516001600160a01b0381168114620003be57600080fd5b919050565b60008060008060808587031215620003da57600080fd5b620003e585620003a6565b9350620003f560208601620003a6565b6040860151606090960151949790965092505050565b634e487b7160e01b600052604160045260246000fd5b600181811c908216806200043657607f821691505b6020821081036200045757634e487b7160e01b600052602260045260246000fd5b50919050565b601f821115620004ab57600081815260208120601f850160051c81016020861015620004865750805b601f850160051c820191505b81811015620004a75782815560010162000492565b5050505b505050565b81516001600160401b03811115620004cc57620004cc6200040b565b620004e481620004dd845462000421565b846200045d565b602080601f8311600181146200051c5760008415620005035750858301515b600019600386901b1c1916600185901b178555620004a7565b600085815260208120601f198616915b828110156200054d578886015182559484019460019091019084016200052c565b50858210156200056c5787850151600019600388901b60f8161c191681555b5050505050600190811b01905550565b60805160a05160c05160e0516136df6200060360003960008181610369015281816109f501528181610b5b01528181610d0401528181611ead0152611f360152600081816105e0015281816106eb0152610e420152600081816103ba015281816105ba0152610e1f0152600081816105960152818161065d0152610ebb01526136df6000f3fe60806040526004361061020f5760003560e01c80636be9a6f1116101185780639eccacf6116100a0578063c002d23d1161006f578063c002d23d146106a1578063c87b56dd146106bc578063de3d9fb7146106dc578063e985e9c51461070f578063f2fde38b1461075857600080fd5b80639eccacf61461060e578063a22cb4651461062e578063a378f3711461064e578063b88d4fde1461068157600080fd5b80638795cccb116100e75780638795cccb146105135780638da5cb5b146105285780638ea981171461054657806395d89b41146105665780639a5ea6a01461057b57600080fd5b80636be9a6f11461049e5780636f9fb98a146104cb57806370a08231146104de57806379ba5097146104fe57600080fd5b806327a4f2bb1161019b57806342842e0e1161016a57806342842e0e146103fe57806346877b1a1461041e5780634f6ccce71461043e57806355f804b31461045e5780636352211e1461047e57600080fd5b806327a4f2bb146103575780632f745c591461038b578063331bf125146103ab57806339a51be5146103de57600080fd5b80630e7e8148116101e25780630e7e8148146102c557806318160ddd146102e55780631a0c8fa0146103045780631fe543e31461031757806323b872dd1461033757600080fd5b806301ffc9a71461021457806306fdde0314610249578063081812fc1461026b578063095ea7b3146102a3575b600080fd5b34801561022057600080fd5b5061023461022f366004612c10565b610778565b60405190151581526020015b60405180910390f35b34801561025557600080fd5b5061025e6107a3565b6040516102409190612c84565b34801561027757600080fd5b5061028b610286366004612c97565b610835565b6040516001600160a01b039091168152602001610240565b3480156102af57600080fd5b506102c36102be366004612cc5565b61085c565b005b3480156102d157600080fd5b506102c36102e0366004612de8565b610976565b3480156102f157600080fd5b506008545b604051908152602001610240565b6102c3610312366004612e4b565b610c32565b34801561032357600080fd5b506102c3610332366004612e92565b610fec565b34801561034357600080fd5b506102c3610352366004612f11565b611037565b34801561036357600080fd5b5061028b7f000000000000000000000000000000000000000000000000000000000000000081565b34801561039757600080fd5b506102f66103a6366004612cc5565b611068565b3480156103b757600080fd5b507f00000000000000000000000000000000000000000000000000000000000000006102f6565b3480156103ea57600080fd5b50600d5461028b906001600160a01b031681565b34801561040a57600080fd5b506102c3610419366004612f11565b6110fe565b34801561042a57600080fd5b506102c3610439366004612f52565b611119565b34801561044a57600080fd5b506102f6610459366004612c97565b6111d5565b34801561046a57600080fd5b506102c3610479366004612f6f565b611268565b34801561048a57600080fd5b5061028b610499366004612c97565b6112b7565b3480156104aa57600080fd5b506104be6104b9366004612c97565b611317565b6040516102409190612fa4565b3480156104d757600080fd5b50476102f6565b3480156104ea57600080fd5b506102f66104f9366004612f52565b6114af565b34801561050a57600080fd5b506102c3611535565b34801561051f57600080fd5b506102c36115e3565b34801561053457600080fd5b50600a546001600160a01b031661028b565b34801561055257600080fd5b506102c3610561366004612f52565b611718565b34801561057257600080fd5b5061025e611804565b34801561058757600080fd5b50604080516001600160a01b037f00000000000000000000000000000000000000000000000000000000000000001681527f000000000000000000000000000000000000000000000000000000000000000060208201527f000000000000000000000000000000000000000000000000000000000000000091810191909152606001610240565b34801561061a57600080fd5b50600c5461028b906001600160a01b031681565b34801561063a57600080fd5b506102c3610649366004613009565b611813565b34801561065a57600080fd5b507f000000000000000000000000000000000000000000000000000000000000000061028b565b34801561068d57600080fd5b506102c361069c366004613042565b611822565b3480156106ad57600080fd5b506102f66611c37937e0800081565b3480156106c857600080fd5b5061025e6106d7366004612c97565b61185a565b3480156106e857600080fd5b507f00000000000000000000000000000000000000000000000000000000000000006102f6565b34801561071b57600080fd5b5061023461072a3660046130b6565b6001600160a01b03918216600090815260056020908152604080832093909416825291909152205460ff1690565b34801561076457600080fd5b506102c3610773366004612f52565b611a3e565b60006001600160e01b0319821663780e9d6360e01b148061079d575061079d82611a52565b92915050565b6060600080546107b2906130e4565b80601f01602080910402602001604051908101604052809291908181526020018280546107de906130e4565b801561082b5780601f106108005761010080835404028352916020019161082b565b820191906000526020600020905b81548152906001019060200180831161080e57829003601f168201915b5050505050905090565b600061084082611aa2565b506000908152600460205260409020546001600160a01b031690565b6000610867826112b7565b9050806001600160a01b0316836001600160a01b0316036108d95760405162461bcd60e51b815260206004820152602160248201527f4552433732313a20617070726f76616c20746f2063757272656e74206f776e656044820152603960f91b60648201526084015b60405180910390fd5b336001600160a01b03821614806108f557506108f5813361072a565b6109675760405162461bcd60e51b815260206004820152603d60248201527f4552433732313a20617070726f76652063616c6c6572206973206e6f7420746f60448201527f6b656e206f776e6572206f7220617070726f76656420666f7220616c6c00000060648201526084016108d0565b6109718383611b01565b505050565b3330146109ba5760405162461bcd60e51b8152602060048201526012602482015271496e7465726e616c2063616c6c206f6e6c7960701b60448201526064016108d0565b60006109c560085490565b6109d0906001613134565b90506109dc8582611b6f565b6040516302deb55360e21b8152600481018590526000907f00000000000000000000000000000000000000000000000000000000000000006001600160a01b031690630b7ad54c90602401600060405180830381865afa158015610a44573d6000803e3d6000fd5b505050506040513d6000823e601f3d908101601f19168201604052610a6c91908101906131a7565b90506000610a7b600a866132ce565b60001490506040518060c0016040528087815260200183604001516001600160a01b0316815260200186815260200182151581526020018360e001516001610ac39190613134565b815260209081018690526000858152600f825260409081902083518155918301516001830180546001600160a01b0319166001600160a01b039092169190911790558201516002820155606082015160038201805460ff19169115159190911790556080820151600482015560a08201516005820190610b439082613328565b505060405163b4a5c7cf60e01b8152600481018890527f00000000000000000000000000000000000000000000000000000000000000006001600160a01b0316915063b4a5c7cf906024016020604051808303816000875af1158015610bad573d6000803e3d6000fd5b505050506040513d601f19601f82011682018060405250810190610bd191906133e8565b50866001600160a01b031686847fc49622928e6a9619f1efac0300b9a868d077db41c42a37ce78d7774b341e6f79848660e001516001610c119190613134565b89604051610c2193929190613405565b60405180910390a450505050505050565b6611c37937e08000341015610c9a5760405162461bcd60e51b815260206004820152602860248201527f496e73756666696369656e74207061796d656e742c207265717569726564203060448201526705c60606a408aa8960c31b60648201526084016108d0565b6000815111610ceb5760405162461bcd60e51b815260206004820152601c60248201527f4d65746164617461205552492063616e6e6f7420626520656d7074790000000060448201526064016108d0565b6040516302deb55360e21b8152600481018390526000907f00000000000000000000000000000000000000000000000000000000000000006001600160a01b031690630b7ad54c90602401600060405180830381865afa158015610d53573d6000803e3d6000fd5b505050506040513d6000823e601f3d908101601f19168201604052610d7b91908101906131a7565b90508060800151610dc65760405162461bcd60e51b8152602060048201526015602482015274436f6e74656e74206e6f7420617661696c61626c6560581b60448201526064016108d0565b8060c001518160e0015110610e135760405162461bcd60e51b81526020600482015260136024820152724e6f20636f7069657320617661696c61626c6560681b60448201526064016108d0565b6040805160c0810182527f000000000000000000000000000000000000000000000000000000000000000081527f0000000000000000000000000000000000000000000000000000000000000000602080830191909152600382840152620aae60606083015260016080830152825190810190925260008083529160a0820190610e9c90611b89565b9052604051634d8e1c2f60e11b81529091506000906001600160a01b037f00000000000000000000000000000000000000000000000000000000000000001690639b1c385e90610ef090859060040161342f565b6020604051808303816000875af1158015610f0f573d6000803e3d6000fd5b505050506040513d601f19601f82011682018060405250810190610f33919061348c565b6040805160608101825233815260208082018981528284018981526000868152601090935293909120825181546001600160a01b0319166001600160a01b03909116178155905160018201559151929350916002820190610f949082613328565b5050506611c37937e08000341115610fe557336108fc610fbb6611c37937e08000346134a5565b6040518115909202916000818181858888f19350505050158015610fe3573d6000803e3d6000fd5b505b5050505050565b600c546001600160a01b0316331461102c57600c5460405163073e64fd60e21b81523360048201526001600160a01b0390911660248201526044016108d0565b610971838383611bfa565b61104133826120b9565b61105d5760405162461bcd60e51b81526004016108d0906134b8565b610971838383612137565b6000611073836114af565b82106110d55760405162461bcd60e51b815260206004820152602b60248201527f455243373231456e756d657261626c653a206f776e657220696e646578206f7560448201526a74206f6620626f756e647360a81b60648201526084016108d0565b506001600160a01b03919091166000908152600660209081526040808320938352929052205490565b61097183838360405180602001604052806000815250611822565b6111216122a8565b6001600160a01b0381166111835760405162461bcd60e51b815260206004820152602360248201527f4e65772072656365697665722063616e6e6f74206265207a65726f206164647260448201526265737360e81b60648201526084016108d0565b600d80546001600160a01b038381166001600160a01b0319831681179093556040519116919082907ffb5b90d81126d568c8bdaa0398ba8a708fd01e26c7891e91fa88e96051985ce390600090a35050565b60006111e060085490565b82106112435760405162461bcd60e51b815260206004820152602c60248201527f455243373231456e756d657261626c653a20676c6f62616c20696e646578206f60448201526b7574206f6620626f756e647360a01b60648201526084016108d0565b6008828154811061125657611256613505565b90600052602060002001549050919050565b6112706122a8565b600e61127c8282613328565b507f6741b2fc379fad678116fe3d4d4b9a1a184ab53ba36b86ad0fa66340b1ab41ad816040516112ac9190612c84565b60405180910390a150565b6000818152600260205260408120546001600160a01b03168061079d5760405162461bcd60e51b8152602060048201526018602482015277115490cdcc8c4e881a5b9d985b1a59081d1bdad95b88125160421b60448201526064016108d0565b61135b6040518060c001604052806000815260200160006001600160a01b031681526020016000815260200160001515815260200160008152602001606081525090565b6000828152600260205260409020546001600160a01b03166113b65760405162461bcd60e51b8152602060048201526014602482015273151bdad95b88191bd95cc81b9bdd08195e1a5cdd60621b60448201526064016108d0565b6000828152600f6020908152604091829020825160c0810184528154815260018201546001600160a01b031692810192909252600281015492820192909252600382015460ff16151560608201526004820154608082015260058201805491929160a084019190611426906130e4565b80601f0160208091040260200160405190810160405280929190818152602001828054611452906130e4565b801561149f5780601f106114745761010080835404028352916020019161149f565b820191906000526020600020905b81548152906001019060200180831161148257829003601f168201915b5050505050815250509050919050565b60006001600160a01b0382166115195760405162461bcd60e51b815260206004820152602960248201527f4552433732313a2061646472657373207a65726f206973206e6f7420612076616044820152683634b21037bbb732b960b91b60648201526084016108d0565b506001600160a01b031660009081526003602052604090205490565b600b546001600160a01b031633146115885760405162461bcd60e51b815260206004820152601660248201527526bab9ba10313290383937b837b9b2b21037bbb732b960511b60448201526064016108d0565b600a80546001600160a01b031980821633908117909355600b805490911690556040516001600160a01b03909116919082907f8be0079c531659141344cd1fd0a4f28419497f9722a3daafe3b4186f6b6457e090600090a350565b6115eb6122a8565b478061162f5760405162461bcd60e51b81526020600482015260136024820152724e6f206665657320746f20776974686472617760681b60448201526064016108d0565b600d546040516000916001600160a01b03169083908381818185875af1925050503d806000811461167c576040519150601f19603f3d011682016040523d82523d6000602084013e611681565b606091505b50509050806116d25760405162461bcd60e51b815260206004820152601760248201527f4661696c656420746f207769746864726177206665657300000000000000000060448201526064016108d0565b600d546040518381526001600160a01b03909116907fa087657e3d85162090ffd700fbfdf5070d816f63aa5da00063f6ffd369c8a6db9060200160405180910390a25050565b600a546001600160a01b0316331480159061173e5750600c546001600160a01b03163314155b1561178f5733611756600a546001600160a01b031690565b600c5460405163061db9c160e01b81526001600160a01b03938416600482015291831660248301529190911660448201526064016108d0565b6001600160a01b0381166117b65760405163d92e233d60e01b815260040160405180910390fd5b600c80546001600160a01b0319166001600160a01b0383169081179091556040519081527fd1a6a14209a385a964d036e404cb5cfb71f4000cdb03c9366292430787261be6906020016112ac565b6060600180546107b2906130e4565b61181e3383836122fd565b5050565b61182c33836120b9565b6118485760405162461bcd60e51b81526004016108d0906134b8565b611854848484846123cb565b50505050565b6000818152600260205260409020546060906001600160a01b03166118d95760405162461bcd60e51b815260206004820152602f60248201527f4552433732314d657461646174613a2055524920717565727920666f72206e6f60448201526e3732bc34b9ba32b73a103a37b5b2b760891b60648201526084016108d0565b6000828152600f60209081526040808320815160c0810183528154815260018201546001600160a01b031693810193909352600281015491830191909152600381015460ff16151560608301526004810154608083015260058101805460a084019190611945906130e4565b80601f0160208091040260200160405190810160405280929190818152602001828054611971906130e4565b80156119be5780601f10611993576101008083540402835291602001916119be565b820191906000526020600020905b8154815290600101906020018083116119a157829003601f168201915b505050505081525050905060008160a001515111156119e15760a0015192915050565b60006119eb6123fe565b90506000815111611a0b5760405180602001604052806000815250611a36565b80611a158561240d565b604051602001611a2692919061351b565b6040516020818303038152906040525b949350505050565b611a466122a8565b611a4f816124a0565b50565b60006001600160e01b031982166380ac58cd60e01b1480611a8357506001600160e01b03198216635b5e139f60e01b145b8061079d57506301ffc9a760e01b6001600160e01b031983161461079d565b6000818152600260205260409020546001600160a01b0316611a4f5760405162461bcd60e51b8152602060048201526018602482015277115490cdcc8c4e881a5b9d985b1a59081d1bdad95b88125160421b60448201526064016108d0565b600081815260046020526040902080546001600160a01b0319166001600160a01b0384169081179091558190611b36826112b7565b6001600160a01b03167f8c5be1e5ebec7d5bd14f71427d1e84f3dd0314c0f7b2291e5b200ac8c7c3b92560405160405180910390a45050565b61181e82826040518060200160405280600081525061254a565b60607f92fd13387c7fe7befbc38d303d6468778fb9731bc4583f17d92989c6fcfdeaaa82604051602401611bc291511515815260200190565b60408051601f198184030181529190526020810180516001600160e01b03166001600160e01b03199093169290921790915292915050565b6000838152601060209081526040808320815160608101835281546001600160a01b031681526001820154938101939093526002810180549192840191611c40906130e4565b80601f0160208091040260200160405190810160405280929190818152602001828054611c6c906130e4565b8015611cb95780601f10611c8e57610100808354040283529160200191611cb9565b820191906000526020600020905b815481529060010190602001808311611c9c57829003601f168201915b5050509190925250508151919250506001600160a01b0316611d1d5760405162461bcd60e51b815260206004820152601e60248201527f50656e64696e67206d696e742072657175657374206e6f7420666f756e64000060448201526064016108d0565b805160208201513091630e7e8148918686600081611d3d57611d3d613505565b9050602002013585604001516040518563ffffffff1660e01b8152600401611d68949392919061354a565b600060405180830381600087803b158015611d8257600080fd5b505af1925050508015611d93575060015b611f1757602081015181516040516001600160a01b03909116907feb7135cf2879bb75a60e7351488f1fee4b4e211ed60de7520d8fad88e29bd81990600090a380516040516000916001600160a01b0316906611c37937e08000908381818185875af1925050503d8060008114611e26576040519150601f19603f3d011682016040523d82523d6000602084013e611e2b565b606091505b5050905080611e8a5760405162461bcd60e51b815260206004820152602560248201527f4661696c656420746f20726566756e642075736572206f6e206d696e74206661604482015264696c75726560d81b60648201526084016108d0565b60208201516040516376a6102f60e11b81526004810191909152600160248201527f00000000000000000000000000000000000000000000000000000000000000006001600160a01b03169063ed4c205e90604401600060405180830381600087803b158015611ef957600080fd5b505af1158015611f0d573d6000803e3d6000fd5b5050505050612088565b60208101516040516302deb55360e21b81526000916001600160a01b037f00000000000000000000000000000000000000000000000000000000000000001691630b7ad54c91611f6d9160040190815260200190565b600060405180830381865afa158015611f8a573d6000803e3d6000fd5b505050506040513d6000823e601f3d908101601f19168201604052611fb291908101906131a7565b905060006064611fca60036611c37937e08000613581565b611fd49190613598565b9050801561208557600082604001516001600160a01b03168260405160006040518083038185875af1925050503d806000811461202d576040519150601f19603f3d011682016040523d82523d6000602084013e612032565b606091505b50509050806120835760405162461bcd60e51b815260206004820181905260248201527f4661696c656420746f2073656e6420726f79616c747920746f20617574686f7260448201526064016108d0565b505b50505b600084815260106020526040812080546001600160a01b03191681556001810182905590610fe36002830182612bac565b6000806120c5836112b7565b9050806001600160a01b0316846001600160a01b0316148061210c57506001600160a01b0380821660009081526005602090815260408083209388168352929052205460ff165b80611a365750836001600160a01b031661212584610835565b6001600160a01b031614949350505050565b826001600160a01b031661214a826112b7565b6001600160a01b0316146121705760405162461bcd60e51b81526004016108d0906135ac565b6001600160a01b0382166121d25760405162461bcd60e51b8152602060048201526024808201527f4552433732313a207472616e7366657220746f20746865207a65726f206164646044820152637265737360e01b60648201526084016108d0565b6121df838383600161257d565b826001600160a01b03166121f2826112b7565b6001600160a01b0316146122185760405162461bcd60e51b81526004016108d0906135ac565b600081815260046020908152604080832080546001600160a01b03199081169091556001600160a01b0387811680865260038552838620805460001901905590871680865283862080546001019055868652600290945282852080549092168417909155905184937fddf252ad1be2c89b69c2b068fc378daa952ba7f163c4a11628f55a4df523b3ef91a4505050565b600a546001600160a01b031633146122fb5760405162461bcd60e51b815260206004820152601660248201527527b7363c9031b0b63630b1363290313c9037bbb732b960511b60448201526064016108d0565b565b816001600160a01b0316836001600160a01b03160361235e5760405162461bcd60e51b815260206004820152601960248201527f4552433732313a20617070726f766520746f2063616c6c65720000000000000060448201526064016108d0565b6001600160a01b03838116600081815260056020908152604080832094871680845294825291829020805460ff191686151590811790915591519182527f17307eab39ab6107e8899845ad3d59bd9653f200f220920489ca2b5937696c31910160405180910390a3505050565b6123d6848484612137565b6123e2848484846126aa565b6118545760405162461bcd60e51b81526004016108d0906135f1565b6060600e80546107b2906130e4565b6060600061241a836127ab565b600101905060008167ffffffffffffffff81111561243a5761243a612cf1565b6040519080825280601f01601f191660200182016040528015612464576020820181803683370190505b5090508181016020015b600019016f181899199a1a9b1b9c1cb0b131b232b360811b600a86061a8153600a850494508461246e57509392505050565b336001600160a01b038216036124f85760405162461bcd60e51b815260206004820152601760248201527f43616e6e6f74207472616e7366657220746f2073656c6600000000000000000060448201526064016108d0565b600b80546001600160a01b0319166001600160a01b03838116918217909255600a54604051919216907fed8889f560326eb138920d842192f0eb3dd22b4f139c87a2c57538e05bae127890600090a350565b6125548383612883565b61256160008484846126aa565b6109715760405162461bcd60e51b81526004016108d0906135f1565b60018111156125ec5760405162461bcd60e51b815260206004820152603560248201527f455243373231456e756d657261626c653a20636f6e7365637574697665207472604482015274185b9cd9995c9cc81b9bdd081cdd5c1c1bdc9d1959605a1b60648201526084016108d0565b816001600160a01b0385166126485761264381600880546000838152600960205260408120829055600182018355919091527ff3f7a9fe364faab93b216da50a3214154f22a0a2b415b23a84c8169e8b636ee30155565b61266b565b836001600160a01b0316856001600160a01b03161461266b5761266b8582612a1c565b6001600160a01b0384166126875761268281612ab9565b610fe5565b846001600160a01b0316846001600160a01b031614610fe557610fe58482612b68565b60006001600160a01b0384163b156127a057604051630a85bd0160e11b81526001600160a01b0385169063150b7a02906126ee903390899088908890600401613643565b6020604051808303816000875af1925050508015612729575060408051601f3d908101601f1916820190925261272691810190613676565b60015b612786573d808015612757576040519150601f19603f3d011682016040523d82523d6000602084013e61275c565b606091505b50805160000361277e5760405162461bcd60e51b81526004016108d0906135f1565b805181602001fd5b6001600160e01b031916630a85bd0160e11b149050611a36565b506001949350505050565b60008072184f03e93ff9f4daa797ed6e38ed64bf6a1f0160401b83106127ea5772184f03e93ff9f4daa797ed6e38ed64bf6a1f0160401b830492506040015b6d04ee2d6d415b85acef81000000008310612816576d04ee2d6d415b85acef8100000000830492506020015b662386f26fc10000831061283457662386f26fc10000830492506010015b6305f5e100831061284c576305f5e100830492506008015b612710831061286057612710830492506004015b60648310612872576064830492506002015b600a831061079d5760010192915050565b6001600160a01b0382166128d95760405162461bcd60e51b815260206004820181905260248201527f4552433732313a206d696e7420746f20746865207a65726f206164647265737360448201526064016108d0565b6000818152600260205260409020546001600160a01b03161561293e5760405162461bcd60e51b815260206004820152601c60248201527f4552433732313a20746f6b656e20616c7265616479206d696e7465640000000060448201526064016108d0565b61294c60008383600161257d565b6000818152600260205260409020546001600160a01b0316156129b15760405162461bcd60e51b815260206004820152601c60248201527f4552433732313a20746f6b656e20616c7265616479206d696e7465640000000060448201526064016108d0565b6001600160a01b038216600081815260036020908152604080832080546001019055848352600290915280822080546001600160a01b0319168417905551839291907fddf252ad1be2c89b69c2b068fc378daa952ba7f163c4a11628f55a4df523b3ef908290a45050565b60006001612a29846114af565b612a3391906134a5565b600083815260076020526040902054909150808214612a86576001600160a01b03841660009081526006602090815260408083208584528252808320548484528184208190558352600790915290208190555b5060009182526007602090815260408084208490556001600160a01b039094168352600681528383209183525290812055565b600854600090612acb906001906134a5565b60008381526009602052604081205460088054939450909284908110612af357612af3613505565b906000526020600020015490508060088381548110612b1457612b14613505565b6000918252602080832090910192909255828152600990915260408082208490558582528120556008805480612b4c57612b4c613693565b6001900381819060005260206000200160009055905550505050565b6000612b73836114af565b6001600160a01b039093166000908152600660209081526040808320868452825280832085905593825260079052919091209190915550565b508054612bb8906130e4565b6000825580601f10612bc8575050565b601f016020900490600052602060002090810190611a4f91905b80821115612bf65760008155600101612be2565b5090565b6001600160e01b031981168114611a4f57600080fd5b600060208284031215612c2257600080fd5b8135612c2d81612bfa565b9392505050565b60005b83811015612c4f578181015183820152602001612c37565b50506000910152565b60008151808452612c70816020860160208601612c34565b601f01601f19169290920160200192915050565b602081526000612c2d6020830184612c58565b600060208284031215612ca957600080fd5b5035919050565b6001600160a01b0381168114611a4f57600080fd5b60008060408385031215612cd857600080fd5b8235612ce381612cb0565b946020939093013593505050565b634e487b7160e01b600052604160045260246000fd5b604051610140810167ffffffffffffffff81118282101715612d2b57612d2b612cf1565b60405290565b604051601f8201601f1916810167ffffffffffffffff81118282101715612d5a57612d5a612cf1565b604052919050565b600067ffffffffffffffff821115612d7c57612d7c612cf1565b50601f01601f191660200190565b6000612d9d612d9884612d62565b612d31565b9050828152838383011115612db157600080fd5b828260208301376000602084830101529392505050565b600082601f830112612dd957600080fd5b612c2d83833560208501612d8a565b60008060008060808587031215612dfe57600080fd5b8435612e0981612cb0565b93506020850135925060408501359150606085013567ffffffffffffffff811115612e3357600080fd5b612e3f87828801612dc8565b91505092959194509250565b60008060408385031215612e5e57600080fd5b82359150602083013567ffffffffffffffff811115612e7c57600080fd5b612e8885828601612dc8565b9150509250929050565b600080600060408486031215612ea757600080fd5b83359250602084013567ffffffffffffffff80821115612ec657600080fd5b818601915086601f830112612eda57600080fd5b813581811115612ee957600080fd5b8760208260051b8501011115612efe57600080fd5b6020830194508093505050509250925092565b600080600060608486031215612f2657600080fd5b8335612f3181612cb0565b92506020840135612f4181612cb0565b929592945050506040919091013590565b600060208284031215612f6457600080fd5b8135612c2d81612cb0565b600060208284031215612f8157600080fd5b813567ffffffffffffffff811115612f9857600080fd5b611a3684828501612dc8565b602081528151602082015260018060a01b03602083015116604082015260408201516060820152606082015115156080820152608082015160a0820152600060a083015160c080840152611a3660e0840182612c58565b8015158114611a4f57600080fd5b6000806040838503121561301c57600080fd5b823561302781612cb0565b9150602083013561303781612ffb565b809150509250929050565b6000806000806080858703121561305857600080fd5b843561306381612cb0565b9350602085013561307381612cb0565b925060408501359150606085013567ffffffffffffffff81111561309657600080fd5b8501601f810187136130a757600080fd5b612e3f87823560208401612d8a565b600080604083850312156130c957600080fd5b82356130d481612cb0565b9150602083013561303781612cb0565b600181811c908216806130f857607f821691505b60208210810361311857634e487b7160e01b600052602260045260246000fd5b50919050565b634e487b7160e01b600052601160045260246000fd5b8082018082111561079d5761079d61311e565b600082601f83011261315857600080fd5b8151613166612d9882612d62565b81815284602083860101111561317b57600080fd5b611a36826020830160208701612c34565b805161319781612cb0565b919050565b805161319781612ffb565b6000602082840312156131b957600080fd5b815167ffffffffffffffff808211156131d157600080fd5b9083019061014082860312156131e657600080fd5b6131ee612d07565b8251828111156131fd57600080fd5b61320987828601613147565b82525060208301518281111561321e57600080fd5b61322a87828601613147565b60208301525061323c6040840161318c565b6040820152606083015160608201526132576080840161319c565b608082015260a083015160a082015260c083015160c082015260e083015160e0820152610100808401518381111561328e57600080fd5b61329a88828701613147565b91830191909152506101209283015192810192909252509392505050565b634e487b7160e01b600052601260045260246000fd5b6000826132dd576132dd6132b8565b500690565b601f82111561097157600081815260208120601f850160051c810160208610156133095750805b601f850160051c820191505b81811015610fe357828155600101613315565b815167ffffffffffffffff81111561334257613342612cf1565b6133568161335084546130e4565b846132e2565b602080601f83116001811461338b57600084156133735750858301515b600019600386901b1c1916600185901b178555610fe3565b600085815260208120601f198616915b828110156133ba5788860151825594840194600190910190840161339b565b50858210156133d85787850151600019600388901b60f8161c191681555b5050505050600190811b01905550565b6000602082840312156133fa57600080fd5b8151612c2d81612ffb565b83151581528260208201526060604082015260006134266060830184612c58565b95945050505050565b60208152815160208201526020820151604082015261ffff60408301511660608201526000606083015163ffffffff80821660808501528060808601511660a0850152505060a083015160c080840152611a3660e0840182612c58565b60006020828403121561349e57600080fd5b5051919050565b8181038181111561079d5761079d61311e565b6020808252602d908201527f4552433732313a2063616c6c6572206973206e6f7420746f6b656e206f776e6560408201526c1c881bdc88185c1c1c9bdd9959609a1b606082015260800190565b634e487b7160e01b600052603260045260246000fd5b6000835161352d818460208801612c34565b835190830190613541818360208801612c34565b01949350505050565b60018060a01b03851681528360208201528260408201526080606082015260006135776080830184612c58565b9695505050505050565b808202811582820484141761079d5761079d61311e565b6000826135a7576135a76132b8565b500490565b60208082526025908201527f4552433732313a207472616e736665722066726f6d20696e636f72726563742060408201526437bbb732b960d91b606082015260800190565b60208082526032908201527f4552433732313a207472616e7366657220746f206e6f6e20455243373231526560408201527131b2b4bb32b91034b6b83632b6b2b73a32b960711b606082015260800190565b6001600160a01b038581168252841660208201526040810183905260806060820181905260009061357790830184612c58565b60006020828403121561368857600080fd5b8151612c2d81612bfa565b634e487b7160e01b600052603160045260246000fdfea26469706673582212208c0026ac7f802543cf617b1cabfeaa08534d9907912d72d3eaa22b3a554923ac64736f6c63430008140033",
  "linkReferences": {},
  "deployedLinkReferences": {}
}